{
  "address": "0x32F74a5C2D10e2C24f0E1fDB4C458403678CCc7b",
  "abi": [
    {
      "inputs": [
        {
          "internalType": "address",
          "name": "initialOwner",
          "type": "address"
        }
      ],
      "stateMutability": "nonpayable",
      "type": "constructor"
    },
    {
      "inputs": [],
      "name": "BidderAlreadyRegistered",
      "type": "error"
    },
    {
      "inputs": [],
      "name": "BidderNotRegistered",
      "type": "error"
    },
    {
      "inputs": [],
      "name": "CallerNotAuthorized",
      "type": "error"
    },
    {
      "inputs": [
        {
          "internalType": "address",
          "name": "owner",
          "type": "address"
        }
      ],
      "name": "OwnableInvalidOwner",
      "type": "error"
    },
    {
      "inputs": [
        {
          "internalType": "address",
          "name": "account",
          "type": "address"
        }
      ],
      "name": "OwnableUnauthorizedAccount",
      "type": "error"
    },
    {
      "inputs": [],
      "name": "ZeroAddress",
      "type": "error"
    },
    {
      "anonymous": false,
      "inputs": [
        {
          "indexed": true,
          "internalType": "address",
          "name": "caller",
          "type": "address"
        }
      ],
      "name": "AuthorizedCallerAdded",
      "type": "event"
    },
    {
      "anonymous": false,
      "inputs": [
        {
          "indexed": true,
          "internalType": "address",
          "name": "caller",
          "type": "address"
        }
      ],
      "name": "AuthorizedCallerRemoved",
      "type": "event"
    },
    {
      "anonymous": false,
      "inputs": [
        {
          "indexed": true,
          "internalType": "address",
          "name": "bidder",
          "type": "address"
        }
      ],
      "name": "BidRecorded",
      "type": "event"
    },
    {
      "anonymous": false,
      "inputs": [
        {
          "indexed": true,
          "internalType": "address",
          "name": "bidder",
          "type": "address"
        }
      ],
      "name": "BidderRegistered",
      "type": "event"
    },
    {
      "anonymous": false,
      "inputs": [
        {
          "indexed": true,
          "internalType": "address",
          "name": "bidder",
          "type": "address"
        }
      ],
      "name": "BidderRemoved",
      "type": "event"
    },
    {
      "anonymous": false,
      "inputs": [
        {
          "indexed": true,
          "internalType": "address",
          "name": "bidder",
          "type": "address"
        }
      ],
      "name": "CompletionRecorded",
      "type": "event"
    },
    {
      "anonymous": false,
      "inputs": [
        {
          "indexed": true,
          "internalType": "address",
          "name": "previousOwner",
          "type": "address"
        },
        {
          "indexed": true,
          "internalType": "address",
          "name": "newOwner",
          "type": "address"
        }
      ],
      "name": "OwnershipTransferStarted",
      "type": "event"
    },
    {
      "anonymous": false,
      "inputs": [
        {
          "indexed": true,
          "internalType": "address",
          "name": "previousOwner",
          "type": "address"
        },
        {
          "indexed": true,
          "internalType": "address",
          "name": "newOwner",
          "type": "address"
        }
      ],
      "name": "OwnershipTransferred",
      "type": "event"
    },
    {
      "anonymous": false,
      "inputs": [
        {
          "indexed": true,
          "internalType": "address",
          "name": "bidder",
          "type": "address"
        }
      ],
      "name": "SlashRecorded",
      "type": "event"
    },
    {
      "anonymous": false,
      "inputs": [
        {
          "indexed": true,
          "internalType": "address",
          "name": "bidder",
          "type": "address"
        }
      ],
      "name": "WinRecorded",
      "type": "event"
    },
    {
      "inputs": [],
      "name": "acceptOwnership",
      "outputs": [],
      "stateMutability": "nonpayable",
      "type": "function"
    },
    {
      "inputs": [
        {
          "internalType": "address",
          "name": "caller",
          "type": "address"
        }
      ],
      "name": "addAuthorizedCaller",
      "outputs": [],
      "stateMutability": "nonpayable",
      "type": "function"
    },
    {
      "inputs": [
        {
          "internalType": "uint256",
          "name": "",
          "type": "uint256"
        }
      ],
      "name": "allBidders",
      "outputs": [
        {
          "internalType": "address",
          "name": "",
          "type": "address"
        }
      ],
      "stateMutability": "view",
      "type": "function"
    },
    {
      "inputs": [
        {
          "internalType": "address",
          "name": "",
          "type": "address"
        }
      ],
      "name": "authorizedCallers",
      "outputs": [
        {
          "internalType": "bool",
          "name": "",
          "type": "bool"
        }
      ],
      "stateMutability": "view",
      "type": "function"
    },
    {
      "inputs": [],
      "name": "bidderCount",
      "outputs": [
        {
          "internalType": "uint256",
          "name": "",
          "type": "uint256"
        }
      ],
      "stateMutability": "view",
      "type": "function"
    },
    {
      "inputs": [
        {
          "internalType": "address",
          "name": "bidder",
          "type": "address"
        }
      ],
      "name": "getProfile",
      "outputs": [
        {
          "components": [
            {
              "internalType": "bool",
              "name": "verified",
              "type": "bool"
            },
            {
              "internalType": "uint256",
              "name": "totalBids",
              "type": "uint256"
            },
            {
              "internalType": "uint256",
              "name": "totalWins",
              "type": "uint256"
            },
            {
              "internalType": "uint256",
              "name": "totalSlashes",
              "type": "uint256"
            },
            {
              "internalType": "uint256",
              "name": "completedOnTime",
              "type": "uint256"
            },
            {
              "internalType": "uint256",
              "name": "registeredAt",
              "type": "uint256"
            }
          ],
          "internalType": "struct BidderRegistry.BidderProfile",
          "name": "",
          "type": "tuple"
        }
      ],
      "stateMutability": "view",
      "type": "function"
    },
    {
      "inputs": [
        {
          "internalType": "address",
          "name": "bidder",
          "type": "address"
        }
      ],
      "name": "getReputationScore",
      "outputs": [
        {
          "internalType": "uint256",
          "name": "",
          "type": "uint256"
        }
      ],
      "stateMutability": "view",
      "type": "function"
    },
    {
      "inputs": [
        {
          "internalType": "address",
          "name": "bidder",
          "type": "address"
        }
      ],
      "name": "isVerified",
      "outputs": [
        {
          "internalType": "bool",
          "name": "",
          "type": "bool"
        }
      ],
      "stateMutability": "view",
      "type": "function"
    },
    {
      "inputs": [],
      "name": "owner",
      "outputs": [
        {
          "internalType": "address",
          "name": "",
          "type": "address"
        }
      ],
      "stateMutability": "view",
      "type": "function"
    },
    {
      "inputs": [],
      "name": "pendingOwner",
      "outputs": [
        {
          "internalType": "address",
          "name": "",
          "type": "address"
        }
      ],
      "stateMutability": "view",
      "type": "function"
    },
    {
      "inputs": [
        {
          "internalType": "address",
          "name": "",
          "type": "address"
        }
      ],
      "name": "profiles",
      "outputs": [
        {
          "internalType": "bool",
          "name": "verified",
          "type": "bool"
        },
        {
          "internalType": "uint256",
          "name": "totalBids",
          "type": "uint256"
        },
        {
          "internalType": "uint256",
          "name": "totalWins",
          "type": "uint256"
        },
        {
          "internalType": "uint256",
          "name": "totalSlashes",
          "type": "uint256"
        },
        {
          "internalType": "uint256",
          "name": "completedOnTime",
          "type": "uint256"
        },
        {
          "internalType": "uint256",
          "name": "registeredAt",
          "type": "uint256"
        }
      ],
      "stateMutability": "view",
      "type": "function"
    },
    {
      "inputs": [
        {
          "internalType": "address",
          "name": "bidder",
          "type": "address"
        }
      ],
      "name": "recordBid",
      "outputs": [],
      "stateMutability": "nonpayable",
      "type": "function"
    },
    {
      "inputs": [
        {
          "internalType": "address",
          "name": "bidder",
          "type": "address"
        }
      ],
      "name": "recordCompletion",
      "outputs": [],
      "stateMutability": "nonpayable",
      "type": "function"
    },
    {
      "inputs": [
        {
          "internalType": "address",
          "name": "bidder",
          "type": "address"
        }
      ],
      "name": "recordSlash",
      "outputs": [],
      "stateMutability": "nonpayable",
      "type": "function"
    },
    {
      "inputs": [
        {
          "internalType": "address",
          "name": "bidder",
          "type": "address"
        }
      ],
      "name": "recordWin",
      "outputs": [],
      "stateMutability": "nonpayable",
      "type": "function"
    },
    {
      "inputs": [
        {
          "internalType": "address",
          "name": "bidder",
          "type": "address"
        }
      ],
      "name": "registerBidder",
      "outputs": [],
      "stateMutability": "nonpayable",
      "type": "function"
    },
    {
      "inputs": [
        {
          "internalType": "address",
          "name": "caller",
          "type": "address"
        }
      ],
      "name": "removeAuthorizedCaller",
      "outputs": [],
      "stateMutability": "nonpayable",
      "type": "function"
    },
    {
      "inputs": [
        {
          "internalType": "address",
          "name": "bidder",
          "type": "address"
        }
      ],
      "name": "removeBidder",
      "outputs": [],
      "stateMutability": "nonpayable",
      "type": "function"
    },
    {
      "inputs": [],
      "name": "renounceOwnership",
      "outputs": [],
      "stateMutability": "nonpayable",
      "type": "function"
    },
    {
      "inputs": [
        {
          "internalType": "address",
          "name": "newOwner",
          "type": "address"
        }
      ],
      "name": "transferOwnership",
      "outputs": [],
      "stateMutability": "nonpayable",
      "type": "function"
    }
  ],
  "transactionHash": "0x09962b1f593fd3b56e7e3f098f9199b63257a6458cdcc2ec3272c0c61ff3cd75",
  "args": [
    "0xF505e2E71df58D7244189072008f25f6b6aaE5ae"
  ],
  "numDeployments": 1,
  "solcInputHash": "470575533c02f5bfec1659aa393453ec",
  "bytecode": "0x60803460c157601f610d0f38819003918201601f19168301916001600160401b0383118484101760c55780849260209460405283398101031260c157516001600160a01b0381169081900360c157801560ae57600180546001600160a01b03199081169091555f80549182168317815560405192916001600160a01b0316907f8be0079c531659141344cd1fd0a4f28419497f9722a3daafe3b4186f6b6457e09080a3610c3590816100da8239f35b631e4fbdf760e01b5f525f60045260245ffd5b5f80fd5b634e487b7160e01b5f52604160045260245ffdfe60806040526004361015610011575f80fd5b5f3560e01c80630f53a47014610a2457806313a155ea1461098d5780635264b12e146108535780635309564c146107c3578063536fff6c1461078357806356f170821461062357806370d29c1114610606578063715018a61461059f578063739b47ca1461050f57806375a67d5c146104d857806379ba5097146104515780638a9e9dec146103c15780638da5cb5b1461039c57806399562d5b146102ee578063a013781b146102ad578063b7aa023114610246578063b9209e3314610206578063bbe156271461018f578063e30c3978146101695763f2fde38b146100f5575f80fd5b34610165576020366003190112610165576004356001600160a01b03811680910361016557610122610bec565b806001600160a01b031960015416176001556001600160a01b035f54167f38d16b8cac22d99fc7c124b9cd0de2d3fa1faef420bfe791d8c362d765e227005f80a3005b5f80fd5b34610165575f3660031901126101655760206001600160a01b0360015416604051908152f35b34610165576020366003190112610165576004356001600160a01b038116809103610165575f52600260205260c060405f2060ff81541690600181015490600281015460038201549060056004840154930154936040519515158652602086015260408501526060840152608083015260a0820152f35b34610165576020366003190112610165576004356001600160a01b038116809103610165575f526002602052602060ff60405f2054166040519015158152f35b34610165576020366003190112610165576004356001600160a01b03811680910361016557610273610bec565b805f52600560205260405f2060ff1981541690557fc3803387881faad271c47728894e3e36fac830ffc8602ca6fc07733cbda775805f80a2005b3461016557602036600319011261016557600435600354811015610165576001600160a01b036102de602092610af4565b90549060031b1c16604051908152f35b34610165576020366003190112610165576004356001600160a01b03811680910361016557335f52600560205260ff60405f2054161561038d57805f52600260205260ff60405f2054161561037e57805f526002602052600160405f20016103568154610b40565b90557fe8cac74f98429f0a650d7e9c8deee2c7d21009fe3cf88e9e2081e594eb52ea225f80a2005b632097b54360e01b5f5260045ffd5b63c183bcef60e01b5f5260045ffd5b34610165575f3660031901126101655760206001600160a01b035f5416604051908152f35b34610165576020366003190112610165576004356001600160a01b03811680910361016557335f52600560205260ff60405f2054161561038d57805f52600260205260ff60405f2054161561037e57805f526002602052600460405f20016104298154610b40565b90557f253dc421c45b6e9de9850c3069f885ab71e4e2624980b13862ad8339f4309cb65f80a2005b34610165575f36600319011261016557336001600160a01b0360015416036104c5576001600160a01b0319600154166001555f54336001600160a01b03198216175f556001600160a01b033391167f8be0079c531659141344cd1fd0a4f28419497f9722a3daafe3b4186f6b6457e05f80a3005b63118cdaa760e01b5f523360045260245ffd5b34610165576020366003190112610165576004356001600160a01b038116810361016557610507602091610b5b565b604051908152f35b34610165576020366003190112610165576004356001600160a01b03811680910361016557335f52600560205260ff60405f2054161561038d57805f52600260205260ff60405f2054161561037e57805f526002602052600260405f20016105778154610b40565b90557f5519bc11054c93613f29400603c227dc94f698cd27f027941b1d28ac0f3c17b95f80a2005b34610165575f366003190112610165576105b7610bec565b6001600160a01b0319600154166001555f6001600160a01b0381546001600160a01b031981168355167f8be0079c531659141344cd1fd0a4f28419497f9722a3daafe3b4186f6b6457e08280a3005b34610165575f366003190112610165576020600354604051908152f35b34610165576020366003190112610165576004356001600160a01b0381169081810361016557610651610bec565b811561077457815f52600260205260ff60405f20541661076557610673610b20565b600181526005602082015f8152604083015f8152606084015f815260808501915f835260a0860193428552885f52600260205260405f209651151560ff801989541691161787555160018701555160028601555160038501555160048401555191015560035490825f5260046020528160405f2055680100000000000000008210156107515761070c82600161072b9401600355610af4565b9091906001600160a01b038084549260031b9316831b921b1916179055565b7f381919937473504a02352aede091840b8e02ca2ce85b2c8513022353225faf775f80a2005b634e487b7160e01b5f52604160045260245ffd5b636a7c46f760e11b5f5260045ffd5b63d92e233d60e01b5f5260045ffd5b34610165576020366003190112610165576004356001600160a01b038116809103610165575f526005602052602060ff60405f2054166040519015158152f35b34610165576020366003190112610165576004356001600160a01b03811680910361016557335f52600560205260ff60405f2054161561038d57805f52600260205260ff60405f2054161561037e57805f526002602052600360405f200161082b8154610b40565b90557fcd23e5cb2cfaa13f55dab49ccf62c7caa3880a075c5ac66dee0942d77952d1195f80a2005b34610165576020366003190112610165576004356001600160a01b03811680910361016557610880610bec565b805f52600260205260ff60405f2054161561037e575f818152600260209081526040808320805460ff1916905560049091529020546003545f19810190811161097957808203610940575b5050600354801561092c575f19016108e281610af4565b6001600160a01b0382549160031b1b19169055600355805f5260046020525f60408120557f6aeb04fbbd4c59cfb197ca6a9e9477ce365b10f79241981c558d2ae1b4f96a745f80a2005b634e487b7160e01b5f52603160045260245ffd5b6109516001600160a01b0391610af4565b90549060031b1c166109668161070c84610af4565b5f52600460205260405f205581806108cb565b634e487b7160e01b5f52601160045260245ffd5b34610165576020366003190112610165576004356001600160a01b038116809103610165576001600160a01b035f541633141580610a0d575b61038d57801561077457805f52600560205260405f20600160ff198254161790557feb1b9b92e50b7f88f9ff25d56765095ac6e91540eee214906f4036a908ffbdef5f80a2005b50335f52600560205260ff60405f205416156109c6565b34610165576020366003190112610165576004356001600160a01b038116809103610165575f60a0610a54610b20565b82815282602082015282604082015282606082015282608082015201525f52600260205260c060405f20610a86610b20565b60ff8254161515918282526001810154602083019081526002820154604084019081526003830154916060850192835260a0600560048601549560808801968752015495019485526040519586525160208601525160408501525160608401525160808301525160a0820152f35b600354811015610b0c5760035f5260205f2001905f90565b634e487b7160e01b5f52603260045260245ffd5b6040519060c0820182811067ffffffffffffffff82111761075157604052565b5f1981146109795760010190565b9190820180921161097957565b6001600160a01b03165f52600260205260405f2060ff81541615610be757610b8c6002820154600483015490610b4e565b9060648202918083046064149015171561097957600360018201549101548060011b908082046002149015171561097957610bc691610b4e565b908115610be057046064811115610bdd5750606490565b90565b5050603290565b505f90565b6001600160a01b035f541633036104c55756fea26469706673582212209e4b01155a34bb4d1b760376a8b39a5dec6256c206644eb6257406d4d18717e564736f6c634300081b0033",
  "devdoc": {
    "errors": {
      "OwnableInvalidOwner(address)": [
        {
          "details": "The owner is not a valid owner account. (eg. `address(0)`)"
        }
      ],
      "OwnableUnauthorizedAccount(address)": [
        {
          "details": "The caller account is not authorized to perform an operation."
        }
      ]
    },
    "kind": "dev",
    "methods": {
      "acceptOwnership()": {
        "details": "The new owner accepts the ownership transfer."
      },
      "getReputationScore(address)": {
        "details": "Arithmetic is safe against overflow: Solidity 0.8+ has built-in      overflow/underflow checks on all arithmetic operations. The      multiplication `(p.totalWins + p.completedOnTime) * 100` will      revert automatically if it exceeds uint256 max, which is only      possible with astronomically large values (~1.15e75 bids)."
      },
      "owner()": {
        "details": "Returns the address of the current owner."
      },
      "pendingOwner()": {
        "details": "Returns the address of the pending owner."
      },
      "renounceOwnership()": {
        "details": "Leaves the contract without owner. It will not be possible to call `onlyOwner` functions. Can only be called by the current owner. NOTE: Renouncing ownership will leave the contract without an owner, thereby disabling any functionality that is only available to the owner."
      },
      "transferOwnership(address)": {
        "details": "Starts the ownership transfer of the contract to a new account. Replaces the pending transfer if there is one. Can only be called by the current owner. Setting `newOwner` to the zero address is allowed; this can be used to cancel an initiated ownership transfer."
      }
    },
    "title": "BidderRegistry",
    "version": 1
  },
  "userdoc": {
    "kind": "user",
    "methods": {
      "getReputationScore(address)": {
        "notice": "Calculate a bidder's reputation score (0-100)."
      }
    },
    "notice": "Manages bidder identity, verification, and on-chain reputation.",
    "version": 1
  },
  "storageLayout": {
    "storage": [
      {
        "astId": 42164,
        "contract": "contracts/identity/BidderRegistry.sol:BidderRegistry",
        "label": "_owner",
        "offset": 0,
        "slot": "0",
        "type": "t_address"
      },
      {
        "astId": 42312,
        "contract": "contracts/identity/BidderRegistry.sol:BidderRegistry",
        "label": "_pendingOwner",
        "offset": 0,
        "slot": "1",
        "type": "t_address"
      },
      {
        "astId": 45034,
        "contract": "contracts/identity/BidderRegistry.sol:BidderRegistry",
        "label": "profiles",
        "offset": 0,
        "slot": "2",
        "type": "t_mapping(t_address,t_struct(BidderProfile)45029_storage)"
      },
      {
        "astId": 45037,
        "contract": "contracts/identity/BidderRegistry.sol:BidderRegistry",
        "label": "allBidders",
        "offset": 0,
        "slot": "3",
        "type": "t_array(t_address)dyn_storage"
      },
      {
        "astId": 45041,
        "contract": "contracts/identity/BidderRegistry.sol:BidderRegistry",
        "label": "_bidderIndex",
        "offset": 0,
        "slot": "4",
        "type": "t_mapping(t_address,t_uint256)"
      },
      {
        "astId": 45045,
        "contract": "contracts/identity/BidderRegistry.sol:BidderRegistry",
        "label": "authorizedCallers",
        "offset": 0,
        "slot": "5",
        "type": "t_mapping(t_address,t_bool)"
      }
    ],
    "types": {
      "t_address": {
        "encoding": "inplace",
        "label": "address",
        "numberOfBytes": "20"
      },
      "t_array(t_address)dyn_storage": {
        "base": "t_address",
        "encoding": "dynamic_array",
        "label": "address[]",
        "numberOfBytes": "32"
      },
      "t_bool": {
        "encoding": "inplace",
        "label": "bool",
        "numberOfBytes": "1"
      },
      "t_mapping(t_address,t_bool)": {
        "encoding": "mapping",
        "key": "t_address",
        "label": "mapping(address => bool)",
        "numberOfBytes": "32",
        "value": "t_bool"
      },
      "t_mapping(t_address,t_struct(BidderProfile)45029_storage)": {
        "encoding": "mapping",
        "key": "t_address",
        "label": "mapping(address => struct BidderRegistry.BidderProfile)",
        "numberOfBytes": "32",
        "value": "t_struct(BidderProfile)45029_storage"
      },
      "t_mapping(t_address,t_uint256)": {
        "encoding": "mapping",
        "key": "t_address",
        "label": "mapping(address => uint256)",
        "numberOfBytes": "32",
        "value": "t_uint256"
      },
      "t_struct(BidderProfile)45029_storage": {
        "encoding": "inplace",
        "label": "struct BidderRegistry.BidderProfile",
        "members": [
          {
            "astId": 45018,
            "contract": "contracts/identity/BidderRegistry.sol:BidderRegistry",
            "label": "verified",
            "offset": 0,
            "slot": "0",
            "type": "t_bool"
          },
          {
            "astId": 45020,
            "contract": "contracts/identity/BidderRegistry.sol:BidderRegistry",
            "label": "totalBids",
            "offset": 0,
            "slot": "1",
            "type": "t_uint256"
          },
          {
            "astId": 45022,
            "contract": "contracts/identity/BidderRegistry.sol:BidderRegistry",
            "label": "totalWins",
            "offset": 0,
            "slot": "2",
            "type": "t_uint256"
          },
          {
            "astId": 45024,
            "contract": "contracts/identity/BidderRegistry.sol:BidderRegistry",
            "label": "totalSlashes",
            "offset": 0,
            "slot": "3",
            "type": "t_uint256"
          },
          {
            "astId": 45026,
            "contract": "contracts/identity/BidderRegistry.sol:BidderRegistry",
            "label": "completedOnTime",
            "offset": 0,
            "slot": "4",
            "type": "t_uint256"
          },
          {
            "astId": 45028,
            "contract": "contracts/identity/BidderRegistry.sol:BidderRegistry",
            "label": "registeredAt",
            "offset": 0,
            "slot": "5",
            "type": "t_uint256"
          }
        ],
        "numberOfBytes": "192"
      },
      "t_uint256": {
        "encoding": "inplace",
        "label": "uint256",
        "numberOfBytes": "32"
      }
    }
  }
}