{
  "address": "0x2E8037626102ca3393ab9EfE7a3A254b30B236CA",
  "abi": [
    {
      "inputs": [
        {
          "internalType": "address",
          "name": "initialOwner",
          "type": "address"
        }
      ],
      "stateMutability": "nonpayable",
      "type": "constructor"
    },
    {
      "inputs": [],
      "name": "BidderAlreadyRegistered",
      "type": "error"
    },
    {
      "inputs": [],
      "name": "BidderNotRegistered",
      "type": "error"
    },
    {
      "inputs": [],
      "name": "CallerNotAuthorized",
      "type": "error"
    },
    {
      "inputs": [
        {
          "internalType": "address",
          "name": "owner",
          "type": "address"
        }
      ],
      "name": "OwnableInvalidOwner",
      "type": "error"
    },
    {
      "inputs": [
        {
          "internalType": "address",
          "name": "account",
          "type": "address"
        }
      ],
      "name": "OwnableUnauthorizedAccount",
      "type": "error"
    },
    {
      "inputs": [],
      "name": "ZeroAddress",
      "type": "error"
    },
    {
      "anonymous": false,
      "inputs": [
        {
          "indexed": true,
          "internalType": "address",
          "name": "caller",
          "type": "address"
        }
      ],
      "name": "AuthorizedCallerAdded",
      "type": "event"
    },
    {
      "anonymous": false,
      "inputs": [
        {
          "indexed": true,
          "internalType": "address",
          "name": "caller",
          "type": "address"
        }
      ],
      "name": "AuthorizedCallerRemoved",
      "type": "event"
    },
    {
      "anonymous": false,
      "inputs": [
        {
          "indexed": true,
          "internalType": "address",
          "name": "bidder",
          "type": "address"
        }
      ],
      "name": "BidRecorded",
      "type": "event"
    },
    {
      "anonymous": false,
      "inputs": [
        {
          "indexed": true,
          "internalType": "address",
          "name": "bidder",
          "type": "address"
        }
      ],
      "name": "BidderRegistered",
      "type": "event"
    },
    {
      "anonymous": false,
      "inputs": [
        {
          "indexed": true,
          "internalType": "address",
          "name": "bidder",
          "type": "address"
        }
      ],
      "name": "BidderRemoved",
      "type": "event"
    },
    {
      "anonymous": false,
      "inputs": [
        {
          "indexed": true,
          "internalType": "address",
          "name": "bidder",
          "type": "address"
        }
      ],
      "name": "CompletionRecorded",
      "type": "event"
    },
    {
      "anonymous": false,
      "inputs": [
        {
          "indexed": true,
          "internalType": "address",
          "name": "previousOwner",
          "type": "address"
        },
        {
          "indexed": true,
          "internalType": "address",
          "name": "newOwner",
          "type": "address"
        }
      ],
      "name": "OwnershipTransferStarted",
      "type": "event"
    },
    {
      "anonymous": false,
      "inputs": [
        {
          "indexed": true,
          "internalType": "address",
          "name": "previousOwner",
          "type": "address"
        },
        {
          "indexed": true,
          "internalType": "address",
          "name": "newOwner",
          "type": "address"
        }
      ],
      "name": "OwnershipTransferred",
      "type": "event"
    },
    {
      "anonymous": false,
      "inputs": [
        {
          "indexed": true,
          "internalType": "address",
          "name": "bidder",
          "type": "address"
        }
      ],
      "name": "SlashRecorded",
      "type": "event"
    },
    {
      "anonymous": false,
      "inputs": [
        {
          "indexed": true,
          "internalType": "address",
          "name": "manager",
          "type": "address"
        }
      ],
      "name": "TenderManagerSet",
      "type": "event"
    },
    {
      "anonymous": false,
      "inputs": [
        {
          "indexed": true,
          "internalType": "address",
          "name": "bidder",
          "type": "address"
        }
      ],
      "name": "WinRecorded",
      "type": "event"
    },
    {
      "inputs": [],
      "name": "acceptOwnership",
      "outputs": [],
      "stateMutability": "nonpayable",
      "type": "function"
    },
    {
      "inputs": [
        {
          "internalType": "address",
          "name": "caller",
          "type": "address"
        }
      ],
      "name": "addAuthorizedCaller",
      "outputs": [],
      "stateMutability": "nonpayable",
      "type": "function"
    },
    {
      "inputs": [
        {
          "internalType": "uint256",
          "name": "",
          "type": "uint256"
        }
      ],
      "name": "allBidders",
      "outputs": [
        {
          "internalType": "address",
          "name": "",
          "type": "address"
        }
      ],
      "stateMutability": "view",
      "type": "function"
    },
    {
      "inputs": [
        {
          "internalType": "address",
          "name": "",
          "type": "address"
        }
      ],
      "name": "authorizedCallers",
      "outputs": [
        {
          "internalType": "bool",
          "name": "",
          "type": "bool"
        }
      ],
      "stateMutability": "view",
      "type": "function"
    },
    {
      "inputs": [],
      "name": "bidderCount",
      "outputs": [
        {
          "internalType": "uint256",
          "name": "",
          "type": "uint256"
        }
      ],
      "stateMutability": "view",
      "type": "function"
    },
    {
      "inputs": [
        {
          "internalType": "address",
          "name": "bidder",
          "type": "address"
        }
      ],
      "name": "getProfile",
      "outputs": [
        {
          "components": [
            {
              "internalType": "bool",
              "name": "verified",
              "type": "bool"
            },
            {
              "internalType": "uint256",
              "name": "totalBids",
              "type": "uint256"
            },
            {
              "internalType": "uint256",
              "name": "totalWins",
              "type": "uint256"
            },
            {
              "internalType": "uint256",
              "name": "totalSlashes",
              "type": "uint256"
            },
            {
              "internalType": "uint256",
              "name": "completedOnTime",
              "type": "uint256"
            },
            {
              "internalType": "uint256",
              "name": "registeredAt",
              "type": "uint256"
            }
          ],
          "internalType": "struct BidderRegistry.BidderProfile",
          "name": "",
          "type": "tuple"
        }
      ],
      "stateMutability": "view",
      "type": "function"
    },
    {
      "inputs": [
        {
          "internalType": "address",
          "name": "bidder",
          "type": "address"
        }
      ],
      "name": "getReputationScore",
      "outputs": [
        {
          "internalType": "uint256",
          "name": "",
          "type": "uint256"
        }
      ],
      "stateMutability": "view",
      "type": "function"
    },
    {
      "inputs": [
        {
          "internalType": "address",
          "name": "bidder",
          "type": "address"
        }
      ],
      "name": "isVerified",
      "outputs": [
        {
          "internalType": "bool",
          "name": "",
          "type": "bool"
        }
      ],
      "stateMutability": "view",
      "type": "function"
    },
    {
      "inputs": [],
      "name": "owner",
      "outputs": [
        {
          "internalType": "address",
          "name": "",
          "type": "address"
        }
      ],
      "stateMutability": "view",
      "type": "function"
    },
    {
      "inputs": [],
      "name": "pendingOwner",
      "outputs": [
        {
          "internalType": "address",
          "name": "",
          "type": "address"
        }
      ],
      "stateMutability": "view",
      "type": "function"
    },
    {
      "inputs": [
        {
          "internalType": "address",
          "name": "",
          "type": "address"
        }
      ],
      "name": "profiles",
      "outputs": [
        {
          "internalType": "bool",
          "name": "verified",
          "type": "bool"
        },
        {
          "internalType": "uint256",
          "name": "totalBids",
          "type": "uint256"
        },
        {
          "internalType": "uint256",
          "name": "totalWins",
          "type": "uint256"
        },
        {
          "internalType": "uint256",
          "name": "totalSlashes",
          "type": "uint256"
        },
        {
          "internalType": "uint256",
          "name": "completedOnTime",
          "type": "uint256"
        },
        {
          "internalType": "uint256",
          "name": "registeredAt",
          "type": "uint256"
        }
      ],
      "stateMutability": "view",
      "type": "function"
    },
    {
      "inputs": [
        {
          "internalType": "address",
          "name": "bidder",
          "type": "address"
        }
      ],
      "name": "recordBid",
      "outputs": [],
      "stateMutability": "nonpayable",
      "type": "function"
    },
    {
      "inputs": [
        {
          "internalType": "address",
          "name": "bidder",
          "type": "address"
        }
      ],
      "name": "recordCompletion",
      "outputs": [],
      "stateMutability": "nonpayable",
      "type": "function"
    },
    {
      "inputs": [
        {
          "internalType": "address",
          "name": "bidder",
          "type": "address"
        }
      ],
      "name": "recordSlash",
      "outputs": [],
      "stateMutability": "nonpayable",
      "type": "function"
    },
    {
      "inputs": [
        {
          "internalType": "address",
          "name": "bidder",
          "type": "address"
        }
      ],
      "name": "recordWin",
      "outputs": [],
      "stateMutability": "nonpayable",
      "type": "function"
    },
    {
      "inputs": [
        {
          "internalType": "address",
          "name": "bidder",
          "type": "address"
        }
      ],
      "name": "registerBidder",
      "outputs": [],
      "stateMutability": "nonpayable",
      "type": "function"
    },
    {
      "inputs": [
        {
          "internalType": "address",
          "name": "caller",
          "type": "address"
        }
      ],
      "name": "removeAuthorizedCaller",
      "outputs": [],
      "stateMutability": "nonpayable",
      "type": "function"
    },
    {
      "inputs": [
        {
          "internalType": "address",
          "name": "bidder",
          "type": "address"
        }
      ],
      "name": "removeBidder",
      "outputs": [],
      "stateMutability": "nonpayable",
      "type": "function"
    },
    {
      "inputs": [],
      "name": "renounceOwnership",
      "outputs": [],
      "stateMutability": "nonpayable",
      "type": "function"
    },
    {
      "inputs": [
        {
          "internalType": "address",
          "name": "_tenderManager",
          "type": "address"
        }
      ],
      "name": "setTenderManager",
      "outputs": [],
      "stateMutability": "nonpayable",
      "type": "function"
    },
    {
      "inputs": [],
      "name": "tenderManager",
      "outputs": [
        {
          "internalType": "address",
          "name": "",
          "type": "address"
        }
      ],
      "stateMutability": "view",
      "type": "function"
    },
    {
      "inputs": [
        {
          "internalType": "address",
          "name": "newOwner",
          "type": "address"
        }
      ],
      "name": "transferOwnership",
      "outputs": [],
      "stateMutability": "nonpayable",
      "type": "function"
    }
  ],
  "transactionHash": "0x5b9f44d39bab13b71a175e5febfd0bda85bff3a05b6a8deef0967d3bc85bc8f2",
  "args": [
    "0xF505e2E71df58D7244189072008f25f6b6aaE5ae"
  ],
  "numDeployments": 1,
  "solcInputHash": "c1d4a13c7ba84a23b13656a108c4af42",
  "bytecode": "0x60803460c157601f610dae38819003918201601f19168301916001600160401b0383118484101760c55780849260209460405283398101031260c157516001600160a01b0381169081900360c157801560ae57600180546001600160a01b03199081169091555f80549182168317815560405192916001600160a01b0316907f8be0079c531659141344cd1fd0a4f28419497f9722a3daafe3b4186f6b6457e09080a3610cd490816100da8239f35b631e4fbdf760e01b5f525f60045260245ffd5b5f80fd5b634e487b7160e01b5f52604160045260245ffdfe60806040526004361015610011575f80fd5b5f3560e01c80630f53a47014610ac357806313a155ea14610a2e57806319b86950146109c95780635264b12e1461088f5780635309564c146107ff578063536fff6c146107bf57806356f170821461065f57806370d29c1114610642578063715018a6146105db578063739b47ca1461054b57806375a67d5c1461051457806379ba50971461048d5780638a9e9dec146103fd5780638da5cb5b146103d857806399562d5b1461032a578063a013781b146102e9578063a06a72f5146102c3578063b7aa02311461025c578063b9209e331461021c578063bbe15627146101a5578063e30c39781461017f5763f2fde38b1461010b575f80fd5b3461017b57602036600319011261017b576004356001600160a01b03811680910361017b57610138610c8b565b806001600160a01b031960015416176001556001600160a01b035f54167f38d16b8cac22d99fc7c124b9cd0de2d3fa1faef420bfe791d8c362d765e227005f80a3005b5f80fd5b3461017b575f36600319011261017b5760206001600160a01b0360015416604051908152f35b3461017b57602036600319011261017b576004356001600160a01b03811680910361017b575f52600260205260c060405f2060ff81541690600181015490600281015460038201549060056004840154930154936040519515158652602086015260408501526060840152608083015260a0820152f35b3461017b57602036600319011261017b576004356001600160a01b03811680910361017b575f526002602052602060ff60405f2054166040519015158152f35b3461017b57602036600319011261017b576004356001600160a01b03811680910361017b57610289610c8b565b805f52600560205260405f2060ff1981541690557fc3803387881faad271c47728894e3e36fac830ffc8602ca6fc07733cbda775805f80a2005b3461017b575f36600319011261017b5760206001600160a01b0360065416604051908152f35b3461017b57602036600319011261017b5760043560035481101561017b576001600160a01b0361031a602092610b93565b90549060031b1c16604051908152f35b3461017b57602036600319011261017b576004356001600160a01b03811680910361017b57335f52600560205260ff60405f205416156103c957805f52600260205260ff60405f205416156103ba57805f526002602052600160405f20016103928154610bdf565b90557fe8cac74f98429f0a650d7e9c8deee2c7d21009fe3cf88e9e2081e594eb52ea225f80a2005b632097b54360e01b5f5260045ffd5b63c183bcef60e01b5f5260045ffd5b3461017b575f36600319011261017b5760206001600160a01b035f5416604051908152f35b3461017b57602036600319011261017b576004356001600160a01b03811680910361017b57335f52600560205260ff60405f205416156103c957805f52600260205260ff60405f205416156103ba57805f526002602052600460405f20016104658154610bdf565b90557f253dc421c45b6e9de9850c3069f885ab71e4e2624980b13862ad8339f4309cb65f80a2005b3461017b575f36600319011261017b57336001600160a01b036001541603610501576001600160a01b0319600154166001555f54336001600160a01b03198216175f556001600160a01b033391167f8be0079c531659141344cd1fd0a4f28419497f9722a3daafe3b4186f6b6457e05f80a3005b63118cdaa760e01b5f523360045260245ffd5b3461017b57602036600319011261017b576004356001600160a01b038116810361017b57610543602091610bfa565b604051908152f35b3461017b57602036600319011261017b576004356001600160a01b03811680910361017b57335f52600560205260ff60405f205416156103c957805f52600260205260ff60405f205416156103ba57805f526002602052600260405f20016105b38154610bdf565b90557f5519bc11054c93613f29400603c227dc94f698cd27f027941b1d28ac0f3c17b95f80a2005b3461017b575f36600319011261017b576105f3610c8b565b6001600160a01b0319600154166001555f6001600160a01b0381546001600160a01b031981168355167f8be0079c531659141344cd1fd0a4f28419497f9722a3daafe3b4186f6b6457e08280a3005b3461017b575f36600319011261017b576020600354604051908152f35b3461017b57602036600319011261017b576004356001600160a01b0381169081810361017b5761068d610c8b565b81156107b057815f52600260205260ff60405f2054166107a1576106af610bbf565b600181526005602082015f8152604083015f8152606084015f815260808501915f835260a0860193428552885f52600260205260405f209651151560ff801989541691161787555160018701555160028601555160038501555160048401555191015560035490825f5260046020528160405f20556801000000000000000082101561078d576107488260016107679401600355610b93565b9091906001600160a01b038084549260031b9316831b921b1916179055565b7f381919937473504a02352aede091840b8e02ca2ce85b2c8513022353225faf775f80a2005b634e487b7160e01b5f52604160045260245ffd5b636a7c46f760e11b5f5260045ffd5b63d92e233d60e01b5f5260045ffd5b3461017b57602036600319011261017b576004356001600160a01b03811680910361017b575f526005602052602060ff60405f2054166040519015158152f35b3461017b57602036600319011261017b576004356001600160a01b03811680910361017b57335f52600560205260ff60405f205416156103c957805f52600260205260ff60405f205416156103ba57805f526002602052600360405f20016108678154610bdf565b90557fcd23e5cb2cfaa13f55dab49ccf62c7caa3880a075c5ac66dee0942d77952d1195f80a2005b3461017b57602036600319011261017b576004356001600160a01b03811680910361017b576108bc610c8b565b805f52600260205260ff60405f205416156103ba575f818152600260209081526040808320805460ff1916905560049091529020546003545f1981019081116109b55780820361097c575b50506003548015610968575f190161091e81610b93565b6001600160a01b0382549160031b1b19169055600355805f5260046020525f60408120557f6aeb04fbbd4c59cfb197ca6a9e9477ce365b10f79241981c558d2ae1b4f96a745f80a2005b634e487b7160e01b5f52603160045260245ffd5b61098d6001600160a01b0391610b93565b90549060031b1c166109a28161074884610b93565b5f52600460205260405f20558180610907565b634e487b7160e01b5f52601160045260245ffd5b3461017b57602036600319011261017b576004356001600160a01b03811680910361017b576109f6610c8b565b806001600160a01b031960065416176006557fc951e552bce7a7f1983bac46b29fb95408d373d04cfa992acc87f142e7c8e79c5f80a2005b3461017b57602036600319011261017b576004356001600160a01b03811680910361017b576001600160a01b035f541633141580610aae575b6103c95780156107b057805f52600560205260405f20600160ff198254161790557feb1b9b92e50b7f88f9ff25d56765095ac6e91540eee214906f4036a908ffbdef5f80a2005b506001600160a01b0360065416331415610a67565b3461017b57602036600319011261017b576004356001600160a01b03811680910361017b575f60a0610af3610bbf565b82815282602082015282604082015282606082015282608082015201525f52600260205260c060405f20610b25610bbf565b60ff8254161515918282526001810154602083019081526002820154604084019081526003830154916060850192835260a0600560048601549560808801968752015495019485526040519586525160208601525160408501525160608401525160808301525160a0820152f35b600354811015610bab5760035f5260205f2001905f90565b634e487b7160e01b5f52603260045260245ffd5b6040519060c0820182811067ffffffffffffffff82111761078d57604052565b5f1981146109b55760010190565b919082018092116109b557565b6001600160a01b03165f52600260205260405f2060ff81541615610c8657610c2b6002820154600483015490610bed565b906064820291808304606414901517156109b557600360018201549101548060011b90808204600214901517156109b557610c6591610bed565b908115610c7f57046064811115610c7c5750606490565b90565b5050603290565b505f90565b6001600160a01b035f541633036105015756fea2646970667358221220cffdab222a1e5167449abde6f57c1914e597368d5695cb2398cce37057b64da264736f6c634300081b0033",
  "devdoc": {
    "errors": {
      "OwnableInvalidOwner(address)": [
        {
          "details": "The owner is not a valid owner account. (eg. `address(0)`)"
        }
      ],
      "OwnableUnauthorizedAccount(address)": [
        {
          "details": "The caller account is not authorized to perform an operation."
        }
      ]
    },
    "kind": "dev",
    "methods": {
      "acceptOwnership()": {
        "details": "The new owner accepts the ownership transfer."
      },
      "addAuthorizedCaller(address)": {
        "details": "Restricted to {owner} or {tenderManager} (typically the factory). Other      authorized callers cannot themselves add more callers — closing the      privilege-escalation path that existed under the prior      `onlyOwnerOrAuthorized` design."
      },
      "getReputationScore(address)": {
        "details": "Arithmetic is safe against overflow: Solidity 0.8+ has built-in      overflow/underflow checks on all arithmetic operations. The      multiplication `(p.totalWins + p.completedOnTime) * 100` will      revert automatically if it exceeds uint256 max, which is only      possible with astronomically large values (~1.15e75 bids)."
      },
      "owner()": {
        "details": "Returns the address of the current owner."
      },
      "pendingOwner()": {
        "details": "Returns the address of the pending owner."
      },
      "renounceOwnership()": {
        "details": "Leaves the contract without owner. It will not be possible to call `onlyOwner` functions. Can only be called by the current owner. NOTE: Renouncing ownership will leave the contract without an owner, thereby disabling any functionality that is only available to the owner."
      },
      "transferOwnership(address)": {
        "details": "Starts the ownership transfer of the contract to a new account. Replaces the pending transfer if there is one. Can only be called by the current owner. Setting `newOwner` to the zero address is allowed; this can be used to cancel an initiated ownership transfer."
      }
    },
    "stateVariables": {
      "tenderManager": {
        "details": "Replaces the prior `onlyOwnerOrAuthorized` design which allowed *any*      authorized caller to escalate by adding more callers — a privilege-      escalation surface that would let a compromised tender contract      contaminate the entire registry."
      }
    },
    "title": "BidderRegistry",
    "version": 1
  },
  "userdoc": {
    "kind": "user",
    "methods": {
      "addAuthorizedCaller(address)": {
        "notice": "Authorize a contract to record bids/wins/slashes/completions."
      },
      "getReputationScore(address)": {
        "notice": "Calculate a bidder's reputation score (0-100)."
      },
      "setTenderManager(address)": {
        "notice": "Owner-only: nominate the TenderFactory (or equivalent) as the sole         contract permitted to call {addAuthorizedCaller}. Pass `address(0)`         to revoke the role and require all future authorizations to flow         directly through the owner."
      },
      "tenderManager()": {
        "notice": "Single contract permitted to authorize new tender callers (typically         the TenderFactory). Owner-set, can be cleared by setting to zero."
      }
    },
    "notice": "Manages bidder identity, verification, and on-chain reputation.",
    "version": 1
  },
  "storageLayout": {
    "storage": [
      {
        "astId": 43858,
        "contract": "contracts/identity/BidderRegistry.sol:BidderRegistry",
        "label": "_owner",
        "offset": 0,
        "slot": "0",
        "type": "t_address"
      },
      {
        "astId": 44006,
        "contract": "contracts/identity/BidderRegistry.sol:BidderRegistry",
        "label": "_pendingOwner",
        "offset": 0,
        "slot": "1",
        "type": "t_address"
      },
      {
        "astId": 47684,
        "contract": "contracts/identity/BidderRegistry.sol:BidderRegistry",
        "label": "profiles",
        "offset": 0,
        "slot": "2",
        "type": "t_mapping(t_address,t_struct(BidderProfile)47679_storage)"
      },
      {
        "astId": 47687,
        "contract": "contracts/identity/BidderRegistry.sol:BidderRegistry",
        "label": "allBidders",
        "offset": 0,
        "slot": "3",
        "type": "t_array(t_address)dyn_storage"
      },
      {
        "astId": 47691,
        "contract": "contracts/identity/BidderRegistry.sol:BidderRegistry",
        "label": "_bidderIndex",
        "offset": 0,
        "slot": "4",
        "type": "t_mapping(t_address,t_uint256)"
      },
      {
        "astId": 47695,
        "contract": "contracts/identity/BidderRegistry.sol:BidderRegistry",
        "label": "authorizedCallers",
        "offset": 0,
        "slot": "5",
        "type": "t_mapping(t_address,t_bool)"
      },
      {
        "astId": 47698,
        "contract": "contracts/identity/BidderRegistry.sol:BidderRegistry",
        "label": "tenderManager",
        "offset": 0,
        "slot": "6",
        "type": "t_address"
      }
    ],
    "types": {
      "t_address": {
        "encoding": "inplace",
        "label": "address",
        "numberOfBytes": "20"
      },
      "t_array(t_address)dyn_storage": {
        "base": "t_address",
        "encoding": "dynamic_array",
        "label": "address[]",
        "numberOfBytes": "32"
      },
      "t_bool": {
        "encoding": "inplace",
        "label": "bool",
        "numberOfBytes": "1"
      },
      "t_mapping(t_address,t_bool)": {
        "encoding": "mapping",
        "key": "t_address",
        "label": "mapping(address => bool)",
        "numberOfBytes": "32",
        "value": "t_bool"
      },
      "t_mapping(t_address,t_struct(BidderProfile)47679_storage)": {
        "encoding": "mapping",
        "key": "t_address",
        "label": "mapping(address => struct BidderRegistry.BidderProfile)",
        "numberOfBytes": "32",
        "value": "t_struct(BidderProfile)47679_storage"
      },
      "t_mapping(t_address,t_uint256)": {
        "encoding": "mapping",
        "key": "t_address",
        "label": "mapping(address => uint256)",
        "numberOfBytes": "32",
        "value": "t_uint256"
      },
      "t_struct(BidderProfile)47679_storage": {
        "encoding": "inplace",
        "label": "struct BidderRegistry.BidderProfile",
        "members": [
          {
            "astId": 47668,
            "contract": "contracts/identity/BidderRegistry.sol:BidderRegistry",
            "label": "verified",
            "offset": 0,
            "slot": "0",
            "type": "t_bool"
          },
          {
            "astId": 47670,
            "contract": "contracts/identity/BidderRegistry.sol:BidderRegistry",
            "label": "totalBids",
            "offset": 0,
            "slot": "1",
            "type": "t_uint256"
          },
          {
            "astId": 47672,
            "contract": "contracts/identity/BidderRegistry.sol:BidderRegistry",
            "label": "totalWins",
            "offset": 0,
            "slot": "2",
            "type": "t_uint256"
          },
          {
            "astId": 47674,
            "contract": "contracts/identity/BidderRegistry.sol:BidderRegistry",
            "label": "totalSlashes",
            "offset": 0,
            "slot": "3",
            "type": "t_uint256"
          },
          {
            "astId": 47676,
            "contract": "contracts/identity/BidderRegistry.sol:BidderRegistry",
            "label": "completedOnTime",
            "offset": 0,
            "slot": "4",
            "type": "t_uint256"
          },
          {
            "astId": 47678,
            "contract": "contracts/identity/BidderRegistry.sol:BidderRegistry",
            "label": "registeredAt",
            "offset": 0,
            "slot": "5",
            "type": "t_uint256"
          }
        ],
        "numberOfBytes": "192"
      },
      "t_uint256": {
        "encoding": "inplace",
        "label": "uint256",
        "numberOfBytes": "32"
      }
    }
  }
}