{
  "address": "0x1635eb515c80eEf52CD88d34109C83D8b5321647",
  "abi": [
    {
      "inputs": [],
      "stateMutability": "nonpayable",
      "type": "constructor"
    },
    {
      "inputs": [],
      "name": "DepositAlreadyExists",
      "type": "error"
    },
    {
      "inputs": [],
      "name": "DepositFrozen",
      "type": "error"
    },
    {
      "inputs": [],
      "name": "DepositNotActive",
      "type": "error"
    },
    {
      "inputs": [],
      "name": "InsufficientDeposit",
      "type": "error"
    },
    {
      "inputs": [],
      "name": "NoDeposit",
      "type": "error"
    },
    {
      "inputs": [],
      "name": "NotAuthorized",
      "type": "error"
    },
    {
      "inputs": [
        {
          "internalType": "address",
          "name": "owner",
          "type": "address"
        }
      ],
      "name": "OwnableInvalidOwner",
      "type": "error"
    },
    {
      "inputs": [
        {
          "internalType": "address",
          "name": "account",
          "type": "address"
        }
      ],
      "name": "OwnableUnauthorizedAccount",
      "type": "error"
    },
    {
      "inputs": [],
      "name": "ReentrancyGuardReentrantCall",
      "type": "error"
    },
    {
      "inputs": [],
      "name": "TenderNotConfigured",
      "type": "error"
    },
    {
      "inputs": [],
      "name": "TransferFailed",
      "type": "error"
    },
    {
      "inputs": [],
      "name": "ZeroAddress",
      "type": "error"
    },
    {
      "anonymous": false,
      "inputs": [
        {
          "indexed": true,
          "internalType": "address",
          "name": "caller",
          "type": "address"
        }
      ],
      "name": "CallerAuthorized",
      "type": "event"
    },
    {
      "anonymous": false,
      "inputs": [
        {
          "indexed": true,
          "internalType": "address",
          "name": "caller",
          "type": "address"
        }
      ],
      "name": "CallerDeauthorized",
      "type": "event"
    },
    {
      "anonymous": false,
      "inputs": [
        {
          "indexed": true,
          "internalType": "uint256",
          "name": "tenderId",
          "type": "uint256"
        },
        {
          "indexed": true,
          "internalType": "address",
          "name": "bidder",
          "type": "address"
        },
        {
          "indexed": false,
          "internalType": "uint256",
          "name": "amount",
          "type": "uint256"
        }
      ],
      "name": "EscrowDeposited",
      "type": "event"
    },
    {
      "anonymous": false,
      "inputs": [
        {
          "indexed": true,
          "internalType": "uint256",
          "name": "tenderId",
          "type": "uint256"
        },
        {
          "indexed": true,
          "internalType": "address",
          "name": "bidder",
          "type": "address"
        }
      ],
      "name": "EscrowFrozen",
      "type": "event"
    },
    {
      "anonymous": false,
      "inputs": [
        {
          "indexed": true,
          "internalType": "uint256",
          "name": "tenderId",
          "type": "uint256"
        },
        {
          "indexed": true,
          "internalType": "address",
          "name": "bidder",
          "type": "address"
        },
        {
          "indexed": false,
          "internalType": "uint256",
          "name": "amount",
          "type": "uint256"
        }
      ],
      "name": "EscrowRefunded",
      "type": "event"
    },
    {
      "anonymous": false,
      "inputs": [
        {
          "indexed": true,
          "internalType": "uint256",
          "name": "tenderId",
          "type": "uint256"
        },
        {
          "indexed": true,
          "internalType": "address",
          "name": "bidder",
          "type": "address"
        },
        {
          "indexed": false,
          "internalType": "uint256",
          "name": "amount",
          "type": "uint256"
        }
      ],
      "name": "EscrowReleased",
      "type": "event"
    },
    {
      "anonymous": false,
      "inputs": [
        {
          "indexed": true,
          "internalType": "uint256",
          "name": "tenderId",
          "type": "uint256"
        },
        {
          "indexed": true,
          "internalType": "address",
          "name": "bidder",
          "type": "address"
        },
        {
          "indexed": false,
          "internalType": "address",
          "name": "recipient",
          "type": "address"
        },
        {
          "indexed": false,
          "internalType": "uint256",
          "name": "amount",
          "type": "uint256"
        }
      ],
      "name": "EscrowSlashed",
      "type": "event"
    },
    {
      "anonymous": false,
      "inputs": [
        {
          "indexed": true,
          "internalType": "uint256",
          "name": "tenderId",
          "type": "uint256"
        },
        {
          "indexed": true,
          "internalType": "address",
          "name": "bidder",
          "type": "address"
        }
      ],
      "name": "EscrowUnfrozen",
      "type": "event"
    },
    {
      "anonymous": false,
      "inputs": [
        {
          "indexed": true,
          "internalType": "address",
          "name": "previousOwner",
          "type": "address"
        },
        {
          "indexed": true,
          "internalType": "address",
          "name": "newOwner",
          "type": "address"
        }
      ],
      "name": "OwnershipTransferStarted",
      "type": "event"
    },
    {
      "anonymous": false,
      "inputs": [
        {
          "indexed": true,
          "internalType": "address",
          "name": "previousOwner",
          "type": "address"
        },
        {
          "indexed": true,
          "internalType": "address",
          "name": "newOwner",
          "type": "address"
        }
      ],
      "name": "OwnershipTransferred",
      "type": "event"
    },
    {
      "anonymous": false,
      "inputs": [
        {
          "indexed": true,
          "internalType": "uint256",
          "name": "tenderId",
          "type": "uint256"
        },
        {
          "indexed": false,
          "internalType": "uint256",
          "name": "amount",
          "type": "uint256"
        }
      ],
      "name": "RequiredDepositSet",
      "type": "event"
    },
    {
      "inputs": [],
      "name": "acceptOwnership",
      "outputs": [],
      "stateMutability": "nonpayable",
      "type": "function"
    },
    {
      "inputs": [
        {
          "internalType": "address",
          "name": "caller",
          "type": "address"
        }
      ],
      "name": "authorizeCaller",
      "outputs": [],
      "stateMutability": "nonpayable",
      "type": "function"
    },
    {
      "inputs": [
        {
          "internalType": "address",
          "name": "",
          "type": "address"
        }
      ],
      "name": "authorizedCallers",
      "outputs": [
        {
          "internalType": "bool",
          "name": "",
          "type": "bool"
        }
      ],
      "stateMutability": "view",
      "type": "function"
    },
    {
      "inputs": [
        {
          "internalType": "address",
          "name": "caller",
          "type": "address"
        }
      ],
      "name": "deauthorizeCaller",
      "outputs": [],
      "stateMutability": "nonpayable",
      "type": "function"
    },
    {
      "inputs": [
        {
          "internalType": "uint256",
          "name": "tenderId",
          "type": "uint256"
        }
      ],
      "name": "deposit",
      "outputs": [],
      "stateMutability": "payable",
      "type": "function"
    },
    {
      "inputs": [
        {
          "internalType": "uint256",
          "name": "",
          "type": "uint256"
        },
        {
          "internalType": "address",
          "name": "",
          "type": "address"
        }
      ],
      "name": "depositStatus",
      "outputs": [
        {
          "internalType": "enum DepositStatus",
          "name": "",
          "type": "uint8"
        }
      ],
      "stateMutability": "view",
      "type": "function"
    },
    {
      "inputs": [
        {
          "internalType": "uint256",
          "name": "",
          "type": "uint256"
        },
        {
          "internalType": "address",
          "name": "",
          "type": "address"
        }
      ],
      "name": "deposits",
      "outputs": [
        {
          "internalType": "uint256",
          "name": "",
          "type": "uint256"
        }
      ],
      "stateMutability": "view",
      "type": "function"
    },
    {
      "inputs": [
        {
          "internalType": "uint256",
          "name": "tenderId",
          "type": "uint256"
        },
        {
          "internalType": "address",
          "name": "bidder",
          "type": "address"
        }
      ],
      "name": "freeze",
      "outputs": [],
      "stateMutability": "nonpayable",
      "type": "function"
    },
    {
      "inputs": [
        {
          "internalType": "uint256",
          "name": "tenderId",
          "type": "uint256"
        },
        {
          "internalType": "address",
          "name": "bidder",
          "type": "address"
        }
      ],
      "name": "getDeposit",
      "outputs": [
        {
          "internalType": "uint256",
          "name": "",
          "type": "uint256"
        }
      ],
      "stateMutability": "view",
      "type": "function"
    },
    {
      "inputs": [
        {
          "internalType": "uint256",
          "name": "tenderId",
          "type": "uint256"
        },
        {
          "internalType": "address",
          "name": "bidder",
          "type": "address"
        }
      ],
      "name": "getDepositStatus",
      "outputs": [
        {
          "internalType": "enum DepositStatus",
          "name": "",
          "type": "uint8"
        }
      ],
      "stateMutability": "view",
      "type": "function"
    },
    {
      "inputs": [],
      "name": "owner",
      "outputs": [
        {
          "internalType": "address",
          "name": "",
          "type": "address"
        }
      ],
      "stateMutability": "view",
      "type": "function"
    },
    {
      "inputs": [],
      "name": "pendingOwner",
      "outputs": [
        {
          "internalType": "address",
          "name": "",
          "type": "address"
        }
      ],
      "stateMutability": "view",
      "type": "function"
    },
    {
      "inputs": [
        {
          "internalType": "uint256",
          "name": "tenderId",
          "type": "uint256"
        },
        {
          "internalType": "address",
          "name": "bidder",
          "type": "address"
        }
      ],
      "name": "refund",
      "outputs": [],
      "stateMutability": "nonpayable",
      "type": "function"
    },
    {
      "inputs": [
        {
          "internalType": "uint256",
          "name": "tenderId",
          "type": "uint256"
        },
        {
          "internalType": "address",
          "name": "bidder",
          "type": "address"
        }
      ],
      "name": "release",
      "outputs": [],
      "stateMutability": "nonpayable",
      "type": "function"
    },
    {
      "inputs": [],
      "name": "renounceOwnership",
      "outputs": [],
      "stateMutability": "nonpayable",
      "type": "function"
    },
    {
      "inputs": [
        {
          "internalType": "uint256",
          "name": "",
          "type": "uint256"
        }
      ],
      "name": "requiredDeposit",
      "outputs": [
        {
          "internalType": "uint256",
          "name": "",
          "type": "uint256"
        }
      ],
      "stateMutability": "view",
      "type": "function"
    },
    {
      "inputs": [
        {
          "internalType": "uint256",
          "name": "tenderId",
          "type": "uint256"
        },
        {
          "internalType": "uint256",
          "name": "amount",
          "type": "uint256"
        }
      ],
      "name": "setRequiredDeposit",
      "outputs": [],
      "stateMutability": "nonpayable",
      "type": "function"
    },
    {
      "inputs": [
        {
          "internalType": "uint256",
          "name": "tenderId",
          "type": "uint256"
        },
        {
          "internalType": "address",
          "name": "bidder",
          "type": "address"
        },
        {
          "internalType": "address",
          "name": "recipient",
          "type": "address"
        }
      ],
      "name": "slash",
      "outputs": [],
      "stateMutability": "nonpayable",
      "type": "function"
    },
    {
      "inputs": [
        {
          "internalType": "uint256",
          "name": "",
          "type": "uint256"
        }
      ],
      "name": "totalEscrow",
      "outputs": [
        {
          "internalType": "uint256",
          "name": "",
          "type": "uint256"
        }
      ],
      "stateMutability": "view",
      "type": "function"
    },
    {
      "inputs": [
        {
          "internalType": "address",
          "name": "newOwner",
          "type": "address"
        }
      ],
      "name": "transferOwnership",
      "outputs": [],
      "stateMutability": "nonpayable",
      "type": "function"
    },
    {
      "inputs": [
        {
          "internalType": "uint256",
          "name": "tenderId",
          "type": "uint256"
        },
        {
          "internalType": "address",
          "name": "bidder",
          "type": "address"
        }
      ],
      "name": "unfreeze",
      "outputs": [],
      "stateMutability": "nonpayable",
      "type": "function"
    }
  ],
  "transactionHash": "0xc323f50f54fb9277b59588aee0a0e2d292bbee522cc751c5ea4c0d8f47c4bab5",
  "args": [],
  "numDeployments": 1,
  "solcInputHash": "c1d4a13c7ba84a23b13656a108c4af42",
  "bytecode": "0x60808060405234609d573315608a57600180546001600160a01b03199081169091555f805433928116831782556001600160a01b0316907f8be0079c531659141344cd1fd0a4f28419497f9722a3daafe3b4186f6b6457e09080a360017f9b779b17422d0df92223018b32b4d1fa46e071723d6817e2486d003becc55f0055610e4990816100a28239f35b631e4fbdf760e01b5f525f60045260245ffd5b5f80fdfe60806040526004361015610011575f80fd5b5f3560e01c8063036429e014610be35780632c388d5d14610b765780634584002114610b4c578063536fff6c14610b0f57806353a58de1146106b95780636873c21d14610aab578063715018a614610a4457806379ba5097146109bd5780637ad226dc146108705780638124fea614610723578063838c4031146101715780638da5cb5b146106fe5780639f489e4e146106b9578063b6b55f251461058b578063be995dc214610396578063c258159b1461036c578063d2054ea0146102ec578063e30c3978146102c6578063e603f5b4146101c2578063eca8725c146101715763f2fde38b14610100575f80fd5b3461016d57602036600319011261016d576001600160a01b03610121610ccb565b610129610d66565b16806001600160a01b031960015416176001556001600160a01b035f54167f38d16b8cac22d99fc7c124b9cd0de2d3fa1faef420bfe791d8c362d765e227005f80a3005b5f80fd5b3461016d57604036600319011261016d5761018a610cb5565b6004355f5260046020526001600160a01b0360405f2091165f526020526101be60ff60405f20541660405191829182610ce1565b0390f35b3461016d57604036600319011261016d576004356101de610cb5565b335f52600660205260ff60405f20541615806102b2575b6102a357815f52600460205260405f206001600160a01b0382165f5260205260ff60405f205416600681101561028f57600203610280576001600160a01b0390825f52600460205260405f208282165f5260205260405f20600160ff1982541617905516907f70475304dc63c16c2b65b2b09ebd7e1a4db429c37c3d29e030ddda55b856023b5f80a3005b6302dd022560e01b5f5260045ffd5b634e487b7160e01b5f52602160045260245ffd5b63ea8e4eb560e01b5f5260045ffd5b506001600160a01b035f54163314156101f5565b3461016d575f36600319011261016d5760206001600160a01b0360015416604051908152f35b3461016d57604036600319011261016d57600435602435335f52600660205260ff60405f2054161580610358575b6102a35760207fc7aeaefc827a176771f5c1d6b73d1f0f43f1b200d19cac0cda46da652b8bc7e491835f52600282528060405f2055604051908152a2005b506001600160a01b035f541633141561031a565b3461016d57602036600319011261016d576004355f526002602052602060405f2054604051908152f35b3461016d57606036600319011261016d576004356103b2610cb5565b90604435916001600160a01b03831680930361016d57335f52600660205260ff60405f2054161580610577575b6102a3576103eb610d79565b815f52600460205260405f206001600160a01b0382165f5260205260ff60405f205416600681101561028f576001811415908161056b575b5061055c57821561054d57815f52600360205260405f206001600160a01b0382165f5260205260405f205490811561053e57825f52600460205260405f206001600160a01b0382165f5260205260405f20600560ff19825416179055825f52600360205260405f206001600160a01b0382165f526020525f6040812055825f52600560205260405f206104b7838254610cf4565b90555f80808085885af16104c9610d01565b501561052f576001600160a01b036040917f79d715b2c5e43c14d7646d082f7ea072696d866f16f52cc6e8ded01bc94afff793835196875260208701521693a360017f9b779b17422d0df92223018b32b4d1fa46e071723d6817e2486d003becc55f0055005b6312171d8360e31b5f5260045ffd5b633a6a68b160e01b5f5260045ffd5b63d92e233d60e01b5f5260045ffd5b636ca34c6b60e01b5f5260045ffd5b60029150141584610423565b506001600160a01b035f54163314156103df565b602036600319011261016d57600435805f52600460205260405f206001600160a01b0333165f5260205260ff60405f205416600681101561028f576106aa57805f52600260205260405f2054801561069b57341061068c57805f52600360205260405f206001600160a01b0333165f5260205260405f20349055805f52600460205260405f206001600160a01b0333165f5260205260405f20600160ff19825416179055805f52600560205260405f208054903482018092116106785755604051903482527f9a57bbb234b70fc26fbb5c8d65f00c0bba23b19c4a7bb1aedb26c7a04269f74760203393a3005b634e487b7160e01b5f52601160045260245ffd5b63070f6eed60e11b5f5260045ffd5b637f5a4fc760e11b5f5260045ffd5b63c44bd76560e01b5f5260045ffd5b3461016d57604036600319011261016d576106d2610cb5565b6004355f5260036020526001600160a01b0360405f2091165f52602052602060405f2054604051908152f35b3461016d575f36600319011261016d5760206001600160a01b035f5416604051908152f35b3461016d57604036600319011261016d5760043561073f610cb5565b90335f52600660205260ff60405f205416158061085c575b6102a357610763610d79565b61076d8282610dd7565b805f52600360205260405f206001600160a01b0383165f5260205260405f205491821561053e576001600160a01b0390825f52600460205260405f208282165f5260205260405f20600360ff19825416179055825f52600360205260405f208282165f526020525f6040812055825f52600560205260405f206107f1858254610cf4565b905516915f80808084875af1610805610d01565b501561052f5760207f6244ed823ca6be0f11bc890c3fafcf3c29cb23420c14243642e930b5e07e6d0a91604051908152a360017f9b779b17422d0df92223018b32b4d1fa46e071723d6817e2486d003becc55f0055005b506001600160a01b035f5416331415610757565b3461016d57604036600319011261016d5760043561088c610cb5565b90335f52600660205260ff60405f20541615806109a9575b6102a3576108b0610d79565b6108ba8282610dd7565b805f52600360205260405f206001600160a01b0383165f5260205260405f205491821561053e576001600160a01b0390825f52600460205260405f208282165f5260205260405f20600460ff19825416179055825f52600360205260405f208282165f526020525f6040812055825f52600560205260405f2061093e858254610cf4565b905516915f80808084875af1610952610d01565b501561052f5760207feac97bc1917fcedc984e3d0671d4e83b359890323d5d1c2de32b28d17c356ced91604051908152a360017f9b779b17422d0df92223018b32b4d1fa46e071723d6817e2486d003becc55f0055005b506001600160a01b035f54163314156108a4565b3461016d575f36600319011261016d57336001600160a01b036001541603610a31576001600160a01b0319600154166001555f54336001600160a01b03198216175f556001600160a01b033391167f8be0079c531659141344cd1fd0a4f28419497f9722a3daafe3b4186f6b6457e05f80a3005b63118cdaa760e01b5f523360045260245ffd5b3461016d575f36600319011261016d57610a5c610d66565b6001600160a01b0319600154166001555f6001600160a01b0381546001600160a01b031981168355167f8be0079c531659141344cd1fd0a4f28419497f9722a3daafe3b4186f6b6457e08280a3005b3461016d57602036600319011261016d576001600160a01b03610acc610ccb565b610ad4610d66565b16805f52600660205260405f2060ff1981541690557fe4f65e2ca2c83e5b4ae9247816d99b62550f320cc4196d714109b21c3dc096565f80a2005b3461016d57602036600319011261016d576001600160a01b03610b30610ccb565b165f526006602052602060ff60405f2054166040519015158152f35b3461016d57602036600319011261016d576004355f526005602052602060405f2054604051908152f35b3461016d57602036600319011261016d576001600160a01b03610b97610ccb565b610b9f610d66565b16801561054d57805f52600660205260405f20600160ff198254161790557f6acfd92212f0ec670af78f8ba2273e4a85ac17023475650c25be0440602bff2d5f80a2005b3461016d57604036600319011261016d57600435610bff610cb5565b335f52600660205260ff60405f2054161580610ca1575b6102a357815f52600460205260405f206001600160a01b0382165f5260205260ff60405f205416600681101561028f5760010361055c576001600160a01b0390825f52600460205260405f208282165f5260205260405f20600260ff1982541617905516907fc65e773974e1a88f6455a997f6f51013f5c87b4a8d323675e61b4d2e091e059f5f80a3005b506001600160a01b035f5416331415610c16565b602435906001600160a01b038216820361016d57565b600435906001600160a01b038216820361016d57565b91906020830192600682101561028f5752565b9190820391821161067857565b3d15610d61573d9067ffffffffffffffff8211610d4d5760405191601f8101601f19908116603f0116830167ffffffffffffffff811184821017610d4d5760405282523d5f602084013e565b634e487b7160e01b5f52604160045260245ffd5b606090565b6001600160a01b035f54163303610a3157565b60027f9b779b17422d0df92223018b32b4d1fa46e071723d6817e2486d003becc55f005414610dc85760027f9b779b17422d0df92223018b32b4d1fa46e071723d6817e2486d003becc55f0055565b633ee5aeb560e01b5f5260045ffd5b5f5260046020526001600160a01b0360405f2091165f5260205260ff60405f205416600681101561028f5760028114610280575f190161055c5756fea2646970667358221220594c40de0e9896f7d03f24960d2fee6bad4d4f906b5bdc611d2229e5e0e11c2b64736f6c634300081b0033",
  "devdoc": {
    "errors": {
      "OwnableInvalidOwner(address)": [
        {
          "details": "The owner is not a valid owner account. (eg. `address(0)`)"
        }
      ],
      "OwnableUnauthorizedAccount(address)": [
        {
          "details": "The caller account is not authorized to perform an operation."
        }
      ],
      "ReentrancyGuardReentrantCall()": [
        {
          "details": "Unauthorized reentrant call."
        }
      ]
    },
    "kind": "dev",
    "methods": {
      "acceptOwnership()": {
        "details": "The new owner accepts the ownership transfer."
      },
      "owner()": {
        "details": "Returns the address of the current owner."
      },
      "pendingOwner()": {
        "details": "Returns the address of the pending owner."
      },
      "renounceOwnership()": {
        "details": "Leaves the contract without owner. It will not be possible to call `onlyOwner` functions. Can only be called by the current owner. NOTE: Renouncing ownership will leave the contract without an owner, thereby disabling any functionality that is only available to the owner."
      },
      "transferOwnership(address)": {
        "details": "Starts the ownership transfer of the contract to a new account. Replaces the pending transfer if there is one. Can only be called by the current owner. Setting `newOwner` to the zero address is allowed; this can be used to cancel an initiated ownership transfer."
      }
    },
    "title": "BidEscrow",
    "version": 1
  },
  "userdoc": {
    "kind": "user",
    "methods": {},
    "notice": "Holds ETH escrow deposits for tender bidders.",
    "version": 1
  },
  "storageLayout": {
    "storage": [
      {
        "astId": 43858,
        "contract": "contracts/core/BidEscrow.sol:BidEscrow",
        "label": "_owner",
        "offset": 0,
        "slot": "0",
        "type": "t_address"
      },
      {
        "astId": 44006,
        "contract": "contracts/core/BidEscrow.sol:BidEscrow",
        "label": "_pendingOwner",
        "offset": 0,
        "slot": "1",
        "type": "t_address"
      },
      {
        "astId": 45136,
        "contract": "contracts/core/BidEscrow.sol:BidEscrow",
        "label": "requiredDeposit",
        "offset": 0,
        "slot": "2",
        "type": "t_mapping(t_uint256,t_uint256)"
      },
      {
        "astId": 45142,
        "contract": "contracts/core/BidEscrow.sol:BidEscrow",
        "label": "deposits",
        "offset": 0,
        "slot": "3",
        "type": "t_mapping(t_uint256,t_mapping(t_address,t_uint256))"
      },
      {
        "astId": 45149,
        "contract": "contracts/core/BidEscrow.sol:BidEscrow",
        "label": "depositStatus",
        "offset": 0,
        "slot": "4",
        "type": "t_mapping(t_uint256,t_mapping(t_address,t_enum(DepositStatus)48293))"
      },
      {
        "astId": 45153,
        "contract": "contracts/core/BidEscrow.sol:BidEscrow",
        "label": "totalEscrow",
        "offset": 0,
        "slot": "5",
        "type": "t_mapping(t_uint256,t_uint256)"
      },
      {
        "astId": 45157,
        "contract": "contracts/core/BidEscrow.sol:BidEscrow",
        "label": "authorizedCallers",
        "offset": 0,
        "slot": "6",
        "type": "t_mapping(t_address,t_bool)"
      }
    ],
    "types": {
      "t_address": {
        "encoding": "inplace",
        "label": "address",
        "numberOfBytes": "20"
      },
      "t_bool": {
        "encoding": "inplace",
        "label": "bool",
        "numberOfBytes": "1"
      },
      "t_enum(DepositStatus)48293": {
        "encoding": "inplace",
        "label": "enum DepositStatus",
        "numberOfBytes": "1"
      },
      "t_mapping(t_address,t_bool)": {
        "encoding": "mapping",
        "key": "t_address",
        "label": "mapping(address => bool)",
        "numberOfBytes": "32",
        "value": "t_bool"
      },
      "t_mapping(t_address,t_enum(DepositStatus)48293)": {
        "encoding": "mapping",
        "key": "t_address",
        "label": "mapping(address => enum DepositStatus)",
        "numberOfBytes": "32",
        "value": "t_enum(DepositStatus)48293"
      },
      "t_mapping(t_address,t_uint256)": {
        "encoding": "mapping",
        "key": "t_address",
        "label": "mapping(address => uint256)",
        "numberOfBytes": "32",
        "value": "t_uint256"
      },
      "t_mapping(t_uint256,t_mapping(t_address,t_enum(DepositStatus)48293))": {
        "encoding": "mapping",
        "key": "t_uint256",
        "label": "mapping(uint256 => mapping(address => enum DepositStatus))",
        "numberOfBytes": "32",
        "value": "t_mapping(t_address,t_enum(DepositStatus)48293)"
      },
      "t_mapping(t_uint256,t_mapping(t_address,t_uint256))": {
        "encoding": "mapping",
        "key": "t_uint256",
        "label": "mapping(uint256 => mapping(address => uint256))",
        "numberOfBytes": "32",
        "value": "t_mapping(t_address,t_uint256)"
      },
      "t_mapping(t_uint256,t_uint256)": {
        "encoding": "mapping",
        "key": "t_uint256",
        "label": "mapping(uint256 => uint256)",
        "numberOfBytes": "32",
        "value": "t_uint256"
      },
      "t_uint256": {
        "encoding": "inplace",
        "label": "uint256",
        "numberOfBytes": "32"
      }
    }
  }
}