{
  "address": "0x76FBC67992459E972b80A88e11a5c15B0CFDBD11",
  "abi": [
    {
      "inputs": [],
      "stateMutability": "nonpayable",
      "type": "constructor"
    },
    {
      "inputs": [],
      "name": "DepositAlreadyExists",
      "type": "error"
    },
    {
      "inputs": [],
      "name": "DepositFrozen",
      "type": "error"
    },
    {
      "inputs": [],
      "name": "DepositNotActive",
      "type": "error"
    },
    {
      "inputs": [],
      "name": "InsufficientDeposit",
      "type": "error"
    },
    {
      "inputs": [],
      "name": "NoDeposit",
      "type": "error"
    },
    {
      "inputs": [],
      "name": "NotAuthorized",
      "type": "error"
    },
    {
      "inputs": [
        {
          "internalType": "address",
          "name": "owner",
          "type": "address"
        }
      ],
      "name": "OwnableInvalidOwner",
      "type": "error"
    },
    {
      "inputs": [
        {
          "internalType": "address",
          "name": "account",
          "type": "address"
        }
      ],
      "name": "OwnableUnauthorizedAccount",
      "type": "error"
    },
    {
      "inputs": [],
      "name": "ReentrancyGuardReentrantCall",
      "type": "error"
    },
    {
      "inputs": [],
      "name": "TenderNotCancelled",
      "type": "error"
    },
    {
      "inputs": [],
      "name": "TenderNotConfigured",
      "type": "error"
    },
    {
      "inputs": [],
      "name": "TenderUnknown",
      "type": "error"
    },
    {
      "inputs": [],
      "name": "TransferFailed",
      "type": "error"
    },
    {
      "inputs": [],
      "name": "ZeroAddress",
      "type": "error"
    },
    {
      "anonymous": false,
      "inputs": [
        {
          "indexed": true,
          "internalType": "address",
          "name": "caller",
          "type": "address"
        }
      ],
      "name": "CallerAuthorized",
      "type": "event"
    },
    {
      "anonymous": false,
      "inputs": [
        {
          "indexed": true,
          "internalType": "address",
          "name": "caller",
          "type": "address"
        }
      ],
      "name": "CallerDeauthorized",
      "type": "event"
    },
    {
      "anonymous": false,
      "inputs": [
        {
          "indexed": true,
          "internalType": "uint256",
          "name": "tenderId",
          "type": "uint256"
        },
        {
          "indexed": true,
          "internalType": "address",
          "name": "bidder",
          "type": "address"
        },
        {
          "indexed": false,
          "internalType": "uint256",
          "name": "amount",
          "type": "uint256"
        }
      ],
      "name": "EscrowDeposited",
      "type": "event"
    },
    {
      "anonymous": false,
      "inputs": [
        {
          "indexed": true,
          "internalType": "uint256",
          "name": "tenderId",
          "type": "uint256"
        },
        {
          "indexed": true,
          "internalType": "address",
          "name": "bidder",
          "type": "address"
        }
      ],
      "name": "EscrowFrozen",
      "type": "event"
    },
    {
      "anonymous": false,
      "inputs": [
        {
          "indexed": true,
          "internalType": "uint256",
          "name": "tenderId",
          "type": "uint256"
        },
        {
          "indexed": true,
          "internalType": "address",
          "name": "bidder",
          "type": "address"
        },
        {
          "indexed": false,
          "internalType": "uint256",
          "name": "amount",
          "type": "uint256"
        }
      ],
      "name": "EscrowRefunded",
      "type": "event"
    },
    {
      "anonymous": false,
      "inputs": [
        {
          "indexed": true,
          "internalType": "uint256",
          "name": "tenderId",
          "type": "uint256"
        },
        {
          "indexed": true,
          "internalType": "address",
          "name": "bidder",
          "type": "address"
        },
        {
          "indexed": false,
          "internalType": "uint256",
          "name": "amount",
          "type": "uint256"
        }
      ],
      "name": "EscrowReleased",
      "type": "event"
    },
    {
      "anonymous": false,
      "inputs": [
        {
          "indexed": true,
          "internalType": "uint256",
          "name": "tenderId",
          "type": "uint256"
        },
        {
          "indexed": true,
          "internalType": "address",
          "name": "bidder",
          "type": "address"
        },
        {
          "indexed": false,
          "internalType": "address",
          "name": "recipient",
          "type": "address"
        },
        {
          "indexed": false,
          "internalType": "uint256",
          "name": "amount",
          "type": "uint256"
        }
      ],
      "name": "EscrowSlashed",
      "type": "event"
    },
    {
      "anonymous": false,
      "inputs": [
        {
          "indexed": true,
          "internalType": "uint256",
          "name": "tenderId",
          "type": "uint256"
        },
        {
          "indexed": true,
          "internalType": "address",
          "name": "bidder",
          "type": "address"
        }
      ],
      "name": "EscrowUnfrozen",
      "type": "event"
    },
    {
      "anonymous": false,
      "inputs": [
        {
          "indexed": true,
          "internalType": "address",
          "name": "previousOwner",
          "type": "address"
        },
        {
          "indexed": true,
          "internalType": "address",
          "name": "newOwner",
          "type": "address"
        }
      ],
      "name": "OwnershipTransferStarted",
      "type": "event"
    },
    {
      "anonymous": false,
      "inputs": [
        {
          "indexed": true,
          "internalType": "address",
          "name": "previousOwner",
          "type": "address"
        },
        {
          "indexed": true,
          "internalType": "address",
          "name": "newOwner",
          "type": "address"
        }
      ],
      "name": "OwnershipTransferred",
      "type": "event"
    },
    {
      "anonymous": false,
      "inputs": [
        {
          "indexed": true,
          "internalType": "uint256",
          "name": "tenderId",
          "type": "uint256"
        },
        {
          "indexed": true,
          "internalType": "address",
          "name": "bidder",
          "type": "address"
        },
        {
          "indexed": false,
          "internalType": "uint256",
          "name": "amount",
          "type": "uint256"
        }
      ],
      "name": "RefundClaimed",
      "type": "event"
    },
    {
      "anonymous": false,
      "inputs": [
        {
          "indexed": true,
          "internalType": "uint256",
          "name": "tenderId",
          "type": "uint256"
        },
        {
          "indexed": false,
          "internalType": "uint256",
          "name": "amount",
          "type": "uint256"
        }
      ],
      "name": "RequiredDepositSet",
      "type": "event"
    },
    {
      "anonymous": false,
      "inputs": [
        {
          "indexed": true,
          "internalType": "uint256",
          "name": "tenderId",
          "type": "uint256"
        },
        {
          "indexed": true,
          "internalType": "address",
          "name": "tender",
          "type": "address"
        }
      ],
      "name": "TenderRecorded",
      "type": "event"
    },
    {
      "inputs": [],
      "name": "TENDER_STATE_CANCELLED",
      "outputs": [
        {
          "internalType": "uint8",
          "name": "",
          "type": "uint8"
        }
      ],
      "stateMutability": "view",
      "type": "function"
    },
    {
      "inputs": [],
      "name": "acceptOwnership",
      "outputs": [],
      "stateMutability": "nonpayable",
      "type": "function"
    },
    {
      "inputs": [
        {
          "internalType": "address",
          "name": "caller",
          "type": "address"
        }
      ],
      "name": "authorizeCaller",
      "outputs": [],
      "stateMutability": "nonpayable",
      "type": "function"
    },
    {
      "inputs": [
        {
          "internalType": "address",
          "name": "",
          "type": "address"
        }
      ],
      "name": "authorizedCallers",
      "outputs": [
        {
          "internalType": "bool",
          "name": "",
          "type": "bool"
        }
      ],
      "stateMutability": "view",
      "type": "function"
    },
    {
      "inputs": [
        {
          "internalType": "uint256",
          "name": "tenderId",
          "type": "uint256"
        }
      ],
      "name": "claimRefund",
      "outputs": [],
      "stateMutability": "nonpayable",
      "type": "function"
    },
    {
      "inputs": [
        {
          "internalType": "address",
          "name": "caller",
          "type": "address"
        }
      ],
      "name": "deauthorizeCaller",
      "outputs": [],
      "stateMutability": "nonpayable",
      "type": "function"
    },
    {
      "inputs": [
        {
          "internalType": "uint256",
          "name": "tenderId",
          "type": "uint256"
        }
      ],
      "name": "deposit",
      "outputs": [],
      "stateMutability": "payable",
      "type": "function"
    },
    {
      "inputs": [
        {
          "internalType": "uint256",
          "name": "",
          "type": "uint256"
        },
        {
          "internalType": "address",
          "name": "",
          "type": "address"
        }
      ],
      "name": "depositStatus",
      "outputs": [
        {
          "internalType": "enum DepositStatus",
          "name": "",
          "type": "uint8"
        }
      ],
      "stateMutability": "view",
      "type": "function"
    },
    {
      "inputs": [
        {
          "internalType": "uint256",
          "name": "",
          "type": "uint256"
        },
        {
          "internalType": "address",
          "name": "",
          "type": "address"
        }
      ],
      "name": "deposits",
      "outputs": [
        {
          "internalType": "uint256",
          "name": "",
          "type": "uint256"
        }
      ],
      "stateMutability": "view",
      "type": "function"
    },
    {
      "inputs": [
        {
          "internalType": "uint256",
          "name": "tenderId",
          "type": "uint256"
        },
        {
          "internalType": "address",
          "name": "bidder",
          "type": "address"
        }
      ],
      "name": "freeze",
      "outputs": [],
      "stateMutability": "nonpayable",
      "type": "function"
    },
    {
      "inputs": [
        {
          "internalType": "uint256",
          "name": "tenderId",
          "type": "uint256"
        },
        {
          "internalType": "address",
          "name": "bidder",
          "type": "address"
        }
      ],
      "name": "getDeposit",
      "outputs": [
        {
          "internalType": "uint256",
          "name": "",
          "type": "uint256"
        }
      ],
      "stateMutability": "view",
      "type": "function"
    },
    {
      "inputs": [
        {
          "internalType": "uint256",
          "name": "tenderId",
          "type": "uint256"
        },
        {
          "internalType": "address",
          "name": "bidder",
          "type": "address"
        }
      ],
      "name": "getDepositStatus",
      "outputs": [
        {
          "internalType": "enum DepositStatus",
          "name": "",
          "type": "uint8"
        }
      ],
      "stateMutability": "view",
      "type": "function"
    },
    {
      "inputs": [],
      "name": "owner",
      "outputs": [
        {
          "internalType": "address",
          "name": "",
          "type": "address"
        }
      ],
      "stateMutability": "view",
      "type": "function"
    },
    {
      "inputs": [],
      "name": "pendingOwner",
      "outputs": [
        {
          "internalType": "address",
          "name": "",
          "type": "address"
        }
      ],
      "stateMutability": "view",
      "type": "function"
    },
    {
      "inputs": [
        {
          "internalType": "uint256",
          "name": "tenderId",
          "type": "uint256"
        },
        {
          "internalType": "address",
          "name": "bidder",
          "type": "address"
        }
      ],
      "name": "refund",
      "outputs": [],
      "stateMutability": "nonpayable",
      "type": "function"
    },
    {
      "inputs": [
        {
          "internalType": "uint256",
          "name": "tenderId",
          "type": "uint256"
        },
        {
          "internalType": "address",
          "name": "bidder",
          "type": "address"
        }
      ],
      "name": "release",
      "outputs": [],
      "stateMutability": "nonpayable",
      "type": "function"
    },
    {
      "inputs": [],
      "name": "renounceOwnership",
      "outputs": [],
      "stateMutability": "nonpayable",
      "type": "function"
    },
    {
      "inputs": [
        {
          "internalType": "uint256",
          "name": "",
          "type": "uint256"
        }
      ],
      "name": "requiredDeposit",
      "outputs": [
        {
          "internalType": "uint256",
          "name": "",
          "type": "uint256"
        }
      ],
      "stateMutability": "view",
      "type": "function"
    },
    {
      "inputs": [
        {
          "internalType": "uint256",
          "name": "tenderId",
          "type": "uint256"
        },
        {
          "internalType": "uint256",
          "name": "amount",
          "type": "uint256"
        }
      ],
      "name": "setRequiredDeposit",
      "outputs": [],
      "stateMutability": "nonpayable",
      "type": "function"
    },
    {
      "inputs": [
        {
          "internalType": "uint256",
          "name": "tenderId",
          "type": "uint256"
        },
        {
          "internalType": "address",
          "name": "tender",
          "type": "address"
        }
      ],
      "name": "setTenderAddress",
      "outputs": [],
      "stateMutability": "nonpayable",
      "type": "function"
    },
    {
      "inputs": [
        {
          "internalType": "uint256",
          "name": "tenderId",
          "type": "uint256"
        },
        {
          "internalType": "address",
          "name": "bidder",
          "type": "address"
        },
        {
          "internalType": "address",
          "name": "recipient",
          "type": "address"
        }
      ],
      "name": "slash",
      "outputs": [],
      "stateMutability": "nonpayable",
      "type": "function"
    },
    {
      "inputs": [
        {
          "internalType": "uint256",
          "name": "",
          "type": "uint256"
        }
      ],
      "name": "tenderOf",
      "outputs": [
        {
          "internalType": "address",
          "name": "",
          "type": "address"
        }
      ],
      "stateMutability": "view",
      "type": "function"
    },
    {
      "inputs": [
        {
          "internalType": "uint256",
          "name": "",
          "type": "uint256"
        }
      ],
      "name": "totalEscrow",
      "outputs": [
        {
          "internalType": "uint256",
          "name": "",
          "type": "uint256"
        }
      ],
      "stateMutability": "view",
      "type": "function"
    },
    {
      "inputs": [
        {
          "internalType": "address",
          "name": "newOwner",
          "type": "address"
        }
      ],
      "name": "transferOwnership",
      "outputs": [],
      "stateMutability": "nonpayable",
      "type": "function"
    },
    {
      "inputs": [
        {
          "internalType": "uint256",
          "name": "tenderId",
          "type": "uint256"
        },
        {
          "internalType": "address",
          "name": "bidder",
          "type": "address"
        }
      ],
      "name": "unfreeze",
      "outputs": [],
      "stateMutability": "nonpayable",
      "type": "function"
    }
  ],
  "transactionHash": "0xb9c38ec657ff224c3aacf4102b5222e6d7d8133fa5847558a111b4ae10557154",
  "args": [],
  "numDeployments": 1,
  "solcInputHash": "9705b77375986b838297f5f6d72d7064",
  "bytecode": "0x60808060405234609d573315608a57600180546001600160a01b03199081169091555f805433928116831782556001600160a01b0316907f8be0079c531659141344cd1fd0a4f28419497f9722a3daafe3b4186f6b6457e09080a360017f9b779b17422d0df92223018b32b4d1fa46e071723d6817e2486d003becc55f005561116990816100a28239f35b631e4fbdf760e01b5f525f60045260245ffd5b5f80fdfe60806040526004361015610011575f80fd5b5f3560e01c8063036429e014610ef35780632c388d5d14610e865780634584002114610e5c578063536fff6c14610e1f57806353a58de1146107185780635b7baf6414610c265780636873c21d14610bc2578063715018a614610b5b57806379ba509714610ad45780637ad226dc146109875780638124fea61461083a578063815b42011461081f578063838c40311461019d5780638da5cb5b146107fa57806397220e821461075d5780639f489e4e14610718578063b6b55f25146105ea578063be995dc2146103f5578063c258159b146103cb578063d2054ea01461034b578063d948fddf14610318578063e30c3978146102f2578063e603f5b4146101ee578063eca8725c1461019d5763f2fde38b1461012c575f80fd5b34610199576020366003190112610199576001600160a01b0361014d610fdb565b610155611086565b16806001600160a01b031960015416176001556001600160a01b035f54167f38d16b8cac22d99fc7c124b9cd0de2d3fa1faef420bfe791d8c362d765e227005f80a3005b5f80fd5b34610199576040366003190112610199576101b6610fc5565b6004355f5260046020526001600160a01b0360405f2091165f526020526101ea60ff60405f20541660405191829182610ff1565b0390f35b346101995760403660031901126101995760043561020a610fc5565b335f52600660205260ff60405f20541615806102de575b6102cf57815f52600460205260405f206001600160a01b0382165f5260205260ff60405f20541660068110156102bb576002036102ac576001600160a01b0390825f52600460205260405f208282165f5260205260405f20600160ff1982541617905516907f70475304dc63c16c2b65b2b09ebd7e1a4db429c37c3d29e030ddda55b856023b5f80a3005b6302dd022560e01b5f5260045ffd5b634e487b7160e01b5f52602160045260245ffd5b63ea8e4eb560e01b5f5260045ffd5b506001600160a01b035f5416331415610221565b34610199575f3660031901126101995760206001600160a01b0360015416604051908152f35b34610199576020366003190112610199576004355f52600760205260206001600160a01b0360405f205416604051908152f35b3461019957604036600319011261019957600435602435335f52600660205260ff60405f20541615806103b7575b6102cf5760207fc7aeaefc827a176771f5c1d6b73d1f0f43f1b200d19cac0cda46da652b8bc7e491835f52600282528060405f2055604051908152a2005b506001600160a01b035f5416331415610379565b34610199576020366003190112610199576004355f526002602052602060405f2054604051908152f35b3461019957606036600319011261019957600435610411610fc5565b90604435916001600160a01b03831680930361019957335f52600660205260ff60405f20541615806105d6575b6102cf5761044a611099565b815f52600460205260405f206001600160a01b0382165f5260205260ff60405f20541660068110156102bb57600181141590816105ca575b506105bb5782156105ac57815f52600360205260405f206001600160a01b0382165f5260205260405f205490811561059d57825f52600460205260405f206001600160a01b0382165f5260205260405f20600560ff19825416179055825f52600360205260405f206001600160a01b0382165f526020525f6040812055825f52600560205260405f2061051683825461103a565b90555f80808085885af1610528611047565b501561058e576001600160a01b036040917f79d715b2c5e43c14d7646d082f7ea072696d866f16f52cc6e8ded01bc94afff793835196875260208701521693a360017f9b779b17422d0df92223018b32b4d1fa46e071723d6817e2486d003becc55f0055005b6312171d8360e31b5f5260045ffd5b633a6a68b160e01b5f5260045ffd5b63d92e233d60e01b5f5260045ffd5b636ca34c6b60e01b5f5260045ffd5b60029150141584610482565b506001600160a01b035f541633141561043e565b602036600319011261019957600435805f52600460205260405f206001600160a01b0333165f5260205260ff60405f20541660068110156102bb5761070957805f52600260205260405f205480156106fa5734106106eb57805f52600360205260405f206001600160a01b0333165f5260205260405f20349055805f52600460205260405f206001600160a01b0333165f5260205260405f20600160ff19825416179055805f52600560205260405f208054903482018092116106d75755604051903482527f9a57bbb234b70fc26fbb5c8d65f00c0bba23b19c4a7bb1aedb26c7a04269f74760203393a3005b634e487b7160e01b5f52601160045260245ffd5b63070f6eed60e11b5f5260045ffd5b637f5a4fc760e11b5f5260045ffd5b63c44bd76560e01b5f5260045ffd5b3461019957604036600319011261019957610731610fc5565b6004355f5260036020526001600160a01b0360405f2091165f52602052602060405f2054604051908152f35b3461019957604036600319011261019957600435610779610fc5565b335f52600660205260ff60405f20541615806107e6575b6102cf576001600160a01b03169081156105ac57805f52600760205260405f20826001600160a01b03198254161790557f7f44a28ad5617b62d011935c95343c09edc7996f6c2dade2693773e8eac1f77f5f80a3005b506001600160a01b035f5416331415610790565b34610199575f3660031901126101995760206001600160a01b035f5416604051908152f35b34610199575f36600319011261019957602060405160058152f35b3461019957604036600319011261019957600435610856610fc5565b90335f52600660205260ff60405f2054161580610973575b6102cf5761087a611099565b61088482826110f7565b805f52600360205260405f206001600160a01b0383165f5260205260405f205491821561059d576001600160a01b0390825f52600460205260405f208282165f5260205260405f20600360ff19825416179055825f52600360205260405f208282165f526020525f6040812055825f52600560205260405f2061090885825461103a565b905516915f80808084875af161091c611047565b501561058e5760207f6244ed823ca6be0f11bc890c3fafcf3c29cb23420c14243642e930b5e07e6d0a91604051908152a360017f9b779b17422d0df92223018b32b4d1fa46e071723d6817e2486d003becc55f0055005b506001600160a01b035f541633141561086e565b34610199576040366003190112610199576004356109a3610fc5565b90335f52600660205260ff60405f2054161580610ac0575b6102cf576109c7611099565b6109d182826110f7565b805f52600360205260405f206001600160a01b0383165f5260205260405f205491821561059d576001600160a01b0390825f52600460205260405f208282165f5260205260405f20600460ff19825416179055825f52600360205260405f208282165f526020525f6040812055825f52600560205260405f20610a5585825461103a565b905516915f80808084875af1610a69611047565b501561058e5760207feac97bc1917fcedc984e3d0671d4e83b359890323d5d1c2de32b28d17c356ced91604051908152a360017f9b779b17422d0df92223018b32b4d1fa46e071723d6817e2486d003becc55f0055005b506001600160a01b035f54163314156109bb565b34610199575f36600319011261019957336001600160a01b036001541603610b48576001600160a01b0319600154166001555f54336001600160a01b03198216175f556001600160a01b033391167f8be0079c531659141344cd1fd0a4f28419497f9722a3daafe3b4186f6b6457e05f80a3005b63118cdaa760e01b5f523360045260245ffd5b34610199575f36600319011261019957610b73611086565b6001600160a01b0319600154166001555f6001600160a01b0381546001600160a01b031981168355167f8be0079c531659141344cd1fd0a4f28419497f9722a3daafe3b4186f6b6457e08280a3005b34610199576020366003190112610199576001600160a01b03610be3610fdb565b610beb611086565b16805f52600660205260405f2060ff1981541690557fe4f65e2ca2c83e5b4ae9247816d99b62550f320cc4196d714109b21c3dc096565f80a2005b3461019957602036600319011261019957600435610c42611099565b805f5260076020526001600160a01b0360405f2054168015610e105760206004916040519283809263c19d93fb60e01b82525afa908115610e05575f91610dc8575b5060ff6005911603610dba57610c9a33826110f7565b805f52600360205260405f206001600160a01b0333165f5260205260405f205490811561059d57805f52600460205260405f206001600160a01b0333165f5260205260405f20600460ff19825416179055805f52600360205260405f206001600160a01b0333165f526020525f6040812055805f52600560205260405f20610d2383825461103a565b90555f80808085335af1610d35611047565b501561058e57604051828152817feac97bc1917fcedc984e3d0671d4e83b359890323d5d1c2de32b28d17c356ced60203393a36040519182527ff3f402280ef0a7905e124aa621b65eaeb2725c343e8b36d398ed78c29daf285c60203393a360017f9b779b17422d0df92223018b32b4d1fa46e071723d6817e2486d003becc55f0055005b62019bc360e11b5f5260045ffd5b90506020813d602011610dfd575b81610de360209383611004565b81010312610199575160ff811681036101995760ff610c84565b3d9150610dd6565b6040513d5f823e3d90fd5b637f9096fd60e01b5f5260045ffd5b34610199576020366003190112610199576001600160a01b03610e40610fdb565b165f526006602052602060ff60405f2054166040519015158152f35b34610199576020366003190112610199576004355f526005602052602060405f2054604051908152f35b34610199576020366003190112610199576001600160a01b03610ea7610fdb565b610eaf611086565b1680156105ac57805f52600660205260405f20600160ff198254161790557f6acfd92212f0ec670af78f8ba2273e4a85ac17023475650c25be0440602bff2d5f80a2005b3461019957604036600319011261019957600435610f0f610fc5565b335f52600660205260ff60405f2054161580610fb1575b6102cf57815f52600460205260405f206001600160a01b0382165f5260205260ff60405f20541660068110156102bb576001036105bb576001600160a01b0390825f52600460205260405f208282165f5260205260405f20600260ff1982541617905516907fc65e773974e1a88f6455a997f6f51013f5c87b4a8d323675e61b4d2e091e059f5f80a3005b506001600160a01b035f5416331415610f26565b602435906001600160a01b038216820361019957565b600435906001600160a01b038216820361019957565b9190602083019260068210156102bb5752565b90601f8019910116810190811067ffffffffffffffff82111761102657604052565b634e487b7160e01b5f52604160045260245ffd5b919082039182116106d757565b3d15611081573d9067ffffffffffffffff82116110265760405191611076601f8201601f191660200184611004565b82523d5f602084013e565b606090565b6001600160a01b035f54163303610b4857565b60027f9b779b17422d0df92223018b32b4d1fa46e071723d6817e2486d003becc55f0054146110e85760027f9b779b17422d0df92223018b32b4d1fa46e071723d6817e2486d003becc55f0055565b633ee5aeb560e01b5f5260045ffd5b5f5260046020526001600160a01b0360405f2091165f5260205260ff60405f20541660068110156102bb57600281146102ac575f19016105bb5756fea26469706673582212203b202dc1e0222cd3137faa8dec7911ee4819542b4a04f4c965ab81446208290264736f6c634300081b0033",
  "devdoc": {
    "errors": {
      "OwnableInvalidOwner(address)": [
        {
          "details": "The owner is not a valid owner account. (eg. `address(0)`)"
        }
      ],
      "OwnableUnauthorizedAccount(address)": [
        {
          "details": "The caller account is not authorized to perform an operation."
        }
      ],
      "ReentrancyGuardReentrantCall()": [
        {
          "details": "Unauthorized reentrant call."
        }
      ]
    },
    "kind": "dev",
    "methods": {
      "acceptOwnership()": {
        "details": "The new owner accepts the ownership transfer."
      },
      "owner()": {
        "details": "Returns the address of the current owner."
      },
      "pendingOwner()": {
        "details": "Returns the address of the pending owner."
      },
      "renounceOwnership()": {
        "details": "Leaves the contract without owner. It will not be possible to call `onlyOwner` functions. Can only be called by the current owner. NOTE: Renouncing ownership will leave the contract without an owner, thereby disabling any functionality that is only available to the owner."
      },
      "transferOwnership(address)": {
        "details": "Starts the ownership transfer of the contract to a new account. Replaces the pending transfer if there is one. Can only be called by the current owner. Setting `newOwner` to the zero address is allowed; this can be used to cancel an initiated ownership transfer."
      }
    },
    "version": 1
  },
  "userdoc": {
    "kind": "user",
    "methods": {
      "TENDER_STATE_CANCELLED()": {
        "notice": "TenderState.Cancelled enum value (matches ISealTender.sol)."
      },
      "claimRefund(uint256)": {
        "notice": "Permissionless refund path: any depositor can pull back their         escrow once the tender has entered {TenderState.Cancelled}.         Protects bidders if the tender contract goes silent and never         calls {refund} for them. Frozen deposits are intentionally         excluded (they are subject to dispute / slashing)."
      },
      "setTenderAddress(uint256,address)": {
        "notice": "Records the tender contract address for `tenderId`. Required so         {claimRefund} can verify the tender is in {TenderState.Cancelled}         before releasing funds permissionlessly. Called by the factory         immediately after deploying a new tender."
      },
      "tenderOf(uint256)": {
        "notice": "Per-tender mapping of tenderId → tender contract address. Set by         authorized callers (factory) so {claimRefund} can verify the         tender is in {TenderState.Cancelled} before releasing funds."
      }
    },
    "version": 1
  },
  "storageLayout": {
    "storage": [
      {
        "astId": 42164,
        "contract": "contracts/core/BidEscrow.sol:BidEscrow",
        "label": "_owner",
        "offset": 0,
        "slot": "0",
        "type": "t_address"
      },
      {
        "astId": 42312,
        "contract": "contracts/core/BidEscrow.sol:BidEscrow",
        "label": "_pendingOwner",
        "offset": 0,
        "slot": "1",
        "type": "t_address"
      },
      {
        "astId": 42793,
        "contract": "contracts/core/BidEscrow.sol:BidEscrow",
        "label": "requiredDeposit",
        "offset": 0,
        "slot": "2",
        "type": "t_mapping(t_uint256,t_uint256)"
      },
      {
        "astId": 42799,
        "contract": "contracts/core/BidEscrow.sol:BidEscrow",
        "label": "deposits",
        "offset": 0,
        "slot": "3",
        "type": "t_mapping(t_uint256,t_mapping(t_address,t_uint256))"
      },
      {
        "astId": 42806,
        "contract": "contracts/core/BidEscrow.sol:BidEscrow",
        "label": "depositStatus",
        "offset": 0,
        "slot": "4",
        "type": "t_mapping(t_uint256,t_mapping(t_address,t_enum(DepositStatus)46159))"
      },
      {
        "astId": 42810,
        "contract": "contracts/core/BidEscrow.sol:BidEscrow",
        "label": "totalEscrow",
        "offset": 0,
        "slot": "5",
        "type": "t_mapping(t_uint256,t_uint256)"
      },
      {
        "astId": 42814,
        "contract": "contracts/core/BidEscrow.sol:BidEscrow",
        "label": "authorizedCallers",
        "offset": 0,
        "slot": "6",
        "type": "t_mapping(t_address,t_bool)"
      },
      {
        "astId": 42819,
        "contract": "contracts/core/BidEscrow.sol:BidEscrow",
        "label": "tenderOf",
        "offset": 0,
        "slot": "7",
        "type": "t_mapping(t_uint256,t_address)"
      }
    ],
    "types": {
      "t_address": {
        "encoding": "inplace",
        "label": "address",
        "numberOfBytes": "20"
      },
      "t_bool": {
        "encoding": "inplace",
        "label": "bool",
        "numberOfBytes": "1"
      },
      "t_enum(DepositStatus)46159": {
        "encoding": "inplace",
        "label": "enum DepositStatus",
        "numberOfBytes": "1"
      },
      "t_mapping(t_address,t_bool)": {
        "encoding": "mapping",
        "key": "t_address",
        "label": "mapping(address => bool)",
        "numberOfBytes": "32",
        "value": "t_bool"
      },
      "t_mapping(t_address,t_enum(DepositStatus)46159)": {
        "encoding": "mapping",
        "key": "t_address",
        "label": "mapping(address => enum DepositStatus)",
        "numberOfBytes": "32",
        "value": "t_enum(DepositStatus)46159"
      },
      "t_mapping(t_address,t_uint256)": {
        "encoding": "mapping",
        "key": "t_address",
        "label": "mapping(address => uint256)",
        "numberOfBytes": "32",
        "value": "t_uint256"
      },
      "t_mapping(t_uint256,t_address)": {
        "encoding": "mapping",
        "key": "t_uint256",
        "label": "mapping(uint256 => address)",
        "numberOfBytes": "32",
        "value": "t_address"
      },
      "t_mapping(t_uint256,t_mapping(t_address,t_enum(DepositStatus)46159))": {
        "encoding": "mapping",
        "key": "t_uint256",
        "label": "mapping(uint256 => mapping(address => enum DepositStatus))",
        "numberOfBytes": "32",
        "value": "t_mapping(t_address,t_enum(DepositStatus)46159)"
      },
      "t_mapping(t_uint256,t_mapping(t_address,t_uint256))": {
        "encoding": "mapping",
        "key": "t_uint256",
        "label": "mapping(uint256 => mapping(address => uint256))",
        "numberOfBytes": "32",
        "value": "t_mapping(t_address,t_uint256)"
      },
      "t_mapping(t_uint256,t_uint256)": {
        "encoding": "mapping",
        "key": "t_uint256",
        "label": "mapping(uint256 => uint256)",
        "numberOfBytes": "32",
        "value": "t_uint256"
      },
      "t_uint256": {
        "encoding": "inplace",
        "label": "uint256",
        "numberOfBytes": "32"
      }
    }
  }
}