{
  "address": "0xCe493fFaBf3763df8057E58c22a6dC6a65806553",
  "abi": [
    {
      "inputs": [
        {
          "internalType": "address",
          "name": "initialOwner",
          "type": "address"
        },
        {
          "internalType": "contract IERC20",
          "name": "underlying_",
          "type": "address"
        }
      ],
      "stateMutability": "nonpayable",
      "type": "constructor"
    },
    {
      "inputs": [
        {
          "internalType": "uint256",
          "name": "requestId",
          "type": "uint256"
        }
      ],
      "name": "ERC7984InvalidGatewayRequest",
      "type": "error"
    },
    {
      "inputs": [
        {
          "internalType": "address",
          "name": "receiver",
          "type": "address"
        }
      ],
      "name": "ERC7984InvalidReceiver",
      "type": "error"
    },
    {
      "inputs": [
        {
          "internalType": "address",
          "name": "sender",
          "type": "address"
        }
      ],
      "name": "ERC7984InvalidSender",
      "type": "error"
    },
    {
      "inputs": [],
      "name": "ERC7984TotalSupplyOverflow",
      "type": "error"
    },
    {
      "inputs": [
        {
          "internalType": "address",
          "name": "caller",
          "type": "address"
        }
      ],
      "name": "ERC7984UnauthorizedCaller",
      "type": "error"
    },
    {
      "inputs": [
        {
          "internalType": "address",
          "name": "holder",
          "type": "address"
        },
        {
          "internalType": "address",
          "name": "spender",
          "type": "address"
        }
      ],
      "name": "ERC7984UnauthorizedSpender",
      "type": "error"
    },
    {
      "inputs": [
        {
          "internalType": "euint64",
          "name": "amount",
          "type": "bytes32"
        },
        {
          "internalType": "address",
          "name": "user",
          "type": "address"
        }
      ],
      "name": "ERC7984UnauthorizedUseOfEncryptedAmount",
      "type": "error"
    },
    {
      "inputs": [
        {
          "internalType": "address",
          "name": "holder",
          "type": "address"
        }
      ],
      "name": "ERC7984ZeroBalance",
      "type": "error"
    },
    {
      "inputs": [],
      "name": "EnforcedPause",
      "type": "error"
    },
    {
      "inputs": [],
      "name": "ExpectedPause",
      "type": "error"
    },
    {
      "inputs": [],
      "name": "InvalidKMSSignatures",
      "type": "error"
    },
    {
      "inputs": [
        {
          "internalType": "bytes32",
          "name": "unwrapRequestId",
          "type": "bytes32"
        }
      ],
      "name": "InvalidUnwrapRequest",
      "type": "error"
    },
    {
      "inputs": [
        {
          "internalType": "address",
          "name": "owner",
          "type": "address"
        }
      ],
      "name": "OwnableInvalidOwner",
      "type": "error"
    },
    {
      "inputs": [
        {
          "internalType": "address",
          "name": "account",
          "type": "address"
        }
      ],
      "name": "OwnableUnauthorizedAccount",
      "type": "error"
    },
    {
      "inputs": [],
      "name": "ReentrancyGuardReentrantCall",
      "type": "error"
    },
    {
      "inputs": [
        {
          "internalType": "uint8",
          "name": "bits",
          "type": "uint8"
        },
        {
          "internalType": "uint256",
          "name": "value",
          "type": "uint256"
        }
      ],
      "name": "SafeCastOverflowedUintDowncast",
      "type": "error"
    },
    {
      "inputs": [
        {
          "internalType": "address",
          "name": "token",
          "type": "address"
        }
      ],
      "name": "SafeERC20FailedOperation",
      "type": "error"
    },
    {
      "inputs": [
        {
          "internalType": "bytes32",
          "name": "handle",
          "type": "bytes32"
        },
        {
          "internalType": "address",
          "name": "sender",
          "type": "address"
        }
      ],
      "name": "SenderNotAllowedToUseHandle",
      "type": "error"
    },
    {
      "inputs": [],
      "name": "ZamaProtocolUnsupported",
      "type": "error"
    },
    {
      "anonymous": false,
      "inputs": [
        {
          "indexed": true,
          "internalType": "euint64",
          "name": "encryptedAmount",
          "type": "bytes32"
        },
        {
          "indexed": true,
          "internalType": "address",
          "name": "requester",
          "type": "address"
        }
      ],
      "name": "AmountDiscloseRequested",
      "type": "event"
    },
    {
      "anonymous": false,
      "inputs": [
        {
          "indexed": true,
          "internalType": "euint64",
          "name": "encryptedAmount",
          "type": "bytes32"
        },
        {
          "indexed": false,
          "internalType": "uint64",
          "name": "amount",
          "type": "uint64"
        }
      ],
      "name": "AmountDisclosed",
      "type": "event"
    },
    {
      "anonymous": false,
      "inputs": [
        {
          "indexed": true,
          "internalType": "address",
          "name": "from",
          "type": "address"
        },
        {
          "indexed": true,
          "internalType": "address",
          "name": "to",
          "type": "address"
        },
        {
          "indexed": true,
          "internalType": "euint64",
          "name": "amount",
          "type": "bytes32"
        }
      ],
      "name": "ConfidentialTransfer",
      "type": "event"
    },
    {
      "anonymous": false,
      "inputs": [
        {
          "indexed": true,
          "internalType": "address",
          "name": "holder",
          "type": "address"
        },
        {
          "indexed": true,
          "internalType": "address",
          "name": "operator",
          "type": "address"
        },
        {
          "indexed": false,
          "internalType": "uint48",
          "name": "until",
          "type": "uint48"
        }
      ],
      "name": "OperatorSet",
      "type": "event"
    },
    {
      "anonymous": false,
      "inputs": [
        {
          "indexed": true,
          "internalType": "address",
          "name": "previousOwner",
          "type": "address"
        },
        {
          "indexed": true,
          "internalType": "address",
          "name": "newOwner",
          "type": "address"
        }
      ],
      "name": "OwnershipTransferStarted",
      "type": "event"
    },
    {
      "anonymous": false,
      "inputs": [
        {
          "indexed": true,
          "internalType": "address",
          "name": "previousOwner",
          "type": "address"
        },
        {
          "indexed": true,
          "internalType": "address",
          "name": "newOwner",
          "type": "address"
        }
      ],
      "name": "OwnershipTransferred",
      "type": "event"
    },
    {
      "anonymous": false,
      "inputs": [
        {
          "indexed": false,
          "internalType": "address",
          "name": "account",
          "type": "address"
        }
      ],
      "name": "Paused",
      "type": "event"
    },
    {
      "anonymous": false,
      "inputs": [
        {
          "indexed": false,
          "internalType": "bytes32[]",
          "name": "handlesList",
          "type": "bytes32[]"
        },
        {
          "indexed": false,
          "internalType": "bytes",
          "name": "abiEncodedCleartexts",
          "type": "bytes"
        }
      ],
      "name": "PublicDecryptionVerified",
      "type": "event"
    },
    {
      "anonymous": false,
      "inputs": [
        {
          "indexed": false,
          "internalType": "address",
          "name": "account",
          "type": "address"
        }
      ],
      "name": "Unpaused",
      "type": "event"
    },
    {
      "anonymous": false,
      "inputs": [
        {
          "indexed": true,
          "internalType": "address",
          "name": "receiver",
          "type": "address"
        },
        {
          "indexed": true,
          "internalType": "bytes32",
          "name": "unwrapRequestId",
          "type": "bytes32"
        },
        {
          "indexed": false,
          "internalType": "euint64",
          "name": "encryptedAmount",
          "type": "bytes32"
        },
        {
          "indexed": false,
          "internalType": "uint64",
          "name": "cleartextAmount",
          "type": "uint64"
        }
      ],
      "name": "UnwrapFinalized",
      "type": "event"
    },
    {
      "anonymous": false,
      "inputs": [
        {
          "indexed": true,
          "internalType": "address",
          "name": "receiver",
          "type": "address"
        },
        {
          "indexed": true,
          "internalType": "bytes32",
          "name": "unwrapRequestId",
          "type": "bytes32"
        },
        {
          "indexed": false,
          "internalType": "euint64",
          "name": "amount",
          "type": "bytes32"
        }
      ],
      "name": "UnwrapRequested",
      "type": "event"
    },
    {
      "inputs": [],
      "name": "acceptOwnership",
      "outputs": [],
      "stateMutability": "nonpayable",
      "type": "function"
    },
    {
      "inputs": [
        {
          "internalType": "address",
          "name": "account",
          "type": "address"
        }
      ],
      "name": "confidentialBalanceOf",
      "outputs": [
        {
          "internalType": "euint64",
          "name": "",
          "type": "bytes32"
        }
      ],
      "stateMutability": "view",
      "type": "function"
    },
    {
      "inputs": [],
      "name": "confidentialProtocolId",
      "outputs": [
        {
          "internalType": "uint256",
          "name": "",
          "type": "uint256"
        }
      ],
      "stateMutability": "view",
      "type": "function"
    },
    {
      "inputs": [],
      "name": "confidentialTotalSupply",
      "outputs": [
        {
          "internalType": "euint64",
          "name": "",
          "type": "bytes32"
        }
      ],
      "stateMutability": "view",
      "type": "function"
    },
    {
      "inputs": [
        {
          "internalType": "address",
          "name": "to",
          "type": "address"
        },
        {
          "internalType": "externalEuint64",
          "name": "encryptedAmount",
          "type": "bytes32"
        },
        {
          "internalType": "bytes",
          "name": "inputProof",
          "type": "bytes"
        }
      ],
      "name": "confidentialTransfer",
      "outputs": [
        {
          "internalType": "euint64",
          "name": "",
          "type": "bytes32"
        }
      ],
      "stateMutability": "nonpayable",
      "type": "function"
    },
    {
      "inputs": [
        {
          "internalType": "address",
          "name": "to",
          "type": "address"
        },
        {
          "internalType": "euint64",
          "name": "amount",
          "type": "bytes32"
        }
      ],
      "name": "confidentialTransfer",
      "outputs": [
        {
          "internalType": "euint64",
          "name": "",
          "type": "bytes32"
        }
      ],
      "stateMutability": "nonpayable",
      "type": "function"
    },
    {
      "inputs": [
        {
          "internalType": "address",
          "name": "to",
          "type": "address"
        },
        {
          "internalType": "euint64",
          "name": "amount",
          "type": "bytes32"
        },
        {
          "internalType": "bytes",
          "name": "data",
          "type": "bytes"
        }
      ],
      "name": "confidentialTransferAndCall",
      "outputs": [
        {
          "internalType": "euint64",
          "name": "transferred",
          "type": "bytes32"
        }
      ],
      "stateMutability": "nonpayable",
      "type": "function"
    },
    {
      "inputs": [
        {
          "internalType": "address",
          "name": "to",
          "type": "address"
        },
        {
          "internalType": "externalEuint64",
          "name": "encryptedAmount",
          "type": "bytes32"
        },
        {
          "internalType": "bytes",
          "name": "inputProof",
          "type": "bytes"
        },
        {
          "internalType": "bytes",
          "name": "data",
          "type": "bytes"
        }
      ],
      "name": "confidentialTransferAndCall",
      "outputs": [
        {
          "internalType": "euint64",
          "name": "transferred",
          "type": "bytes32"
        }
      ],
      "stateMutability": "nonpayable",
      "type": "function"
    },
    {
      "inputs": [
        {
          "internalType": "address",
          "name": "from",
          "type": "address"
        },
        {
          "internalType": "address",
          "name": "to",
          "type": "address"
        },
        {
          "internalType": "externalEuint64",
          "name": "encryptedAmount",
          "type": "bytes32"
        },
        {
          "internalType": "bytes",
          "name": "inputProof",
          "type": "bytes"
        }
      ],
      "name": "confidentialTransferFrom",
      "outputs": [
        {
          "internalType": "euint64",
          "name": "transferred",
          "type": "bytes32"
        }
      ],
      "stateMutability": "nonpayable",
      "type": "function"
    },
    {
      "inputs": [
        {
          "internalType": "address",
          "name": "from",
          "type": "address"
        },
        {
          "internalType": "address",
          "name": "to",
          "type": "address"
        },
        {
          "internalType": "euint64",
          "name": "amount",
          "type": "bytes32"
        }
      ],
      "name": "confidentialTransferFrom",
      "outputs": [
        {
          "internalType": "euint64",
          "name": "transferred",
          "type": "bytes32"
        }
      ],
      "stateMutability": "nonpayable",
      "type": "function"
    },
    {
      "inputs": [
        {
          "internalType": "address",
          "name": "from",
          "type": "address"
        },
        {
          "internalType": "address",
          "name": "to",
          "type": "address"
        },
        {
          "internalType": "externalEuint64",
          "name": "encryptedAmount",
          "type": "bytes32"
        },
        {
          "internalType": "bytes",
          "name": "inputProof",
          "type": "bytes"
        },
        {
          "internalType": "bytes",
          "name": "data",
          "type": "bytes"
        }
      ],
      "name": "confidentialTransferFromAndCall",
      "outputs": [
        {
          "internalType": "euint64",
          "name": "transferred",
          "type": "bytes32"
        }
      ],
      "stateMutability": "nonpayable",
      "type": "function"
    },
    {
      "inputs": [
        {
          "internalType": "address",
          "name": "from",
          "type": "address"
        },
        {
          "internalType": "address",
          "name": "to",
          "type": "address"
        },
        {
          "internalType": "euint64",
          "name": "amount",
          "type": "bytes32"
        },
        {
          "internalType": "bytes",
          "name": "data",
          "type": "bytes"
        }
      ],
      "name": "confidentialTransferFromAndCall",
      "outputs": [
        {
          "internalType": "euint64",
          "name": "transferred",
          "type": "bytes32"
        }
      ],
      "stateMutability": "nonpayable",
      "type": "function"
    },
    {
      "inputs": [],
      "name": "contractURI",
      "outputs": [
        {
          "internalType": "string",
          "name": "",
          "type": "string"
        }
      ],
      "stateMutability": "view",
      "type": "function"
    },
    {
      "inputs": [],
      "name": "decimals",
      "outputs": [
        {
          "internalType": "uint8",
          "name": "",
          "type": "uint8"
        }
      ],
      "stateMutability": "view",
      "type": "function"
    },
    {
      "inputs": [
        {
          "internalType": "euint64",
          "name": "encryptedAmount",
          "type": "bytes32"
        },
        {
          "internalType": "uint64",
          "name": "cleartextAmount",
          "type": "uint64"
        },
        {
          "internalType": "bytes",
          "name": "decryptionProof",
          "type": "bytes"
        }
      ],
      "name": "discloseEncryptedAmount",
      "outputs": [],
      "stateMutability": "nonpayable",
      "type": "function"
    },
    {
      "inputs": [
        {
          "internalType": "bytes32",
          "name": "unwrapRequestId",
          "type": "bytes32"
        },
        {
          "internalType": "uint64",
          "name": "unwrapAmountCleartext",
          "type": "uint64"
        },
        {
          "internalType": "bytes",
          "name": "decryptionProof",
          "type": "bytes"
        }
      ],
      "name": "finalizeUnwrap",
      "outputs": [],
      "stateMutability": "nonpayable",
      "type": "function"
    },
    {
      "inputs": [],
      "name": "inferredTotalSupply",
      "outputs": [
        {
          "internalType": "uint256",
          "name": "",
          "type": "uint256"
        }
      ],
      "stateMutability": "view",
      "type": "function"
    },
    {
      "inputs": [
        {
          "internalType": "address",
          "name": "holder",
          "type": "address"
        },
        {
          "internalType": "address",
          "name": "spender",
          "type": "address"
        }
      ],
      "name": "isOperator",
      "outputs": [
        {
          "internalType": "bool",
          "name": "",
          "type": "bool"
        }
      ],
      "stateMutability": "view",
      "type": "function"
    },
    {
      "inputs": [],
      "name": "maxTotalSupply",
      "outputs": [
        {
          "internalType": "uint256",
          "name": "",
          "type": "uint256"
        }
      ],
      "stateMutability": "view",
      "type": "function"
    },
    {
      "inputs": [],
      "name": "name",
      "outputs": [
        {
          "internalType": "string",
          "name": "",
          "type": "string"
        }
      ],
      "stateMutability": "view",
      "type": "function"
    },
    {
      "inputs": [
        {
          "internalType": "address",
          "name": "operator",
          "type": "address"
        },
        {
          "internalType": "address",
          "name": "from",
          "type": "address"
        },
        {
          "internalType": "uint256",
          "name": "amount",
          "type": "uint256"
        },
        {
          "internalType": "bytes",
          "name": "data",
          "type": "bytes"
        }
      ],
      "name": "onTransferReceived",
      "outputs": [
        {
          "internalType": "bytes4",
          "name": "",
          "type": "bytes4"
        }
      ],
      "stateMutability": "nonpayable",
      "type": "function"
    },
    {
      "inputs": [],
      "name": "owner",
      "outputs": [
        {
          "internalType": "address",
          "name": "",
          "type": "address"
        }
      ],
      "stateMutability": "view",
      "type": "function"
    },
    {
      "inputs": [],
      "name": "pause",
      "outputs": [],
      "stateMutability": "nonpayable",
      "type": "function"
    },
    {
      "inputs": [],
      "name": "paused",
      "outputs": [
        {
          "internalType": "bool",
          "name": "",
          "type": "bool"
        }
      ],
      "stateMutability": "view",
      "type": "function"
    },
    {
      "inputs": [],
      "name": "pendingOwner",
      "outputs": [
        {
          "internalType": "address",
          "name": "",
          "type": "address"
        }
      ],
      "stateMutability": "view",
      "type": "function"
    },
    {
      "inputs": [],
      "name": "rate",
      "outputs": [
        {
          "internalType": "uint256",
          "name": "",
          "type": "uint256"
        }
      ],
      "stateMutability": "view",
      "type": "function"
    },
    {
      "inputs": [],
      "name": "renounceOwnership",
      "outputs": [],
      "stateMutability": "nonpayable",
      "type": "function"
    },
    {
      "inputs": [
        {
          "internalType": "euint64",
          "name": "encryptedAmount",
          "type": "bytes32"
        }
      ],
      "name": "requestDiscloseEncryptedAmount",
      "outputs": [],
      "stateMutability": "nonpayable",
      "type": "function"
    },
    {
      "inputs": [
        {
          "internalType": "address",
          "name": "operator",
          "type": "address"
        },
        {
          "internalType": "uint48",
          "name": "until",
          "type": "uint48"
        }
      ],
      "name": "setOperator",
      "outputs": [],
      "stateMutability": "nonpayable",
      "type": "function"
    },
    {
      "inputs": [
        {
          "internalType": "bytes4",
          "name": "interfaceId",
          "type": "bytes4"
        }
      ],
      "name": "supportsInterface",
      "outputs": [
        {
          "internalType": "bool",
          "name": "",
          "type": "bool"
        }
      ],
      "stateMutability": "view",
      "type": "function"
    },
    {
      "inputs": [],
      "name": "symbol",
      "outputs": [
        {
          "internalType": "string",
          "name": "",
          "type": "string"
        }
      ],
      "stateMutability": "view",
      "type": "function"
    },
    {
      "inputs": [
        {
          "internalType": "address",
          "name": "newOwner",
          "type": "address"
        }
      ],
      "name": "transferOwnership",
      "outputs": [],
      "stateMutability": "nonpayable",
      "type": "function"
    },
    {
      "inputs": [],
      "name": "underlying",
      "outputs": [
        {
          "internalType": "address",
          "name": "",
          "type": "address"
        }
      ],
      "stateMutability": "view",
      "type": "function"
    },
    {
      "inputs": [],
      "name": "unpause",
      "outputs": [],
      "stateMutability": "nonpayable",
      "type": "function"
    },
    {
      "inputs": [
        {
          "internalType": "address",
          "name": "from",
          "type": "address"
        },
        {
          "internalType": "address",
          "name": "to",
          "type": "address"
        },
        {
          "internalType": "externalEuint64",
          "name": "encryptedAmount",
          "type": "bytes32"
        },
        {
          "internalType": "bytes",
          "name": "inputProof",
          "type": "bytes"
        }
      ],
      "name": "unwrap",
      "outputs": [
        {
          "internalType": "bytes32",
          "name": "",
          "type": "bytes32"
        }
      ],
      "stateMutability": "nonpayable",
      "type": "function"
    },
    {
      "inputs": [
        {
          "internalType": "address",
          "name": "from",
          "type": "address"
        },
        {
          "internalType": "address",
          "name": "to",
          "type": "address"
        },
        {
          "internalType": "euint64",
          "name": "amount",
          "type": "bytes32"
        }
      ],
      "name": "unwrap",
      "outputs": [
        {
          "internalType": "bytes32",
          "name": "",
          "type": "bytes32"
        }
      ],
      "stateMutability": "nonpayable",
      "type": "function"
    },
    {
      "inputs": [
        {
          "internalType": "bytes32",
          "name": "unwrapRequestId",
          "type": "bytes32"
        }
      ],
      "name": "unwrapAmount",
      "outputs": [
        {
          "internalType": "euint64",
          "name": "",
          "type": "bytes32"
        }
      ],
      "stateMutability": "view",
      "type": "function"
    },
    {
      "inputs": [
        {
          "internalType": "bytes32",
          "name": "unwrapRequestId",
          "type": "bytes32"
        }
      ],
      "name": "unwrapRequester",
      "outputs": [
        {
          "internalType": "address",
          "name": "",
          "type": "address"
        }
      ],
      "stateMutability": "view",
      "type": "function"
    },
    {
      "inputs": [
        {
          "internalType": "address",
          "name": "to",
          "type": "address"
        },
        {
          "internalType": "uint256",
          "name": "amount",
          "type": "uint256"
        }
      ],
      "name": "wrap",
      "outputs": [
        {
          "internalType": "euint64",
          "name": "",
          "type": "bytes32"
        }
      ],
      "stateMutability": "nonpayable",
      "type": "function"
    }
  ],
  "transactionHash": "0x2abf97e04f82c53cb764fc1a5aa13e84d7aa60858d23faae32bcf7107d2819a4",
  "args": [
    "0xF505e2E71df58D7244189072008f25f6b6aaE5ae",
    "0x1c7D4B196Cb0C7B01d743Fbc6116a902379C7238"
  ],
  "numDeployments": 1,
  "solcInputHash": "21f684b13caae82d9e671a47579d9c3d",
  "bytecode": "0x60e0806040523461079557604081613047803803809161001f82856107b4565b8339810103126107955780516001600160a01b03811691908290036107955760200151906001600160a01b03821682036107955760409081519261006383856107b4565b6011845270436f6e666964656e7469616c205553444360781b6020850152825161008d84826107b4565b6005815264635553444360d81b60208201526020908451956100af83886107b4565b5f87526100ba610881565b50466001036106af576100cb610881565b5085516100d781610799565b73ca2e8f1f656cd25c01f05d0b243ab1ecd4a8ffb6815273d82385dada1ae3e969447f20a3164f6213100e75848201527377627828a55156b04ac0dc0eb30467f1a552bb03878201525b80517f9e7b61f58c47dc699ac88507c4f5bb9f121c03808c5676a8078fe583e464970080546001600160a01b03199081166001600160a01b0393841617909155858301517f9e7b61f58c47dc699ac88507c4f5bb9f121c03808c5676a8078fe583e464970180548316918416919091179055918801517f9e7b61f58c47dc699ac88507c4f5bb9f121c03808c5676a8078fe583e4649702805490931691161790558051906001600160401b0382116105075760035490600182811c921680156106a5575b858310146104e95781601f849311610656575b508490601f83116001146105f0575f926105e5575b50508160011b915f199060031b1c1916176003555b8051906001600160401b0382116105075760045490600182811c921680156105db575b848310146104e95781601f84931161058c575b508390601f8311600114610526575f9261051b575b50508160011b915f199060031b1c1916176004555b8451906001600160401b03821161050757600554600181811c911680156104fd575b828210146104e957601f81116104a5575b5080601f8311600114610439575081906102f09495965f9261042e575b50508160011b915f199060031b1c1916176005555b806080526107d7565b60ff81169060068211156104205750600660a0526005190160ff811161040c5760ff16604d811161040c57600a0a60c0525b80156103f957600880546001600160a01b031990811690915560078054918216831790559151916001600160a01b03167f8be0079c531659141344cd1fd0a4f28419497f9722a3daafe3b4186f6b6457e05f80a360017f9b779b17422d0df92223018b32b4d1fa46e071723d6817e2486d003becc55f00556127a790816108a0823960805181818161071701528181610a8f01528181610cf801528181610ecf01526115a4015260a051816110e5015260c0518181816106f501528181610acd01528181610e6f0152818161116c01526115e20152f35b631e4fbdf760e01b5f525f60045260245ffd5b634e487b7160e01b5f52601160045260245ffd5b60a05250600160c052610322565b015190505f806102d2565b90601f1983169660055f52825f20925f905b89821061048d575050908392916001946102f097989910610475575b505050811b016005556102e7565b01515f1960f88460031b161c191690555f8080610467565b8060018596829496860151815501950193019061044b565b60055f52815f20601f840160051c8101918385106104df575b601f0160051c01905b8181106104d457506102b5565b5f81556001016104c7565b90915081906104be565b634e487b7160e01b5f52602260045260245ffd5b90607f16906102a4565b634e487b7160e01b5f52604160045260245ffd5b015190505f8061026d565b60045f9081528581209350601f198516905b8682821061057657505090846001959493921061055e575b505050811b01600455610282565b01515f1960f88460031b161c191690555f8080610550565b6001859682939686015181550195019301610538565b90915060045f52835f20601f840160051c8101918585106105d1575b90601f859493920160051c01905b8181106105c35750610258565b5f81558493506001016105b6565b90915081906105a8565b91607f1691610245565b015190505f8061020d565b60035f9081528681209350601f198516905b87828210610640575050908460019594939210610628575b505050811b01600355610222565b01515f1960f88460031b161c191690555f808061061a565b6001859682939686015181550195019301610602565b90915060035f52845f20601f840160051c81019186851061069b575b90601f859493920160051c01905b81811061068d57506101f8565b5f8155849350600101610680565b9091508190610672565b91607f16916101e5565b4662aa36a70361071b576106c1610881565b5085516106cd81610799565b73f0ffdc93b7e186bc2f8cb3daa75d86d1930a433d81527392c920834ec8941d2c77d188936e1f7a6f49c1278482015273be0e383937d564d7ff0bc3b46c51f0bf8d5c311a87820152610121565b46617a69036107865761072c610881565b50855161073881610799565b7350157cffd6bbfa2dece204a89ec419c23ef5755d815273e3a9105a3a932253a70f126eb1e3b589c643dd248482015273901f8942346f7ab3a01f6d7613119bca447bb03087820152610121565b6373cac13b60e01b5f5260045ffd5b5f80fd5b606081019081106001600160401b0382111761050757604052565b601f909101601f19168101906001600160401b0382119082101761050757604052565b5f8091604051602081019063313ce56760e01b8252600481526107fb6024826107b4565b51916001600160a01b03165afa3d15610879573d906001600160401b0382116105075760405191610836601f8201601f1916602001846107b4565b82523d5f602084013e5b8061086e575b6108505750601290565b602081805181010312610795576020015160ff811681036107955790565b506020815114610846565b606090610840565b6040519061088e82610799565b5f604083828152826020820152015256fe6080806040526004361015610012575f80fd5b5f3560e01c90816301ffc9a71461126c5750806306fdde03146111b15780632ab4d0521461118f5780632c4e722e146111555780632fb74e6214611109578063313ce567146110cc578063344ff1011461109557806334c45743146110005780633f4ba83a14610f94578063537d3c5014610f325780635409522714610f155780635bb67a0514610da55780635bebed7e14610d6e5780635bf4ef0614610d415780635c975abb14610d1c5780636f307dc314610cd9578063715018a614610c7057806379ba509714610be75780638456cb5914610b7757806388a7ca5c14610a2d5780638927b03014610a135780638da5cb5b146109ed57806395d89b4114610932578063b1af281e14610873578063b6363cf21461083d578063bf376c7a146106c7578063c7b8a75e14610634578063d4febb96146105a7578063d806180614610552578063de6421191461049d578063e064b9bb1461045b578063e30c397814610435578063e317942614610418578063e8a3d4851461030c578063e8c15fd4146102e4578063eb3155b514610290578063eee8a0e81461025d578063f2fde38b146101ef5763f89d30b1146101c9575f80fd5b346101eb575f3660031901126101eb5760206101e3611589565b604051908152f35b5f80fd5b346101eb5760203660031901126101eb576001600160a01b03610210611315565b610218611881565b16806001600160a01b031960085416176008556001600160a01b03600754167f38d16b8cac22d99fc7c124b9cd0de2d3fa1faef420bfe791d8c362d765e227005f80a3005b346101eb5760203660031901126101eb576004355f52600660205260206001600160a01b0360405f205416604051908152f35b346101eb5760206102d16102a3366113e2565b916102b833846102b33382611e2f565b6114cf565b6102cc33826102c73382611519565b6114a4565b6117d0565b6102db3382611803565b50604051908152f35b346101eb5760206101e36102f7366113e2565b9161030733846102b33382611e2f565b611a65565b346101eb575f3660031901126101eb576040515f6005548060011c9060018116801561040e575b6020831081146103fa578285529081156103d65750600114610378575b610374836103608185038261141c565b6040519182916020835260208301906112f1565b0390f35b91905060055f527f036b6384b5eca791c62761152d0c79bb0604c104a5fb6f4eb0703f3154bb3db0915f905b8082106103bc57509091508101602001610360610350565b9192600181602092548385880101520191019092916103a4565b60ff191660208086019190915291151560051b840190910191506103609050610350565b634e487b7160e01b5f52602260045260245ffd5b91607f1691610333565b346101eb5760203660031901126101eb5760206040516004358152f35b346101eb575f3660031901126101eb5760206001600160a01b0360085416604051908152f35b346101eb5760206102d161049761049161047436611386565b61048a9694969592939533886102c73382611519565b369161146e565b90611649565b916117d0565b346101eb5760803660031901126101eb576104b6611315565b60443567ffffffffffffffff81116101eb576104d6903690600401611341565b906064359167ffffffffffffffff83116101eb5760209361054461054c9261053661052a61052361051b6105116102d19a3690600401611341565b999095369161146e565b602435611649565b85336117d0565b95869283863333612017565b61053e6123f1565b9061212b565b903390611eaf565b906121f9565b346101eb5760203660031901126101eb5760043561057533826102b33382611e2f565b61057e81611d5e565b5033907f189c3bfae2e5ce7726b29d57bb6ed0f1a7ebcd153a863ff5ecb6cd998064c98c5f80a3005b346101eb5760403660031901126101eb576105c0611315565b6024359065ffffffffffff82168092036101eb576001600160a01b0390335f52600160205260405f208282165f5260205260405f208365ffffffffffff1982541617905560405192835216907f921a218a75d18e8ec5704851e6b234a85725b21a2521ce889622c35dedc1fa1260203392a3005b346101eb5760803660031901126101eb5761064d611315565b61065561132b565b9060643560443567ffffffffffffffff82116101eb576020936102d1936106c161054c9361053661068d6106b5973690600401611341565b97909261069f33826102b33382611e2f565b6106ae33876102c73382611519565b86866117d0565b96879283878733612017565b91611eaf565b346101eb5760403660031901126101eb576106e0611315565b6024356106eb611ca9565b6106f3611d07565b7f0000000000000000000000000000000000000000000000000000000000000000907f00000000000000000000000000000000000000000000000000000000000000006001600160a01b03166107498383611d25565b820382811161082957604051906323b872dd60e01b5f52336004523060245260445260205f60648180865af19060015f5114821615610808575b6040525f606052156107f65760206107bf856107b967ffffffffffffffff6107b36107ae898961156b565b61227e565b166123a2565b906122b1565b6107c93382611803565b5060017f9b779b17422d0df92223018b32b4d1fa46e071723d6817e2486d003becc55f0055604051908152f35b635274afe760e01b5f5260045260245ffd5b90600181151661082057823b15153d15161690610783565b503d5f823e3d90fd5b634e487b7160e01b5f52601160045260245ffd5b346101eb5760403660031901126101eb57602061086961085b611315565b61086361132b565b90611519565b6040519015158152f35b346101eb5760603660031901126101eb5760043561088f61136f565b6044359067ffffffffffffffff82116101eb5761092b6020916108d77f83bbbc07896439e5d950a6cead04cbc676180af7a61cecf43f5296475057f571943690600401611341565b92906040926109258451926108ec868561141c565b60018452601f198601368986013789610904856114f8565b5267ffffffffffffffff8651931696878985015288845261048a878561141c565b916118c8565b51908152a2005b346101eb575f3660031901126101eb576040515f6004548060011c906001811680156109e3575b6020831081146103fa578285529081156103d6575060011461098557610374836103608185038261141c565b91905060045f527f8a35acfbc15ff81a39ae7d344fd709f28e8600b4aa8c65c6b64bfe7fe36bd19b915f905b8082106109c957509091508101602001610360610350565b9192600181602092548385880101520191019092916109b1565b91607f1691610959565b346101eb575f3660031901126101eb5760206001600160a01b0360075416604051908152f35b346101eb575f3660031901126101eb5760206101e3611d2f565b346101eb5760803660031901126101eb57610a46611315565b50610a4f61132b565b6044359060643567ffffffffffffffff81116101eb57610a73903690600401611341565b9092610a7d611ca9565b610a85611d07565b6001600160a01b037f00000000000000000000000000000000000000000000000000000000000000001693338503610b64576014610b0c93105f14610b5a575082905b610b067f0000000000000000000000000000000000000000000000000000000000000000926107b967ffffffffffffffff6107b36107ae878761156b565b50611d25565b9081610b49575b60017f9b779b17422d0df92223018b32b4d1fa46e071723d6817e2486d003becc55f0055604051632229f29760e21b8152602090f35b610b52926119f0565b808080610b13565b3560601c90610ac8565b63782c6ffd60e01b5f523360045260245ffd5b346101eb575f3660031901126101eb57610b8f611881565b610b97611d07565b7401000000000000000000000000000000000000000060ff60a01b1960085416176008557f62e78cea01bee320cd4e420270b5ea74000d11b0c9f74754ebdbfc544b05a2586020604051338152a1005b346101eb575f3660031901126101eb57336001600160a01b036008541603610c5d576001600160a01b031960085416600855600754336001600160a01b03198216176007556001600160a01b033391167f8be0079c531659141344cd1fd0a4f28419497f9722a3daafe3b4186f6b6457e05f80a3005b63118cdaa760e01b5f523360045260245ffd5b346101eb575f3660031901126101eb57610c88611881565b6001600160a01b0319600854166008555f6001600160a01b036007546001600160a01b03198116600755167f8be0079c531659141344cd1fd0a4f28419497f9722a3daafe3b4186f6b6457e08280a3005b346101eb575f3660031901126101eb5760206040516001600160a01b037f0000000000000000000000000000000000000000000000000000000000000000168152f35b346101eb575f3660031901126101eb57602060ff60085460a01c166040519015158152f35b346101eb5760206101e3610d68610491610d5a36611386565b95939594919294369161146e565b91611a65565b346101eb5760403660031901126101eb5760206101e3610d8c611315565b60243590610d9f33836102b33382611e2f565b336117d0565b346101eb5760603660031901126101eb57600435610dc161136f565b60443567ffffffffffffffff81116101eb57610de1903690600401611341565b9091835f5260066020526001600160a01b0360405f205416928315610f0257610e6d90855f52600660205260405f206001600160a01b03198154169055604092610925845192610e31868561141c565b60018452601f19860136602086013788610e4a856114f8565b5267ffffffffffffffff86519316968760208501526020845261048a878561141c565b7f00000000000000000000000000000000000000000000000000000000000000009182810292818404148115171561082957610ef47f87061fd1a5b3714805472c94c9eb8a6b8491992ee77791aa2594be67b92fd96293856001600160a01b037f0000000000000000000000000000000000000000000000000000000000000000166119f0565b8151908582526020820152a3005b846368b187c760e11b5f5260045260245ffd5b346101eb575f3660031901126101eb576020600254604051908152f35b346101eb5760603660031901126101eb57610f4b611315565b6024359060443567ffffffffffffffff81116101eb5761054c6102d192610544602095610536610f8261052a963690600401611341565b96909261052333826102b33382611e2f565b346101eb575f3660031901126101eb57610fac611881565b60085460ff8160a01c1615610ff15760ff60a01b19166008557f5db9ee0a495bf2e6ff9c91a7834c1ba4fdd244a5e8aa4e537bd38aeae4b073aa6020604051338152a1005b638dfc202b60e01b5f5260045ffd5b346101eb5760a03660031901126101eb57611019611315565b61102161132b565b60643567ffffffffffffffff81116101eb57611041903690600401611341565b6084359267ffffffffffffffff84116101eb576020946106c161054c936105366106b56106ae61108d61107b6102d19b3690600401611341565b9a909561048a338a6102c73382611519565b604435611649565b346101eb5760203660031901126101eb576001600160a01b036110b6611315565b165f525f602052602060405f2054604051908152f35b346101eb575f3660031901126101eb57602060405160ff7f0000000000000000000000000000000000000000000000000000000000000000168152f35b346101eb5760603660031901126101eb57611122611315565b60443567ffffffffffffffff81116101eb5760209161114e61051b61048a6101e3943690600401611341565b90336117d0565b346101eb575f3660031901126101eb5760206040517f00000000000000000000000000000000000000000000000000000000000000008152f35b346101eb575f3660031901126101eb57602060405167ffffffffffffffff8152f35b346101eb575f3660031901126101eb576040515f6003548060011c90600181168015611262575b6020831081146103fa578285529081156103d6575060011461120457610374836103608185038261141c565b91905060035f527fc2575a0e9e593c00f959f8c92f12db2869c3395a3b0502d05e2516446f71f85b915f905b80821061124857509091508101602001610360610350565b919260018160209254838588010152019101909291611230565b91607f16916111d8565b346101eb5760203660031901126101eb576004359063ffffffff60e01b82168092036101eb57602091630f8e315960e11b81149081156112e0575b81156112b5575b5015158152f35b6312563ca960e21b8114915081156112cf575b50836112ae565b6301ffc9a760e01b149050836112c8565b632229f29760e21b811491506112a7565b805180835260209291819084018484015e5f828201840152601f01601f1916010190565b600435906001600160a01b03821682036101eb57565b602435906001600160a01b03821682036101eb57565b9181601f840112156101eb5782359167ffffffffffffffff83116101eb57602083818601950101116101eb57565b6024359067ffffffffffffffff821682036101eb57565b9060806003198301126101eb576004356001600160a01b03811681036101eb57916024356001600160a01b03811681036101eb5791604435916064359067ffffffffffffffff82116101eb576113de91600401611341565b9091565b60609060031901126101eb576004356001600160a01b03811681036101eb57906024356001600160a01b03811681036101eb579060443590565b90601f8019910116810190811067ffffffffffffffff82111761143e57604052565b634e487b7160e01b5f52604160045260245ffd5b67ffffffffffffffff811161143e57601f01601f191660200190565b92919261147a82611452565b91611488604051938461141c565b8294818452818301116101eb578281602093845f960137010152565b156114ad575050565b906001600160a01b038092630f3e596760e31b5f52166004521660245260445ffd5b156114d8575050565b6001600160a01b0392506367cfe80560e01b5f526004521660245260445ffd5b8051156115055760200190565b634e487b7160e01b5f52603260045260245ffd5b6001600160a01b0316906001600160a01b038116821491821561153b57505090565b9091505f5260016020526001600160a01b0360405f2091165f5260205265ffffffffffff60405f20541642111590565b8115611575570490565b634e487b7160e01b5f52601260045260245ffd5b6040516370a0823160e01b81523060048201526020816024817f00000000000000000000000000000000000000000000000000000000000000006001600160a01b03165afa801561163e575f9061160a575b61160791507f00000000000000000000000000000000000000000000000000000000000000009061156b565b90565b506020813d602011611636575b816116246020938361141c565b810103126101eb5761160790516115db565b3d9150611617565b6040513d5f823e3d90fd5b815190919015611764576020906116a3926001600160a01b035f5160206127525f395f51905f525416905f60405180968195829463045fc19560e11b845260048401523360248401526080604484015260848301906112f1565b6005606483015203925af190811561163e575f91611732575b506001600160a01b037f9e7b61f58c47dc699ac88507c4f5bb9f121c03808c5676a8078fe583e46497005416803b156101eb57604051630f8e573b60e21b815260048101839052336024820152905f908290818381604481015b03925af1801561163e57611728575090565b5f6116079161141c565b90506020813d60201161175c575b8161174d6020938361141c565b810103126101eb57515f6116bc565b3d9150611740565b508015611793576117753382611e2f565b1561177d5790565b630276b5d960e01b5f526004523360245260445ffd5b506116076123f1565b156117a357565b63ee457ebf60e01b5f525f60045260245ffd5b156117bd57565b638d51880160e01b5f525f60045260245ffd5b9061160792916117ea6001600160a01b038216151561179c565b6117fe6001600160a01b03831615156117b6565b611eaf565b908115611871575b6001600160a01b037f9e7b61f58c47dc699ac88507c4f5bb9f121c03808c5676a8078fe583e46497005416803b156101eb57604051630f8e573b60e21b8152600481018490526001600160a01b0390921660248301525f90829081838160448101611716565b905061187b6123f1565b9061180b565b6001600160a01b03600754163303610c5d57565b90602080835192838152019201905f5b8181106118b25750505090565b82518452602093840193909201916001016118a5565b91602061194a5f926001600160a01b037f9e7b61f58c47dc699ac88507c4f5bb9f121c03808c5676a8078fe583e46497025416906040519485809481936378542ead60e01b835260606004840152611938611926606485018d611895565b8481036003190160248601528b6112f1565b838103600319016044850152906112f1565b03925af190811561163e575f916119c1575b50156119b2577fc6366bab028b8d033cb362cfd1f2f3457ef4e92fc738b6788b90d5a7846367a0916119ad61199f92604051938493604085526040850190611895565b9083820360208501526112f1565b0390a1565b63cf6c44e960e01b5f5260045ffd5b6119e3915060203d6020116119e9575b6119db818361141c565b810190611e17565b5f61195c565b503d6119d1565b916001600160a01b036040519263a9059cbb60e01b5f521660045260245260205f60448180865af19060015f5114821615611a4d575b60405215611a315750565b6001600160a01b0390635274afe760e01b5f521660045260245ffd5b90600181151661082057823b15153d15161690611a26565b91906001600160a01b0390611a78611ca9565b611a80611d07565b16908115611c96576001600160a01b0383163381148015611c81575b611aa8908533916114a4565b611ab381151561179c565b80159182611c5a575b8215611bfc5790611af382611ad45f946002546125a3565b919091611ae08161255d565b506002555b611aed6123f1565b9161212b565b948593611b02856002546121f9565b611b0b8161255d565b5060025515611beb575b50611b1f8361255d565b507f67500e8d0ed826d2194f514dd0d8124f35648ab6e3fb5e6ed867134cffe661e98280a4611b4d82611d5e565b50815f5260066020526001600160a01b0360405f205416611bd7578190815f52600660205260405f20816001600160a01b03198254161790557f4b1bfb262557cf08a74ddeefb8aef086b81deb08484bdc1820b9f420cdd1aa0e6020604051848152a39060017f9b779b17422d0df92223018b32b4d1fa46e071723d6817e2486d003becc55f0055565b634e487b7160e01b5f52600160045260245ffd5b611bf5908461257c565b505f611b15565b815f525f60205260405f20548015611c475781611c1e5f9493611af39361248d565b919091611c2a8161255d565b50611c35898261257c565b50848652856020526040862055611ae5565b826317fe473760e21b5f5260045260245ffd5b67ffffffffffffffff611c6b611589565b1115611abc575b63a9e53fc360e01b5f5260045ffd5b50611aa8611c8f3386611519565b9050611a9c565b50638d51880160e01b5f5260045260245ffd5b60027f9b779b17422d0df92223018b32b4d1fa46e071723d6817e2486d003becc55f005414611cf85760027f9b779b17422d0df92223018b32b4d1fa46e071723d6817e2486d003becc55f0055565b633ee5aeb560e01b5f5260045ffd5b60ff60085460a01c16611d1657565b63d93c066560e01b5f5260045ffd5b8115611575570690565b46600103611d3c57600190565b4662aa36a703611d4c5761271190565b617a694614611d59575f90565b5f1990565b8015611e09575b6040805190611d74818361141c565b60018252601f19810136602084013782611d8d836114f8565b526001600160a01b037f9e7b61f58c47dc699ac88507c4f5bb9f121c03808c5676a8078fe583e46497005416803b156101eb578151637d6e912360e11b815260206004820152925f918491829084908290611dec906024830190611895565b03925af1908115611e005750611728575090565b513d5f823e3d90fd5b50611e126123f1565b611d65565b908160209103126101eb575180151581036101eb5790565b7f9e7b61f58c47dc699ac88507c4f5bb9f121c03808c5676a8078fe583e4649700546040516382027b6d60e01b815260048101929092526001600160a01b039283166024830152909160209183916044918391165afa90811561163e575f91611e96575090565b611607915060203d6020116119e9576119db818361141c565b9190916001600160a01b03811680159283611ff1575b8315611fa85780611ad4611edb926002546125a3565b9384936001600160a01b038216938415918215611f6d57611efe876002546121f9565b611f078161255d565b506002555b15611f5c575b5015611f4b575b50611f238361255d565b507f67500e8d0ed826d2194f514dd0d8124f35648ab6e3fb5e6ed867134cffe661e95f80a490565b611f55908461257c565b505f611f19565b611f66908661257c565b505f611f12565b855f525f602052611f828760405f20546125ca565b611f8b8161255d565b50611f96858261257c565b50865f525f60205260405f2055611f0c565b815f525f60205260405f20548015611c475790611fc881611edb9361248d565b919091611fd48161255d565b50611fdf868261257c565b50845f525f60205260405f2055611ae5565b67ffffffffffffffff612002611589565b1115611ec55763a9e53fc360e01b5f5260045ffd5b92959490939091803b1561211a5792826001600160a01b039360a49385602097169986604051998a9889976346083bfd60e01b8952166004880152166024860152604485015260806064850152816084850152848401375f838284010152601f801991011681010301815f875af15f91816120e6575b506120e257823d156120db573d6120a381611452565b906120b1604051928361141c565b81523d5f602083013e5b805190816120d65782638d51880160e01b5f5260045260245ffd5b602001fd5b60606120bb565b9150565b9091506020813d602011612112575b816121026020938361141c565b810103126101eb5751905f61208d565b3d91506120f5565b50505050509050611607600161243f565b919082156121e8575b80156121da575b81156121c4575b6064602092935f6001600160a01b035f5160206127525f395f51905f5254166040519687958694637702dcff60e01b86526004860152602485015260448401525af190811561163e575f91612195575090565b90506020813d6020116121bc575b816121b06020938361141c565b810103126101eb575190565b3d91506121a3565b6020915060646121d26123f1565b925050612142565b506121e36123f1565b61213b565b91506121f35f61243f565b91612134565b90811561226e575b801561225c575b60209060646001600160a01b035f5160206127525f395f51905f525416935f60405195869485936303056db360e31b8552600485015260248401528160448401525af190811561163e575f91612195575090565b5060206122676123f1565b9050612208565b90506122786123f1565b90612201565b67ffffffffffffffff811161229a5767ffffffffffffffff1690565b6306dfcc6560e41b5f52604060045260245260445ffd5b6001600160a01b0381168015918215936122ca856117b6565b67ffffffffffffffff6122db611589565b11611c72576122fc906122f0816002546125a3565b909190611ae08161255d565b9384931561236757612310846002546121f9565b6123198161255d565b506002555b612356575b5061232d8261255d565b505f7f67500e8d0ed826d2194f514dd0d8124f35648ab6e3fb5e6ed867134cffe661e98180a490565b612360908361257c565b505f612323565b825f525f60205261237c8460405f20546125ca565b6123858161255d565b50612390838261257c565b50835f525f60205260405f205561231e565b5f5160206127525f395f51905f5254604051639cd07acb60e01b815260048101929092526001600160a01b0316816044815f602094600560248401525af190811561163e575f91612195575090565b5f5160206127525f395f51905f5254604051639cd07acb60e01b81525f6004820152906001600160a01b0316816044815f602094600560248401525af190811561163e575f91612195575090565b5f5160206127525f395f51905f5254604051639cd07acb60e01b815260048101929092526001600160a01b0316816044815f6020948160248401525af190811561163e575f91612195575090565b91909180156124b457806124ae6124a7856116079461264f565b94826121f9565b8461212b565b821561254d575060205f9260646001600160a01b035f5160206127525f395f51905f52541691604051958693849263f77f3f1d60e01b84526004840152816024840152600160f81b60448401525af191821561163e575f9261251957506116076123f1565b9091506020813d602011612545575b816125356020938361141c565b810103126101eb5751905f611793565b3d9150612528565b9150612559600161243f565b9190565b801561256e575b61160730826126d4565b506125776123f1565b612564565b90811561258e575b61160790826126d4565b905061160761259b6123f1565b919050612584565b9190821561254d576125b861160791846125ca565b926125c3818561264f565b938461212b565b90811561263f575b801561262d575b60209060646001600160a01b035f5160206127525f395f51905f525416935f604051958694859363022f65e760e31b8552600485015260248401528160448401525af190811561163e575f91612195575090565b5060206126386123f1565b90506125d9565b90506126496123f1565b906125d2565b9081156126c4575b80156126b2575b60209060646001600160a01b035f5160206127525f395f51905f525416935f6040519586948593631391547f60e01b8552600485015260248401528160448401525af190811561163e575f91612195575090565b5060206126bd6123f1565b905061265e565b90506126ce6123f1565b90612657565b6001600160a01b037f9e7b61f58c47dc699ac88507c4f5bb9f121c03808c5676a8078fe583e4649700541691823b156101eb57604051635ca4b5b160e11b815260048101929092526001600160a01b03166024820152905f908290604490829084905af1801561163e576127455750565b5f61274f9161141c565b56fe9e7b61f58c47dc699ac88507c4f5bb9f121c03808c5676a8078fe583e4649701a2646970667358221220f34d5d7254fd1388d77fef58aa79e8fb42353dfea3fae721778ad6c593297b5464736f6c634300081b0033",
  "devdoc": {
    "errors": {
      "ERC7984InvalidGatewayRequest(uint256)": [
        {
          "details": "The given gateway request ID `requestId` is invalid."
        }
      ],
      "ERC7984InvalidReceiver(address)": [
        {
          "details": "The given receiver `receiver` is invalid for transfers."
        }
      ],
      "ERC7984InvalidSender(address)": [
        {
          "details": "The given sender `sender` is invalid for transfers."
        }
      ],
      "ERC7984UnauthorizedCaller(address)": [
        {
          "details": "The given caller `caller` is not authorized for the current operation."
        }
      ],
      "ERC7984UnauthorizedSpender(address,address)": [
        {
          "details": "The given holder `holder` is not authorized to spend on behalf of `spender`."
        }
      ],
      "ERC7984UnauthorizedUseOfEncryptedAmount(bytes32,address)": [
        {
          "details": "The caller `user` does not have access to the encrypted amount `amount`. NOTE: Try using the equivalent transfer function with an input proof."
        }
      ],
      "ERC7984ZeroBalance(address)": [
        {
          "details": "The holder `holder` is trying to send tokens but has a balance of 0."
        }
      ],
      "EnforcedPause()": [
        {
          "details": "The operation failed because the contract is paused."
        }
      ],
      "ExpectedPause()": [
        {
          "details": "The operation failed because the contract is not paused."
        }
      ],
      "OwnableInvalidOwner(address)": [
        {
          "details": "The owner is not a valid owner account. (eg. `address(0)`)"
        }
      ],
      "OwnableUnauthorizedAccount(address)": [
        {
          "details": "The caller account is not authorized to perform an operation."
        }
      ],
      "ReentrancyGuardReentrantCall()": [
        {
          "details": "Unauthorized reentrant call."
        }
      ],
      "SafeCastOverflowedUintDowncast(uint8,uint256)": [
        {
          "details": "Value doesn't fit in a uint of `bits` size."
        }
      ],
      "SafeERC20FailedOperation(address)": [
        {
          "details": "An operation with an ERC-20 token failed."
        }
      ]
    },
    "events": {
      "AmountDiscloseRequested(bytes32,address)": {
        "details": "Emitted when an encrypted amount `encryptedAmount` is requested for disclosure by `requester`."
      },
      "AmountDisclosed(bytes32,uint64)": {
        "details": "Emitted when an encrypted amount is disclosed. Accounts with access to the encrypted amount `encryptedAmount` that is also accessible to this contract should be able to disclose the amount. This functionality is implementation specific."
      },
      "ConfidentialTransfer(address,address,bytes32)": {
        "details": "Emitted when a confidential transfer is made from `from` to `to` of encrypted amount `amount`."
      },
      "OperatorSet(address,address,uint48)": {
        "details": "Emitted when the expiration timestamp for an operator `operator` is updated for a given `holder`. The operator may move any amount of tokens on behalf of the holder until the timestamp `until`."
      },
      "Paused(address)": {
        "details": "Emitted when the pause is triggered by `account`."
      },
      "Unpaused(address)": {
        "details": "Emitted when the pause is lifted by `account`."
      },
      "UnwrapFinalized(address,bytes32,bytes32,uint64)": {
        "details": "Emitted when an unwrap request is finalized for a given `receiver`, `unwrapRequestId`, `encryptedAmount`, and `cleartextAmount`."
      },
      "UnwrapRequested(address,bytes32,bytes32)": {
        "details": "Emitted when an unwrap request is made for a given `receiver`, `unwrapRequestId`, and `amount`."
      }
    },
    "kind": "dev",
    "methods": {
      "acceptOwnership()": {
        "details": "The new owner accepts the ownership transfer."
      },
      "confidentialBalanceOf(address)": {
        "details": "Returns the confidential balance of the account `account`."
      },
      "confidentialTotalSupply()": {
        "details": "Returns the confidential total supply of the token."
      },
      "confidentialTransfer(address,bytes32)": {
        "details": "Similar to {confidentialTransfer-address-externalEuint64-bytes} but without an input proof. The caller *must* already be allowed by ACL for the given `amount`."
      },
      "confidentialTransfer(address,bytes32,bytes)": {
        "details": "Transfers the encrypted amount `encryptedAmount` to `to` with the given input proof `inputProof`. Returns the encrypted amount that was actually transferred."
      },
      "confidentialTransferAndCall(address,bytes32,bytes)": {
        "details": "Similar to {confidentialTransfer-address-euint64} but with a callback to `to` after the transfer."
      },
      "confidentialTransferAndCall(address,bytes32,bytes,bytes)": {
        "details": "Similar to {confidentialTransfer-address-externalEuint64-bytes} but with a callback to `to` after the transfer. The callback is made to the {IERC7984Receiver-onConfidentialTransferReceived} function on the to address with the actual transferred amount (may differ from the given `encryptedAmount`) and the given data `data`."
      },
      "confidentialTransferFrom(address,address,bytes32)": {
        "details": "Similar to {confidentialTransferFrom-address-address-externalEuint64-bytes} but without an input proof. The caller *must* be already allowed by ACL for the given `amount`."
      },
      "confidentialTransferFrom(address,address,bytes32,bytes)": {
        "details": "Transfers the encrypted amount `encryptedAmount` from `from` to `to` with the given input proof `inputProof`. `msg.sender` must be either `from` or an operator for `from`. Returns the encrypted amount that was actually transferred."
      },
      "confidentialTransferFromAndCall(address,address,bytes32,bytes)": {
        "details": "Similar to {confidentialTransferFrom-address-address-euint64} but with a callback to `to` after the transfer."
      },
      "confidentialTransferFromAndCall(address,address,bytes32,bytes,bytes)": {
        "details": "Similar to {confidentialTransferFrom-address-address-externalEuint64-bytes} but with a callback to `to` after the transfer."
      },
      "contractURI()": {
        "details": "Returns the contract URI. See https://eips.ethereum.org/EIPS/eip-7572[ERC-7572] for details."
      },
      "decimals()": {
        "details": "Returns the number of decimals of the token. Recommended to be 6."
      },
      "discloseEncryptedAmount(bytes32,uint64,bytes)": {
        "details": "Publicly discloses an encrypted value with a given decryption proof. Emits the {AmountDisclosed} event. NOTE: May not be tied to a prior request via {requestDiscloseEncryptedAmount}."
      },
      "finalizeUnwrap(bytes32,uint64,bytes)": {
        "details": "Finalizes an unwrap request identified by `unwrapRequestId` with the given `unwrapAmountCleartext` and `decryptionProof`."
      },
      "inferredTotalSupply()": {
        "details": "Returns the underlying balance divided by the {rate}, a value greater or equal to the actual {confidentialTotalSupply}. NOTE: The return value of this function can be inflated by directly sending underlying tokens to the wrapper contract. Reductions will lag compared to {confidentialTotalSupply} since it is updated on {unwrap} while this function updates on {finalizeUnwrap}."
      },
      "isOperator(address,address)": {
        "details": "Returns true if `spender` is currently an operator for `holder`."
      },
      "maxTotalSupply()": {
        "details": "Returns the maximum total supply of wrapped tokens supported by the encrypted datatype."
      },
      "name()": {
        "details": "Returns the name of the token."
      },
      "onTransferReceived(address,address,uint256,bytes)": {
        "details": "ERC-1363 transferAndCall callback. We reuse the parent implementation      verbatim but gate it through the same pause/reentrancy hooks as      {wrap} so the alternate entry path can't bypass operational halts."
      },
      "owner()": {
        "details": "Returns the address of the current owner."
      },
      "paused()": {
        "details": "Returns true if the contract is paused, and false otherwise."
      },
      "pendingOwner()": {
        "details": "Returns the address of the pending owner."
      },
      "rate()": {
        "details": "Returns the rate at which the underlying token is converted to the wrapped token. For example, if the `rate` is 1000, then 1000 units of the underlying token equal 1 unit of the wrapped token."
      },
      "renounceOwnership()": {
        "details": "Leaves the contract without owner. It will not be possible to call `onlyOwner` functions. Can only be called by the current owner. NOTE: Renouncing ownership will leave the contract without an owner, thereby disabling any functionality that is only available to the owner."
      },
      "requestDiscloseEncryptedAmount(bytes32)": {
        "details": "Starts the process to disclose an encrypted amount `encryptedAmount` publicly by making it publicly decryptable. Emits the {AmountDiscloseRequested} event. NOTE: Both `msg.sender` and `address(this)` must have permission to access the encrypted amount `encryptedAmount` to request disclosure of the encrypted amount `encryptedAmount`."
      },
      "setOperator(address,uint48)": {
        "details": "Sets `operator` as an operator for `holder` until the timestamp `until`. NOTE: An operator may transfer any amount of tokens on behalf of a holder while approved."
      },
      "supportsInterface(bytes4)": {
        "details": "Returns true if this contract implements the interface defined by `interfaceId`. See the corresponding https://eips.ethereum.org/EIPS/eip-165#how-interfaces-are-identified[ERC section] to learn more about how these ids are created. This function call must use less than 30 000 gas."
      },
      "symbol()": {
        "details": "Returns the symbol of the token."
      },
      "transferOwnership(address)": {
        "details": "Starts the ownership transfer of the contract to a new account. Replaces the pending transfer if there is one. Can only be called by the current owner. Setting `newOwner` to the zero address is allowed; this can be used to cancel an initiated ownership transfer."
      },
      "underlying()": {
        "details": "Returns the address of the underlying ERC-20 token that is being wrapped."
      },
      "unwrap(address,address,bytes32)": {
        "details": "Unwrap without passing an input proof. See {unwrap-address-address-bytes32-bytes} for more details."
      },
      "unwrap(address,address,bytes32,bytes)": {
        "details": "See {IERC7984ERC20Wrapper-unwrap}. `amount * rate()` underlying tokens are sent to `to`. NOTE: The unwrap request created by this function must be finalized by calling {finalizeUnwrap}."
      },
      "unwrapAmount(bytes32)": {
        "details": "Returns the amount of wrapper tokens that were unwrapped for a given `unwrapRequestId`."
      },
      "unwrapRequester(bytes32)": {
        "details": "Get the address that has a pending unwrap request for the given `unwrapAmount`. Returns `address(0)` if no pending unwrap request for the amount `unwrapAmount` exists."
      },
      "wrap(address,uint256)": {
        "details": "Pause + reentrancy hook on top of the canonical wrap. The parent      pulls real USDC from `msg.sender` then mints encrypted cUSDC to      `to` — this contract holds USDC reserves equal to      `confidentialTotalSupply * rate()` at all times."
      }
    },
    "title": "ConfidentialUSDC",
    "version": 1
  },
  "userdoc": {
    "errors": {
      "InvalidKMSSignatures()": [
        {
          "notice": "Returned if the returned KMS signatures are not valid."
        }
      ],
      "SenderNotAllowedToUseHandle(bytes32,address)": [
        {
          "notice": "Returned if the sender is not allowed to use the handle."
        }
      ],
      "ZamaProtocolUnsupported()": [
        {
          "notice": "Returned if the Zama protocol is not supported on the current chain"
        }
      ]
    },
    "events": {
      "PublicDecryptionVerified(bytes32[],bytes)": {
        "notice": "This event is emitted when public decryption has been successfully verified."
      }
    },
    "kind": "user",
    "methods": {
      "pause()": {
        "notice": "Halt new wraps and unwrap requests. In-flight unwrap requests         remain settle-able through {finalizeUnwrap}."
      }
    },
    "notice": "FHE-encrypted ERC-7984 wrapper around USDC. Built on OpenZeppelin's         {ERC7984ERC20Wrapper} (v0.4.0), the canonical Zama-recommended pattern         for ERC-20 → ERC-7984 wrapping.         Inherited surface (no reimplementation):           wrap(to, amount)                                 — pulls USDC, mints cUSDC at {rate}           unwrap(from, to, euint64)                        — queues unwrap (own ciphertext)           unwrap(from, to, externalEuint64, inputProof)    — queues unwrap (external ct + zk proof)           finalizeUnwrap(requestId, cleartext, kmsProof)   — settles after KMS-signed proof           onTransferReceived(...)                          — ERC-1363 transferAndCall hook           rate(), underlying(), inferredTotalSupply(),           maxTotalSupply(), unwrapRequester(),           unwrapAmount(), supportsInterface(...)         Local additions:           - Pausable hooks on wrap and the internal _unwrap, gated by             {Ownable2Step}. {finalizeUnwrap} is intentionally NOT pausable so             in-flight unwrap requests can always settle and never strand user             funds in encrypted limbo.           - Reentrancy guard on wrap and the internal _unwrap.           - The underlying USDC is immutable per ERC7984ERC20Wrapper's             contract — to swap underlying, deploy a fresh ConfidentialUSDC.             No on-chain \"propose/execute\" mechanism is added here because             pretending to support a swap that the parent forbids would be             deceptive.         No faucet — production cUSDC is always 1:1 backed by real USDC.         For Sepolia testing, acquire test USDC from Circle's official faucet         at https://faucet.circle.com (USDC token: 0x1c7D…7238).",
    "version": 1
  },
  "storageLayout": {
    "storage": [
      {
        "astId": 42511,
        "contract": "contracts/token/ConfidentialUSDC.sol:ConfidentialUSDC",
        "label": "_balances",
        "offset": 0,
        "slot": "0",
        "type": "t_mapping(t_address,t_userDefinedValueType(euint64)51528)"
      },
      {
        "astId": 42517,
        "contract": "contracts/token/ConfidentialUSDC.sol:ConfidentialUSDC",
        "label": "_operators",
        "offset": 0,
        "slot": "1",
        "type": "t_mapping(t_address,t_mapping(t_address,t_uint48))"
      },
      {
        "astId": 42520,
        "contract": "contracts/token/ConfidentialUSDC.sol:ConfidentialUSDC",
        "label": "_totalSupply",
        "offset": 0,
        "slot": "2",
        "type": "t_userDefinedValueType(euint64)51528"
      },
      {
        "astId": 42522,
        "contract": "contracts/token/ConfidentialUSDC.sol:ConfidentialUSDC",
        "label": "_name",
        "offset": 0,
        "slot": "3",
        "type": "t_string_storage"
      },
      {
        "astId": 42524,
        "contract": "contracts/token/ConfidentialUSDC.sol:ConfidentialUSDC",
        "label": "_symbol",
        "offset": 0,
        "slot": "4",
        "type": "t_string_storage"
      },
      {
        "astId": 42526,
        "contract": "contracts/token/ConfidentialUSDC.sol:ConfidentialUSDC",
        "label": "_contractURI",
        "offset": 0,
        "slot": "5",
        "type": "t_string_storage"
      },
      {
        "astId": 43631,
        "contract": "contracts/token/ConfidentialUSDC.sol:ConfidentialUSDC",
        "label": "_unwrapRequests",
        "offset": 0,
        "slot": "6",
        "type": "t_mapping(t_bytes32,t_address)"
      },
      {
        "astId": 44680,
        "contract": "contracts/token/ConfidentialUSDC.sol:ConfidentialUSDC",
        "label": "_owner",
        "offset": 0,
        "slot": "7",
        "type": "t_address"
      },
      {
        "astId": 44828,
        "contract": "contracts/token/ConfidentialUSDC.sol:ConfidentialUSDC",
        "label": "_pendingOwner",
        "offset": 0,
        "slot": "8",
        "type": "t_address"
      },
      {
        "astId": 45615,
        "contract": "contracts/token/ConfidentialUSDC.sol:ConfidentialUSDC",
        "label": "_paused",
        "offset": 20,
        "slot": "8",
        "type": "t_bool"
      }
    ],
    "types": {
      "t_address": {
        "encoding": "inplace",
        "label": "address",
        "numberOfBytes": "20"
      },
      "t_bool": {
        "encoding": "inplace",
        "label": "bool",
        "numberOfBytes": "1"
      },
      "t_bytes32": {
        "encoding": "inplace",
        "label": "bytes32",
        "numberOfBytes": "32"
      },
      "t_mapping(t_address,t_mapping(t_address,t_uint48))": {
        "encoding": "mapping",
        "key": "t_address",
        "label": "mapping(address => mapping(address => uint48))",
        "numberOfBytes": "32",
        "value": "t_mapping(t_address,t_uint48)"
      },
      "t_mapping(t_address,t_uint48)": {
        "encoding": "mapping",
        "key": "t_address",
        "label": "mapping(address => uint48)",
        "numberOfBytes": "32",
        "value": "t_uint48"
      },
      "t_mapping(t_address,t_userDefinedValueType(euint64)51528)": {
        "encoding": "mapping",
        "key": "t_address",
        "label": "mapping(address => euint64)",
        "numberOfBytes": "32",
        "value": "t_userDefinedValueType(euint64)51528"
      },
      "t_mapping(t_bytes32,t_address)": {
        "encoding": "mapping",
        "key": "t_bytes32",
        "label": "mapping(bytes32 => address)",
        "numberOfBytes": "32",
        "value": "t_address"
      },
      "t_string_storage": {
        "encoding": "bytes",
        "label": "string",
        "numberOfBytes": "32"
      },
      "t_uint48": {
        "encoding": "inplace",
        "label": "uint48",
        "numberOfBytes": "6"
      },
      "t_userDefinedValueType(euint64)51528": {
        "encoding": "inplace",
        "label": "euint64",
        "numberOfBytes": "32"
      }
    }
  }
}