{
  "address": "0x2424AE8B6d41F813bca1Bf669f23f355fDb5979B",
  "abi": [
    {
      "inputs": [
        {
          "internalType": "address",
          "name": "_escrow",
          "type": "address"
        },
        {
          "internalType": "address",
          "name": "_municipality",
          "type": "address"
        },
        {
          "internalType": "address",
          "name": "_registry",
          "type": "address"
        }
      ],
      "stateMutability": "nonpayable",
      "type": "constructor"
    },
    {
      "inputs": [
        {
          "internalType": "uint256",
          "name": "disputeId",
          "type": "uint256"
        }
      ],
      "name": "DisputeAlreadyResolved",
      "type": "error"
    },
    {
      "inputs": [
        {
          "internalType": "uint256",
          "name": "required",
          "type": "uint256"
        },
        {
          "internalType": "uint256",
          "name": "provided",
          "type": "uint256"
        }
      ],
      "name": "InsufficientStake",
      "type": "error"
    },
    {
      "inputs": [
        {
          "internalType": "uint256",
          "name": "disputeId",
          "type": "uint256"
        }
      ],
      "name": "InvalidDisputeId",
      "type": "error"
    },
    {
      "inputs": [],
      "name": "NotCourtAuthority",
      "type": "error"
    },
    {
      "inputs": [
        {
          "internalType": "address",
          "name": "owner",
          "type": "address"
        }
      ],
      "name": "OwnableInvalidOwner",
      "type": "error"
    },
    {
      "inputs": [
        {
          "internalType": "address",
          "name": "account",
          "type": "address"
        }
      ],
      "name": "OwnableUnauthorizedAccount",
      "type": "error"
    },
    {
      "inputs": [],
      "name": "ReentrancyGuardReentrantCall",
      "type": "error"
    },
    {
      "inputs": [],
      "name": "StakeForfeited",
      "type": "error"
    },
    {
      "inputs": [],
      "name": "StakeReturnFailed",
      "type": "error"
    },
    {
      "inputs": [],
      "name": "ZeroAddress",
      "type": "error"
    },
    {
      "anonymous": false,
      "inputs": [
        {
          "indexed": true,
          "internalType": "uint256",
          "name": "disputeId",
          "type": "uint256"
        },
        {
          "indexed": true,
          "internalType": "uint256",
          "name": "tenderId",
          "type": "uint256"
        },
        {
          "indexed": false,
          "internalType": "address",
          "name": "complainant",
          "type": "address"
        },
        {
          "indexed": false,
          "internalType": "address",
          "name": "accused",
          "type": "address"
        }
      ],
      "name": "DisputeFiled",
      "type": "event"
    },
    {
      "anonymous": false,
      "inputs": [
        {
          "indexed": true,
          "internalType": "uint256",
          "name": "disputeId",
          "type": "uint256"
        },
        {
          "indexed": false,
          "internalType": "enum DisputeStatus",
          "name": "resolution",
          "type": "uint8"
        }
      ],
      "name": "DisputeResolved",
      "type": "event"
    },
    {
      "anonymous": false,
      "inputs": [
        {
          "indexed": true,
          "internalType": "address",
          "name": "previousOwner",
          "type": "address"
        },
        {
          "indexed": true,
          "internalType": "address",
          "name": "newOwner",
          "type": "address"
        }
      ],
      "name": "OwnershipTransferStarted",
      "type": "event"
    },
    {
      "anonymous": false,
      "inputs": [
        {
          "indexed": true,
          "internalType": "address",
          "name": "previousOwner",
          "type": "address"
        },
        {
          "indexed": true,
          "internalType": "address",
          "name": "newOwner",
          "type": "address"
        }
      ],
      "name": "OwnershipTransferred",
      "type": "event"
    },
    {
      "anonymous": false,
      "inputs": [
        {
          "indexed": true,
          "internalType": "uint256",
          "name": "disputeId",
          "type": "uint256"
        },
        {
          "indexed": false,
          "internalType": "address",
          "name": "complainant",
          "type": "address"
        },
        {
          "indexed": false,
          "internalType": "address",
          "name": "recipient",
          "type": "address"
        },
        {
          "indexed": false,
          "internalType": "uint256",
          "name": "amount",
          "type": "uint256"
        }
      ],
      "name": "StakeBurned",
      "type": "event"
    },
    {
      "inputs": [],
      "name": "BPS_BASE",
      "outputs": [
        {
          "internalType": "uint256",
          "name": "",
          "type": "uint256"
        }
      ],
      "stateMutability": "view",
      "type": "function"
    },
    {
      "inputs": [],
      "name": "CITIZEN_STAKE",
      "outputs": [
        {
          "internalType": "uint256",
          "name": "",
          "type": "uint256"
        }
      ],
      "stateMutability": "view",
      "type": "function"
    },
    {
      "inputs": [],
      "name": "COMPLAINT_STAKE_BPS",
      "outputs": [
        {
          "internalType": "uint256",
          "name": "",
          "type": "uint256"
        }
      ],
      "stateMutability": "view",
      "type": "function"
    },
    {
      "inputs": [],
      "name": "DISPUTE_TIMEOUT",
      "outputs": [
        {
          "internalType": "uint256",
          "name": "",
          "type": "uint256"
        }
      ],
      "stateMutability": "view",
      "type": "function"
    },
    {
      "inputs": [],
      "name": "acceptOwnership",
      "outputs": [],
      "stateMutability": "nonpayable",
      "type": "function"
    },
    {
      "inputs": [],
      "name": "courtAuthority",
      "outputs": [
        {
          "internalType": "address",
          "name": "",
          "type": "address"
        }
      ],
      "stateMutability": "view",
      "type": "function"
    },
    {
      "inputs": [],
      "name": "disputeCount",
      "outputs": [
        {
          "internalType": "uint256",
          "name": "",
          "type": "uint256"
        }
      ],
      "stateMutability": "view",
      "type": "function"
    },
    {
      "inputs": [
        {
          "internalType": "uint256",
          "name": "",
          "type": "uint256"
        }
      ],
      "name": "disputeCreatedAt",
      "outputs": [
        {
          "internalType": "uint256",
          "name": "",
          "type": "uint256"
        }
      ],
      "stateMutability": "view",
      "type": "function"
    },
    {
      "inputs": [
        {
          "internalType": "uint256",
          "name": "",
          "type": "uint256"
        }
      ],
      "name": "disputes",
      "outputs": [
        {
          "internalType": "address",
          "name": "complainant",
          "type": "address"
        },
        {
          "internalType": "address",
          "name": "accused",
          "type": "address"
        },
        {
          "internalType": "uint256",
          "name": "tenderId",
          "type": "uint256"
        },
        {
          "internalType": "enum DisputeType",
          "name": "disputeType",
          "type": "uint8"
        },
        {
          "internalType": "enum DisputeStatus",
          "name": "status",
          "type": "uint8"
        },
        {
          "internalType": "uint256",
          "name": "stake",
          "type": "uint256"
        },
        {
          "internalType": "string",
          "name": "reason",
          "type": "string"
        }
      ],
      "stateMutability": "view",
      "type": "function"
    },
    {
      "inputs": [],
      "name": "escrow",
      "outputs": [
        {
          "internalType": "contract BidEscrow",
          "name": "",
          "type": "address"
        }
      ],
      "stateMutability": "view",
      "type": "function"
    },
    {
      "inputs": [
        {
          "internalType": "uint256",
          "name": "tenderId",
          "type": "uint256"
        },
        {
          "internalType": "address",
          "name": "accused",
          "type": "address"
        },
        {
          "internalType": "string",
          "name": "reason",
          "type": "string"
        },
        {
          "internalType": "bool",
          "name": "shouldFreeze",
          "type": "bool"
        }
      ],
      "name": "executeCourtOrder",
      "outputs": [
        {
          "internalType": "uint256",
          "name": "",
          "type": "uint256"
        }
      ],
      "stateMutability": "nonpayable",
      "type": "function"
    },
    {
      "inputs": [
        {
          "internalType": "uint256",
          "name": "tenderId",
          "type": "uint256"
        },
        {
          "internalType": "address",
          "name": "accused",
          "type": "address"
        },
        {
          "internalType": "string",
          "name": "reason",
          "type": "string"
        }
      ],
      "name": "fileCitizenComplaint",
      "outputs": [
        {
          "internalType": "uint256",
          "name": "",
          "type": "uint256"
        }
      ],
      "stateMutability": "payable",
      "type": "function"
    },
    {
      "inputs": [
        {
          "internalType": "uint256",
          "name": "tenderId",
          "type": "uint256"
        },
        {
          "internalType": "address",
          "name": "accused",
          "type": "address"
        },
        {
          "internalType": "string",
          "name": "reason",
          "type": "string"
        }
      ],
      "name": "fileCompanyComplaint",
      "outputs": [
        {
          "internalType": "uint256",
          "name": "",
          "type": "uint256"
        }
      ],
      "stateMutability": "payable",
      "type": "function"
    },
    {
      "inputs": [
        {
          "internalType": "uint256",
          "name": "tenderId",
          "type": "uint256"
        }
      ],
      "name": "getComplaintStake",
      "outputs": [
        {
          "internalType": "uint256",
          "name": "",
          "type": "uint256"
        }
      ],
      "stateMutability": "view",
      "type": "function"
    },
    {
      "inputs": [
        {
          "internalType": "uint256",
          "name": "disputeId",
          "type": "uint256"
        }
      ],
      "name": "getDispute",
      "outputs": [
        {
          "components": [
            {
              "internalType": "address",
              "name": "complainant",
              "type": "address"
            },
            {
              "internalType": "address",
              "name": "accused",
              "type": "address"
            },
            {
              "internalType": "uint256",
              "name": "tenderId",
              "type": "uint256"
            },
            {
              "internalType": "enum DisputeType",
              "name": "disputeType",
              "type": "uint8"
            },
            {
              "internalType": "enum DisputeStatus",
              "name": "status",
              "type": "uint8"
            },
            {
              "internalType": "uint256",
              "name": "stake",
              "type": "uint256"
            },
            {
              "internalType": "string",
              "name": "reason",
              "type": "string"
            }
          ],
          "internalType": "struct Dispute",
          "name": "",
          "type": "tuple"
        }
      ],
      "stateMutability": "view",
      "type": "function"
    },
    {
      "inputs": [
        {
          "internalType": "uint256",
          "name": "tenderId",
          "type": "uint256"
        }
      ],
      "name": "getDisputesByTender",
      "outputs": [
        {
          "internalType": "uint256[]",
          "name": "",
          "type": "uint256[]"
        }
      ],
      "stateMutability": "view",
      "type": "function"
    },
    {
      "inputs": [],
      "name": "municipality",
      "outputs": [
        {
          "internalType": "address",
          "name": "",
          "type": "address"
        }
      ],
      "stateMutability": "view",
      "type": "function"
    },
    {
      "inputs": [],
      "name": "owner",
      "outputs": [
        {
          "internalType": "address",
          "name": "",
          "type": "address"
        }
      ],
      "stateMutability": "view",
      "type": "function"
    },
    {
      "inputs": [],
      "name": "pendingOwner",
      "outputs": [
        {
          "internalType": "address",
          "name": "",
          "type": "address"
        }
      ],
      "stateMutability": "view",
      "type": "function"
    },
    {
      "inputs": [],
      "name": "registry",
      "outputs": [
        {
          "internalType": "contract BidderRegistry",
          "name": "",
          "type": "address"
        }
      ],
      "stateMutability": "view",
      "type": "function"
    },
    {
      "inputs": [],
      "name": "renounceOwnership",
      "outputs": [],
      "stateMutability": "nonpayable",
      "type": "function"
    },
    {
      "inputs": [
        {
          "internalType": "uint256",
          "name": "disputeId",
          "type": "uint256"
        },
        {
          "internalType": "enum DisputeStatus",
          "name": "resolution",
          "type": "uint8"
        }
      ],
      "name": "resolveDispute",
      "outputs": [],
      "stateMutability": "nonpayable",
      "type": "function"
    },
    {
      "inputs": [
        {
          "internalType": "address",
          "name": "_courtAuthority",
          "type": "address"
        }
      ],
      "name": "setCourtAuthority",
      "outputs": [],
      "stateMutability": "nonpayable",
      "type": "function"
    },
    {
      "inputs": [
        {
          "internalType": "uint256",
          "name": "",
          "type": "uint256"
        },
        {
          "internalType": "uint256",
          "name": "",
          "type": "uint256"
        }
      ],
      "name": "tenderDisputes",
      "outputs": [
        {
          "internalType": "uint256",
          "name": "",
          "type": "uint256"
        }
      ],
      "stateMutability": "view",
      "type": "function"
    },
    {
      "inputs": [
        {
          "internalType": "uint256",
          "name": "disputeId",
          "type": "uint256"
        }
      ],
      "name": "timeoutDispute",
      "outputs": [],
      "stateMutability": "nonpayable",
      "type": "function"
    },
    {
      "inputs": [
        {
          "internalType": "address",
          "name": "newOwner",
          "type": "address"
        }
      ],
      "name": "transferOwnership",
      "outputs": [],
      "stateMutability": "nonpayable",
      "type": "function"
    }
  ],
  "transactionHash": "0xb8793a48916941013c2a7f85b2440b3bcd221947083932b19b29df65e967956c",
  "args": [
    "0x1635eb515c80eEf52CD88d34109C83D8b5321647",
    "0xF505e2E71df58D7244189072008f25f6b6aaE5ae",
    "0x2E8037626102ca3393ab9EfE7a3A254b30B236CA"
  ],
  "numDeployments": 1,
  "solcInputHash": "c1d4a13c7ba84a23b13656a108c4af42",
  "bytecode": "0x60803461018757601f611d6838819003918201601f19168301916001600160401b0383118484101761018b57808492606094604052833981010312610187576100478161019f565b9061006060406100596020840161019f565b920161019f565b90331561017457600180546001600160a01b03199081169091555f805433928116831782556040519592916001600160a01b03909116907f8be0079c531659141344cd1fd0a4f28419497f9722a3daafe3b4186f6b6457e09080a360017f9b779b17422d0df92223018b32b4d1fa46e071723d6817e2486d003becc55f00556001600160a01b031680158015610163575b8015610152575b61014357600280546001600160a01b03199081169290921790556004805482166001600160a01b039384161790556005805490911692909116919091179055611bb490816101b48239f35b63d92e233d60e01b5f5260045ffd5b506001600160a01b038316156100f8565b506001600160a01b038216156100f1565b631e4fbdf760e01b5f525f60045260245ffd5b5f80fd5b634e487b7160e01b5f52604160045260245ffd5b51906001600160a01b03821682036101875756fe60806040526004361015610011575f80fd5b5f5f3560e01c80630f85d5f1146117c75780631ac47ccd146116055780633a6c4434146115b1578063486265c61461159457806348dd0d4b14611578578063564a565d146114d457806368686a9f1461142e578063715018a6146113c757806379ba5097146113405780637b1039991461131a5780637cfe9fad146112f957806389d6c592146112cf5780638da5cb5b146112aa5780639eaa1b091461128e578063a28889e114611271578063a61e7e4c1461124b578063a673b9b114610df7578063ac530a7b14610b48578063bc790efe146107ee578063bfcf9613146107a5578063e2fdcc171461077e578063e30c397814610757578063e3a96cbd146105e3578063e55e4211146101d0578063eaf4b6ef146101a95763f2fde38b14610138575f80fd5b346101a65760203660031901126101a6576001600160a01b036101596117ed565b610161611b6b565b16806001600160a01b031960015416176001556001600160a01b038254167f38d16b8cac22d99fc7c124b9cd0de2d3fa1faef420bfe791d8c362d765e227008380a380f35b80fd5b50346101a657806003193601126101a65760206001600160a01b0360035416604051908152f35b50346101a65760403660031901126101a657600435602435600581101561046a576101f9611b6b565b610201611b0d565b6006548210156105cf578183526007602052604083206003810160ff815460081c16600581101590816105bb5780151591826105ad575b82610587575b50506105735790610250838693611a97565b6002830361047d576001600160a01b036002541660028201549060018301916001600160a01b038354166001600160a01b036004541692803b15610479578692836064926040519687958694635f4caee160e11b86526004860152602485015260448401525af190811561046e578491610455575b50506001600160a01b0360055416906040516314dbffdb60e21b8152306004820152602081602481865afa90811561044a57859161040b575b506103a5575b50506004810154908161036f575b50505060207f2ffcfee146bc0d5ff304c6b65111a0d485af9456dc64eee7d66ebdcc90b223ea915b6103476040518092611926565ba260017f9b779b17422d0df92223018b32b4d1fa46e071723d6817e2486d003becc55f005580f35b8280926001600160a01b03829354165af1610388611ad2565b501561039657825f80610312565b63ec0440fd60e01b8352600483fd5b546001600160a01b0316813b156104075783916024839260405194859384926314c2559360e21b845260048401525af19081156103fc5783911561030457816103ed91611857565b6103f857815f610304565b5080fd5b6040513d85823e3d90fd5b8380fd5b90506020813d602011610442575b8161042660209383611857565b8101031261043e5751801515810361043e575f6102fe565b8480fd5b3d9150610419565b6040513d87823e3d90fd5b8161045f91611857565b61046a57825f6102c5565b8280fd5b6040513d86823e3d90fd5b8680fd5b9050600482146104b2575b5060207f2ffcfee146bc0d5ff304c6b65111a0d485af9456dc64eee7d66ebdcc90b223ea9161033a565b6004810190848254806104c8575b505050610488565b818080926001600160a01b03600454165af16104e2611ad2565b50156105645791837f9cdf8422db039eadeee907d7e087bb4650e80a05074ffbd054e63f9d053c32e060606020946001600160a01b037f2ffcfee146bc0d5ff304c6b65111a0d485af9456dc64eee7d66ebdcc90b223ea975416906001600160a01b0360045416905490604051928352878301526040820152a291845f6104c0565b630639bcdb60e21b8552600485fd5b6313ccbabd60e31b85526004849052602485fd5b90915061059957600314155f8061023e565b634e487b7160e01b86526021600452602486fd5b506001811415915086610238565b634e487b7160e01b87526021600452602487fd5b6311d4fefd60e01b83526004829052602483fd5b50346101a65760203660031901126101a657600435606060c06040516106088161183b565b84815284602082015284604082015284838201528460808201528460a082015201526006548110156107455781526007602052604081206040519061064c8261183b565b6001600160a01b0381541682526001600160a01b03600182015416926020830193845260028201546040840190815260038301549060ff606086019261069482821685611b01565b60081c166080860193600582101561073157509261070a61072d9593610715936001600160a01b0399968452896106d9600560048901549860a08d01998a5201611879565b9760c08b019889526040519b8c9b60208d52511660208c0152511660408a0152516060890152516080880190611919565b5160a0860190611926565b5160c08401525160e080840152610100830190611933565b0390f35b634e487b7160e01b81526021600452602490fd5b6311d4fefd60e01b8252600452602490fd5b50346101a657806003193601126101a65760206001600160a01b0360015416604051908152f35b50346101a657806003193601126101a65760206001600160a01b0360025416604051908152f35b50346101a65760403660031901126101a6576024359060043581526008602052604081209081548310156101a65760206107df84846119cc565b90549060031b1c604051908152f35b506107f836611985565b906108048493946119f5565b803410610b325750600654935f198514610b1e57600185016006556040519061082c8261183b565b3382526001600160a01b0360208301911693848252604083019086825260608401916108588a84611b01565b60808501918a835260a08601943486528b61087283611ab6565b986108806040519a8b611857565b838a5236848201116103f8576040828e6001600160a01b0396946020868f8a9889988483013701015260c08c019c8d528152600760205220985116166001600160a01b031988541617875551166001600160a01b036001870191166001600160a01b03198254161790555160028501556003840191516003811015610b0a5760ff8019845416911617825551906005821015610af657600593929161092491611a97565b51600482015501905180519067ffffffffffffffff8211610ae257819061094b8454611803565b601f8111610a92575b50602090601f8311600114610a30578892610a25575b50508160011b915f199060031b1c19161790555b81845260086020526040842080549068010000000000000000821015610a115784926020966109f2856109da8660409660017fc78d47f5c2ced9cd1d6513e2ec37f2c1454b35335b403e2ea299bde13a17533f990181556119cc565b90919082549060031b91821b915f19901b1916179055565b84815260098852824291205581519033825287820152a3604051908152f35b634e487b7160e01b86526041600452602486fd5b015190505f8061096a565b8489528189209250601f198416895b818110610a7a5750908460019594939210610a62575b505050811b01905561097e565b01515f1960f88460031b161c191690555f8080610a55565b92936020600181928786015181550195019301610a3f565b90915083885260208820601f840160051c81019160208510610ad8575b90601f859493920160051c01905b818110610aca5750610954565b898155849350600101610abd565b9091508190610aaf565b634e487b7160e01b87526041600452602487fd5b634e487b7160e01b89526021600452602489fd5b634e487b7160e01b8a52602160045260248afd5b634e487b7160e01b86526011600452602486fd5b6322df051360e11b865260045234602452604485fd5b50610b5236611985565b906601c6bf526340009392933410610dd957600654935f198514610b1e576001850160065560405190610b848261183b565b3382526001600160a01b03166020820181815260408301868152919490916060840191906001835260808501918a835260a08601943486528b610bc683611ab6565b98610bd46040519a8b611857565b838a5236848201116103f8576040828e6001600160a01b0396946020868f8a9889988483013701015260c08c019c8d528152600760205220985116166001600160a01b031988541617875551166001600160a01b036001870191166001600160a01b03198254161790555160028501556003840191516003811015610b0a5760ff8019845416911617825551906005821015610af6576005939291610c7891611a97565b51600482015501905180519067ffffffffffffffff8211610ae2578190610c9f8454611803565b601f8111610d75575b50602090601f8311600114610d2c578892610a255750508160011b915f199060031b1c191617905581845260086020526040842080549068010000000000000000821015610a115784926020966109f2856109da8660409660017fc78d47f5c2ced9cd1d6513e2ec37f2c1454b35335b403e2ea299bde13a17533f990181556119cc565b8489528189209250601f198416895b818110610d5d5750908460019594939210610a6257505050811b01905561097e565b92936020600181928786015181550195019301610d3b565b90915083885260208820601f840160051c81019160208510610dbb575b90601f859493920160051c01905b818110610dad5750610ca8565b898155849350600101610da0565b9091508190610d92565b634e487b7160e01b5f52602160045260245ffd5b6322df051360e11b85526601c6bf5263400060045234602452604485fd5b503461110557608036600319011261110557600435602435916001600160a01b0383168093036111055760443567ffffffffffffffff811161110557610e41903690600401611957565b606493919335908115158203611105576001600160a01b0360035416330361123c57600654945f1986146112285760018601600655604051610e828161183b565b33815260208101888152604082018681526060830193906002855260808401915f835260a08501935f8552610eb688611ab6565b97610ec4604051998a611857565b8089523681840111611105576020815f926001600160a01b0395838d01378a01015260c086019788528b5f526007602052818060405f20975116166001600160a01b031987541617865551166001600160a01b036001860191166001600160a01b03198254161790555160028401556003830193516003811015610dc55760ff8019865416911617845551926005841015610dc557600593610f6591611a97565b51600482015501905180519067ffffffffffffffff8211611156578190610f8c8454611803565b601f81116111d8575b50602090601f8311600114611175575f9261116a575b50508160011b915f199060031b1c19161790555b815f52600860205260405f20805468010000000000000000811015611156576109da81610ff293600189940181556119cc565b835f5260096020524260405f205581847fc78d47f5c2ced9cd1d6513e2ec37f2c1454b35335b403e2ea299bde13a17533f60408051338152896020820152a315611109576001600160a01b036002541693843b156111055760445f92836040519788948593621b214f60e51b8552600485015260248401525af19081156110fa5760209383926110e5575b508360ff6003604084867f2ffcfee146bc0d5ff304c6b65111a0d485af9456dc64eee7d66ebdcc90b223ea965260078552828282200161030061ff00198254161790555b8681526007855220015460081c166110dc6040518092611926565ba2604051908152f35b6110f292505f9150611857565b805f8361107d565b6040513d5f823e3d90fd5b5f80fd5b50602092507f2ffcfee146bc0d5ff304c6b65111a0d485af9456dc64eee7d66ebdcc90b223ea8360ff600360408695865f526007855282825f200161040061ff00198254161790556110c1565b634e487b7160e01b5f52604160045260245ffd5b015190505f80610fab565b5f8581528281209350601f198516905b8181106111c057509084600195949392106111a8575b505050811b019055610fbf565b01515f1960f88460031b161c191690555f808061119b565b92936020600181928786015181550195019301611185565b909150835f5260205f20601f840160051c8101916020851061121e575b90601f859493920160051c01905b8181106112105750610f95565b5f8155849350600101611203565b90915081906111f5565b634e487b7160e01b5f52601160045260245ffd5b631fea887560e01b5f5260045ffd5b34611105575f3660031901126111055760206001600160a01b0360045416604051908152f35b34611105575f366003190112611105576020600654604051908152f35b34611105575f3660031901126111055760206040516127108152f35b34611105575f3660031901126111055760206001600160a01b035f5416604051908152f35b34611105576020366003190112611105576004355f526009602052602060405f2054604051908152f35b34611105575f3660031901126111055760206040516601c6bf526340008152f35b34611105575f3660031901126111055760206001600160a01b0360055416604051908152f35b34611105575f36600319011261110557336001600160a01b0360015416036113b4576001600160a01b0319600154166001555f54336001600160a01b03198216175f556001600160a01b033391167f8be0079c531659141344cd1fd0a4f28419497f9722a3daafe3b4186f6b6457e05f80a3005b63118cdaa760e01b5f523360045260245ffd5b34611105575f366003190112611105576113df611b6b565b6001600160a01b0319600154166001555f6001600160a01b0381546001600160a01b031981168355167f8be0079c531659141344cd1fd0a4f28419497f9722a3daafe3b4186f6b6457e08280a3005b34611105576020366003190112611105576004355f52600860205260405f20604051806020835491828152019081935f5260205f20905f5b8181106114be575050508161147c910382611857565b604051918291602083019060208452518091526040830191905f5b8181106114a5575050500390f35b8251845285945060209384019390920191600101611497565b8254845260209093019260019283019201611466565b34611105576020366003190112611105576004355f52600760205260405f206001600160a01b0381541661072d6001600160a01b0360018401541692600281015490611562600382015461152f600560048501549401611879565b936040519788978852602088015260408701526115526060870160ff8316611919565b60ff608087019160081c16611926565b60a084015260e060c084015260e0830190611933565b34611105575f3660031901126111055760206040516101f48152f35b34611105575f36600319011261110557602060405162278d008152f35b34611105576020366003190112611105576001600160a01b036115d26117ed565b6115da611b6b565b1680156115f6576001600160a01b031960035416176003555f80f35b63d92e233d60e01b5f5260045ffd5b3461110557602036600319011261110557600435611621611b0d565b805f52600760205260405f206001600160a01b03815416156117b457600381019060ff825460081c166005811015610dc55780151590816117a8575b5061179557825f52600960205260405f205462278d00810180911161122857421061175057815461ff0019811661040017835560ff166003811015610dc5571580611743575b611708575b50602060ff7f2ffcfee146bc0d5ff304c6b65111a0d485af9456dc64eee7d66ebdcc90b223ea925460081c166116e16040518092611926565ba260017f9b779b17422d0df92223018b32b4d1fa46e071723d6817e2486d003becc55f0055005b5f80808360046001600160a01b0383965416910154905af1611728611ad2565b501561173457826116a8565b63ec0440fd60e01b5f5260045ffd5b50600481015415156116a3565b60405162461bcd60e51b815260206004820152601160248201527f4e6f742074696d6564206f7574207965740000000000000000000000000000006044820152606490fd5b826313ccbabd60e31b5f5260045260245ffd5b6001915014158461165d565b506311d4fefd60e01b5f5260045260245ffd5b346111055760203660031901126111055760206117e56004356119f5565b604051908152f35b600435906001600160a01b038216820361110557565b90600182811c92168015611831575b602083101461181d57565b634e487b7160e01b5f52602260045260245ffd5b91607f1691611812565b60e0810190811067ffffffffffffffff82111761115657604052565b90601f8019910116810190811067ffffffffffffffff82111761115657604052565b9060405191825f82549261188c84611803565b80845293600181169081156118f757506001146118b3575b506118b192500383611857565b565b90505f9291925260205f20905f915b8183106118db5750509060206118b1928201015f6118a4565b60209193508060019154838589010152019101909184926118c2565b9050602092506118b194915060ff191682840152151560051b8201015f6118a4565b906003821015610dc55752565b906005821015610dc55752565b805180835260209291819084018484015e5f828201840152601f01601f1916010190565b9181601f840112156111055782359167ffffffffffffffff8311611105576020838186019501011161110557565b606060031982011261110557600435916024356001600160a01b038116810361110557916044359067ffffffffffffffff8211611105576119c891600401611957565b9091565b80548210156119e1575f5260205f2001905f90565b634e487b7160e01b5f52603260045260245ffd5b60206001600160a01b03600254169160246040518094819363c258159b60e01b835260048301525afa9081156110fa575f91611a65575b506101f48102908082046101f4149015171561122857612710900466038d7ea4c68000811115611a595790565b5066038d7ea4c6800090565b90506020813d602011611a8f575b81611a8060209383611857565b8101031261110557515f611a2c565b3d9150611a73565b906005811015610dc55761ff0082549160081b169061ff001916179055565b67ffffffffffffffff811161115657601f01601f191660200190565b3d15611afc573d90611ae382611ab6565b91611af16040519384611857565b82523d5f602084013e565b606090565b6003821015610dc55752565b60027f9b779b17422d0df92223018b32b4d1fa46e071723d6817e2486d003becc55f005414611b5c5760027f9b779b17422d0df92223018b32b4d1fa46e071723d6817e2486d003becc55f0055565b633ee5aeb560e01b5f5260045ffd5b6001600160a01b035f541633036113b45756fea2646970667358221220856695ba2e6cb733565532bf4cd5d10f95aef9ddd998964d16b7ffb335db29f064736f6c634300081b0033",
  "devdoc": {
    "errors": {
      "OwnableInvalidOwner(address)": [
        {
          "details": "The owner is not a valid owner account. (eg. `address(0)`)"
        }
      ],
      "OwnableUnauthorizedAccount(address)": [
        {
          "details": "The caller account is not authorized to perform an operation."
        }
      ],
      "ReentrancyGuardReentrantCall()": [
        {
          "details": "Unauthorized reentrant call."
        }
      ]
    },
    "kind": "dev",
    "methods": {
      "acceptOwnership()": {
        "details": "The new owner accepts the ownership transfer."
      },
      "owner()": {
        "details": "Returns the address of the current owner."
      },
      "pendingOwner()": {
        "details": "Returns the address of the pending owner."
      },
      "renounceOwnership()": {
        "details": "Leaves the contract without owner. It will not be possible to call `onlyOwner` functions. Can only be called by the current owner. NOTE: Renouncing ownership will leave the contract without an owner, thereby disabling any functionality that is only available to the owner."
      },
      "transferOwnership(address)": {
        "details": "Starts the ownership transfer of the contract to a new account. Replaces the pending transfer if there is one. Can only be called by the current owner. Setting `newOwner` to the zero address is allowed; this can be used to cancel an initiated ownership transfer."
      }
    },
    "title": "DisputeManager",
    "version": 1
  },
  "userdoc": {
    "kind": "user",
    "methods": {
      "CITIZEN_STAKE()": {
        "notice": "Anti-spam stake for citizen complaints — refunded on legitimate         resolution, burned to municipality on dismissal."
      }
    },
    "notice": "Handles disputes between companies, citizens, and court orders.",
    "version": 1
  },
  "storageLayout": {
    "storage": [
      {
        "astId": 43858,
        "contract": "contracts/modules/DisputeManager.sol:DisputeManager",
        "label": "_owner",
        "offset": 0,
        "slot": "0",
        "type": "t_address"
      },
      {
        "astId": 44006,
        "contract": "contracts/modules/DisputeManager.sol:DisputeManager",
        "label": "_pendingOwner",
        "offset": 0,
        "slot": "1",
        "type": "t_address"
      },
      {
        "astId": 48823,
        "contract": "contracts/modules/DisputeManager.sol:DisputeManager",
        "label": "escrow",
        "offset": 0,
        "slot": "2",
        "type": "t_contract(BidEscrow)45815"
      },
      {
        "astId": 48825,
        "contract": "contracts/modules/DisputeManager.sol:DisputeManager",
        "label": "courtAuthority",
        "offset": 0,
        "slot": "3",
        "type": "t_address"
      },
      {
        "astId": 48827,
        "contract": "contracts/modules/DisputeManager.sol:DisputeManager",
        "label": "municipality",
        "offset": 0,
        "slot": "4",
        "type": "t_address"
      },
      {
        "astId": 48830,
        "contract": "contracts/modules/DisputeManager.sol:DisputeManager",
        "label": "registry",
        "offset": 0,
        "slot": "5",
        "type": "t_contract(BidderRegistry)48184"
      },
      {
        "astId": 48832,
        "contract": "contracts/modules/DisputeManager.sol:DisputeManager",
        "label": "disputeCount",
        "offset": 0,
        "slot": "6",
        "type": "t_uint256"
      },
      {
        "astId": 48850,
        "contract": "contracts/modules/DisputeManager.sol:DisputeManager",
        "label": "disputes",
        "offset": 0,
        "slot": "7",
        "type": "t_mapping(t_uint256,t_struct(Dispute)48350_storage)"
      },
      {
        "astId": 48855,
        "contract": "contracts/modules/DisputeManager.sol:DisputeManager",
        "label": "tenderDisputes",
        "offset": 0,
        "slot": "8",
        "type": "t_mapping(t_uint256,t_array(t_uint256)dyn_storage)"
      },
      {
        "astId": 48859,
        "contract": "contracts/modules/DisputeManager.sol:DisputeManager",
        "label": "disputeCreatedAt",
        "offset": 0,
        "slot": "9",
        "type": "t_mapping(t_uint256,t_uint256)"
      }
    ],
    "types": {
      "t_address": {
        "encoding": "inplace",
        "label": "address",
        "numberOfBytes": "20"
      },
      "t_array(t_uint256)dyn_storage": {
        "base": "t_uint256",
        "encoding": "dynamic_array",
        "label": "uint256[]",
        "numberOfBytes": "32"
      },
      "t_contract(BidEscrow)45815": {
        "encoding": "inplace",
        "label": "contract BidEscrow",
        "numberOfBytes": "20"
      },
      "t_contract(BidderRegistry)48184": {
        "encoding": "inplace",
        "label": "contract BidderRegistry",
        "numberOfBytes": "20"
      },
      "t_enum(DisputeStatus)48286": {
        "encoding": "inplace",
        "label": "enum DisputeStatus",
        "numberOfBytes": "1"
      },
      "t_enum(DisputeType)48280": {
        "encoding": "inplace",
        "label": "enum DisputeType",
        "numberOfBytes": "1"
      },
      "t_mapping(t_uint256,t_array(t_uint256)dyn_storage)": {
        "encoding": "mapping",
        "key": "t_uint256",
        "label": "mapping(uint256 => uint256[])",
        "numberOfBytes": "32",
        "value": "t_array(t_uint256)dyn_storage"
      },
      "t_mapping(t_uint256,t_struct(Dispute)48350_storage)": {
        "encoding": "mapping",
        "key": "t_uint256",
        "label": "mapping(uint256 => struct Dispute)",
        "numberOfBytes": "32",
        "value": "t_struct(Dispute)48350_storage"
      },
      "t_mapping(t_uint256,t_uint256)": {
        "encoding": "mapping",
        "key": "t_uint256",
        "label": "mapping(uint256 => uint256)",
        "numberOfBytes": "32",
        "value": "t_uint256"
      },
      "t_string_storage": {
        "encoding": "bytes",
        "label": "string",
        "numberOfBytes": "32"
      },
      "t_struct(Dispute)48350_storage": {
        "encoding": "inplace",
        "label": "struct Dispute",
        "members": [
          {
            "astId": 48335,
            "contract": "contracts/modules/DisputeManager.sol:DisputeManager",
            "label": "complainant",
            "offset": 0,
            "slot": "0",
            "type": "t_address"
          },
          {
            "astId": 48337,
            "contract": "contracts/modules/DisputeManager.sol:DisputeManager",
            "label": "accused",
            "offset": 0,
            "slot": "1",
            "type": "t_address"
          },
          {
            "astId": 48339,
            "contract": "contracts/modules/DisputeManager.sol:DisputeManager",
            "label": "tenderId",
            "offset": 0,
            "slot": "2",
            "type": "t_uint256"
          },
          {
            "astId": 48342,
            "contract": "contracts/modules/DisputeManager.sol:DisputeManager",
            "label": "disputeType",
            "offset": 0,
            "slot": "3",
            "type": "t_enum(DisputeType)48280"
          },
          {
            "astId": 48345,
            "contract": "contracts/modules/DisputeManager.sol:DisputeManager",
            "label": "status",
            "offset": 1,
            "slot": "3",
            "type": "t_enum(DisputeStatus)48286"
          },
          {
            "astId": 48347,
            "contract": "contracts/modules/DisputeManager.sol:DisputeManager",
            "label": "stake",
            "offset": 0,
            "slot": "4",
            "type": "t_uint256"
          },
          {
            "astId": 48349,
            "contract": "contracts/modules/DisputeManager.sol:DisputeManager",
            "label": "reason",
            "offset": 0,
            "slot": "5",
            "type": "t_string_storage"
          }
        ],
        "numberOfBytes": "192"
      },
      "t_uint256": {
        "encoding": "inplace",
        "label": "uint256",
        "numberOfBytes": "32"
      }
    }
  }
}