{
  "address": "0xaf58c1a9A2e9d90F41d63A465262Fc5e8BDBd022",
  "abi": [
    {
      "inputs": [
        {
          "internalType": "address",
          "name": "_escrow",
          "type": "address"
        },
        {
          "internalType": "address",
          "name": "_municipality",
          "type": "address"
        },
        {
          "internalType": "address",
          "name": "_registry",
          "type": "address"
        }
      ],
      "stateMutability": "nonpayable",
      "type": "constructor"
    },
    {
      "inputs": [
        {
          "internalType": "uint256",
          "name": "disputeId",
          "type": "uint256"
        }
      ],
      "name": "DisputeAlreadyResolved",
      "type": "error"
    },
    {
      "inputs": [
        {
          "internalType": "uint256",
          "name": "required",
          "type": "uint256"
        },
        {
          "internalType": "uint256",
          "name": "provided",
          "type": "uint256"
        }
      ],
      "name": "InsufficientStake",
      "type": "error"
    },
    {
      "inputs": [
        {
          "internalType": "uint256",
          "name": "disputeId",
          "type": "uint256"
        }
      ],
      "name": "InvalidDisputeId",
      "type": "error"
    },
    {
      "inputs": [],
      "name": "NotCourtAuthority",
      "type": "error"
    },
    {
      "inputs": [
        {
          "internalType": "address",
          "name": "owner",
          "type": "address"
        }
      ],
      "name": "OwnableInvalidOwner",
      "type": "error"
    },
    {
      "inputs": [
        {
          "internalType": "address",
          "name": "account",
          "type": "address"
        }
      ],
      "name": "OwnableUnauthorizedAccount",
      "type": "error"
    },
    {
      "inputs": [],
      "name": "ReentrancyGuardReentrantCall",
      "type": "error"
    },
    {
      "inputs": [],
      "name": "StakeForfeited",
      "type": "error"
    },
    {
      "inputs": [],
      "name": "StakeReturnFailed",
      "type": "error"
    },
    {
      "inputs": [],
      "name": "ZeroAddress",
      "type": "error"
    },
    {
      "anonymous": false,
      "inputs": [
        {
          "indexed": true,
          "internalType": "uint256",
          "name": "disputeId",
          "type": "uint256"
        },
        {
          "indexed": true,
          "internalType": "uint256",
          "name": "tenderId",
          "type": "uint256"
        },
        {
          "indexed": false,
          "internalType": "address",
          "name": "complainant",
          "type": "address"
        },
        {
          "indexed": false,
          "internalType": "address",
          "name": "accused",
          "type": "address"
        }
      ],
      "name": "DisputeFiled",
      "type": "event"
    },
    {
      "anonymous": false,
      "inputs": [
        {
          "indexed": true,
          "internalType": "uint256",
          "name": "disputeId",
          "type": "uint256"
        },
        {
          "indexed": false,
          "internalType": "enum DisputeStatus",
          "name": "resolution",
          "type": "uint8"
        }
      ],
      "name": "DisputeResolved",
      "type": "event"
    },
    {
      "anonymous": false,
      "inputs": [
        {
          "indexed": true,
          "internalType": "address",
          "name": "previousOwner",
          "type": "address"
        },
        {
          "indexed": true,
          "internalType": "address",
          "name": "newOwner",
          "type": "address"
        }
      ],
      "name": "OwnershipTransferStarted",
      "type": "event"
    },
    {
      "anonymous": false,
      "inputs": [
        {
          "indexed": true,
          "internalType": "address",
          "name": "previousOwner",
          "type": "address"
        },
        {
          "indexed": true,
          "internalType": "address",
          "name": "newOwner",
          "type": "address"
        }
      ],
      "name": "OwnershipTransferred",
      "type": "event"
    },
    {
      "anonymous": false,
      "inputs": [
        {
          "indexed": true,
          "internalType": "uint256",
          "name": "disputeId",
          "type": "uint256"
        },
        {
          "indexed": false,
          "internalType": "address",
          "name": "complainant",
          "type": "address"
        },
        {
          "indexed": false,
          "internalType": "address",
          "name": "recipient",
          "type": "address"
        },
        {
          "indexed": false,
          "internalType": "uint256",
          "name": "amount",
          "type": "uint256"
        }
      ],
      "name": "StakeBurned",
      "type": "event"
    },
    {
      "inputs": [],
      "name": "BPS_BASE",
      "outputs": [
        {
          "internalType": "uint256",
          "name": "",
          "type": "uint256"
        }
      ],
      "stateMutability": "view",
      "type": "function"
    },
    {
      "inputs": [],
      "name": "COMPLAINT_STAKE_BPS",
      "outputs": [
        {
          "internalType": "uint256",
          "name": "",
          "type": "uint256"
        }
      ],
      "stateMutability": "view",
      "type": "function"
    },
    {
      "inputs": [],
      "name": "DISPUTE_TIMEOUT",
      "outputs": [
        {
          "internalType": "uint256",
          "name": "",
          "type": "uint256"
        }
      ],
      "stateMutability": "view",
      "type": "function"
    },
    {
      "inputs": [],
      "name": "acceptOwnership",
      "outputs": [],
      "stateMutability": "nonpayable",
      "type": "function"
    },
    {
      "inputs": [],
      "name": "courtAuthority",
      "outputs": [
        {
          "internalType": "address",
          "name": "",
          "type": "address"
        }
      ],
      "stateMutability": "view",
      "type": "function"
    },
    {
      "inputs": [],
      "name": "disputeCount",
      "outputs": [
        {
          "internalType": "uint256",
          "name": "",
          "type": "uint256"
        }
      ],
      "stateMutability": "view",
      "type": "function"
    },
    {
      "inputs": [
        {
          "internalType": "uint256",
          "name": "",
          "type": "uint256"
        }
      ],
      "name": "disputeCreatedAt",
      "outputs": [
        {
          "internalType": "uint256",
          "name": "",
          "type": "uint256"
        }
      ],
      "stateMutability": "view",
      "type": "function"
    },
    {
      "inputs": [
        {
          "internalType": "uint256",
          "name": "",
          "type": "uint256"
        }
      ],
      "name": "disputes",
      "outputs": [
        {
          "internalType": "address",
          "name": "complainant",
          "type": "address"
        },
        {
          "internalType": "address",
          "name": "accused",
          "type": "address"
        },
        {
          "internalType": "uint256",
          "name": "tenderId",
          "type": "uint256"
        },
        {
          "internalType": "enum DisputeType",
          "name": "disputeType",
          "type": "uint8"
        },
        {
          "internalType": "enum DisputeStatus",
          "name": "status",
          "type": "uint8"
        },
        {
          "internalType": "uint256",
          "name": "stake",
          "type": "uint256"
        },
        {
          "internalType": "string",
          "name": "reason",
          "type": "string"
        }
      ],
      "stateMutability": "view",
      "type": "function"
    },
    {
      "inputs": [],
      "name": "escrow",
      "outputs": [
        {
          "internalType": "contract BidEscrow",
          "name": "",
          "type": "address"
        }
      ],
      "stateMutability": "view",
      "type": "function"
    },
    {
      "inputs": [
        {
          "internalType": "uint256",
          "name": "tenderId",
          "type": "uint256"
        },
        {
          "internalType": "address",
          "name": "accused",
          "type": "address"
        },
        {
          "internalType": "string",
          "name": "reason",
          "type": "string"
        },
        {
          "internalType": "bool",
          "name": "shouldFreeze",
          "type": "bool"
        }
      ],
      "name": "executeCourtOrder",
      "outputs": [
        {
          "internalType": "uint256",
          "name": "",
          "type": "uint256"
        }
      ],
      "stateMutability": "nonpayable",
      "type": "function"
    },
    {
      "inputs": [
        {
          "internalType": "uint256",
          "name": "tenderId",
          "type": "uint256"
        },
        {
          "internalType": "address",
          "name": "accused",
          "type": "address"
        },
        {
          "internalType": "string",
          "name": "reason",
          "type": "string"
        }
      ],
      "name": "fileCitizenComplaint",
      "outputs": [
        {
          "internalType": "uint256",
          "name": "",
          "type": "uint256"
        }
      ],
      "stateMutability": "nonpayable",
      "type": "function"
    },
    {
      "inputs": [
        {
          "internalType": "uint256",
          "name": "tenderId",
          "type": "uint256"
        },
        {
          "internalType": "address",
          "name": "accused",
          "type": "address"
        },
        {
          "internalType": "string",
          "name": "reason",
          "type": "string"
        }
      ],
      "name": "fileCompanyComplaint",
      "outputs": [
        {
          "internalType": "uint256",
          "name": "",
          "type": "uint256"
        }
      ],
      "stateMutability": "payable",
      "type": "function"
    },
    {
      "inputs": [
        {
          "internalType": "uint256",
          "name": "tenderId",
          "type": "uint256"
        }
      ],
      "name": "getComplaintStake",
      "outputs": [
        {
          "internalType": "uint256",
          "name": "",
          "type": "uint256"
        }
      ],
      "stateMutability": "view",
      "type": "function"
    },
    {
      "inputs": [
        {
          "internalType": "uint256",
          "name": "disputeId",
          "type": "uint256"
        }
      ],
      "name": "getDispute",
      "outputs": [
        {
          "components": [
            {
              "internalType": "address",
              "name": "complainant",
              "type": "address"
            },
            {
              "internalType": "address",
              "name": "accused",
              "type": "address"
            },
            {
              "internalType": "uint256",
              "name": "tenderId",
              "type": "uint256"
            },
            {
              "internalType": "enum DisputeType",
              "name": "disputeType",
              "type": "uint8"
            },
            {
              "internalType": "enum DisputeStatus",
              "name": "status",
              "type": "uint8"
            },
            {
              "internalType": "uint256",
              "name": "stake",
              "type": "uint256"
            },
            {
              "internalType": "string",
              "name": "reason",
              "type": "string"
            }
          ],
          "internalType": "struct Dispute",
          "name": "",
          "type": "tuple"
        }
      ],
      "stateMutability": "view",
      "type": "function"
    },
    {
      "inputs": [
        {
          "internalType": "uint256",
          "name": "tenderId",
          "type": "uint256"
        }
      ],
      "name": "getDisputesByTender",
      "outputs": [
        {
          "internalType": "uint256[]",
          "name": "",
          "type": "uint256[]"
        }
      ],
      "stateMutability": "view",
      "type": "function"
    },
    {
      "inputs": [],
      "name": "municipality",
      "outputs": [
        {
          "internalType": "address",
          "name": "",
          "type": "address"
        }
      ],
      "stateMutability": "view",
      "type": "function"
    },
    {
      "inputs": [],
      "name": "owner",
      "outputs": [
        {
          "internalType": "address",
          "name": "",
          "type": "address"
        }
      ],
      "stateMutability": "view",
      "type": "function"
    },
    {
      "inputs": [],
      "name": "pendingOwner",
      "outputs": [
        {
          "internalType": "address",
          "name": "",
          "type": "address"
        }
      ],
      "stateMutability": "view",
      "type": "function"
    },
    {
      "inputs": [],
      "name": "registry",
      "outputs": [
        {
          "internalType": "contract BidderRegistry",
          "name": "",
          "type": "address"
        }
      ],
      "stateMutability": "view",
      "type": "function"
    },
    {
      "inputs": [],
      "name": "renounceOwnership",
      "outputs": [],
      "stateMutability": "nonpayable",
      "type": "function"
    },
    {
      "inputs": [
        {
          "internalType": "uint256",
          "name": "disputeId",
          "type": "uint256"
        },
        {
          "internalType": "enum DisputeStatus",
          "name": "resolution",
          "type": "uint8"
        }
      ],
      "name": "resolveDispute",
      "outputs": [],
      "stateMutability": "nonpayable",
      "type": "function"
    },
    {
      "inputs": [
        {
          "internalType": "address",
          "name": "_courtAuthority",
          "type": "address"
        }
      ],
      "name": "setCourtAuthority",
      "outputs": [],
      "stateMutability": "nonpayable",
      "type": "function"
    },
    {
      "inputs": [
        {
          "internalType": "uint256",
          "name": "",
          "type": "uint256"
        },
        {
          "internalType": "uint256",
          "name": "",
          "type": "uint256"
        }
      ],
      "name": "tenderDisputes",
      "outputs": [
        {
          "internalType": "uint256",
          "name": "",
          "type": "uint256"
        }
      ],
      "stateMutability": "view",
      "type": "function"
    },
    {
      "inputs": [
        {
          "internalType": "uint256",
          "name": "disputeId",
          "type": "uint256"
        }
      ],
      "name": "timeoutDispute",
      "outputs": [],
      "stateMutability": "nonpayable",
      "type": "function"
    },
    {
      "inputs": [
        {
          "internalType": "address",
          "name": "newOwner",
          "type": "address"
        }
      ],
      "name": "transferOwnership",
      "outputs": [],
      "stateMutability": "nonpayable",
      "type": "function"
    }
  ],
  "transactionHash": "0x48eed2ebc4fd344ef91c0dabd9fc654ff555e5893d8b8cc04d290be7204e40c5",
  "args": [
    "0xC080244d26B0Ffd2CFBeB3e166ABe1186DDC5447",
    "0xF505e2E71df58D7244189072008f25f6b6aaE5ae",
    "0x32F74a5C2D10e2C24f0E1fDB4C458403678CCc7b"
  ],
  "numDeployments": 1,
  "solcInputHash": "9c116f36f5f5650a4311cceb8faa6dad",
  "bytecode": "0x60803461018757601f611d1538819003918201601f19168301916001600160401b0383118484101761018b57808492606094604052833981010312610187576100478161019f565b9061006060406100596020840161019f565b920161019f565b90331561017457600180546001600160a01b03199081169091555f805433928116831782556040519592916001600160a01b03909116907f8be0079c531659141344cd1fd0a4f28419497f9722a3daafe3b4186f6b6457e09080a360017f9b779b17422d0df92223018b32b4d1fa46e071723d6817e2486d003becc55f00556001600160a01b031680158015610163575b8015610152575b61014357600280546001600160a01b03199081169290921790556004805482166001600160a01b039384161790556005805490911692909116919091179055611b6190816101b48239f35b63d92e233d60e01b5f5260045ffd5b506001600160a01b038316156100f8565b506001600160a01b038216156100f1565b631e4fbdf760e01b5f525f60045260245ffd5b5f80fd5b634e487b7160e01b5f52604160045260245ffd5b51906001600160a01b03821682036101875756fe60806040526004361015610011575f80fd5b5f5f3560e01c80630f85d5f1146117745780631ac47ccd146115b25780633a6c44341461155e578063486265c61461154157806348dd0d4b14611525578063564a565d1461148157806368686a9f146113db578063715018a61461137457806379ba5097146112ed5780637b103999146112c757806389d6c5921461129d5780638da5cb5b146112785780639eaa1b091461125c578063a28889e11461123f578063a61e7e4c14611219578063a673b9b114610dc5578063ac530a7b14610b3d578063bc790efe146107e3578063bfcf96131461079a578063e2fdcc1714610773578063e30c39781461074c578063e3a96cbd146105d8578063e55e4211146101c5578063eaf4b6ef1461019e5763f2fde38b1461012d575f80fd5b3461019b57602036600319011261019b576001600160a01b0361014e61179a565b610156611b18565b16806001600160a01b031960015416176001556001600160a01b038254167f38d16b8cac22d99fc7c124b9cd0de2d3fa1faef420bfe791d8c362d765e227008380a380f35b80fd5b503461019b578060031936011261019b5760206001600160a01b0360035416604051908152f35b503461019b57604036600319011261019b57600435602435600581101561045f576101ee611b18565b6101f6611aba565b6006548210156105c4578183526007602052604083206003810160ff815460081c16600581101590816105b05780151591826105a2575b8261057c575b50506105685790610245838693611a44565b60028303610472576001600160a01b036002541660028201549060018301916001600160a01b038354166001600160a01b036004541692803b1561046e578692836064926040519687958694635f4caee160e11b86526004860152602485015260448401525af190811561046357849161044a575b50506001600160a01b0360055416906040516314dbffdb60e21b8152306004820152602081602481865afa90811561043f578591610400575b5061039a575b505060048101549081610364575b50505060207f2ffcfee146bc0d5ff304c6b65111a0d485af9456dc64eee7d66ebdcc90b223ea915b61033c60405180926118d3565ba260017f9b779b17422d0df92223018b32b4d1fa46e071723d6817e2486d003becc55f005580f35b8280926001600160a01b03829354165af161037d611a7f565b501561038b57825f80610307565b63ec0440fd60e01b8352600483fd5b546001600160a01b0316813b156103fc5783916024839260405194859384926314c2559360e21b845260048401525af19081156103f1578391156102f957816103e291611804565b6103ed57815f6102f9565b5080fd5b6040513d85823e3d90fd5b8380fd5b90506020813d602011610437575b8161041b60209383611804565b8101031261043357518015158103610433575f6102f3565b8480fd5b3d915061040e565b6040513d87823e3d90fd5b8161045491611804565b61045f57825f6102ba565b8280fd5b6040513d86823e3d90fd5b8680fd5b9050600482146104a7575b5060207f2ffcfee146bc0d5ff304c6b65111a0d485af9456dc64eee7d66ebdcc90b223ea9161032f565b6004810190848254806104bd575b50505061047d565b818080926001600160a01b03600454165af16104d7611a7f565b50156105595791837f9cdf8422db039eadeee907d7e087bb4650e80a05074ffbd054e63f9d053c32e060606020946001600160a01b037f2ffcfee146bc0d5ff304c6b65111a0d485af9456dc64eee7d66ebdcc90b223ea975416906001600160a01b0360045416905490604051928352878301526040820152a291845f6104b5565b630639bcdb60e21b8552600485fd5b6313ccbabd60e31b85526004849052602485fd5b90915061058e57600314155f80610233565b634e487b7160e01b86526021600452602486fd5b50600181141591508661022d565b634e487b7160e01b87526021600452602487fd5b6311d4fefd60e01b83526004829052602483fd5b503461019b57602036600319011261019b57600435606060c06040516105fd816117e8565b84815284602082015284604082015284838201528460808201528460a0820152015260065481101561073a57815260076020526040812060405190610641826117e8565b6001600160a01b0381541682526001600160a01b03600182015416926020830193845260028201546040840190815260038301549060ff606086019261068982821685611aae565b60081c16608086019360058210156107265750926106ff610722959361070a936001600160a01b0399968452896106ce600560048901549860a08d01998a5201611826565b9760c08b019889526040519b8c9b60208d52511660208c0152511660408a01525160608901525160808801906118c6565b5160a08601906118d3565b5160c08401525160e0808401526101008301906118e0565b0390f35b634e487b7160e01b81526021600452602490fd5b6311d4fefd60e01b8252600452602490fd5b503461019b578060031936011261019b5760206001600160a01b0360015416604051908152f35b503461019b578060031936011261019b5760206001600160a01b0360025416604051908152f35b503461019b57604036600319011261019b5760243590600435815260086020526040812090815483101561019b5760206107d48484611979565b90549060031b1c604051908152f35b506107ed36611932565b906107f98493946119a2565b803410610b275750600654935f198514610b13576001850160065560405190610821826117e8565b3382526001600160a01b03602083019116938482526040830190868252606084019161084d8a84611aae565b60808501918a835260a08601943486528b61086783611a63565b986108756040519a8b611804565b838a5236848201116103ed576040828e6001600160a01b0396946020868f8a9889988483013701015260c08c019c8d528152600760205220985116166001600160a01b031988541617875551166001600160a01b036001870191166001600160a01b03198254161790555160028501556003840191516003811015610aff5760ff8019845416911617825551906005821015610aeb57600593929161091991611a44565b51600482015501905180519067ffffffffffffffff8211610ad757819061094084546117b0565b601f8111610a87575b50602090601f8311600114610a25578892610a1a575b50508160011b915f199060031b1c19161790555b81845260086020526040842080549068010000000000000000821015610a065784926020966109e7856109cf8660409660017fc78d47f5c2ced9cd1d6513e2ec37f2c1454b35335b403e2ea299bde13a17533f99018155611979565b90919082549060031b91821b915f19901b1916179055565b84815260098852824291205581519033825287820152a3604051908152f35b634e487b7160e01b86526041600452602486fd5b015190505f8061095f565b8489528189209250601f198416895b818110610a6f5750908460019594939210610a57575b505050811b019055610973565b01515f1960f88460031b161c191690555f8080610a4a565b92936020600181928786015181550195019301610a34565b90915083885260208820601f840160051c81019160208510610acd575b90601f859493920160051c01905b818110610abf5750610949565b898155849350600101610ab2565b9091508190610aa4565b634e487b7160e01b87526041600452602487fd5b634e487b7160e01b89526021600452602489fd5b634e487b7160e01b8a52602160045260248afd5b634e487b7160e01b86526011600452602486fd5b6322df051360e11b865260045234602452604485fd5b503461019b57610b4c36611932565b60065493929091905f198514610b13576001850160065560405190610b70826117e8565b3382526001600160a01b03166020820181815260408301868152919490916060840191906001835260808501918a835260a08601948b86528b610bb283611a63565b98610bc06040519a8b611804565b838a5236848201116103ed576040828e6001600160a01b0396946020868f8a9889988483013701015260c08c019c8d528152600760205220985116166001600160a01b031988541617875551166001600160a01b036001870191166001600160a01b03198254161790555160028501556003840191516003811015610aff5760ff8019845416911617825551906005821015610aeb576005939291610c6491611a44565b51600482015501905180519067ffffffffffffffff8211610ad7578190610c8b84546117b0565b601f8111610d61575b50602090601f8311600114610d18578892610a1a5750508160011b915f199060031b1c191617905581845260086020526040842080549068010000000000000000821015610a065784926020966109e7856109cf8660409660017fc78d47f5c2ced9cd1d6513e2ec37f2c1454b35335b403e2ea299bde13a17533f99018155611979565b8489528189209250601f198416895b818110610d495750908460019594939210610a5757505050811b019055610973565b92936020600181928786015181550195019301610d27565b90915083885260208820601f840160051c81019160208510610da7575b90601f859493920160051c01905b818110610d995750610c94565b898155849350600101610d8c565b9091508190610d7e565b634e487b7160e01b5f52602160045260245ffd5b50346110d35760803660031901126110d357600435602435916001600160a01b0383168093036110d35760443567ffffffffffffffff81116110d357610e0f903690600401611904565b6064939193359081151582036110d3576001600160a01b0360035416330361120a57600654945f1986146111f65760018601600655604051610e50816117e8565b33815260208101888152604082018681526060830193906002855260808401915f835260a08501935f8552610e8488611a63565b97610e92604051998a611804565b80895236818401116110d3576020815f926001600160a01b0395838d01378a01015260c086019788528b5f526007602052818060405f20975116166001600160a01b031987541617865551166001600160a01b036001860191166001600160a01b03198254161790555160028401556003830193516003811015610db15760ff8019865416911617845551926005841015610db157600593610f3391611a44565b51600482015501905180519067ffffffffffffffff8211611124578190610f5a84546117b0565b601f81116111a6575b50602090601f8311600114611143575f92611138575b50508160011b915f199060031b1c19161790555b815f52600860205260405f20805468010000000000000000811015611124576109cf81610fc09360018994018155611979565b835f5260096020524260405f205581847fc78d47f5c2ced9cd1d6513e2ec37f2c1454b35335b403e2ea299bde13a17533f60408051338152896020820152a3156110d7576001600160a01b036002541693843b156110d35760445f92836040519788948593621b214f60e51b8552600485015260248401525af19081156110c85760209383926110b3575b508360ff6003604084867f2ffcfee146bc0d5ff304c6b65111a0d485af9456dc64eee7d66ebdcc90b223ea965260078552828282200161030061ff00198254161790555b8681526007855220015460081c166110aa60405180926118d3565ba2604051908152f35b6110c092505f9150611804565b805f8361104b565b6040513d5f823e3d90fd5b5f80fd5b50602092507f2ffcfee146bc0d5ff304c6b65111a0d485af9456dc64eee7d66ebdcc90b223ea8360ff600360408695865f526007855282825f200161040061ff001982541617905561108f565b634e487b7160e01b5f52604160045260245ffd5b015190505f80610f79565b5f8581528281209350601f198516905b81811061118e5750908460019594939210611176575b505050811b019055610f8d565b01515f1960f88460031b161c191690555f8080611169565b92936020600181928786015181550195019301611153565b909150835f5260205f20601f840160051c810191602085106111ec575b90601f859493920160051c01905b8181106111de5750610f63565b5f81558493506001016111d1565b90915081906111c3565b634e487b7160e01b5f52601160045260245ffd5b631fea887560e01b5f5260045ffd5b346110d3575f3660031901126110d35760206001600160a01b0360045416604051908152f35b346110d3575f3660031901126110d3576020600654604051908152f35b346110d3575f3660031901126110d35760206040516127108152f35b346110d3575f3660031901126110d35760206001600160a01b035f5416604051908152f35b346110d35760203660031901126110d3576004355f526009602052602060405f2054604051908152f35b346110d3575f3660031901126110d35760206001600160a01b0360055416604051908152f35b346110d3575f3660031901126110d357336001600160a01b036001541603611361576001600160a01b0319600154166001555f54336001600160a01b03198216175f556001600160a01b033391167f8be0079c531659141344cd1fd0a4f28419497f9722a3daafe3b4186f6b6457e05f80a3005b63118cdaa760e01b5f523360045260245ffd5b346110d3575f3660031901126110d35761138c611b18565b6001600160a01b0319600154166001555f6001600160a01b0381546001600160a01b031981168355167f8be0079c531659141344cd1fd0a4f28419497f9722a3daafe3b4186f6b6457e08280a3005b346110d35760203660031901126110d3576004355f52600860205260405f20604051806020835491828152019081935f5260205f20905f5b81811061146b5750505081611429910382611804565b604051918291602083019060208452518091526040830191905f5b818110611452575050500390f35b8251845285945060209384019390920191600101611444565b8254845260209093019260019283019201611413565b346110d35760203660031901126110d3576004355f52600760205260405f206001600160a01b038154166107226001600160a01b036001840154169260028101549061150f60038201546114dc600560048501549401611826565b936040519788978852602088015260408701526114ff6060870160ff83166118c6565b60ff608087019160081c166118d3565b60a084015260e060c084015260e08301906118e0565b346110d3575f3660031901126110d35760206040516101f48152f35b346110d3575f3660031901126110d357602060405162278d008152f35b346110d35760203660031901126110d3576001600160a01b0361157f61179a565b611587611b18565b1680156115a3576001600160a01b031960035416176003555f80f35b63d92e233d60e01b5f5260045ffd5b346110d35760203660031901126110d3576004356115ce611aba565b805f52600760205260405f206001600160a01b038154161561176157600381019060ff825460081c166005811015610db1578015159081611755575b5061174257825f52600960205260405f205462278d0081018091116111f65742106116fd57815461ff0019811661040017835560ff166003811015610db15715806116f0575b6116b5575b50602060ff7f2ffcfee146bc0d5ff304c6b65111a0d485af9456dc64eee7d66ebdcc90b223ea925460081c1661168e60405180926118d3565ba260017f9b779b17422d0df92223018b32b4d1fa46e071723d6817e2486d003becc55f0055005b5f80808360046001600160a01b0383965416910154905af16116d5611a7f565b50156116e15782611655565b63ec0440fd60e01b5f5260045ffd5b5060048101541515611650565b60405162461bcd60e51b815260206004820152601160248201527f4e6f742074696d6564206f7574207965740000000000000000000000000000006044820152606490fd5b826313ccbabd60e31b5f5260045260245ffd5b6001915014158461160a565b506311d4fefd60e01b5f5260045260245ffd5b346110d35760203660031901126110d35760206117926004356119a2565b604051908152f35b600435906001600160a01b03821682036110d357565b90600182811c921680156117de575b60208310146117ca57565b634e487b7160e01b5f52602260045260245ffd5b91607f16916117bf565b60e0810190811067ffffffffffffffff82111761112457604052565b90601f8019910116810190811067ffffffffffffffff82111761112457604052565b9060405191825f825492611839846117b0565b80845293600181169081156118a45750600114611860575b5061185e92500383611804565b565b90505f9291925260205f20905f915b81831061188857505090602061185e928201015f611851565b602091935080600191548385890101520191019091849261186f565b90506020925061185e94915060ff191682840152151560051b8201015f611851565b906003821015610db15752565b906005821015610db15752565b805180835260209291819084018484015e5f828201840152601f01601f1916010190565b9181601f840112156110d35782359167ffffffffffffffff83116110d357602083818601950101116110d357565b60606003198201126110d357600435916024356001600160a01b03811681036110d357916044359067ffffffffffffffff82116110d35761197591600401611904565b9091565b805482101561198e575f5260205f2001905f90565b634e487b7160e01b5f52603260045260245ffd5b60206001600160a01b03600254169160246040518094819363c258159b60e01b835260048301525afa9081156110c8575f91611a12575b506101f48102908082046101f414901517156111f657612710900466038d7ea4c68000811115611a065790565b5066038d7ea4c6800090565b90506020813d602011611a3c575b81611a2d60209383611804565b810103126110d357515f6119d9565b3d9150611a20565b906005811015610db15761ff0082549160081b169061ff001916179055565b67ffffffffffffffff811161112457601f01601f191660200190565b3d15611aa9573d90611a9082611a63565b91611a9e6040519384611804565b82523d5f602084013e565b606090565b6003821015610db15752565b60027f9b779b17422d0df92223018b32b4d1fa46e071723d6817e2486d003becc55f005414611b095760027f9b779b17422d0df92223018b32b4d1fa46e071723d6817e2486d003becc55f0055565b633ee5aeb560e01b5f5260045ffd5b6001600160a01b035f541633036113615756fea2646970667358221220d76cf4bdb21e1b377f9683443f572d7f9b2eaa124ff1a506a8448ed18bd6e4df64736f6c634300081b0033",
  "devdoc": {
    "errors": {
      "OwnableInvalidOwner(address)": [
        {
          "details": "The owner is not a valid owner account. (eg. `address(0)`)"
        }
      ],
      "OwnableUnauthorizedAccount(address)": [
        {
          "details": "The caller account is not authorized to perform an operation."
        }
      ],
      "ReentrancyGuardReentrantCall()": [
        {
          "details": "Unauthorized reentrant call."
        }
      ]
    },
    "kind": "dev",
    "methods": {
      "acceptOwnership()": {
        "details": "The new owner accepts the ownership transfer."
      },
      "owner()": {
        "details": "Returns the address of the current owner."
      },
      "pendingOwner()": {
        "details": "Returns the address of the pending owner."
      },
      "renounceOwnership()": {
        "details": "Leaves the contract without owner. It will not be possible to call `onlyOwner` functions. Can only be called by the current owner. NOTE: Renouncing ownership will leave the contract without an owner, thereby disabling any functionality that is only available to the owner."
      },
      "transferOwnership(address)": {
        "details": "Starts the ownership transfer of the contract to a new account. Replaces the pending transfer if there is one. Can only be called by the current owner. Setting `newOwner` to the zero address is allowed; this can be used to cancel an initiated ownership transfer."
      }
    },
    "title": "DisputeManager",
    "version": 1
  },
  "userdoc": {
    "kind": "user",
    "methods": {},
    "notice": "Handles disputes between companies, citizens, and court orders.",
    "version": 1
  },
  "storageLayout": {
    "storage": [
      {
        "astId": 42164,
        "contract": "contracts/modules/DisputeManager.sol:DisputeManager",
        "label": "_owner",
        "offset": 0,
        "slot": "0",
        "type": "t_address"
      },
      {
        "astId": 42312,
        "contract": "contracts/modules/DisputeManager.sol:DisputeManager",
        "label": "_pendingOwner",
        "offset": 0,
        "slot": "1",
        "type": "t_address"
      },
      {
        "astId": 45865,
        "contract": "contracts/modules/DisputeManager.sol:DisputeManager",
        "label": "escrow",
        "offset": 0,
        "slot": "2",
        "type": "t_contract(BidEscrow)43453"
      },
      {
        "astId": 45867,
        "contract": "contracts/modules/DisputeManager.sol:DisputeManager",
        "label": "courtAuthority",
        "offset": 0,
        "slot": "3",
        "type": "t_address"
      },
      {
        "astId": 45869,
        "contract": "contracts/modules/DisputeManager.sol:DisputeManager",
        "label": "municipality",
        "offset": 0,
        "slot": "4",
        "type": "t_address"
      },
      {
        "astId": 45872,
        "contract": "contracts/modules/DisputeManager.sol:DisputeManager",
        "label": "registry",
        "offset": 0,
        "slot": "5",
        "type": "t_contract(BidderRegistry)45581"
      },
      {
        "astId": 45874,
        "contract": "contracts/modules/DisputeManager.sol:DisputeManager",
        "label": "disputeCount",
        "offset": 0,
        "slot": "6",
        "type": "t_uint256"
      },
      {
        "astId": 45888,
        "contract": "contracts/modules/DisputeManager.sol:DisputeManager",
        "label": "disputes",
        "offset": 0,
        "slot": "7",
        "type": "t_mapping(t_uint256,t_struct(Dispute)45712_storage)"
      },
      {
        "astId": 45893,
        "contract": "contracts/modules/DisputeManager.sol:DisputeManager",
        "label": "tenderDisputes",
        "offset": 0,
        "slot": "8",
        "type": "t_mapping(t_uint256,t_array(t_uint256)dyn_storage)"
      },
      {
        "astId": 45897,
        "contract": "contracts/modules/DisputeManager.sol:DisputeManager",
        "label": "disputeCreatedAt",
        "offset": 0,
        "slot": "9",
        "type": "t_mapping(t_uint256,t_uint256)"
      }
    ],
    "types": {
      "t_address": {
        "encoding": "inplace",
        "label": "address",
        "numberOfBytes": "20"
      },
      "t_array(t_uint256)dyn_storage": {
        "base": "t_uint256",
        "encoding": "dynamic_array",
        "label": "uint256[]",
        "numberOfBytes": "32"
      },
      "t_contract(BidEscrow)43453": {
        "encoding": "inplace",
        "label": "contract BidEscrow",
        "numberOfBytes": "20"
      },
      "t_contract(BidderRegistry)45581": {
        "encoding": "inplace",
        "label": "contract BidderRegistry",
        "numberOfBytes": "20"
      },
      "t_enum(DisputeStatus)45648": {
        "encoding": "inplace",
        "label": "enum DisputeStatus",
        "numberOfBytes": "1"
      },
      "t_enum(DisputeType)45642": {
        "encoding": "inplace",
        "label": "enum DisputeType",
        "numberOfBytes": "1"
      },
      "t_mapping(t_uint256,t_array(t_uint256)dyn_storage)": {
        "encoding": "mapping",
        "key": "t_uint256",
        "label": "mapping(uint256 => uint256[])",
        "numberOfBytes": "32",
        "value": "t_array(t_uint256)dyn_storage"
      },
      "t_mapping(t_uint256,t_struct(Dispute)45712_storage)": {
        "encoding": "mapping",
        "key": "t_uint256",
        "label": "mapping(uint256 => struct Dispute)",
        "numberOfBytes": "32",
        "value": "t_struct(Dispute)45712_storage"
      },
      "t_mapping(t_uint256,t_uint256)": {
        "encoding": "mapping",
        "key": "t_uint256",
        "label": "mapping(uint256 => uint256)",
        "numberOfBytes": "32",
        "value": "t_uint256"
      },
      "t_string_storage": {
        "encoding": "bytes",
        "label": "string",
        "numberOfBytes": "32"
      },
      "t_struct(Dispute)45712_storage": {
        "encoding": "inplace",
        "label": "struct Dispute",
        "members": [
          {
            "astId": 45697,
            "contract": "contracts/modules/DisputeManager.sol:DisputeManager",
            "label": "complainant",
            "offset": 0,
            "slot": "0",
            "type": "t_address"
          },
          {
            "astId": 45699,
            "contract": "contracts/modules/DisputeManager.sol:DisputeManager",
            "label": "accused",
            "offset": 0,
            "slot": "1",
            "type": "t_address"
          },
          {
            "astId": 45701,
            "contract": "contracts/modules/DisputeManager.sol:DisputeManager",
            "label": "tenderId",
            "offset": 0,
            "slot": "2",
            "type": "t_uint256"
          },
          {
            "astId": 45704,
            "contract": "contracts/modules/DisputeManager.sol:DisputeManager",
            "label": "disputeType",
            "offset": 0,
            "slot": "3",
            "type": "t_enum(DisputeType)45642"
          },
          {
            "astId": 45707,
            "contract": "contracts/modules/DisputeManager.sol:DisputeManager",
            "label": "status",
            "offset": 1,
            "slot": "3",
            "type": "t_enum(DisputeStatus)45648"
          },
          {
            "astId": 45709,
            "contract": "contracts/modules/DisputeManager.sol:DisputeManager",
            "label": "stake",
            "offset": 0,
            "slot": "4",
            "type": "t_uint256"
          },
          {
            "astId": 45711,
            "contract": "contracts/modules/DisputeManager.sol:DisputeManager",
            "label": "reason",
            "offset": 0,
            "slot": "5",
            "type": "t_string_storage"
          }
        ],
        "numberOfBytes": "192"
      },
      "t_uint256": {
        "encoding": "inplace",
        "label": "uint256",
        "numberOfBytes": "32"
      }
    }
  }
}