{
  "address": "0xDE895b7d178d4869376DcF32B1db691A9C6425Bf",
  "abi": [
    {
      "inputs": [],
      "stateMutability": "nonpayable",
      "type": "constructor"
    },
    {
      "inputs": [],
      "name": "EscalationCapExceeded",
      "type": "error"
    },
    {
      "inputs": [
        {
          "internalType": "uint256",
          "name": "tenderId",
          "type": "uint256"
        },
        {
          "internalType": "uint256",
          "name": "required",
          "type": "uint256"
        },
        {
          "internalType": "uint256",
          "name": "available",
          "type": "uint256"
        }
      ],
      "name": "InsufficientEscalationBudget",
      "type": "error"
    },
    {
      "inputs": [],
      "name": "NoRuleSet",
      "type": "error"
    },
    {
      "inputs": [
        {
          "internalType": "uint256",
          "name": "tenderId",
          "type": "uint256"
        }
      ],
      "name": "NoWinnerSet",
      "type": "error"
    },
    {
      "inputs": [
        {
          "internalType": "address",
          "name": "owner",
          "type": "address"
        }
      ],
      "name": "OwnableInvalidOwner",
      "type": "error"
    },
    {
      "inputs": [
        {
          "internalType": "address",
          "name": "account",
          "type": "address"
        }
      ],
      "name": "OwnableUnauthorizedAccount",
      "type": "error"
    },
    {
      "inputs": [],
      "name": "PaymentFailed",
      "type": "error"
    },
    {
      "inputs": [],
      "name": "PeriodNotElapsed",
      "type": "error"
    },
    {
      "inputs": [],
      "name": "PriceChangeExceedsLimit",
      "type": "error"
    },
    {
      "inputs": [],
      "name": "PriceZero",
      "type": "error"
    },
    {
      "anonymous": false,
      "inputs": [
        {
          "indexed": true,
          "internalType": "uint256",
          "name": "tenderId",
          "type": "uint256"
        },
        {
          "indexed": false,
          "internalType": "uint256",
          "name": "amount",
          "type": "uint256"
        }
      ],
      "name": "EscalationBudgetDeposited",
      "type": "event"
    },
    {
      "anonymous": false,
      "inputs": [
        {
          "indexed": true,
          "internalType": "uint256",
          "name": "tenderId",
          "type": "uint256"
        },
        {
          "indexed": true,
          "internalType": "address",
          "name": "winner",
          "type": "address"
        },
        {
          "indexed": false,
          "internalType": "uint256",
          "name": "amount",
          "type": "uint256"
        }
      ],
      "name": "EscalationPayment",
      "type": "event"
    },
    {
      "anonymous": false,
      "inputs": [
        {
          "indexed": true,
          "internalType": "uint256",
          "name": "tenderId",
          "type": "uint256"
        },
        {
          "indexed": false,
          "internalType": "bytes32",
          "name": "materialId",
          "type": "bytes32"
        }
      ],
      "name": "EscalationRuleSet",
      "type": "event"
    },
    {
      "anonymous": false,
      "inputs": [
        {
          "indexed": true,
          "internalType": "uint256",
          "name": "tenderId",
          "type": "uint256"
        },
        {
          "indexed": false,
          "internalType": "bytes32",
          "name": "materialId",
          "type": "bytes32"
        },
        {
          "indexed": false,
          "internalType": "uint256",
          "name": "extraPayment",
          "type": "uint256"
        }
      ],
      "name": "EscalationTriggered",
      "type": "event"
    },
    {
      "anonymous": false,
      "inputs": [
        {
          "indexed": true,
          "internalType": "bytes32",
          "name": "materialId",
          "type": "bytes32"
        },
        {
          "indexed": false,
          "internalType": "uint256",
          "name": "newPrice",
          "type": "uint256"
        }
      ],
      "name": "OraclePriceUpdated",
      "type": "event"
    },
    {
      "anonymous": false,
      "inputs": [
        {
          "indexed": true,
          "internalType": "address",
          "name": "previousOwner",
          "type": "address"
        },
        {
          "indexed": true,
          "internalType": "address",
          "name": "newOwner",
          "type": "address"
        }
      ],
      "name": "OwnershipTransferStarted",
      "type": "event"
    },
    {
      "anonymous": false,
      "inputs": [
        {
          "indexed": true,
          "internalType": "address",
          "name": "previousOwner",
          "type": "address"
        },
        {
          "indexed": true,
          "internalType": "address",
          "name": "newOwner",
          "type": "address"
        }
      ],
      "name": "OwnershipTransferred",
      "type": "event"
    },
    {
      "anonymous": false,
      "inputs": [
        {
          "indexed": true,
          "internalType": "bytes32",
          "name": "materialId",
          "type": "bytes32"
        },
        {
          "indexed": false,
          "internalType": "address",
          "name": "feed",
          "type": "address"
        }
      ],
      "name": "PriceFeedSet",
      "type": "event"
    },
    {
      "anonymous": false,
      "inputs": [
        {
          "indexed": true,
          "internalType": "bytes32",
          "name": "materialId",
          "type": "bytes32"
        },
        {
          "indexed": false,
          "internalType": "bytes32",
          "name": "feedId",
          "type": "bytes32"
        }
      ],
      "name": "PythFeedSet",
      "type": "event"
    },
    {
      "anonymous": false,
      "inputs": [
        {
          "indexed": true,
          "internalType": "address",
          "name": "pyth",
          "type": "address"
        }
      ],
      "name": "PythSet",
      "type": "event"
    },
    {
      "inputs": [],
      "name": "BPS_DENOMINATOR",
      "outputs": [
        {
          "internalType": "uint256",
          "name": "",
          "type": "uint256"
        }
      ],
      "stateMutability": "view",
      "type": "function"
    },
    {
      "inputs": [],
      "name": "MAX_PRICE_CHANGE_BPS",
      "outputs": [
        {
          "internalType": "uint256",
          "name": "",
          "type": "uint256"
        }
      ],
      "stateMutability": "view",
      "type": "function"
    },
    {
      "inputs": [],
      "name": "PYTH_MAX_AGE",
      "outputs": [
        {
          "internalType": "uint256",
          "name": "",
          "type": "uint256"
        }
      ],
      "stateMutability": "view",
      "type": "function"
    },
    {
      "inputs": [],
      "name": "acceptOwnership",
      "outputs": [],
      "stateMutability": "nonpayable",
      "type": "function"
    },
    {
      "inputs": [
        {
          "internalType": "uint256",
          "name": "tenderId",
          "type": "uint256"
        }
      ],
      "name": "depositEscalationBudget",
      "outputs": [],
      "stateMutability": "payable",
      "type": "function"
    },
    {
      "inputs": [
        {
          "internalType": "uint256",
          "name": "",
          "type": "uint256"
        }
      ],
      "name": "escalationBudget",
      "outputs": [
        {
          "internalType": "uint256",
          "name": "",
          "type": "uint256"
        }
      ],
      "stateMutability": "view",
      "type": "function"
    },
    {
      "inputs": [
        {
          "internalType": "uint256",
          "name": "tenderId",
          "type": "uint256"
        },
        {
          "internalType": "bytes32",
          "name": "materialId",
          "type": "bytes32"
        }
      ],
      "name": "evaluateEscalation",
      "outputs": [
        {
          "internalType": "uint256",
          "name": "extraPayment",
          "type": "uint256"
        }
      ],
      "stateMutability": "nonpayable",
      "type": "function"
    },
    {
      "inputs": [
        {
          "internalType": "uint256",
          "name": "tenderId",
          "type": "uint256"
        },
        {
          "internalType": "bytes32",
          "name": "materialId",
          "type": "bytes32"
        }
      ],
      "name": "getBaselinePrice",
      "outputs": [
        {
          "internalType": "uint256",
          "name": "",
          "type": "uint256"
        }
      ],
      "stateMutability": "view",
      "type": "function"
    },
    {
      "inputs": [
        {
          "internalType": "bytes32",
          "name": "materialId",
          "type": "bytes32"
        }
      ],
      "name": "getLatestPrice",
      "outputs": [
        {
          "internalType": "uint256",
          "name": "",
          "type": "uint256"
        }
      ],
      "stateMutability": "view",
      "type": "function"
    },
    {
      "inputs": [
        {
          "internalType": "uint256",
          "name": "tenderId",
          "type": "uint256"
        }
      ],
      "name": "getTotalEscalation",
      "outputs": [
        {
          "internalType": "uint256",
          "name": "",
          "type": "uint256"
        }
      ],
      "stateMutability": "view",
      "type": "function"
    },
    {
      "inputs": [
        {
          "internalType": "bytes32",
          "name": "",
          "type": "bytes32"
        }
      ],
      "name": "latestPrices",
      "outputs": [
        {
          "internalType": "uint256",
          "name": "",
          "type": "uint256"
        }
      ],
      "stateMutability": "view",
      "type": "function"
    },
    {
      "inputs": [],
      "name": "owner",
      "outputs": [
        {
          "internalType": "address",
          "name": "",
          "type": "address"
        }
      ],
      "stateMutability": "view",
      "type": "function"
    },
    {
      "inputs": [],
      "name": "pendingOwner",
      "outputs": [
        {
          "internalType": "address",
          "name": "",
          "type": "address"
        }
      ],
      "stateMutability": "view",
      "type": "function"
    },
    {
      "inputs": [
        {
          "internalType": "bytes32",
          "name": "",
          "type": "bytes32"
        }
      ],
      "name": "priceFeeds",
      "outputs": [
        {
          "internalType": "address",
          "name": "",
          "type": "address"
        }
      ],
      "stateMutability": "view",
      "type": "function"
    },
    {
      "inputs": [],
      "name": "pyth",
      "outputs": [
        {
          "internalType": "contract IPyth",
          "name": "",
          "type": "address"
        }
      ],
      "stateMutability": "view",
      "type": "function"
    },
    {
      "inputs": [
        {
          "internalType": "bytes32",
          "name": "",
          "type": "bytes32"
        }
      ],
      "name": "pythFeedIds",
      "outputs": [
        {
          "internalType": "bytes32",
          "name": "",
          "type": "bytes32"
        }
      ],
      "stateMutability": "view",
      "type": "function"
    },
    {
      "inputs": [],
      "name": "renounceOwnership",
      "outputs": [],
      "stateMutability": "nonpayable",
      "type": "function"
    },
    {
      "inputs": [
        {
          "internalType": "uint256",
          "name": "",
          "type": "uint256"
        },
        {
          "internalType": "bytes32",
          "name": "",
          "type": "bytes32"
        }
      ],
      "name": "rules",
      "outputs": [
        {
          "internalType": "bytes32",
          "name": "materialId",
          "type": "bytes32"
        },
        {
          "internalType": "uint256",
          "name": "baselinePrice",
          "type": "uint256"
        },
        {
          "internalType": "uint256",
          "name": "thresholdPercent",
          "type": "uint256"
        },
        {
          "internalType": "uint256",
          "name": "capPercent",
          "type": "uint256"
        },
        {
          "internalType": "uint256",
          "name": "periodSeconds",
          "type": "uint256"
        },
        {
          "internalType": "uint256",
          "name": "lastEvaluated",
          "type": "uint256"
        }
      ],
      "stateMutability": "view",
      "type": "function"
    },
    {
      "inputs": [
        {
          "internalType": "uint256",
          "name": "tenderId",
          "type": "uint256"
        },
        {
          "internalType": "bytes32",
          "name": "materialId",
          "type": "bytes32"
        },
        {
          "internalType": "uint256",
          "name": "baselinePrice",
          "type": "uint256"
        },
        {
          "internalType": "uint256",
          "name": "thresholdPercent",
          "type": "uint256"
        },
        {
          "internalType": "uint256",
          "name": "capPercent",
          "type": "uint256"
        },
        {
          "internalType": "uint256",
          "name": "periodSeconds",
          "type": "uint256"
        }
      ],
      "name": "setEscalationRule",
      "outputs": [],
      "stateMutability": "nonpayable",
      "type": "function"
    },
    {
      "inputs": [
        {
          "internalType": "bytes32",
          "name": "materialId",
          "type": "bytes32"
        },
        {
          "internalType": "address",
          "name": "feed",
          "type": "address"
        }
      ],
      "name": "setPriceFeed",
      "outputs": [],
      "stateMutability": "nonpayable",
      "type": "function"
    },
    {
      "inputs": [
        {
          "internalType": "address",
          "name": "_pyth",
          "type": "address"
        }
      ],
      "name": "setPyth",
      "outputs": [],
      "stateMutability": "nonpayable",
      "type": "function"
    },
    {
      "inputs": [
        {
          "internalType": "bytes32",
          "name": "materialId",
          "type": "bytes32"
        },
        {
          "internalType": "bytes32",
          "name": "feedId",
          "type": "bytes32"
        }
      ],
      "name": "setPythFeed",
      "outputs": [],
      "stateMutability": "nonpayable",
      "type": "function"
    },
    {
      "inputs": [
        {
          "internalType": "uint256",
          "name": "tenderId",
          "type": "uint256"
        },
        {
          "internalType": "uint256",
          "name": "price",
          "type": "uint256"
        }
      ],
      "name": "setTenderPrice",
      "outputs": [],
      "stateMutability": "nonpayable",
      "type": "function"
    },
    {
      "inputs": [
        {
          "internalType": "uint256",
          "name": "tenderId",
          "type": "uint256"
        },
        {
          "internalType": "address",
          "name": "winner",
          "type": "address"
        }
      ],
      "name": "setTenderWinner",
      "outputs": [],
      "stateMutability": "nonpayable",
      "type": "function"
    },
    {
      "inputs": [
        {
          "internalType": "uint256",
          "name": "",
          "type": "uint256"
        }
      ],
      "name": "tenderPrice",
      "outputs": [
        {
          "internalType": "uint256",
          "name": "",
          "type": "uint256"
        }
      ],
      "stateMutability": "view",
      "type": "function"
    },
    {
      "inputs": [
        {
          "internalType": "uint256",
          "name": "",
          "type": "uint256"
        }
      ],
      "name": "tenderWinner",
      "outputs": [
        {
          "internalType": "address",
          "name": "",
          "type": "address"
        }
      ],
      "stateMutability": "view",
      "type": "function"
    },
    {
      "inputs": [
        {
          "internalType": "uint256",
          "name": "",
          "type": "uint256"
        }
      ],
      "name": "totalEscalationPaid",
      "outputs": [
        {
          "internalType": "uint256",
          "name": "",
          "type": "uint256"
        }
      ],
      "stateMutability": "view",
      "type": "function"
    },
    {
      "inputs": [
        {
          "internalType": "address",
          "name": "newOwner",
          "type": "address"
        }
      ],
      "name": "transferOwnership",
      "outputs": [],
      "stateMutability": "nonpayable",
      "type": "function"
    },
    {
      "inputs": [
        {
          "internalType": "bytes32",
          "name": "materialId",
          "type": "bytes32"
        },
        {
          "internalType": "uint256",
          "name": "newPrice",
          "type": "uint256"
        }
      ],
      "name": "updateOraclePrice",
      "outputs": [],
      "stateMutability": "nonpayable",
      "type": "function"
    }
  ],
  "transactionHash": "0x5534462b3a54841fa6f0f6b9525fe6f6263ec60221c065f20ed975e2fd17ef70",
  "args": [],
  "numDeployments": 1,
  "solcInputHash": "76839cca8d94bffb15bdefbdeaf9834e",
  "bytecode": "0x608080604052346079573315606657600180546001600160a01b03199081169091555f805433928116831782556001600160a01b0316907f8be0079c531659141344cd1fd0a4f28419497f9722a3daafe3b4186f6b6457e09080a3610f4e908161007e8239f35b631e4fbdf760e01b5f525f60045260245ffd5b5f80fdfe6080806040526004361015610012575f80fd5b5f3560e01c908163344439701461090b5750806358a2180a146108ef57806368601723146108c05780636d59ad8c1461089f578063715018a6146108385780637713c35e1461080e57806379ba5097146107875780638508a2961461073b5780638da5cb5b146107165780638fa18a231461063157806397ec66da14610541578063a10452f21461050f578063a263210e146104b7578063a6726c811461043a578063b2ee2f0114610414578063b65d1ea8146103f8578063c6c3f71e146103c5578063c89c484514610392578063db7c1ad114610368578063e1a452181461034c578063e30c397814610326578063e9052960146102fc578063edc54037146102d2578063ee22fd6f14610270578063f2fde38b14610203578063f3a6cedc146101af578063f8e271361461015b578063f98d06f0146101895763fc3477ba1461015b575f80fd5b34610185576020366003190112610185576004355f526003602052602060405f2054604051908152f35b5f80fd5b34610185575f3660031901126101855760206001600160a01b0360095416604051908152f35b602036600319011261018557600435805f52600760205260405f206101d53482546109af565b90557f099415ceaf8a87d76c0861ea18d673c43e125a13d245af53bb8dbaf2a1ea4b426020604051348152a2005b34610185576020366003190112610185576001600160a01b03610224610999565b61022c610f05565b16806001600160a01b031960015416176001556001600160a01b035f54167f38d16b8cac22d99fc7c124b9cd0de2d3fa1faef420bfe791d8c362d765e227005f80a3005b34610185576020366003190112610185576001600160a01b03610291610999565b610299610f05565b16806001600160a01b031960095416176009557f46b42f4e8500803ed21911081f9fad2d1b466f75d95552247151cc9fed56e68d5f80a2005b34610185576020366003190112610185576004355f526004602052602060405f2054604051908152f35b34610185576020366003190112610185576004355f52600a602052602060405f2054604051908152f35b34610185575f3660031901126101855760206001600160a01b0360015416604051908152f35b34610185575f3660031901126101855760206040516127108152f35b34610185576020366003190112610185576004355f526005602052602060405f2054604051908152f35b34610185576020366003190112610185576004355f52600860205260206001600160a01b0360405f205416604051908152f35b34610185576020366003190112610185576004355f52600660205260206001600160a01b0360405f205416604051908152f35b34610185575f3660031901126101855760206040516113888152f35b34610185576020366003190112610185576020610432600435610c40565b604051908152f35b34610185576040366003190112610185576004357fbe81b5b94e95b7814015efdcaf9f40fc0e580d1d5c1f6224266ace08a9814fac6020610479610983565b610481610f05565b835f526006825260405f206001600160a01b0382166001600160a01b03198254161790556001600160a01b0360405191168152a2005b34610185576040366003190112610185576004357f2d47874a909fa48fdef26ac0b05f0ed24b5b9322c1b978f5f3d947ea0e6f7c5360206024356104f9610f05565b835f52600a82528060405f2055604051908152a2005b346101855761051d3661096d565b905f52600260205260405f20905f526020526020600160405f200154604051908152f35b3461018557604036600319011261018557600435602435610560610f05565b801561062257815f52600560205260405f205480159081156105b8575b837f4dd85d0a77465208c2bf99cec69b96cf908508442d58870def0a59aab61b42cd602085835f52600582528060405f2055604051908152a2005b80831115610612576105ca81846109bc565b915b61138882029182046113881417156105fe576127109004106105ef57828061057d565b63b392b08560e01b5f5260045ffd5b634e487b7160e01b5f52601160045260245ffd5b61061c83826109bc565b916105cc565b637294708f60e11b5f5260045ffd5b346101855760c036600319011261018557600435602435610650610f05565b6040519060c082019082821067ffffffffffffffff831117610702577f96b7e74f3dcef5c3dc67385d543b00715fefd95f01476c96ddd248926022c52e9260209260405281815260058382016044358152604083016064358152606084016084358152608085019160a435835260a08601934285528a5f526002895260405f20885f52895260405f209651875551600187015551600286015551600385015551600484015551910155604051908152a2005b634e487b7160e01b5f52604160045260245ffd5b34610185575f3660031901126101855760206001600160a01b035f5416604051908152f35b3461018557604036600319011261018557610754610983565b61075c610f05565b6004355f5260086020526001600160a01b0360405f2091166001600160a01b03198254161790555f80f35b34610185575f36600319011261018557336001600160a01b0360015416036107fb576001600160a01b0319600154166001555f54336001600160a01b03198216175f556001600160a01b033391167f8be0079c531659141344cd1fd0a4f28419497f9722a3daafe3b4186f6b6457e05f80a3005b63118cdaa760e01b5f523360045260245ffd5b34610185576020366003190112610185576004355f526007602052602060405f2054604051908152f35b34610185575f36600319011261018557610850610f05565b6001600160a01b0319600154166001555f6001600160a01b0381546001600160a01b031981168355167f8be0079c531659141344cd1fd0a4f28419497f9722a3daafe3b4186f6b6457e08280a3005b346101855760206104326108b23661096d565b906108bb610f05565b6109eb565b34610185576040366003190112610185576108d9610f05565b6004355f52600460205260243560405f20555f80f35b34610185575f366003190112610185576020604051610e108152f35b346101855760c09061091c3661096d565b905f52600260205260405f20905f5260205260405f208054906001810154600282015460038301549160056004850154940154948652602086015260408501526060840152608083015260a0820152f35b6040906003190112610185576004359060243590565b602435906001600160a01b038216820361018557565b600435906001600160a01b038216820361018557565b919082018092116105fe57565b919082039182116105fe57565b90601f8019910116810190811067ffffffffffffffff82111761070257604052565b805f52600260205260405f20825f5260205260405f206001810154928315610c1a576005820193610a2285546004850154906109af565b4210610c0b57610a3182610c40565b81811115610c015781610a43916109bc565b61271081029080820461271014901517156105fe57049160028101548310610bf857600301548211610be957825f52600460205260405f20548281029281840414901517156105fe5760407fe3552d4aa4f20284237f9eee407eeb263608523599129f72ef6bdeb820c2dafc9161271085940495845f526003602052825f20610acd8882546109af565b90554290558151908152856020820152a2805f5260086020526001600160a01b0360405f2054169081151580610be0575b610b0757505090565b805f5260076020528260405f205410610bb957805f52600760205260405f20610b318482546109bc565b90555f80808086865af13d15610bb4573d67ffffffffffffffff81116107025760405190610b69601f8201601f1916602001836109c9565b81525f60203d92013e5b15610ba5577f6d2bee4dba13661ea9af437f129670baed69dd0be22b1e03ad3de13efebea45d6020604051858152a390565b6307a4ced160e51b5f5260045ffd5b610b73565b82815f52600760205260405f20549163be9fe40f60e01b5f5260045260245260445260645ffd5b50821515610afe565b636d7ae89d60e11b5f5260045ffd5b50505050505f90565b5050505050505f90565b63f0aaee6560e01b5f5260045ffd5b6396be282b60e01b5f5260045ffd5b519069ffffffffffffffffffff8216820361018557565b805f5260066020526001600160a01b0360405f20541680610ddd5750805f52600a60205260405f205480151580610dc9575b610c8657505f52600560205260405f205490565b905060806001600160a01b03600954169160446040518094819363052571af60e51b83526004830152610e1060248301525afa908115610dbe575f91610d27575b505f815160070b1315610ce2575167ffffffffffffffff1690565b60405162461bcd60e51b815260206004820152601260248201527f496e76616c6964205079746820707269636500000000000000000000000000006044820152606490fd5b90506080813d608011610db6575b81610d42608093836109c9565b8101031261018557604051906080820182811067ffffffffffffffff8211176107025760405280518060070b8103610185578252602081015167ffffffffffffffff811681036101855760208301526040810151908160030b8203610185576060916040840152015160608201525f610cc7565b3d9150610d35565b6040513d5f823e3d90fd5b506001600160a01b03600954161515610c72565b604051633fabe5a360e21b8152915060a090829060049082905afa8015610dbe575f915f91610eb1575b505f821315610e6c57610e1e6201518091426109bc565b1015610e275790565b60405162461bcd60e51b815260206004820152601460248201527f5374616c6520436861696e6c696e6b20646174610000000000000000000000006044820152606490fd5b60405162461bcd60e51b815260206004820152601760248201527f496e76616c696420436861696e6c696e6b2070726963650000000000000000006044820152606490fd5b91505060a0813d60a011610efd575b81610ecd60a093836109c9565b8101031261018557610ede81610c29565b506020810151610ef5608060608401519301610c29565b50905f610e07565b3d9150610ec0565b6001600160a01b035f541633036107fb5756fea26469706673582212207b74fc3b9271a4121767e8477b1cc271bc5e9a38a231aa4cd1c2f21cba0255d364736f6c634300081b0033",
  "devdoc": {
    "errors": {
      "OwnableInvalidOwner(address)": [
        {
          "details": "The owner is not a valid owner account. (eg. `address(0)`)"
        }
      ],
      "OwnableUnauthorizedAccount(address)": [
        {
          "details": "The caller account is not authorized to perform an operation."
        }
      ]
    },
    "kind": "dev",
    "methods": {
      "acceptOwnership()": {
        "details": "The new owner accepts the ownership transfer."
      },
      "getLatestPrice(bytes32)": {
        "details": "Priority order: Chainlink > Pyth > manual latestPrices."
      },
      "owner()": {
        "details": "Returns the address of the current owner."
      },
      "pendingOwner()": {
        "details": "Returns the address of the pending owner."
      },
      "renounceOwnership()": {
        "details": "Leaves the contract without owner. It will not be possible to call `onlyOwner` functions. Can only be called by the current owner. NOTE: Renouncing ownership will leave the contract without an owner, thereby disabling any functionality that is only available to the owner."
      },
      "transferOwnership(address)": {
        "details": "Starts the ownership transfer of the contract to a new account. Replaces the pending transfer if there is one. Can only be called by the current owner. Setting `newOwner` to the zero address is allowed; this can be used to cancel an initiated ownership transfer."
      }
    },
    "title": "PriceEscalation",
    "version": 1
  },
  "userdoc": {
    "kind": "user",
    "methods": {
      "getLatestPrice(bytes32)": {
        "notice": "Fetch price from Chainlink if feed exists, else Pyth if set, else manual fallback."
      },
      "updateOraclePrice(bytes32,uint256)": {
        "notice": "Manual oracle price update (fallback for materials without Chainlink feeds)."
      }
    },
    "notice": "Handles material price escalation with Chainlink oracle integration         and automatic payment to tender winners.",
    "version": 1
  },
  "storageLayout": {
    "storage": [
      {
        "astId": 8,
        "contract": "contracts/modules/PriceEscalation.sol:PriceEscalation",
        "label": "_owner",
        "offset": 0,
        "slot": "0",
        "type": "t_address"
      },
      {
        "astId": 156,
        "contract": "contracts/modules/PriceEscalation.sol:PriceEscalation",
        "label": "_pendingOwner",
        "offset": 0,
        "slot": "1",
        "type": "t_address"
      },
      {
        "astId": 586,
        "contract": "contracts/modules/PriceEscalation.sol:PriceEscalation",
        "label": "rules",
        "offset": 0,
        "slot": "2",
        "type": "t_mapping(t_uint256,t_mapping(t_bytes32,t_struct(EscalationRule)442_storage))"
      },
      {
        "astId": 590,
        "contract": "contracts/modules/PriceEscalation.sol:PriceEscalation",
        "label": "totalEscalationPaid",
        "offset": 0,
        "slot": "3",
        "type": "t_mapping(t_uint256,t_uint256)"
      },
      {
        "astId": 594,
        "contract": "contracts/modules/PriceEscalation.sol:PriceEscalation",
        "label": "tenderPrice",
        "offset": 0,
        "slot": "4",
        "type": "t_mapping(t_uint256,t_uint256)"
      },
      {
        "astId": 598,
        "contract": "contracts/modules/PriceEscalation.sol:PriceEscalation",
        "label": "latestPrices",
        "offset": 0,
        "slot": "5",
        "type": "t_mapping(t_bytes32,t_uint256)"
      },
      {
        "astId": 602,
        "contract": "contracts/modules/PriceEscalation.sol:PriceEscalation",
        "label": "priceFeeds",
        "offset": 0,
        "slot": "6",
        "type": "t_mapping(t_bytes32,t_address)"
      },
      {
        "astId": 606,
        "contract": "contracts/modules/PriceEscalation.sol:PriceEscalation",
        "label": "escalationBudget",
        "offset": 0,
        "slot": "7",
        "type": "t_mapping(t_uint256,t_uint256)"
      },
      {
        "astId": 610,
        "contract": "contracts/modules/PriceEscalation.sol:PriceEscalation",
        "label": "tenderWinner",
        "offset": 0,
        "slot": "8",
        "type": "t_mapping(t_uint256,t_address)"
      },
      {
        "astId": 613,
        "contract": "contracts/modules/PriceEscalation.sol:PriceEscalation",
        "label": "pyth",
        "offset": 0,
        "slot": "9",
        "type": "t_contract(IPyth)345"
      },
      {
        "astId": 617,
        "contract": "contracts/modules/PriceEscalation.sol:PriceEscalation",
        "label": "pythFeedIds",
        "offset": 0,
        "slot": "10",
        "type": "t_mapping(t_bytes32,t_bytes32)"
      }
    ],
    "types": {
      "t_address": {
        "encoding": "inplace",
        "label": "address",
        "numberOfBytes": "20"
      },
      "t_bytes32": {
        "encoding": "inplace",
        "label": "bytes32",
        "numberOfBytes": "32"
      },
      "t_contract(IPyth)345": {
        "encoding": "inplace",
        "label": "contract IPyth",
        "numberOfBytes": "20"
      },
      "t_mapping(t_bytes32,t_address)": {
        "encoding": "mapping",
        "key": "t_bytes32",
        "label": "mapping(bytes32 => address)",
        "numberOfBytes": "32",
        "value": "t_address"
      },
      "t_mapping(t_bytes32,t_bytes32)": {
        "encoding": "mapping",
        "key": "t_bytes32",
        "label": "mapping(bytes32 => bytes32)",
        "numberOfBytes": "32",
        "value": "t_bytes32"
      },
      "t_mapping(t_bytes32,t_struct(EscalationRule)442_storage)": {
        "encoding": "mapping",
        "key": "t_bytes32",
        "label": "mapping(bytes32 => struct EscalationRule)",
        "numberOfBytes": "32",
        "value": "t_struct(EscalationRule)442_storage"
      },
      "t_mapping(t_bytes32,t_uint256)": {
        "encoding": "mapping",
        "key": "t_bytes32",
        "label": "mapping(bytes32 => uint256)",
        "numberOfBytes": "32",
        "value": "t_uint256"
      },
      "t_mapping(t_uint256,t_address)": {
        "encoding": "mapping",
        "key": "t_uint256",
        "label": "mapping(uint256 => address)",
        "numberOfBytes": "32",
        "value": "t_address"
      },
      "t_mapping(t_uint256,t_mapping(t_bytes32,t_struct(EscalationRule)442_storage))": {
        "encoding": "mapping",
        "key": "t_uint256",
        "label": "mapping(uint256 => mapping(bytes32 => struct EscalationRule))",
        "numberOfBytes": "32",
        "value": "t_mapping(t_bytes32,t_struct(EscalationRule)442_storage)"
      },
      "t_mapping(t_uint256,t_uint256)": {
        "encoding": "mapping",
        "key": "t_uint256",
        "label": "mapping(uint256 => uint256)",
        "numberOfBytes": "32",
        "value": "t_uint256"
      },
      "t_struct(EscalationRule)442_storage": {
        "encoding": "inplace",
        "label": "struct EscalationRule",
        "members": [
          {
            "astId": 431,
            "contract": "contracts/modules/PriceEscalation.sol:PriceEscalation",
            "label": "materialId",
            "offset": 0,
            "slot": "0",
            "type": "t_bytes32"
          },
          {
            "astId": 433,
            "contract": "contracts/modules/PriceEscalation.sol:PriceEscalation",
            "label": "baselinePrice",
            "offset": 0,
            "slot": "1",
            "type": "t_uint256"
          },
          {
            "astId": 435,
            "contract": "contracts/modules/PriceEscalation.sol:PriceEscalation",
            "label": "thresholdPercent",
            "offset": 0,
            "slot": "2",
            "type": "t_uint256"
          },
          {
            "astId": 437,
            "contract": "contracts/modules/PriceEscalation.sol:PriceEscalation",
            "label": "capPercent",
            "offset": 0,
            "slot": "3",
            "type": "t_uint256"
          },
          {
            "astId": 439,
            "contract": "contracts/modules/PriceEscalation.sol:PriceEscalation",
            "label": "periodSeconds",
            "offset": 0,
            "slot": "4",
            "type": "t_uint256"
          },
          {
            "astId": 441,
            "contract": "contracts/modules/PriceEscalation.sol:PriceEscalation",
            "label": "lastEvaluated",
            "offset": 0,
            "slot": "5",
            "type": "t_uint256"
          }
        ],
        "numberOfBytes": "192"
      },
      "t_uint256": {
        "encoding": "inplace",
        "label": "uint256",
        "numberOfBytes": "32"
      }
    }
  }
}