{
  "address": "0x5e2A776D44D63200285fAc230922aFd45A2EEb5C",
  "abi": [
    {
      "inputs": [
        {
          "internalType": "address",
          "name": "_registry",
          "type": "address"
        },
        {
          "internalType": "address",
          "name": "_escrow",
          "type": "address"
        }
      ],
      "stateMutability": "nonpayable",
      "type": "constructor"
    },
    {
      "inputs": [
        {
          "internalType": "address",
          "name": "owner",
          "type": "address"
        }
      ],
      "name": "OwnableInvalidOwner",
      "type": "error"
    },
    {
      "inputs": [
        {
          "internalType": "address",
          "name": "account",
          "type": "address"
        }
      ],
      "name": "OwnableUnauthorizedAccount",
      "type": "error"
    },
    {
      "inputs": [],
      "name": "ZeroAddress",
      "type": "error"
    },
    {
      "anonymous": false,
      "inputs": [
        {
          "indexed": true,
          "internalType": "address",
          "name": "cd",
          "type": "address"
        }
      ],
      "name": "CollisionDetectorSet",
      "type": "event"
    },
    {
      "anonymous": false,
      "inputs": [
        {
          "indexed": true,
          "internalType": "address",
          "name": "dm",
          "type": "address"
        }
      ],
      "name": "DisputeManagerSet",
      "type": "event"
    },
    {
      "anonymous": false,
      "inputs": [
        {
          "indexed": true,
          "internalType": "address",
          "name": "esc",
          "type": "address"
        }
      ],
      "name": "EscalationSet",
      "type": "event"
    },
    {
      "anonymous": false,
      "inputs": [
        {
          "indexed": true,
          "internalType": "address",
          "name": "previousOwner",
          "type": "address"
        },
        {
          "indexed": true,
          "internalType": "address",
          "name": "newOwner",
          "type": "address"
        }
      ],
      "name": "OwnershipTransferStarted",
      "type": "event"
    },
    {
      "anonymous": false,
      "inputs": [
        {
          "indexed": true,
          "internalType": "address",
          "name": "previousOwner",
          "type": "address"
        },
        {
          "indexed": true,
          "internalType": "address",
          "name": "newOwner",
          "type": "address"
        }
      ],
      "name": "OwnershipTransferred",
      "type": "event"
    },
    {
      "anonymous": false,
      "inputs": [
        {
          "indexed": true,
          "internalType": "uint256",
          "name": "tenderId",
          "type": "uint256"
        },
        {
          "indexed": false,
          "internalType": "address",
          "name": "tenderContract",
          "type": "address"
        },
        {
          "indexed": false,
          "internalType": "string",
          "name": "description",
          "type": "string"
        }
      ],
      "name": "TenderCreated",
      "type": "event"
    },
    {
      "inputs": [],
      "name": "acceptOwnership",
      "outputs": [],
      "stateMutability": "nonpayable",
      "type": "function"
    },
    {
      "inputs": [],
      "name": "collisionDetector",
      "outputs": [
        {
          "internalType": "address",
          "name": "",
          "type": "address"
        }
      ],
      "stateMutability": "view",
      "type": "function"
    },
    {
      "inputs": [
        {
          "components": [
            {
              "internalType": "string",
              "name": "description",
              "type": "string"
            },
            {
              "internalType": "uint256",
              "name": "deadline",
              "type": "uint256"
            },
            {
              "internalType": "uint32",
              "name": "weightYears",
              "type": "uint32"
            },
            {
              "internalType": "uint32",
              "name": "weightProjects",
              "type": "uint32"
            },
            {
              "internalType": "uint32",
              "name": "weightBond",
              "type": "uint32"
            },
            {
              "internalType": "uint32",
              "name": "minYears",
              "type": "uint32"
            },
            {
              "internalType": "uint32",
              "name": "minProjects",
              "type": "uint32"
            },
            {
              "internalType": "uint64",
              "name": "minBond",
              "type": "uint64"
            },
            {
              "internalType": "uint256",
              "name": "escrowAmount",
              "type": "uint256"
            },
            {
              "internalType": "uint256",
              "name": "maxBidders",
              "type": "uint256"
            },
            {
              "internalType": "uint256",
              "name": "minReputation",
              "type": "uint256"
            }
          ],
          "internalType": "struct TenderConfig",
          "name": "_config",
          "type": "tuple"
        },
        {
          "components": [
            {
              "internalType": "string",
              "name": "category",
              "type": "string"
            },
            {
              "internalType": "uint256",
              "name": "totalAreaM2",
              "type": "uint256"
            },
            {
              "internalType": "uint256",
              "name": "estimatedValueMin",
              "type": "uint256"
            },
            {
              "internalType": "uint256",
              "name": "estimatedValueMax",
              "type": "uint256"
            },
            {
              "internalType": "string",
              "name": "boqReference",
              "type": "string"
            },
            {
              "internalType": "string",
              "name": "standardsReference",
              "type": "string"
            },
            {
              "internalType": "uint256",
              "name": "completionDays",
              "type": "uint256"
            },
            {
              "internalType": "uint256",
              "name": "liquidatedDamages",
              "type": "uint256"
            }
          ],
          "internalType": "struct TenderSpecification",
          "name": "_spec",
          "type": "tuple"
        }
      ],
      "name": "createTender",
      "outputs": [
        {
          "internalType": "uint256",
          "name": "tenderId",
          "type": "uint256"
        },
        {
          "internalType": "address",
          "name": "tenderAddress",
          "type": "address"
        }
      ],
      "stateMutability": "nonpayable",
      "type": "function"
    },
    {
      "inputs": [],
      "name": "disputeManager",
      "outputs": [
        {
          "internalType": "address",
          "name": "",
          "type": "address"
        }
      ],
      "stateMutability": "view",
      "type": "function"
    },
    {
      "inputs": [],
      "name": "escalation",
      "outputs": [
        {
          "internalType": "address",
          "name": "",
          "type": "address"
        }
      ],
      "stateMutability": "view",
      "type": "function"
    },
    {
      "inputs": [],
      "name": "escrow",
      "outputs": [
        {
          "internalType": "address",
          "name": "",
          "type": "address"
        }
      ],
      "stateMutability": "view",
      "type": "function"
    },
    {
      "inputs": [],
      "name": "getAllTenders",
      "outputs": [
        {
          "internalType": "address[]",
          "name": "",
          "type": "address[]"
        }
      ],
      "stateMutability": "view",
      "type": "function"
    },
    {
      "inputs": [
        {
          "internalType": "uint256",
          "name": "id",
          "type": "uint256"
        }
      ],
      "name": "getTender",
      "outputs": [
        {
          "internalType": "address",
          "name": "",
          "type": "address"
        }
      ],
      "stateMutability": "view",
      "type": "function"
    },
    {
      "inputs": [
        {
          "internalType": "uint256",
          "name": "id",
          "type": "uint256"
        }
      ],
      "name": "getTenderConfig",
      "outputs": [
        {
          "components": [
            {
              "internalType": "string",
              "name": "description",
              "type": "string"
            },
            {
              "internalType": "uint256",
              "name": "deadline",
              "type": "uint256"
            },
            {
              "internalType": "uint32",
              "name": "weightYears",
              "type": "uint32"
            },
            {
              "internalType": "uint32",
              "name": "weightProjects",
              "type": "uint32"
            },
            {
              "internalType": "uint32",
              "name": "weightBond",
              "type": "uint32"
            },
            {
              "internalType": "uint32",
              "name": "minYears",
              "type": "uint32"
            },
            {
              "internalType": "uint32",
              "name": "minProjects",
              "type": "uint32"
            },
            {
              "internalType": "uint64",
              "name": "minBond",
              "type": "uint64"
            },
            {
              "internalType": "uint256",
              "name": "escrowAmount",
              "type": "uint256"
            },
            {
              "internalType": "uint256",
              "name": "maxBidders",
              "type": "uint256"
            },
            {
              "internalType": "uint256",
              "name": "minReputation",
              "type": "uint256"
            }
          ],
          "internalType": "struct TenderConfig",
          "name": "",
          "type": "tuple"
        }
      ],
      "stateMutability": "view",
      "type": "function"
    },
    {
      "inputs": [
        {
          "internalType": "uint256",
          "name": "id",
          "type": "uint256"
        }
      ],
      "name": "getTenderSpec",
      "outputs": [
        {
          "components": [
            {
              "internalType": "string",
              "name": "category",
              "type": "string"
            },
            {
              "internalType": "uint256",
              "name": "totalAreaM2",
              "type": "uint256"
            },
            {
              "internalType": "uint256",
              "name": "estimatedValueMin",
              "type": "uint256"
            },
            {
              "internalType": "uint256",
              "name": "estimatedValueMax",
              "type": "uint256"
            },
            {
              "internalType": "string",
              "name": "boqReference",
              "type": "string"
            },
            {
              "internalType": "string",
              "name": "standardsReference",
              "type": "string"
            },
            {
              "internalType": "uint256",
              "name": "completionDays",
              "type": "uint256"
            },
            {
              "internalType": "uint256",
              "name": "liquidatedDamages",
              "type": "uint256"
            }
          ],
          "internalType": "struct TenderSpecification",
          "name": "",
          "type": "tuple"
        }
      ],
      "stateMutability": "view",
      "type": "function"
    },
    {
      "inputs": [
        {
          "internalType": "uint256",
          "name": "offset",
          "type": "uint256"
        },
        {
          "internalType": "uint256",
          "name": "limit",
          "type": "uint256"
        }
      ],
      "name": "getTenders",
      "outputs": [
        {
          "internalType": "address[]",
          "name": "",
          "type": "address[]"
        }
      ],
      "stateMutability": "view",
      "type": "function"
    },
    {
      "inputs": [],
      "name": "owner",
      "outputs": [
        {
          "internalType": "address",
          "name": "",
          "type": "address"
        }
      ],
      "stateMutability": "view",
      "type": "function"
    },
    {
      "inputs": [],
      "name": "pendingOwner",
      "outputs": [
        {
          "internalType": "address",
          "name": "",
          "type": "address"
        }
      ],
      "stateMutability": "view",
      "type": "function"
    },
    {
      "inputs": [],
      "name": "registry",
      "outputs": [
        {
          "internalType": "address",
          "name": "",
          "type": "address"
        }
      ],
      "stateMutability": "view",
      "type": "function"
    },
    {
      "inputs": [],
      "name": "renounceOwnership",
      "outputs": [],
      "stateMutability": "nonpayable",
      "type": "function"
    },
    {
      "inputs": [
        {
          "internalType": "address",
          "name": "_cd",
          "type": "address"
        }
      ],
      "name": "setCollisionDetector",
      "outputs": [],
      "stateMutability": "nonpayable",
      "type": "function"
    },
    {
      "inputs": [
        {
          "internalType": "address",
          "name": "_dm",
          "type": "address"
        }
      ],
      "name": "setDisputeManager",
      "outputs": [],
      "stateMutability": "nonpayable",
      "type": "function"
    },
    {
      "inputs": [
        {
          "internalType": "address",
          "name": "_esc",
          "type": "address"
        }
      ],
      "name": "setEscalation",
      "outputs": [],
      "stateMutability": "nonpayable",
      "type": "function"
    },
    {
      "inputs": [
        {
          "internalType": "uint256",
          "name": "",
          "type": "uint256"
        }
      ],
      "name": "tenderConfigs",
      "outputs": [
        {
          "internalType": "string",
          "name": "description",
          "type": "string"
        },
        {
          "internalType": "uint256",
          "name": "deadline",
          "type": "uint256"
        },
        {
          "internalType": "uint32",
          "name": "weightYears",
          "type": "uint32"
        },
        {
          "internalType": "uint32",
          "name": "weightProjects",
          "type": "uint32"
        },
        {
          "internalType": "uint32",
          "name": "weightBond",
          "type": "uint32"
        },
        {
          "internalType": "uint32",
          "name": "minYears",
          "type": "uint32"
        },
        {
          "internalType": "uint32",
          "name": "minProjects",
          "type": "uint32"
        },
        {
          "internalType": "uint64",
          "name": "minBond",
          "type": "uint64"
        },
        {
          "internalType": "uint256",
          "name": "escrowAmount",
          "type": "uint256"
        },
        {
          "internalType": "uint256",
          "name": "maxBidders",
          "type": "uint256"
        },
        {
          "internalType": "uint256",
          "name": "minReputation",
          "type": "uint256"
        }
      ],
      "stateMutability": "view",
      "type": "function"
    },
    {
      "inputs": [],
      "name": "tenderCount",
      "outputs": [
        {
          "internalType": "uint256",
          "name": "",
          "type": "uint256"
        }
      ],
      "stateMutability": "view",
      "type": "function"
    },
    {
      "inputs": [
        {
          "internalType": "uint256",
          "name": "",
          "type": "uint256"
        }
      ],
      "name": "tenderSpecs",
      "outputs": [
        {
          "internalType": "string",
          "name": "category",
          "type": "string"
        },
        {
          "internalType": "uint256",
          "name": "totalAreaM2",
          "type": "uint256"
        },
        {
          "internalType": "uint256",
          "name": "estimatedValueMin",
          "type": "uint256"
        },
        {
          "internalType": "uint256",
          "name": "estimatedValueMax",
          "type": "uint256"
        },
        {
          "internalType": "string",
          "name": "boqReference",
          "type": "string"
        },
        {
          "internalType": "string",
          "name": "standardsReference",
          "type": "string"
        },
        {
          "internalType": "uint256",
          "name": "completionDays",
          "type": "uint256"
        },
        {
          "internalType": "uint256",
          "name": "liquidatedDamages",
          "type": "uint256"
        }
      ],
      "stateMutability": "view",
      "type": "function"
    },
    {
      "inputs": [
        {
          "internalType": "uint256",
          "name": "",
          "type": "uint256"
        }
      ],
      "name": "tenders",
      "outputs": [
        {
          "internalType": "address",
          "name": "",
          "type": "address"
        }
      ],
      "stateMutability": "view",
      "type": "function"
    },
    {
      "inputs": [
        {
          "internalType": "address",
          "name": "newOwner",
          "type": "address"
        }
      ],
      "name": "transferOwnership",
      "outputs": [],
      "stateMutability": "nonpayable",
      "type": "function"
    }
  ],
  "transactionHash": "0x56839457f9285defca48a93a027214f0233fa8ec925d60895b3b68679734dd07",
  "args": [
    "0x2E8037626102ca3393ab9EfE7a3A254b30B236CA",
    "0x1635eb515c80eEf52CD88d34109C83D8b5321647"
  ],
  "numDeployments": 1,
  "solcInputHash": "21f684b13caae82d9e671a47579d9c3d",
  "bytecode": "0x60803461012957601f61569d38819003918201601f19168301916001600160401b0383118484101761012d57808492604094855283398101031261012957610052602061004b83610141565b9201610141565b331561011657600180546001600160a01b03199081169091555f805433928116831782556040519492916001600160a01b03909116907f8be0079c531659141344cd1fd0a4f28419497f9722a3daafe3b4186f6b6457e09080a36001600160a01b031680158015610105575b6100f65760018060a01b0319600254161760025560018060a01b031660018060a01b0319600354161760035561554790816101568239f35b63d92e233d60e01b5f5260045ffd5b506001600160a01b038216156100be565b631e4fbdf760e01b5f525f60045260245ffd5b5f80fd5b634e487b7160e01b5f52604160045260245ffd5b51906001600160a01b03821682036101295756fe6080806040526004361015610012575f80fd5b5f905f3560e01c9081630585c25e14611570575080631dfd9542146115425780631f058776146115255780632358c046146114c35780632958bacd146114495780633427bcee1461093957806339a8a5211461088157806339e3a1ac14610814578063465e1def146107e15780636786bdb814610699578063715018a61461063057806379ba5097146105a75780637b103999146105805780638da5cb5b1461055a578063aa9a8dd9146104de578063c46749ac14610409578063d15cba6c14610256578063d896863c1461022f578063e2fdcc1714610208578063e30c3978146101e1578063ecd375cf146101ba578063f2fde38b146101445763f544c3a61461011b575f80fd5b3461014157806003193601126101415760206001600160a01b0360045416604051908152f35b80fd5b5034610141576020366003190112610141576004356001600160a01b0381168091036101b6576101726118fc565b806001600160a01b031960015416176001556001600160a01b038254167f38d16b8cac22d99fc7c124b9cd0de2d3fa1faef420bfe791d8c362d765e227008380a380f35b5080fd5b503461014157806003193601126101415760206001600160a01b0360055416604051908152f35b503461014157806003193601126101415760206001600160a01b0360015416604051908152f35b503461014157806003193601126101415760206001600160a01b0360035416604051908152f35b503461014157806003193601126101415760206001600160a01b0360065416604051908152f35b5034610141576020366003190112610141578060405161027581611636565b606081528160208201528160408201528160608201528160808201528160a08201528160c08201528160e08201528161010082015281610120820152610140015260043581526009602052604090206040516102d081611636565b6102d982611675565b81526001820154602082019081526002830154604083019363ffffffff8216855260608401918060201c63ffffffff16835260808501908060401c63ffffffff16825260a086018160601c63ffffffff16815260c08701908260801c63ffffffff16825260e088019260a01c67ffffffffffffffff16835260038501549361010089019485526004860154956101208a0196875260050154966101408a019788526040519a8b9a60208c525160208c0161016090526101808c0161039c91611715565b995160408c01525163ffffffff1660608b01525163ffffffff1660808a01525163ffffffff1660a08901525163ffffffff1660c08801525163ffffffff1660e08701525167ffffffffffffffff166101008601525161012085015251610140840152516101608301520390f35b503461014157602036600319011261014157604061047191600435815260096020522061043581611675565b90600181015490600281015490600381015467ffffffffffffffff60056004840154930154936040519788976101608952610160890190611715565b95602088015263ffffffff8116604088015263ffffffff8160201c16606088015263ffffffff8160401c16608088015263ffffffff8160601c1660a088015263ffffffff8160801c1660c088015260a01c1660e08601526101008501526101208401526101408301520390f35b5034610141576020366003190112610141576004356001600160a01b0381168091036101b65761050c6118fc565b801561054b57806001600160a01b031960055416176005557f5b14da01b2a9c329650e71e3780f6c3c2e7c73d05449a244b815173c2031cd618280a280f35b63d92e233d60e01b8252600482fd5b50346101415780600319360112610141576001600160a01b036020915416604051908152f35b503461014157806003193601126101415760206001600160a01b0360025416604051908152f35b5034610141578060031936011261014157336001600160a01b03600154160361061d576001600160a01b0319600154166001558054336001600160a01b031982161782556001600160a01b033391167f8be0079c531659141344cd1fd0a4f28419497f9722a3daafe3b4186f6b6457e08380a380f35b63118cdaa760e01b815233600452602490fd5b50346101415780600319360112610141576106496118fc565b6001600160a01b031960015416600155806001600160a01b0381546001600160a01b031981168355167f8be0079c531659141344cd1fd0a4f28419497f9722a3daafe3b4186f6b6457e08280a380f35b5034610141576020366003190112610141576040816107979260e083516106bf81611619565b60608152826020820152828582015282606082015260606080820152606060a08201528260c082015201526004358152600a602052206040519061070282611619565b61070b81611675565b82526001810154602083019081526107cf600283015491604085019283526107bc6003850154916060870192835261074560048701611675565b6080880190815261075860058801611675565b9360a08901948552600760068901549860c08b01998a5201549660e08a019788526040519a8b9a60208c525161010060208d01526101208c0190611715565b935160408b01525160608a015251608089015251878203601f190160a0890152611715565b9051858203601f190160c0870152611715565b915160e0840152516101008301520390f35b5034610141576020366003190112610141576001600160a01b036040602092600435815260088452205416604051908152f35b5034610141576020366003190112610141576004356001600160a01b0381168091036101b6576108426118fc565b801561054b57806001600160a01b031960065416176006557f89c99e5b3f2af832fc4e00511a34bb74f6c142dbeb87076a3b282d399f0caceb8280a280f35b50346101415760203660031901126101415760406108ff916004358152600a602052206108ad81611675565b90600181015461092a60028301549161091c6003850154916108d160048701611675565b6108dd60058801611675565b9360076006890154980154966040519a8b9a6101008c526101008c0190611715565b9360208b015260408a015260608901528782036080890152611715565b9085820360a0870152611715565b9160c084015260e08301520390f35b503461108b57604036600319011261108b5760043567ffffffffffffffff811161108b57610160600319823603011261108b5767ffffffffffffffff6024351161108b576101006024353603600319011261108b576109966118fc565b426024820135111561140457610124810135156113bf57600754905f1982146113ab57600182016007556001600160a01b03600254166001600160a01b0360035416906001600160a01b03600554169160405192613bef90848281011067ffffffffffffffff83870111176111515781611923863984820187815260e0602090910152610a40610a296004880180611855565b61016060e0868a0101526102408589010191611887565b926024870135610100848801015263ffffffff610a5f604489016118a7565b16610120848801015263ffffffff610a79606489016118a7565b16610140848801015263ffffffff610a93608489016118a7565b16610160848801015263ffffffff610aad60a489016118a7565b16610180848801015263ffffffff610ac760c489016118a7565b168684016101a0015260e487013567ffffffffffffffff8116959086900361108b578387016101c08101969096526101048801356101e08701526101248801356102008701526101448801356102208701528585036040909601959095528594610bb1610b8f610b4f610b3f60046024350180611855565b6101008a526101008a0191611887565b602480359081013560208a0152604481013560408a0152606481013560608a0152610b81906084810190600401611855565b9089830360808b0152611887565b610ba360a460243501602435600401611855565b9088830360a08a0152611887565b9460c4602435013560c082015260e060e46024350135910152606084870101526080838601015260a0828501015260c033918401015203905ff0928315611080575f83815260086020908152604080832080546001600160a01b0319166001600160a01b03891617905560099091529020610c2f60048401806118b8565b9067ffffffffffffffff8211611151578190610c4b84546115e1565b601f811161135b575b505f90601f83116001146112f4575f926112e9575b50508160011b915f199060031b1c19161781555b602483013560018201556002810163ffffffff610c9c604486016118eb565b16815467ffffffff00000000610cb4606488016118eb565b60201b167fffffffff0000000000000000ffffffffffffffffffffffffffffffffffffffff6bffffffff0000000000000000610cf260848a016118eb565b60401b167fffffffffffffffffffffffff00000000ffffffffffffffffffffffffffffffff6fffffffff000000000000000000000000610d3460a48c016118eb565b60601b169373ffffffff00000000000000000000000000000000610d5a60c48d016118eb565b60801b16957bffffffffffffffff000000000000000000000000000000000000000060e48d013560a01b16976fffffffff00000000000000000000000019916bffffffffffffffffffffffff19161716171617161717179055610104830135600382015561012483013560048201556005610144840135910155825f52600a60205260405f20610df46024356004016024356004016118b8565b9067ffffffffffffffff8211611151578190610e1084546115e1565b601f8111611299575b505f90601f8311600114611232575f92611227575b50508160011b915f199060031b1c19161781555b602480350135600182015560446024350135600282015560646024350135600382015560048101610e7d6084602435016024356004016118b8565b9067ffffffffffffffff8211611151578190610e9984546115e1565b601f81116111d7575b505f90601f8311600114611170575f92611165575b50508160011b915f199060031b1c19161790555b60058101610ee360a4602435016024356004016118b8565b9067ffffffffffffffff8211611151578190610eff84546115e1565b601f8111611101575b505f90601f831160011461109a575f9261108f575b50508160011b915f199060031b1c19161790555b60c460243501356006820155600760e46024350135910155610104820135611020575b6001600160a01b0360025416803b156101b6578180916024604051809481936309d0aaf560e11b83526001600160a01b038b1660048401525af1801561101557611000575b6040846001600160a01b0387827f288fb350e32a29a301bcf9c6db5b3291bd98bb776a3471eaa26c72f03968f8c8610fd460048a01806118b8565b610ff0885192839288881684528a60208501528a840191611887565b0390a28351928352166020820152f35b61100b828092611653565b6101415780610f99565b6040513d84823e3d90fd5b6001600160a01b0360035416803b1561108b575f80916044604051809481936306902a7560e51b835289600484015261010489013560248401525af180156110805761106d575b50610f54565b61107991505f90611653565b5f5f611067565b6040513d5f823e3d90fd5b5f80fd5b013590505f80610f1d565b909150601f19831691845f5260205f20925f5b8181106110e957509084600195949392106110d0575b505050811b019055610f31565b01355f19600384901b60f8161c191690555f80806110c3565b919360206001819287870135815501950192016110ad565b909150835f5260205f20601f840160051c81019160208510611147575b90601f859493920160051c01905b8181106111395750610f08565b5f815584935060010161112c565b909150819061111e565b634e487b7160e01b5f52604160045260245ffd5b013590505f80610eb7565b909150601f19831691845f5260205f20925f5b8181106111bf57509084600195949392106111a6575b505050811b019055610ecb565b01355f19600384901b60f8161c191690555f8080611199565b91936020600181928787013581550195019201611183565b909150835f5260205f20601f840160051c8101916020851061121d575b90601f859493920160051c01905b81811061120f5750610ea2565b5f8155849350600101611202565b90915081906111f4565b013590505f80610e2e565b909150601f19831691845f5260205f20925f5b8181106112815750908460019594939210611268575b505050811b018155610e42565b01355f19600384901b60f8161c191690555f808061125b565b91936020600181928787013581550195019201611245565b909150835f5260205f20601f840160051c810191602085106112df575b90601f859493920160051c01905b8181106112d15750610e19565b5f81558493506001016112c4565b90915081906112b6565b013590505f80610c69565b909150601f19831691845f5260205f20925f5b818110611343575090846001959493921061132a575b505050811b018155610c7d565b01355f19600384901b60f8161c191690555f808061131d565b91936020600181928787013581550195019201611307565b909150835f5260205f20601f840160051c810191602085106113a1575b90601f859493920160051c01905b8181106113935750610c54565b5f8155849350600101611386565b9091508190611378565b634e487b7160e01b5f52601160045260245ffd5b60405162461bcd60e51b815260206004820152601c60248201527f4d75737420616c6c6f77206174206c65617374203120626964646572000000006044820152606490fd5b60405162461bcd60e51b815260206004820152601760248201527f446561646c696e65206d757374206265206675747572650000000000000000006044820152606490fd5b3461108b57602036600319011261108b576004356001600160a01b03811680910361108b576114766118fc565b80156114b457806001600160a01b031960045416176004557fdf8de300df2571e3e5b73ac7717085c16611dbf5d06d79338e14259dfa31eefc5f80a2005b63d92e233d60e01b5f5260045ffd5b3461108b575f36600319011261108b576007546114df81611751565b905f5b8181106114fb57604051806114f7858261159f565b0390f35b806001915f5260086020526001600160a01b0360405f20541661151e8286611790565b52016114e2565b3461108b575f36600319011261108b576020600754604051908152f35b3461108b57604036600319011261108b576114f76115646024356004356117b8565b6040519182918261159f565b3461108b57602036600319011261108b576020906004355f52600882526001600160a01b0360405f2054168152f35b60206040818301928281528451809452019201905f5b8181106115c25750505090565b82516001600160a01b03168452602093840193909201916001016115b5565b90600182811c9216801561160f575b60208310146115fb57565b634e487b7160e01b5f52602260045260245ffd5b91607f16916115f0565b610100810190811067ffffffffffffffff82111761115157604052565b610160810190811067ffffffffffffffff82111761115157604052565b90601f8019910116810190811067ffffffffffffffff82111761115157604052565b9060405191825f825492611688846115e1565b80845293600181169081156116f357506001146116af575b506116ad92500383611653565b565b90505f9291925260205f20905f915b8183106116d75750509060206116ad928201015f6116a0565b60209193508060019154838589010152019101909184926116be565b9050602092506116ad94915060ff191682840152151560051b8201015f6116a0565b805180835260209291819084018484015e5f828201840152601f01601f1916010190565b67ffffffffffffffff81116111515760051b60200190565b9061175b82611739565b6117686040519182611653565b8281528092611779601f1991611739565b0190602036910137565b919082018092116113ab57565b80518210156117a45760209160051b010190565b634e487b7160e01b5f52603260045260245ffd5b91906007549081841015611839576117d09084611783565b90808211611831575b508281039081116113ab576117ed81611751565b905f5b8181106117fe575090925050565b8061180b60019287611783565b5f5260086020526001600160a01b0360405f20541661182a8286611790565b52016117f0565b90505f6117d9565b5050905060405161184b602082611653565b5f81525f36813790565b9035601e198236030181121561108b57016020813591019167ffffffffffffffff821161108b57813603831361108b57565b908060209392818452848401375f828201840152601f01601f1916010190565b359063ffffffff8216820361108b57565b903590601e198136030182121561108b570180359067ffffffffffffffff821161108b5760200191813603831361108b57565b3563ffffffff8116810361108b5790565b6001600160a01b035f5416330361190f57565b63118cdaa760e01b5f523360045260245ffdfe608060405234610cfa57613bef803803908161001a81610d1d565b91823960e0818381010312610cfa57805160208201519091906001600160401b038111610cfa57810190610160828583010312610cfa576040519161016083016001600160401b038111848210176108085760405280516001600160401b038111610cfa5761008e90868401908301610d42565b8352602081015160208401526100a660408201610d93565b60408401526100b760608201610d93565b60608401526100c860808201610d93565b60808401526100d960a08201610d93565b60a08401526100ea60c08201610d93565b60c084015260e0810151906001600160401b0382168203610cfa576101409160e0850152610100810151610100850152610120810151610120850152015161014083015260408101519360018060401b038511610cfa576101008583018284010312610cfa57604051946001600160401b03610100870190811190871117610808576101008601604052828101516001600160401b038111610cfa57610197908385019083860101610d42565b8652828101602081810151908801526040808201519088015260608082015190880152608001516001600160401b038111610cfa576101dd908385019083860101610d42565b608087015282810160a00151916001600160401b038311610cfa5760e09261020b9185019083860101610d42565b60a0870152820160c08181015190870152015160e085015261022f60608201610da4565b9161023c60808301610da4565b9361025560c061024e60a08601610da4565b9401610da4565b61025d610db8565b5046600103610c165761026e610db8565b50610277610cfe565b73ca2e8f1f656cd25c01f05d0b243ab1ecd4a8ffb6815273d82385dada1ae3e969447f20a3164f6213100e7560208201527377627828a55156b04ac0dc0eb30467f1a552bb0360408201525b80517f9e7b61f58c47dc699ac88507c4f5bb9f121c03808c5676a8078fe583e464970080546001600160a01b03199081166001600160a01b039384161790915560208301517f9e7b61f58c47dc699ac88507c4f5bb9f121c03808c5676a8078fe583e4649701805483169184169190911790556040909201517f9e7b61f58c47dc699ac88507c4f5bb9f121c03808c5676a8078fe583e4649702805490931690821617909155168015610c0357600180546001600160a01b03199081169091555f80549182168317815560405192916001600160a01b0316907f8be0079c531659141344cd1fd0a4f28419497f9722a3daafe3b4186f6b6457e09080a360017f9b779b17422d0df92223018b32b4d1fa46e071723d6817e2486d003becc55f005562093a806015556020830151421015610bc1575061012082015115610b7c57603261012083015111610b37576001600160a01b03841615610b02576001600160a01b03851615610acf5760025580518051906001600160401b03821161080857600354600181811c91168015610ac5575b60208210146107ea57601f8111610a62575b50602090601f83116001146109f9576101409392915f91836109ee575b50508160011b915f199060031b1c1916176003555b6020818101516004556040808301516005805460608087015160808089015160a0808b015160c08c015160e08d01516001600160e01b031990981663ffffffff9a909a169990991794909a1b67ffffffff000000001693909317971b6bffffffff000000000000000016969096179690911b6fffffffff00000000000000000000000016959095179290931b63ffffffff60801b16919091179190921b600160a01b600160e01b0316179055610100810151600655610120810151600755015160085583518051906001600160401b0382116108085760095490600182811c921680156109e4575b60208310146107ea5781601f849311610976575b50602090601f8311600114610910575f92610905575b50508160011b915f199060031b1c1916176009555b6020840151600a556040840151600b556060840151600c5560808401518051906001600160401b03821161080857600d5490600182811c921680156108fb575b60208310146107ea5781601f84931161088d575b50602090601f8311600114610827575f9261081c575b50508160011b915f199060031b1c191617600d555b60a08401518051906001600160401b03821161080857600e54600181811c911680156107fe575b60208210146107ea57601f8111610787575b50602090601f831160011461071d5791806001979260e0945f92610712575b50505f19600383901b1c191690871b17600e555b60c0810151600f55015160105560115492848060a01b0316848060a01b03196012541617601255838060a01b0316838060a01b031960135416176013556101008360a81b039060081b1690828060a81b0319161717601155604051612e1c9081610dd38239f35b015190505f80610697565b90601f19831691600e5f52815f20925f5b81811061076f5750926001989392859260e0968b9510610757575b505050811b01600e556106ab565b01515f1960f88460031b161c191690555f8080610749565b9293602060018192878601518155019501930161072e565b600e5f527fbb7b4a454dc3493923482f07822329ed19e8244eff582cc204f8554c3620c3fd601f840160051c810191602085106107e0575b601f0160051c01905b8181106107d55750610678565b5f81556001016107c8565b90915081906107bf565b634e487b7160e01b5f52602260045260245ffd5b90607f1690610666565b634e487b7160e01b5f52604160045260245ffd5b015190505f8061062a565b600d5f9081528281209350601f198516905b818110610875575090846001959493921061085d575b505050811b01600d5561063f565b01515f1960f88460031b161c191690555f808061084f565b92936020600181928786015181550195019301610839565b600d5f529091507fd7b6990105719101dabeb77144f2a3385c8033acd3af97e9423a695e81ad1eb5601f840160051c810191602085106108f1575b90601f859493920160051c01905b8181106108e35750610614565b5f81558493506001016108d6565b90915081906108c8565b91607f1691610600565b015190505f806105ab565b60095f9081528281209350601f198516905b81811061095e5750908460019594939210610946575b505050811b016009556105c0565b01515f1960f88460031b161c191690555f8080610938565b92936020600181928786015181550195019301610922565b60095f529091507f6e1540171b6c0c960b71a7020d9f60077f6af931a8bbf590da0223dacf75c7af601f840160051c810191602085106109da575b90601f859493920160051c01905b8181106109cc5750610595565b5f81558493506001016109bf565b90915081906109b1565b91607f1691610581565b015190505f80610484565b90601f1983169160035f52815f20925f5b818110610a4a575091600193918561014097969410610a32575b505050811b01600355610499565b01515f1960f88460031b161c191690555f8080610a24565b92936020600181928786015181550195019301610a0a565b60035f527fc2575a0e9e593c00f959f8c92f12db2869c3395a3b0502d05e2516446f71f85b601f840160051c81019160208510610abb575b601f0160051c01905b818110610ab05750610467565b5f8155600101610aa3565b9091508190610a9a565b90607f1690610455565b60405162461bcd60e51b815260206004820152600b60248201526a657363726f77207a65726f60a81b6044820152606490fd5b60405162461bcd60e51b815260206004820152600d60248201526c7265676973747279207a65726f60981b6044820152606490fd5b60405162461bcd60e51b815260206004820152601360248201527f45786365656473206d61782062696464657273000000000000000000000000006044820152606490fd5b60405162461bcd60e51b815260206004820152601c60248201527f4d75737420616c6c6f77206174206c65617374203120626964646572000000006044820152606490fd5b62461bcd60e51b815260206004820152601760248201527f446561646c696e65206d757374206265206675747572650000000000000000006044820152606490fd5b631e4fbdf760e01b5f525f60045260245ffd5b4662aa36a703610c8157610c28610db8565b50610c31610cfe565b73f0ffdc93b7e186bc2f8cb3daa75d86d1930a433d81527392c920834ec8941d2c77d188936e1f7a6f49c127602082015273be0e383937d564d7ff0bc3b46c51f0bf8d5c311a60408201526102c3565b46617a6903610ceb57610c92610db8565b50610c9b610cfe565b7350157cffd6bbfa2dece204a89ec419c23ef5755d815273e3a9105a3a932253a70f126eb1e3b589c643dd24602082015273901f8942346f7ab3a01f6d7613119bca447bb03060408201526102c3565b6373cac13b60e01b5f5260045ffd5b5f80fd5b60405190606082016001600160401b0381118382101761080857604052565b6040519190601f01601f191682016001600160401b0381118382101761080857604052565b81601f82011215610cfa578051906001600160401b03821161080857610d71601f8301601f1916602001610d1d565b9282845260208383010111610cfa57815f9260208093018386015e8301015290565b519063ffffffff82168203610cfa57565b51906001600160a01b0382168203610cfa57565b610dc0610cfe565b905f82525f60208301525f604083015256fe6080806040526004361015610012575f80fd5b5f905f3560e01c9081630b06b2d414612058575080631d2164a114611f315780631e862f8a14611ecc5780632a1ea0d814611e8e57806335eafc9614611e6c57806336e1877814611e4f57806338b6408514611dd65780633f4ba83a14611d6a5780634376cb3414611d4d5780634cc4f50d14611d325780634f429f4414611d1557806351694bf714611cf35780635183022714611cd15780635c975abb14611cac5780636b65b32914611c86578063715018a614611c1f57806379502c5514611b6757806379ba509714611ae05780637b10399914611ab75780637d3a2bdf14611a9a5780638456cb5914611a2a57806384ddc67f146119cc5780638927b030146119aa578063892e3f65146118d25780638a828b081461186e5780638da5cb5b146118495780639670530814611353578063a69842a714611336578063b07870b514611242578063b366a473146111ea578063c19d93fb146111aa578063c3f909d41461100f578063c5aec3b414610ff1578063cfdbf25414610fd5578063cff29dfd14610f92578063d2639dbf14610f51578063d27e9fbf14610a3b578063e2fdcc1714610a14578063e30c3978146109ed578063ec49f59e1461032f578063ed7a4e0b14610305578063f2fde38b1461028f5763f448c9bc146101f7575f80fd5b3461028c578060031936011261028c57610252610212612106565b600a54600b5461027d600c549261026f61022a6121e8565b91610233612294565b92600f5496601054966040519a8b9a6101008c526101008c0190612072565b9360208b015260408a015260608901528782036080890152612072565b9085820360a0870152612072565b9160c084015260e08301520390f35b80fd5b503461028c57602036600319011261028c576004356001600160a01b038116809103610301576102bd6125ce565b806001600160a01b031960015416176001556001600160a01b038254167f38d16b8cac22d99fc7c124b9cd0de2d3fa1faef420bfe791d8c362d765e227008380a380f35b5080fd5b503461028c578060031936011261028c5760206001600160a01b03601c5460081c16604051908152f35b503461028c5761010036600319011261028c5760243567ffffffffffffffff811161030157610362903690600401612402565b9060643567ffffffffffffffff81116109e957610383903690600401612402565b9260a43567ffffffffffffffff81116109e5576103a4903690600401612402565b9260e43567ffffffffffffffff81116109e1576103c5903690600401612402565b9590936011546001600160a01b038160081c169060405163b9209e3360e01b8152336004820152602081602481865afa908115610958578c916109c2575b50156109b3576004544210156109a45760ff166006811015610990576001036109815761042e612643565b60027f9b779b17422d0df92223018b32b4d1fa46e071723d6817e2486d003becc55f0054146109725760027f9b779b17422d0df92223018b32b4d1fa46e071723d6817e2486d003becc55f0055601654600754111561096357600654806108c6575b50600854908161083d575b50506104f1936104d96104d16104f997956104c96104c16104e9976104e1973691612580565b6004356127c3565b9b3691612580565b604435612914565b963691612580565b608435612914565b943691612580565b60c4356127c3565b926105038161278b565b5061050d826127aa565b50610517836127aa565b506105218461278b565b5061052c33826129fc565b506105373383612a23565b506105423384612a23565b5061054d33856129fc565b503385526018602052604085205460ff1615610715573385526017602052604085205533845260176020526001604085200155338352601760205260026040842001553382526017602052600360408320015533815260176020526005604082200180545f1981146107015760010190553381526017602052426004604083200155338152601760205260056040822001546040519081527f38d8a2d6d9fc3793fc8a3d0bf385e1d5c8b3b01385286a0a351682ad5b05dafb60203392a25b806001600160a01b0360115460081c166040516314dbffdb60e21b8152306004820152602081602481855afa9081156106f65783916106c7575b50610674575b5060017f9b779b17422d0df92223018b32b4d1fa46e071723d6817e2486d003becc55f005580f35b803b156106c4578180916024604051809481936399562d5b60e01b83523360048401525af180156106b9571561064c57816106ae916120e4565b61028c57805f61064c565b6040513d84823e3d90fd5b50fd5b6106e9915060203d6020116106ef575b6106e181836120e4565b8101906125b6565b5f610646565b503d6106d7565b6040513d85823e3d90fd5b634e487b7160e01b83526011600452602483fd5b9392916040519260c084019584871067ffffffffffffffff8811176108295760059495966040528552602085019283526040850191825260608501908152608085019142835260a086019360018552338852601760205260408820965187555160018701555160028601555160038501555160048401555191015560165468010000000000000000811015610815578060016107b49201601655612430565b81549060031b906001600160a01b0333831b921b1916179055338152601860205260408120600160ff198254161790556040514281527f0862512267aa2317caa9475b7e771425e6b897509aade0be0d8fc6f5ce5fdd1860203392a261060c565b634e487b7160e01b82526041600452602482fd5b634e487b7160e01b86526041600452602486fd5b602060249160405192838092631d699f5760e21b82523360048301525afa9081156108bb578b91610885575b5010610876575f8061049b565b631899c49760e31b8952600489fd5b90506020813d6020116108b3575b816108a0602093836120e4565b810103126108af57515f610869565b5f80fd5b3d9150610893565b6040513d8d823e3d90fd5b6012546002546040516353a58de160e01b8152600481019190915233602482015290602090829060449082906001600160a01b03165afa908115610958578c91610926575b5010610917575f610490565b631e5b15d160e11b8a5260048afd5b90506020813d602011610950575b81610941602093836120e4565b810103126108af57515f61090b565b3d9150610934565b6040513d8e823e3d90fd5b6387ba755160e01b8a5260048afd5b633ee5aeb560e01b8a5260048afd5b63baf3f0f760e01b8a5260048afd5b634e487b7160e01b8b52602160045260248bfd5b63387b2e5560e11b8b5260048bfd5b637ba5ed8960e01b8b5260048bfd5b6109db915060203d6020116106ef576106e181836120e4565b5f610403565b8780fd5b8580fd5b8380fd5b503461028c578060031936011261028c5760206001600160a01b0360015416604051908152f35b503461028c578060031936011261028c5760206001600160a01b0360125416604051908152f35b503461028c57610a4a366123ec565b610a526125ce565b6004544210610f4257610a63612643565b60ff601154166006811015610f1c57600114610f30575b60ff601154166006811015610f1c57600203610f0d5780821015610efe576016548111610eef57601b548203610ee057600a610ab68383612469565b11610ebf5760055f835b838110610b6057857f26d02815ae6782248786426a457a21e03a0cb0593a89d556c045c8a524c1c8db6040878780601b55610afc60195461278b565b50610b08601a546127aa565b5082519182526020820152a1601b54601654809114610b25575080f35b60207f1374518f939fca0396dae3306eb638e45722cf777ba9f11e4007ddb121a7aadf91600160ff19601c541617601c55604051908152a180f35b6001600160a01b03610b7182612430565b90549060031b1c168652601760205260408620610ba56001820154610b9f63ffffffff875460601c16612b89565b90612661565b610bc06002830154610b9f63ffffffff885460801c16612b89565b9060038301549167ffffffffffffffff875460a01c16926001600160a01b035f516020612dc75f395f51905f5254168760405195639cd07acb60e01b87526004870152610e5457846044818e6020948d60248401525af19384156108bb578b94610e88575b5090610c4684610c4c93610c519650818115610e78575b15610e6857612c26565b92612693565b612693565b5f516020612dc75f395f51905f5254604051639cd07acb60e01b815267ffffffffffffffff60048201529291906001600160a01b031685610e5457836044818c6020948b60248401525af1918215610e49578992610e14575b610cb693505490612749565b9080610cd457600191601955610cca612aed565b601a555b01610ac0565b60195482908315610e04575b8015610df2575b60209060646001600160a01b035f516020612dc75f395f51905f525416938b6040519586948593637210768160e01b8552600485015260248401528160448401525af1908115610de7578891610db5575b50610d7c90610d4d6001946019549083612749565b601955610d5f63ffffffff8416612b89565b601a5491818115610da4575b15610d94575b8215610d8457612c82565b601a55610cce565b9150610d8e612aed565b91612c82565b9050610d9e612aed565b90610d71565b9050610daf8b612bd8565b90610d6b565b90506020813d8211610ddf575b81610dcf602093836120e4565b810103126108af57516001610d38565b3d9150610dc2565b6040513d8a823e3d90fd5b506020610dfd612b3b565b9050610ce7565b9050610e0e612b3b565b90610ce0565b91506020833d8211610e41575b81610e2e602093836120e4565b810103126108af57610cb6925191610caa565b3d9150610e21565b6040513d8b823e3d90fd5b634e487b7160e01b5f52602160045260245ffd5b9050610e72612b3b565b90612c26565b9050610e82612b3b565b90610c3c565b9350906020843d8211610eb7575b81610ea3602093836120e4565b810103126108af5792519290610c46610c25565b3d9150610e96565b60449291610ecc91612469565b63bb1cb70b60e01b8252600452600a602452fd5b6360bd363f60e01b8352600483fd5b63555dc6a760e01b8352600483fd5b63561ce9bb60e01b8352600483fd5b6338e9040160e21b8352600483fd5b634e487b7160e01b84526021600452602484fd5b600260ff196011541617601155610a7a565b6302eb354360e41b8352600483fd5b503461028c57602036600319011261028c576004356001600160a01b0381168091036103015760408260ff9260209452601884522054166040519015158152f35b503461028c57602036600319011261028c576004359060165482101561028c5760206001600160a01b03610fc584612430565b90549060031b1c16604051908152f35b503461028c578060031936011261028c576020604051600a8152f35b503461028c578060031936011261028c576020601b54604051908152f35b503461028c578060031936011261028c5760405161102c816120c7565b606081528160208201528160408201528160608201528160808201528160a08201528160c08201528160e082015281610100820152816101208201526101400152604051611079816120c7565b611081612340565b8152600454906020810191825260055491604082019263ffffffff8116845260608301908060201c63ffffffff16825260808401908060401c63ffffffff16825260a08501908060601c63ffffffff16825260c086018160801c63ffffffff16815260e087019160a01c67ffffffffffffffff168252600654926101008801938452600754946101208901958652600854966101408a019788526040519a8b9a60208c525160208c0161016090526101808c0161113d91612072565b995160408c01525163ffffffff1660608b01525163ffffffff1660808a01525163ffffffff1660a08901525163ffffffff1660c08801525163ffffffff1660e08701525167ffffffffffffffff166101008601525161012085015251610140840152516101608301520390f35b503461028c578060031936011261028c5760ff601154166040519060068110156111d657602092508152f35b634e487b7160e01b83526021600452602483fd5b503461028c578060031936011261028c576112036125ce565b611215600560ff196011541617601155565b7f6dab549d473bf407080b23736f49246721b08df4f82506cc8c42584fbc4ac15a6020604051428152a180f35b503461028c578060031936011261028c5761125b6125ce565b60ff601c54161561130e5760ff601e54166112ff57601a5480156112ec575b61128390612a41565b60195480156112d9575b61129690612a41565b7ff8eff52ca535ad18cf9c4db3fa2c74d55e7e001f607f00d83ccd567b3d39b29d6040601a5480601f55601954806020554260145582519182526020820152a180f35b506112966112e5612b3b565b905061128d565b506112836112f8612aed565b905061127a565b63a89ac15160e01b8152600490fd5b7fff75541e000000000000000000000000000000000000000000000000000000008152600490fd5b503461028c578060031936011261028c5760208054604051908152f35b50346108af5760603660031901126108af5760243560043560443567ffffffffffffffff81116108af5761138b903690600401612402565b90916113956125ce565b60ff601e5416611804576016548110156117bf576040516060936113b985836120e4565b60028252601f198501366020840137601f546113d48361248e565b526020548251600110156117ab5761148f6114165f9360209360408701526040519787858a01528a60408a01526040895261140f8a8a6120e4565b3691612580565b6001600160a01b037f9e7b61f58c47dc699ac88507c4f5bb9f121c03808c5676a8078fe583e46497025416906040519485809481936378542ead60e01b83528c600484015261147d61146b606485018c612610565b8481036003190160248601528d612072565b83810360031901604485015290612072565b03925af1908115611753575f9161178c575b501561177d576114e77fc6366bab028b8d033cb362cfd1f2f3457ef4e92fc738b6788b90d5a7846367a0916114f56114fd95604051938493604085526040850190612610565b908382036020850152612072565b0390a1612430565b90549060031b1c7fffffffffffffffffffffff0000000000000000000000000000000000000000ff74ffffffffffffffffffffffffffffffffffffffff00601c549260081b16911617601c5581601d55600160ff19601e541617601e55600360ff1960115416176011556001600160a01b0360115460081c166040516314dbffdb60e21b8152306004820152602081602481855afa908115611753575f9161175e575b506116d8575b507feb809d897967fa939dbc54d0504ed47e37b16857dcc7148cd28a526e68d711d891604091846001600160a01b036013541680611600575b5050506001600160a01b03601c5460081c169082519182526020820152a180f35b600254601c548651634284514b60e11b60208201908152602482019390935260089190911c6001600160a01b0316604480830191909152815283929190839061164a6064826120e4565b51925af1903d156116d257503d9061166182612564565b9161166e855193846120e4565b82523d86602084013e5b15611685575b84816115df565b7f63551d6a08d30f06f0d166b060cf752afbf97abff98142282322b1deb068eaf86116c96001600160a01b0360135416928551918291602083526020830190612072565b0390a25f61167e565b90611678565b6001600160a01b03601c5460081c16813b156108af575f916024839260405194859384926339cda3e560e11b845260048401525af1801561175357156115a6576040919350916117495f7feb809d897967fa939dbc54d0504ed47e37b16857dcc7148cd28a526e68d711d8946120e4565b5f939150916115a6565b6040513d5f823e3d90fd5b611777915060203d6020116106ef576106e181836120e4565b5f6115a0565b63cf6c44e960e01b5f5260045ffd5b6117a5915060203d6020116106ef576106e181836120e4565b5f6114a1565b634e487b7160e01b5f52603260045260245ffd5b60405162461bcd60e51b815260206004820152601a60248201527f57696e6e657220696e646578206f7574206f6620626f756e64730000000000006044820152606490fd5b60405162461bcd60e51b815260206004820152601060248201527f416c72656164792072657665616c6564000000000000000000000000000000006044820152606490fd5b346108af575f3660031901126108af5760206001600160a01b035f5416604051908152f35b346108af5761188561187f366123ec565b9061249b565b6040518091602082016020835281518091526020604084019201905f5b8181106118b0575050500390f35b82516001600160a01b03168452859450602093840193909201916001016118a2565b346108af575f3660031901126108af57601454801561199b5760ff601e541661198c5760155461190191612448565b421061197d57611919600560ff196011541617601155565b61192560145442612469565b6040519081527f25973e881b38e14c6d436cf104f86f595c98c6094dc6c77e04084a7f6c212d0060203392a27f6dab549d473bf407080b23736f49246721b08df4f82506cc8c42584fbc4ac15a6020604051428152a1005b63c294de9d60e01b5f5260045ffd5b63a89ac15160e01b5f5260045ffd5b63eff8908b60e01b5f5260045ffd5b346108af575f3660031901126108af5760206119c46125e1565b604051908152f35b346108af575f3660031901126108af57335f52601760205260c060405f2080549060018101549060028101546003820154906005600484015493015493604051958652602086015260408501526060840152608083015260a0820152f35b346108af575f3660031901126108af57611a426125ce565b611a4a612643565b7401000000000000000000000000000000000000000060ff60a01b1960015416176001557f62e78cea01bee320cd4e420270b5ea74000d11b0c9f74754ebdbfc544b05a2586020604051338152a1005b346108af575f3660031901126108af576020601f54604051908152f35b346108af575f3660031901126108af5760206001600160a01b0360115460081c16604051908152f35b346108af575f3660031901126108af57336001600160a01b036001541603611b54576001600160a01b0319600154166001555f54336001600160a01b03198216175f556001600160a01b033391167f8be0079c531659141344cd1fd0a4f28419497f9722a3daafe3b4186f6b6457e05f80a3005b63118cdaa760e01b5f523360045260245ffd5b346108af575f3660031901126108af57611bb2611b82612340565b6004546005546006546007549067ffffffffffffffff600854936040519788976101608952610160890190612072565b95602088015263ffffffff8116604088015263ffffffff8160201c16606088015263ffffffff8160401c16608088015263ffffffff8160601c1660a088015263ffffffff8160801c1660c088015260a01c1660e08601526101008501526101208401526101408301520390f35b346108af575f3660031901126108af57611c376125ce565b6001600160a01b0319600154166001555f6001600160a01b0381546001600160a01b031981168355167f8be0079c531659141344cd1fd0a4f28419497f9722a3daafe3b4186f6b6457e08280a3005b346108af575f3660031901126108af5760206001600160a01b0360135416604051908152f35b346108af575f3660031901126108af57602060ff60015460a01c166040519015158152f35b346108af575f3660031901126108af57602060ff601e54166040519015158152f35b346108af575f3660031901126108af57602060ff601c54166040519015158152f35b346108af575f3660031901126108af576020601d54604051908152f35b346108af575f3660031901126108af57602060405160328152f35b346108af575f3660031901126108af576020601554604051908152f35b346108af575f3660031901126108af57611d826125ce565b60015460ff8160a01c1615611dc75760ff60a01b19166001557f5db9ee0a495bf2e6ff9c91a7834c1ba4fdd244a5e8aa4e537bd38aeae4b073aa6020604051338152a1005b638dfc202b60e01b5f5260045ffd5b346108af5760203660031901126108af57600435611df26125ce565b6201518081108015611e43575b611e34576020817f4e4d6ba5e4733afaae175a7ddad98bd2d172b664dd43826660262df4836f4bde92601555604051908152a1005b631ffb86f160e21b5f5260045ffd5b5062278d008111611dff565b346108af575f3660031901126108af576020600254604051908152f35b346108af575f3660031901126108af57604051634284514b60e11b8152602090f35b346108af5760203660031901126108af576004356001600160a01b0381168091036108af575f5260176020526020600560405f200154604051908152f35b346108af5760203660031901126108af576004356001600160a01b0381168091036108af57611ef96125ce565b806001600160a01b031960135416176013557f7b320847a0d5e0f6bfe2043affb334ec342482dace5961b13bd55895c47bf88a5f80a2005b346108af575f3660031901126108af575f60e0604051611f5081612096565b6060815282602082015282604082015282606082015260606080820152606060a08201528260c0820152015261200e604051611f8b81612096565b611f93612106565b8152600a5460208201908152600b5460408301908152612046600c549260608501938452612033611fc26121e8565b9160808701928352611fd2612294565b9260a08801938452600f549660c089019788526010549660e08a019788526040519a8b9a60208c525161010060208d01526101208c0190612072565b935160408b01525160608a015251608089015251878203601f190160a0890152612072565b9051858203601f190160c0870152612072565b915160e0840152516101008301520390f35b346108af575f3660031901126108af576020906014548152f35b805180835260209291819084018484015e5f828201840152601f01601f1916010190565b610100810190811067ffffffffffffffff8211176120b357604052565b634e487b7160e01b5f52604160045260245ffd5b610160810190811067ffffffffffffffff8211176120b357604052565b90601f8019910116810190811067ffffffffffffffff8211176120b357604052565b604051905f6009548060011c91600182169182156121de575b6020841083146121ca5783865285929081156121ab575060011461214c575b61214a925003836120e4565b565b5060095f90815290917f6e1540171b6c0c960b71a7020d9f60077f6af931a8bbf590da0223dacf75c7af5b81831061218f57505090602061214a9282010161213e565b6020919350806001915483858901015201910190918492612177565b6020925061214a94915060ff191682840152151560051b82010161213e565b634e487b7160e01b5f52602260045260245ffd5b92607f169261211f565b604051905f600d548060011c916001821691821561228a575b6020841083146121ca5783865285929081156121ab575060011461222b5761214a925003836120e4565b50600d5f90815290917fd7b6990105719101dabeb77144f2a3385c8033acd3af97e9423a695e81ad1eb55b81831061226e57505090602061214a9282010161213e565b6020919350806001915483858901015201910190918492612256565b92607f1692612201565b604051905f600e548060011c9160018216918215612336575b6020841083146121ca5783865285929081156121ab57506001146122d75761214a925003836120e4565b50600e5f90815290917fbb7b4a454dc3493923482f07822329ed19e8244eff582cc204f8554c3620c3fd5b81831061231a57505090602061214a9282010161213e565b6020919350806001915483858901015201910190918492612302565b92607f16926122ad565b604051905f6003548060011c91600182169182156123e2575b6020841083146121ca5783865285929081156121ab57506001146123835761214a925003836120e4565b5060035f90815290917fc2575a0e9e593c00f959f8c92f12db2869c3395a3b0502d05e2516446f71f85b5b8183106123c657505090602061214a9282010161213e565b60209193508060019154838589010152019101909184926123ae565b92607f1692612359565b60409060031901126108af576004359060243590565b9181601f840112156108af5782359167ffffffffffffffff83116108af57602083818601950101116108af57565b6016548110156117ab5760165f5260205f2001905f90565b9190820180921161245557565b634e487b7160e01b5f52601160045260245ffd5b9190820391821161245557565b67ffffffffffffffff81116120b35760051b60200190565b8051156117ab5760200190565b906016549081831015612549576124c6916124b7849283612448565b90808211612541575b50612469565b6124cf81612476565b916124dd60405193846120e4565b818352601f196124ec83612476565b013660208501375f5b8281106125025750505090565b6001600160a01b0361251c6125178385612448565b612430565b90549060031b1c169084518110156117ab5760019160208260051b87010152016124f5565b90505f6124c0565b50505060405161255a6020826120e4565b5f81525f36813790565b67ffffffffffffffff81116120b357601f01601f191660200190565b92919261258c82612564565b9161259a60405193846120e4565b8294818452818301116108af578281602093845f960137010152565b908160209103126108af575180151581036108af5790565b6001600160a01b035f54163303611b5457565b466001036125ee57600190565b4662aa36a7036125fe5761271190565b617a69461461260b575f90565b5f1990565b90602080835192838152019201905f5b81811061262d5750505090565b8251845260209384019390920191600101612620565b60ff60015460a01c1661265257565b63d93c066560e01b5f5260045ffd5b90612678918015612685575b811561267b57612c26565b90565b9050610e72612aed565b5061268e612aed565b61266d565b908115612738575b8015612725575b60209060646001600160a01b035f516020612dc75f395f51905f525416935f604051958694859363d99882d560e01b8552600485015260248401528160448401525af1908115611753575f916126f6575090565b90506020813d60201161271d575b81612711602093836120e4565b810103126108af575190565b3d9150612704565b5060206127315f612bd8565b90506126a2565b90506127435f612bd8565b9061269b565b906126789291801561277c575b811561276c575b82612c82579150610d8e612b3b565b9050612776612b3b565b9061275d565b506127865f612bd8565b612756565b801561279c575b6126783082612cd5565b506127a5612b3b565b612792565b80156127ba576126783082612cd5565b506127a5612aed565b8151909190156128dc576128136001600160a01b035f516020612dc75f395f51905f525416916040519363045fc19560e11b85526004850152336024850152608060448501526084840190612072565b602091835f8180946005606483015203925af1908115611753575f916128aa575b506001600160a01b037f9e7b61f58c47dc699ac88507c4f5bb9f121c03808c5676a8078fe583e46497005416803b156108af57604051630f8e573b60e21b815260048101839052336024820152905f908290818381604481015b03925af18015611753576128a0575090565b5f612678916120e4565b90506020813d6020116128d4575b816128c5602093836120e4565b810103126108af57515f612834565b3d91506128b8565b50801561290b576128ed3382612d46565b156128f55790565b630276b5d960e01b5f526004523360245260445ffd5b50612678612b3b565b8151909190156129e2576129646001600160a01b035f516020612dc75f395f51905f525416916040519363045fc19560e11b85526004850152336024850152608060448501526084840190612072565b602091835f8180946004606483015203925af1908115611753575f916128aa57506001600160a01b037f9e7b61f58c47dc699ac88507c4f5bb9f121c03808c5676a8078fe583e46497005416803b156108af57604051630f8e573b60e21b815260048101839052336024820152905f9082908183816044810161288e565b5080156129f3576128ed3382612d46565b50612678612aed565b908115612a0e575b6126789082612cd5565b9050612678612a1b612b3b565b919050612a04565b908115612a34576126789082612cd5565b9050612678612a1b612aed565b6040805191612a5082846120e4565b60018352601f198201366020850137612a688361248e565b526001600160a01b037f9e7b61f58c47dc699ac88507c4f5bb9f121c03808c5676a8078fe583e46497005416803b156108af578151637d6e912360e11b815260206004820152925f918491829084908290612ac7906024830190612610565b03925af1908115612ae45750612ada5750565b5f61214a916120e4565b513d5f823e3d90fd5b5f516020612dc75f395f51905f5254604051639cd07acb60e01b81525f6004820152906001600160a01b0316816044815f602094600460248401525af1908115611753575f916126f6575090565b5f516020612dc75f395f51905f5254604051639cd07acb60e01b81525f6004820152906001600160a01b0316816044815f602094600560248401525af1908115611753575f916126f6575090565b5f516020612dc75f395f51905f5254604051639cd07acb60e01b815260048101929092526001600160a01b0316816044815f602094600460248401525af1908115611753575f916126f6575090565b5f516020612dc75f395f51905f5254604051639cd07acb60e01b815260048101929092526001600160a01b0316816044815f6020948160248401525af1908115611753575f916126f6575090565b5f516020612dc75f395f51905f5254604051631391547f60e01b8152600481019290925260248201929092525f604482018190529091602091839160649183916001600160a01b03165af1908115611753575f916126f6575090565b9060646020925f6001600160a01b035f516020612dc75f395f51905f5254166040519687958694637702dcff60e01b86526004860152602485015260448401525af1908115611753575f916126f6575090565b6001600160a01b037f9e7b61f58c47dc699ac88507c4f5bb9f121c03808c5676a8078fe583e4649700541691823b156108af57604051635ca4b5b160e11b815260048101929092526001600160a01b03166024820152905f908290604490829084905af1801561175357612ada5750565b7f9e7b61f58c47dc699ac88507c4f5bb9f121c03808c5676a8078fe583e4649700546040516382027b6d60e01b815260048101929092526001600160a01b039283166024830152909160209183916044918391165afa908115611753575f91612dad575090565b612678915060203d6020116106ef576106e181836120e456fe9e7b61f58c47dc699ac88507c4f5bb9f121c03808c5676a8078fe583e4649701a2646970667358221220cf0881f229ab5d9cedc46f03ffe1127d7859c4387bb8d9129e9cda96af082e6564736f6c634300081b0033a264697066735822122067612f8df945cba6d144fde43dc204715251997ec147c529e417e2bb15298fb664736f6c634300081b0033",
  "devdoc": {
    "errors": {
      "OwnableInvalidOwner(address)": [
        {
          "details": "The owner is not a valid owner account. (eg. `address(0)`)"
        }
      ],
      "OwnableUnauthorizedAccount(address)": [
        {
          "details": "The caller account is not authorized to perform an operation."
        }
      ]
    },
    "kind": "dev",
    "methods": {
      "acceptOwnership()": {
        "details": "The new owner accepts the ownership transfer."
      },
      "owner()": {
        "details": "Returns the address of the current owner."
      },
      "pendingOwner()": {
        "details": "Returns the address of the pending owner."
      },
      "renounceOwnership()": {
        "details": "Leaves the contract without owner. It will not be possible to call `onlyOwner` functions. Can only be called by the current owner. NOTE: Renouncing ownership will leave the contract without an owner, thereby disabling any functionality that is only available to the owner."
      },
      "transferOwnership(address)": {
        "details": "Starts the ownership transfer of the contract to a new account. Replaces the pending transfer if there is one. Can only be called by the current owner. Setting `newOwner` to the zero address is allowed; this can be used to cancel an initiated ownership transfer."
      }
    },
    "title": "TenderFactory",
    "version": 1
  },
  "userdoc": {
    "kind": "user",
    "methods": {},
    "notice": "Creates and tracks tender instances. Auto-authorizes tenders in registry and escrow.",
    "version": 1
  },
  "storageLayout": {
    "storage": [
      {
        "astId": 44680,
        "contract": "contracts/core/TenderFactory.sol:TenderFactory",
        "label": "_owner",
        "offset": 0,
        "slot": "0",
        "type": "t_address"
      },
      {
        "astId": 44828,
        "contract": "contracts/core/TenderFactory.sol:TenderFactory",
        "label": "_pendingOwner",
        "offset": 0,
        "slot": "1",
        "type": "t_address"
      },
      {
        "astId": 49873,
        "contract": "contracts/core/TenderFactory.sol:TenderFactory",
        "label": "registry",
        "offset": 0,
        "slot": "2",
        "type": "t_address"
      },
      {
        "astId": 49875,
        "contract": "contracts/core/TenderFactory.sol:TenderFactory",
        "label": "escrow",
        "offset": 0,
        "slot": "3",
        "type": "t_address"
      },
      {
        "astId": 49877,
        "contract": "contracts/core/TenderFactory.sol:TenderFactory",
        "label": "disputeManager",
        "offset": 0,
        "slot": "4",
        "type": "t_address"
      },
      {
        "astId": 49879,
        "contract": "contracts/core/TenderFactory.sol:TenderFactory",
        "label": "escalation",
        "offset": 0,
        "slot": "5",
        "type": "t_address"
      },
      {
        "astId": 49881,
        "contract": "contracts/core/TenderFactory.sol:TenderFactory",
        "label": "collisionDetector",
        "offset": 0,
        "slot": "6",
        "type": "t_address"
      },
      {
        "astId": 49883,
        "contract": "contracts/core/TenderFactory.sol:TenderFactory",
        "label": "tenderCount",
        "offset": 0,
        "slot": "7",
        "type": "t_uint256"
      },
      {
        "astId": 49887,
        "contract": "contracts/core/TenderFactory.sol:TenderFactory",
        "label": "tenders",
        "offset": 0,
        "slot": "8",
        "type": "t_mapping(t_uint256,t_address)"
      },
      {
        "astId": 49892,
        "contract": "contracts/core/TenderFactory.sol:TenderFactory",
        "label": "tenderConfigs",
        "offset": 0,
        "slot": "9",
        "type": "t_mapping(t_uint256,t_struct(TenderConfig)50875_storage)"
      },
      {
        "astId": 49897,
        "contract": "contracts/core/TenderFactory.sol:TenderFactory",
        "label": "tenderSpecs",
        "offset": 0,
        "slot": "10",
        "type": "t_mapping(t_uint256,t_struct(TenderSpecification)50892_storage)"
      }
    ],
    "types": {
      "t_address": {
        "encoding": "inplace",
        "label": "address",
        "numberOfBytes": "20"
      },
      "t_mapping(t_uint256,t_address)": {
        "encoding": "mapping",
        "key": "t_uint256",
        "label": "mapping(uint256 => address)",
        "numberOfBytes": "32",
        "value": "t_address"
      },
      "t_mapping(t_uint256,t_struct(TenderConfig)50875_storage)": {
        "encoding": "mapping",
        "key": "t_uint256",
        "label": "mapping(uint256 => struct TenderConfig)",
        "numberOfBytes": "32",
        "value": "t_struct(TenderConfig)50875_storage"
      },
      "t_mapping(t_uint256,t_struct(TenderSpecification)50892_storage)": {
        "encoding": "mapping",
        "key": "t_uint256",
        "label": "mapping(uint256 => struct TenderSpecification)",
        "numberOfBytes": "32",
        "value": "t_struct(TenderSpecification)50892_storage"
      },
      "t_string_storage": {
        "encoding": "bytes",
        "label": "string",
        "numberOfBytes": "32"
      },
      "t_struct(TenderConfig)50875_storage": {
        "encoding": "inplace",
        "label": "struct TenderConfig",
        "members": [
          {
            "astId": 50854,
            "contract": "contracts/core/TenderFactory.sol:TenderFactory",
            "label": "description",
            "offset": 0,
            "slot": "0",
            "type": "t_string_storage"
          },
          {
            "astId": 50856,
            "contract": "contracts/core/TenderFactory.sol:TenderFactory",
            "label": "deadline",
            "offset": 0,
            "slot": "1",
            "type": "t_uint256"
          },
          {
            "astId": 50858,
            "contract": "contracts/core/TenderFactory.sol:TenderFactory",
            "label": "weightYears",
            "offset": 0,
            "slot": "2",
            "type": "t_uint32"
          },
          {
            "astId": 50860,
            "contract": "contracts/core/TenderFactory.sol:TenderFactory",
            "label": "weightProjects",
            "offset": 4,
            "slot": "2",
            "type": "t_uint32"
          },
          {
            "astId": 50862,
            "contract": "contracts/core/TenderFactory.sol:TenderFactory",
            "label": "weightBond",
            "offset": 8,
            "slot": "2",
            "type": "t_uint32"
          },
          {
            "astId": 50864,
            "contract": "contracts/core/TenderFactory.sol:TenderFactory",
            "label": "minYears",
            "offset": 12,
            "slot": "2",
            "type": "t_uint32"
          },
          {
            "astId": 50866,
            "contract": "contracts/core/TenderFactory.sol:TenderFactory",
            "label": "minProjects",
            "offset": 16,
            "slot": "2",
            "type": "t_uint32"
          },
          {
            "astId": 50868,
            "contract": "contracts/core/TenderFactory.sol:TenderFactory",
            "label": "minBond",
            "offset": 20,
            "slot": "2",
            "type": "t_uint64"
          },
          {
            "astId": 50870,
            "contract": "contracts/core/TenderFactory.sol:TenderFactory",
            "label": "escrowAmount",
            "offset": 0,
            "slot": "3",
            "type": "t_uint256"
          },
          {
            "astId": 50872,
            "contract": "contracts/core/TenderFactory.sol:TenderFactory",
            "label": "maxBidders",
            "offset": 0,
            "slot": "4",
            "type": "t_uint256"
          },
          {
            "astId": 50874,
            "contract": "contracts/core/TenderFactory.sol:TenderFactory",
            "label": "minReputation",
            "offset": 0,
            "slot": "5",
            "type": "t_uint256"
          }
        ],
        "numberOfBytes": "192"
      },
      "t_struct(TenderSpecification)50892_storage": {
        "encoding": "inplace",
        "label": "struct TenderSpecification",
        "members": [
          {
            "astId": 50877,
            "contract": "contracts/core/TenderFactory.sol:TenderFactory",
            "label": "category",
            "offset": 0,
            "slot": "0",
            "type": "t_string_storage"
          },
          {
            "astId": 50879,
            "contract": "contracts/core/TenderFactory.sol:TenderFactory",
            "label": "totalAreaM2",
            "offset": 0,
            "slot": "1",
            "type": "t_uint256"
          },
          {
            "astId": 50881,
            "contract": "contracts/core/TenderFactory.sol:TenderFactory",
            "label": "estimatedValueMin",
            "offset": 0,
            "slot": "2",
            "type": "t_uint256"
          },
          {
            "astId": 50883,
            "contract": "contracts/core/TenderFactory.sol:TenderFactory",
            "label": "estimatedValueMax",
            "offset": 0,
            "slot": "3",
            "type": "t_uint256"
          },
          {
            "astId": 50885,
            "contract": "contracts/core/TenderFactory.sol:TenderFactory",
            "label": "boqReference",
            "offset": 0,
            "slot": "4",
            "type": "t_string_storage"
          },
          {
            "astId": 50887,
            "contract": "contracts/core/TenderFactory.sol:TenderFactory",
            "label": "standardsReference",
            "offset": 0,
            "slot": "5",
            "type": "t_string_storage"
          },
          {
            "astId": 50889,
            "contract": "contracts/core/TenderFactory.sol:TenderFactory",
            "label": "completionDays",
            "offset": 0,
            "slot": "6",
            "type": "t_uint256"
          },
          {
            "astId": 50891,
            "contract": "contracts/core/TenderFactory.sol:TenderFactory",
            "label": "liquidatedDamages",
            "offset": 0,
            "slot": "7",
            "type": "t_uint256"
          }
        ],
        "numberOfBytes": "256"
      },
      "t_uint256": {
        "encoding": "inplace",
        "label": "uint256",
        "numberOfBytes": "32"
      },
      "t_uint32": {
        "encoding": "inplace",
        "label": "uint32",
        "numberOfBytes": "4"
      },
      "t_uint64": {
        "encoding": "inplace",
        "label": "uint64",
        "numberOfBytes": "8"
      }
    }
  }
}