{
  "address": "0x694b12efB7c4E5cdCE41B6273Fce1E80137c6d52",
  "abi": [
    {
      "inputs": [
        {
          "internalType": "address",
          "name": "_registry",
          "type": "address"
        },
        {
          "internalType": "address",
          "name": "_escrow",
          "type": "address"
        }
      ],
      "stateMutability": "nonpayable",
      "type": "constructor"
    },
    {
      "inputs": [
        {
          "internalType": "address",
          "name": "owner",
          "type": "address"
        }
      ],
      "name": "OwnableInvalidOwner",
      "type": "error"
    },
    {
      "inputs": [
        {
          "internalType": "address",
          "name": "account",
          "type": "address"
        }
      ],
      "name": "OwnableUnauthorizedAccount",
      "type": "error"
    },
    {
      "inputs": [],
      "name": "ZeroAddress",
      "type": "error"
    },
    {
      "anonymous": false,
      "inputs": [
        {
          "indexed": true,
          "internalType": "address",
          "name": "cd",
          "type": "address"
        }
      ],
      "name": "CollisionDetectorSet",
      "type": "event"
    },
    {
      "anonymous": false,
      "inputs": [
        {
          "indexed": true,
          "internalType": "address",
          "name": "dm",
          "type": "address"
        }
      ],
      "name": "DisputeManagerSet",
      "type": "event"
    },
    {
      "anonymous": false,
      "inputs": [
        {
          "indexed": true,
          "internalType": "address",
          "name": "esc",
          "type": "address"
        }
      ],
      "name": "EscalationSet",
      "type": "event"
    },
    {
      "anonymous": false,
      "inputs": [
        {
          "indexed": true,
          "internalType": "address",
          "name": "previousOwner",
          "type": "address"
        },
        {
          "indexed": true,
          "internalType": "address",
          "name": "newOwner",
          "type": "address"
        }
      ],
      "name": "OwnershipTransferStarted",
      "type": "event"
    },
    {
      "anonymous": false,
      "inputs": [
        {
          "indexed": true,
          "internalType": "address",
          "name": "previousOwner",
          "type": "address"
        },
        {
          "indexed": true,
          "internalType": "address",
          "name": "newOwner",
          "type": "address"
        }
      ],
      "name": "OwnershipTransferred",
      "type": "event"
    },
    {
      "anonymous": false,
      "inputs": [
        {
          "indexed": true,
          "internalType": "uint256",
          "name": "tenderId",
          "type": "uint256"
        },
        {
          "indexed": false,
          "internalType": "address",
          "name": "tenderContract",
          "type": "address"
        },
        {
          "indexed": false,
          "internalType": "string",
          "name": "description",
          "type": "string"
        }
      ],
      "name": "TenderCreated",
      "type": "event"
    },
    {
      "inputs": [],
      "name": "acceptOwnership",
      "outputs": [],
      "stateMutability": "nonpayable",
      "type": "function"
    },
    {
      "inputs": [],
      "name": "collisionDetector",
      "outputs": [
        {
          "internalType": "address",
          "name": "",
          "type": "address"
        }
      ],
      "stateMutability": "view",
      "type": "function"
    },
    {
      "inputs": [
        {
          "components": [
            {
              "internalType": "string",
              "name": "description",
              "type": "string"
            },
            {
              "internalType": "uint256",
              "name": "deadline",
              "type": "uint256"
            },
            {
              "internalType": "uint32",
              "name": "weightYears",
              "type": "uint32"
            },
            {
              "internalType": "uint32",
              "name": "weightProjects",
              "type": "uint32"
            },
            {
              "internalType": "uint32",
              "name": "weightBond",
              "type": "uint32"
            },
            {
              "internalType": "uint32",
              "name": "minYears",
              "type": "uint32"
            },
            {
              "internalType": "uint32",
              "name": "minProjects",
              "type": "uint32"
            },
            {
              "internalType": "uint64",
              "name": "minBond",
              "type": "uint64"
            },
            {
              "internalType": "uint256",
              "name": "escrowAmount",
              "type": "uint256"
            },
            {
              "internalType": "uint256",
              "name": "maxBidders",
              "type": "uint256"
            },
            {
              "internalType": "uint256",
              "name": "minReputation",
              "type": "uint256"
            }
          ],
          "internalType": "struct TenderConfig",
          "name": "_config",
          "type": "tuple"
        },
        {
          "components": [
            {
              "internalType": "string",
              "name": "category",
              "type": "string"
            },
            {
              "internalType": "uint256",
              "name": "totalAreaM2",
              "type": "uint256"
            },
            {
              "internalType": "uint256",
              "name": "estimatedValueMin",
              "type": "uint256"
            },
            {
              "internalType": "uint256",
              "name": "estimatedValueMax",
              "type": "uint256"
            },
            {
              "internalType": "string",
              "name": "boqReference",
              "type": "string"
            },
            {
              "internalType": "string",
              "name": "standardsReference",
              "type": "string"
            },
            {
              "internalType": "uint256",
              "name": "completionDays",
              "type": "uint256"
            },
            {
              "internalType": "uint256",
              "name": "liquidatedDamages",
              "type": "uint256"
            }
          ],
          "internalType": "struct TenderSpecification",
          "name": "_spec",
          "type": "tuple"
        }
      ],
      "name": "createTender",
      "outputs": [
        {
          "internalType": "uint256",
          "name": "tenderId",
          "type": "uint256"
        },
        {
          "internalType": "address",
          "name": "tenderAddress",
          "type": "address"
        }
      ],
      "stateMutability": "nonpayable",
      "type": "function"
    },
    {
      "inputs": [],
      "name": "disputeManager",
      "outputs": [
        {
          "internalType": "address",
          "name": "",
          "type": "address"
        }
      ],
      "stateMutability": "view",
      "type": "function"
    },
    {
      "inputs": [],
      "name": "escalation",
      "outputs": [
        {
          "internalType": "address",
          "name": "",
          "type": "address"
        }
      ],
      "stateMutability": "view",
      "type": "function"
    },
    {
      "inputs": [],
      "name": "escrow",
      "outputs": [
        {
          "internalType": "address",
          "name": "",
          "type": "address"
        }
      ],
      "stateMutability": "view",
      "type": "function"
    },
    {
      "inputs": [],
      "name": "getAllTenders",
      "outputs": [
        {
          "internalType": "address[]",
          "name": "",
          "type": "address[]"
        }
      ],
      "stateMutability": "view",
      "type": "function"
    },
    {
      "inputs": [
        {
          "internalType": "uint256",
          "name": "id",
          "type": "uint256"
        }
      ],
      "name": "getTender",
      "outputs": [
        {
          "internalType": "address",
          "name": "",
          "type": "address"
        }
      ],
      "stateMutability": "view",
      "type": "function"
    },
    {
      "inputs": [
        {
          "internalType": "uint256",
          "name": "id",
          "type": "uint256"
        }
      ],
      "name": "getTenderConfig",
      "outputs": [
        {
          "components": [
            {
              "internalType": "string",
              "name": "description",
              "type": "string"
            },
            {
              "internalType": "uint256",
              "name": "deadline",
              "type": "uint256"
            },
            {
              "internalType": "uint32",
              "name": "weightYears",
              "type": "uint32"
            },
            {
              "internalType": "uint32",
              "name": "weightProjects",
              "type": "uint32"
            },
            {
              "internalType": "uint32",
              "name": "weightBond",
              "type": "uint32"
            },
            {
              "internalType": "uint32",
              "name": "minYears",
              "type": "uint32"
            },
            {
              "internalType": "uint32",
              "name": "minProjects",
              "type": "uint32"
            },
            {
              "internalType": "uint64",
              "name": "minBond",
              "type": "uint64"
            },
            {
              "internalType": "uint256",
              "name": "escrowAmount",
              "type": "uint256"
            },
            {
              "internalType": "uint256",
              "name": "maxBidders",
              "type": "uint256"
            },
            {
              "internalType": "uint256",
              "name": "minReputation",
              "type": "uint256"
            }
          ],
          "internalType": "struct TenderConfig",
          "name": "",
          "type": "tuple"
        }
      ],
      "stateMutability": "view",
      "type": "function"
    },
    {
      "inputs": [
        {
          "internalType": "uint256",
          "name": "id",
          "type": "uint256"
        }
      ],
      "name": "getTenderSpec",
      "outputs": [
        {
          "components": [
            {
              "internalType": "string",
              "name": "category",
              "type": "string"
            },
            {
              "internalType": "uint256",
              "name": "totalAreaM2",
              "type": "uint256"
            },
            {
              "internalType": "uint256",
              "name": "estimatedValueMin",
              "type": "uint256"
            },
            {
              "internalType": "uint256",
              "name": "estimatedValueMax",
              "type": "uint256"
            },
            {
              "internalType": "string",
              "name": "boqReference",
              "type": "string"
            },
            {
              "internalType": "string",
              "name": "standardsReference",
              "type": "string"
            },
            {
              "internalType": "uint256",
              "name": "completionDays",
              "type": "uint256"
            },
            {
              "internalType": "uint256",
              "name": "liquidatedDamages",
              "type": "uint256"
            }
          ],
          "internalType": "struct TenderSpecification",
          "name": "",
          "type": "tuple"
        }
      ],
      "stateMutability": "view",
      "type": "function"
    },
    {
      "inputs": [
        {
          "internalType": "uint256",
          "name": "offset",
          "type": "uint256"
        },
        {
          "internalType": "uint256",
          "name": "limit",
          "type": "uint256"
        }
      ],
      "name": "getTenders",
      "outputs": [
        {
          "internalType": "address[]",
          "name": "",
          "type": "address[]"
        }
      ],
      "stateMutability": "view",
      "type": "function"
    },
    {
      "inputs": [],
      "name": "owner",
      "outputs": [
        {
          "internalType": "address",
          "name": "",
          "type": "address"
        }
      ],
      "stateMutability": "view",
      "type": "function"
    },
    {
      "inputs": [],
      "name": "pendingOwner",
      "outputs": [
        {
          "internalType": "address",
          "name": "",
          "type": "address"
        }
      ],
      "stateMutability": "view",
      "type": "function"
    },
    {
      "inputs": [],
      "name": "registry",
      "outputs": [
        {
          "internalType": "address",
          "name": "",
          "type": "address"
        }
      ],
      "stateMutability": "view",
      "type": "function"
    },
    {
      "inputs": [],
      "name": "renounceOwnership",
      "outputs": [],
      "stateMutability": "nonpayable",
      "type": "function"
    },
    {
      "inputs": [
        {
          "internalType": "address",
          "name": "_cd",
          "type": "address"
        }
      ],
      "name": "setCollisionDetector",
      "outputs": [],
      "stateMutability": "nonpayable",
      "type": "function"
    },
    {
      "inputs": [
        {
          "internalType": "address",
          "name": "_dm",
          "type": "address"
        }
      ],
      "name": "setDisputeManager",
      "outputs": [],
      "stateMutability": "nonpayable",
      "type": "function"
    },
    {
      "inputs": [
        {
          "internalType": "address",
          "name": "_esc",
          "type": "address"
        }
      ],
      "name": "setEscalation",
      "outputs": [],
      "stateMutability": "nonpayable",
      "type": "function"
    },
    {
      "inputs": [
        {
          "internalType": "uint256",
          "name": "",
          "type": "uint256"
        }
      ],
      "name": "tenderConfigs",
      "outputs": [
        {
          "internalType": "string",
          "name": "description",
          "type": "string"
        },
        {
          "internalType": "uint256",
          "name": "deadline",
          "type": "uint256"
        },
        {
          "internalType": "uint32",
          "name": "weightYears",
          "type": "uint32"
        },
        {
          "internalType": "uint32",
          "name": "weightProjects",
          "type": "uint32"
        },
        {
          "internalType": "uint32",
          "name": "weightBond",
          "type": "uint32"
        },
        {
          "internalType": "uint32",
          "name": "minYears",
          "type": "uint32"
        },
        {
          "internalType": "uint32",
          "name": "minProjects",
          "type": "uint32"
        },
        {
          "internalType": "uint64",
          "name": "minBond",
          "type": "uint64"
        },
        {
          "internalType": "uint256",
          "name": "escrowAmount",
          "type": "uint256"
        },
        {
          "internalType": "uint256",
          "name": "maxBidders",
          "type": "uint256"
        },
        {
          "internalType": "uint256",
          "name": "minReputation",
          "type": "uint256"
        }
      ],
      "stateMutability": "view",
      "type": "function"
    },
    {
      "inputs": [],
      "name": "tenderCount",
      "outputs": [
        {
          "internalType": "uint256",
          "name": "",
          "type": "uint256"
        }
      ],
      "stateMutability": "view",
      "type": "function"
    },
    {
      "inputs": [
        {
          "internalType": "uint256",
          "name": "",
          "type": "uint256"
        }
      ],
      "name": "tenderSpecs",
      "outputs": [
        {
          "internalType": "string",
          "name": "category",
          "type": "string"
        },
        {
          "internalType": "uint256",
          "name": "totalAreaM2",
          "type": "uint256"
        },
        {
          "internalType": "uint256",
          "name": "estimatedValueMin",
          "type": "uint256"
        },
        {
          "internalType": "uint256",
          "name": "estimatedValueMax",
          "type": "uint256"
        },
        {
          "internalType": "string",
          "name": "boqReference",
          "type": "string"
        },
        {
          "internalType": "string",
          "name": "standardsReference",
          "type": "string"
        },
        {
          "internalType": "uint256",
          "name": "completionDays",
          "type": "uint256"
        },
        {
          "internalType": "uint256",
          "name": "liquidatedDamages",
          "type": "uint256"
        }
      ],
      "stateMutability": "view",
      "type": "function"
    },
    {
      "inputs": [
        {
          "internalType": "uint256",
          "name": "",
          "type": "uint256"
        }
      ],
      "name": "tenders",
      "outputs": [
        {
          "internalType": "address",
          "name": "",
          "type": "address"
        }
      ],
      "stateMutability": "view",
      "type": "function"
    },
    {
      "inputs": [
        {
          "internalType": "address",
          "name": "newOwner",
          "type": "address"
        }
      ],
      "name": "transferOwnership",
      "outputs": [],
      "stateMutability": "nonpayable",
      "type": "function"
    }
  ],
  "transactionHash": "0xbe0a48511fe2b4ab57141d1a9e5550743c6a7c2855372b00d0f58b5972943428",
  "args": [
    "0x32F74a5C2D10e2C24f0E1fDB4C458403678CCc7b",
    "0xC080244d26B0Ffd2CFBeB3e166ABe1186DDC5447"
  ],
  "numDeployments": 1,
  "solcInputHash": "25e8712f2268d607f0bbd0bd78d6e365",
  "bytecode": "0x60803461012957601f61514338819003918201601f19168301916001600160401b0383118484101761012d57808492604094855283398101031261012957610052602061004b83610141565b9201610141565b331561011657600180546001600160a01b03199081169091555f805433928116831782556040519492916001600160a01b03909116907f8be0079c531659141344cd1fd0a4f28419497f9722a3daafe3b4186f6b6457e09080a36001600160a01b031680158015610105575b6100f65760018060a01b0319600254161760025560018060a01b031660018060a01b03196003541617600355614fed90816101568239f35b63d92e233d60e01b5f5260045ffd5b506001600160a01b038216156100be565b631e4fbdf760e01b5f525f60045260245ffd5b5f80fd5b634e487b7160e01b5f52604160045260245ffd5b51906001600160a01b03821682036101295756fe6080806040526004361015610012575f80fd5b5f905f3560e01c9081630585c25e1461158f575080631dfd9542146115615780631f058776146115445780632358c046146114e25780632958bacd146114685780633427bcee1461093957806339a8a5211461088157806339e3a1ac14610814578063465e1def146107e15780636786bdb814610699578063715018a61461063057806379ba5097146105a75780637b103999146105805780638da5cb5b1461055a578063aa9a8dd9146104de578063c46749ac14610409578063d15cba6c14610256578063d896863c1461022f578063e2fdcc1714610208578063e30c3978146101e1578063ecd375cf146101ba578063f2fde38b146101445763f544c3a61461011b575f80fd5b3461014157806003193601126101415760206001600160a01b0360045416604051908152f35b80fd5b5034610141576020366003190112610141576004356001600160a01b0381168091036101b65761017261191b565b806001600160a01b031960015416176001556001600160a01b038254167f38d16b8cac22d99fc7c124b9cd0de2d3fa1faef420bfe791d8c362d765e227008380a380f35b5080fd5b503461014157806003193601126101415760206001600160a01b0360055416604051908152f35b503461014157806003193601126101415760206001600160a01b0360015416604051908152f35b503461014157806003193601126101415760206001600160a01b0360035416604051908152f35b503461014157806003193601126101415760206001600160a01b0360065416604051908152f35b5034610141576020366003190112610141578060405161027581611655565b606081528160208201528160408201528160608201528160808201528160a08201528160c08201528160e08201528161010082015281610120820152610140015260043581526009602052604090206040516102d081611655565b6102d982611694565b81526001820154602082019081526002830154604083019363ffffffff8216855260608401918060201c63ffffffff16835260808501908060401c63ffffffff16825260a086018160601c63ffffffff16815260c08701908260801c63ffffffff16825260e088019260a01c67ffffffffffffffff16835260038501549361010089019485526004860154956101208a0196875260050154966101408a019788526040519a8b9a60208c525160208c0161016090526101808c0161039c91611734565b995160408c01525163ffffffff1660608b01525163ffffffff1660808a01525163ffffffff1660a08901525163ffffffff1660c08801525163ffffffff1660e08701525167ffffffffffffffff166101008601525161012085015251610140840152516101608301520390f35b503461014157602036600319011261014157604061047191600435815260096020522061043581611694565b90600181015490600281015490600381015467ffffffffffffffff60056004840154930154936040519788976101608952610160890190611734565b95602088015263ffffffff8116604088015263ffffffff8160201c16606088015263ffffffff8160401c16608088015263ffffffff8160601c1660a088015263ffffffff8160801c1660c088015260a01c1660e08601526101008501526101208401526101408301520390f35b5034610141576020366003190112610141576004356001600160a01b0381168091036101b65761050c61191b565b801561054b57806001600160a01b031960055416176005557f5b14da01b2a9c329650e71e3780f6c3c2e7c73d05449a244b815173c2031cd618280a280f35b63d92e233d60e01b8252600482fd5b50346101415780600319360112610141576001600160a01b036020915416604051908152f35b503461014157806003193601126101415760206001600160a01b0360025416604051908152f35b5034610141578060031936011261014157336001600160a01b03600154160361061d576001600160a01b0319600154166001558054336001600160a01b031982161782556001600160a01b033391167f8be0079c531659141344cd1fd0a4f28419497f9722a3daafe3b4186f6b6457e08380a380f35b63118cdaa760e01b815233600452602490fd5b503461014157806003193601126101415761064961191b565b6001600160a01b031960015416600155806001600160a01b0381546001600160a01b031981168355167f8be0079c531659141344cd1fd0a4f28419497f9722a3daafe3b4186f6b6457e08280a380f35b5034610141576020366003190112610141576040816107979260e083516106bf81611638565b60608152826020820152828582015282606082015260606080820152606060a08201528260c082015201526004358152600a602052206040519061070282611638565b61070b81611694565b82526001810154602083019081526107cf600283015491604085019283526107bc6003850154916060870192835261074560048701611694565b6080880190815261075860058801611694565b9360a08901948552600760068901549860c08b01998a5201549660e08a019788526040519a8b9a60208c525161010060208d01526101208c0190611734565b935160408b01525160608a015251608089015251878203601f190160a0890152611734565b9051858203601f190160c0870152611734565b915160e0840152516101008301520390f35b5034610141576020366003190112610141576001600160a01b036040602092600435815260088452205416604051908152f35b5034610141576020366003190112610141576004356001600160a01b0381168091036101b65761084261191b565b801561054b57806001600160a01b031960065416176006557f89c99e5b3f2af832fc4e00511a34bb74f6c142dbeb87076a3b282d399f0caceb8280a280f35b50346101415760203660031901126101415760406108ff916004358152600a602052206108ad81611694565b90600181015461092a60028301549161091c6003850154916108d160048701611694565b6108dd60058801611694565b9360076006890154980154966040519a8b9a6101008c526101008c0190611734565b9360208b015260408a015260608901528782036080890152611734565b9085820360a0870152611734565b9160c084015260e08301520390f35b50346110aa5760403660031901126110aa5767ffffffffffffffff600435116110aa57610160600435360360031901126110aa5767ffffffffffffffff602435116110aa57610100602435360360031901126110aa5761099761191b565b42602460043501351115611423576101246004350135156113de576007545f1981146113ca57600181016007556001600160a01b03600254166001600160a01b03600354166040519161367691838381011067ffffffffffffffff84860111176111705782611942853983830185815260a0602090910152610a37610a20600480350180611874565b61016060a0878901015261020086880101916118a6565b916024600435013560c0858701015263ffffffff610a596044600435016118c6565b1660e0858701015263ffffffff610a746064600435016118c6565b16610100858701015263ffffffff610a906084600435016118c6565b16610120858701015263ffffffff610aac60a4600435016118c6565b16610140858701015263ffffffff610ac860c4600435016118c6565b16858501610160015260043560e4013567ffffffffffffffff811690036110aa576004803560e481013567ffffffffffffffff168688016101808101919091526101048201356101a08201526101248201356101c0820152610144909101356101e082015280850360409091015285946080929091610bc890610ba690610b6790610b57906024350180611874565b6101008a526101008a01916118a6565b602480359081013560208a0152604481013560408a0152606481013560608a0152610b99906084810190600401611874565b90898303888b01526118a6565b610bba60a460243501602435600401611874565b9088830360a08a01526118a6565b9460c4602435013560c082015260e060e46024350135910152606082870101528401015203905ff091821561109f575f82815260086020908152604080832080546001600160a01b0319166001600160a01b03881617905560099091529020610c356004803501806118d7565b9067ffffffffffffffff8211611170578190610c518454611600565b601f811161137a575b505f90601f8311600114611313575f92611308575b50508160011b915f199060031b1c19161781555b6024600435013560018201556002810163ffffffff610ca660446004350161190a565b16815467ffffffff00000000610cc060646004350161190a565b60201b167fffffffff0000000000000000ffffffffffffffffffffffffffffffffffffffff6bffffffff0000000000000000610d0060846004350161190a565b60401b167fffffffffffffffffffffffff00000000ffffffffffffffffffffffffffffffff6fffffffff000000000000000000000000610d4460a46004350161190a565b60601b169373ffffffff00000000000000000000000000000000610d6c60c46004350161190a565b60801b16957bffffffffffffffff000000000000000000000000000000000000000060e4600435013560a01b16976fffffffff00000000000000000000000019916bffffffffffffffffffffffff19161716171617161717179055610104600435013560038201556101246004350135600482015560056101446004350135910155815f52600a60205260405f20610e0e6024356004016024356004016118d7565b9067ffffffffffffffff8211611170578190610e2a8454611600565b601f81116112b8575b505f90601f8311600114611251575f92611246575b50508160011b915f199060031b1c19161781555b602480350135600182015560446024350135600282015560646024350135600382015560048101610e976084602435016024356004016118d7565b9067ffffffffffffffff8211611170578190610eb38454611600565b601f81116111f6575b505f90601f831160011461118f575f92611184575b50508160011b915f199060031b1c19161790555b60058101610efd60a4602435016024356004016118d7565b9067ffffffffffffffff8211611170578190610f198454611600565b601f8111611120575b505f90601f83116001146110b9575f926110ae575b50508160011b915f199060031b1c19161790555b60c460243501356006820155600760e46024350135910155610104600435013561103d575b6001600160a01b0360025416803b156101b6578180916024604051809481936309d0aaf560e11b83526001600160a01b038a1660048401525af180156110325761101d575b6040836001600160a01b0386827f288fb350e32a29a301bcf9c6db5b3291bd98bb776a3471eaa26c72f03968f8c8610ff16004803501806118d7565b61100d885192839288881684528a60208501528a8401916118a6565b0390a28351928352166020820152f35b611028828092611672565b6101415780610fb5565b6040513d84823e3d90fd5b6001600160a01b0360035416803b156110aa575f80916044604051809481936306902a7560e51b8352886004840152610104600435013560248401525af1801561109f5761108c575b50610f70565b61109891505f90611672565b5f5f611086565b6040513d5f823e3d90fd5b5f80fd5b013590505f80610f37565b909150601f19831691845f5260205f20925f5b81811061110857509084600195949392106110ef575b505050811b019055610f4b565b01355f19600384901b60f8161c191690555f80806110e2565b919360206001819287870135815501950192016110cc565b909150835f5260205f20601f840160051c81019160208510611166575b90601f859493920160051c01905b8181106111585750610f22565b5f815584935060010161114b565b909150819061113d565b634e487b7160e01b5f52604160045260245ffd5b013590505f80610ed1565b909150601f19831691845f5260205f20925f5b8181106111de57509084600195949392106111c5575b505050811b019055610ee5565b01355f19600384901b60f8161c191690555f80806111b8565b919360206001819287870135815501950192016111a2565b909150835f5260205f20601f840160051c8101916020851061123c575b90601f859493920160051c01905b81811061122e5750610ebc565b5f8155849350600101611221565b9091508190611213565b013590505f80610e48565b909150601f19831691845f5260205f20925f5b8181106112a05750908460019594939210611287575b505050811b018155610e5c565b01355f19600384901b60f8161c191690555f808061127a565b91936020600181928787013581550195019201611264565b909150835f5260205f20601f840160051c810191602085106112fe575b90601f859493920160051c01905b8181106112f05750610e33565b5f81558493506001016112e3565b90915081906112d5565b013590505f80610c6f565b909150601f19831691845f5260205f20925f5b8181106113625750908460019594939210611349575b505050811b018155610c83565b01355f19600384901b60f8161c191690555f808061133c565b91936020600181928787013581550195019201611326565b909150835f5260205f20601f840160051c810191602085106113c0575b90601f859493920160051c01905b8181106113b25750610c5a565b5f81558493506001016113a5565b9091508190611397565b634e487b7160e01b5f52601160045260245ffd5b60405162461bcd60e51b815260206004820152601c60248201527f4d75737420616c6c6f77206174206c65617374203120626964646572000000006044820152606490fd5b60405162461bcd60e51b815260206004820152601760248201527f446561646c696e65206d757374206265206675747572650000000000000000006044820152606490fd5b346110aa5760203660031901126110aa576004356001600160a01b0381168091036110aa5761149561191b565b80156114d357806001600160a01b031960045416176004557fdf8de300df2571e3e5b73ac7717085c16611dbf5d06d79338e14259dfa31eefc5f80a2005b63d92e233d60e01b5f5260045ffd5b346110aa575f3660031901126110aa576007546114fe81611770565b905f5b81811061151a576040518061151685826115be565b0390f35b806001915f5260086020526001600160a01b0360405f20541661153d82866117af565b5201611501565b346110aa575f3660031901126110aa576020600754604051908152f35b346110aa5760403660031901126110aa576115166115836024356004356117d7565b604051918291826115be565b346110aa5760203660031901126110aa576020906004355f52600882526001600160a01b0360405f2054168152f35b60206040818301928281528451809452019201905f5b8181106115e15750505090565b82516001600160a01b03168452602093840193909201916001016115d4565b90600182811c9216801561162e575b602083101461161a57565b634e487b7160e01b5f52602260045260245ffd5b91607f169161160f565b610100810190811067ffffffffffffffff82111761117057604052565b610160810190811067ffffffffffffffff82111761117057604052565b90601f8019910116810190811067ffffffffffffffff82111761117057604052565b9060405191825f8254926116a784611600565b808452936001811690811561171257506001146116ce575b506116cc92500383611672565b565b90505f9291925260205f20905f915b8183106116f65750509060206116cc928201015f6116bf565b60209193508060019154838589010152019101909184926116dd565b9050602092506116cc94915060ff191682840152151560051b8201015f6116bf565b805180835260209291819084018484015e5f828201840152601f01601f1916010190565b67ffffffffffffffff81116111705760051b60200190565b9061177a82611758565b6117876040519182611672565b8281528092611798601f1991611758565b0190602036910137565b919082018092116113ca57565b80518210156117c35760209160051b010190565b634e487b7160e01b5f52603260045260245ffd5b91906007549081841015611858576117ef90846117a2565b90808211611850575b508281039081116113ca5761180c81611770565b905f5b81811061181d575090925050565b8061182a600192876117a2565b5f5260086020526001600160a01b0360405f20541661184982866117af565b520161180f565b90505f6117f8565b5050905060405161186a602082611672565b5f81525f36813790565b9035601e19823603018112156110aa57016020813591019167ffffffffffffffff82116110aa5781360383136110aa57565b908060209392818452848401375f828201840152601f01601f1916010190565b359063ffffffff821682036110aa57565b903590601e19813603018212156110aa570180359067ffffffffffffffff82116110aa576020019181360383136110aa57565b3563ffffffff811681036110aa5790565b6001600160a01b035f5416330361192e57565b63118cdaa760e01b5f523360045260245ffdfe608060405234610bf757613676803803908161001a81610c1a565b91823960a0818381010312610bf757805160208201519092906001600160401b038111610bf7578201610160818385010312610bf7576040519061016082016001600160401b038111838210176107985760405280516001600160401b038111610bf75761008d90848601908301610c3f565b8252602081015160208301526100a560408201610c90565b60408301526100b660608201610c90565b60608301526100c760808201610c90565b60808301526100d860a08201610c90565b60a08301526100e960c08201610c90565b60c083015260e0810151906001600160401b0382168203610bf7576101409160e0840152610100810151610100840152610120810151610120840152015161014082015260408301519160018060401b038311610bf7576101008385018286010312610bf757604051926001600160401b03610100850190811190851117610798576101008401604052848101516001600160401b038111610bf757610196908387019083880101610c3f565b8452848101602081810151908601526040808201519086015260608082015190860152608001516001600160401b038111610bf7576101dc908387019083880101610c3f565b608085015284810160a00151916001600160401b038311610bf75760e09261020a9187019083880101610c3f565b60a0850152840160c08181015190850152015160e083015261023a608061023360608601610ca1565b9401610ca1565b93610243610cb5565b5046600103610b1357610254610cb5565b5061025d610bfb565b73ca2e8f1f656cd25c01f05d0b243ab1ecd4a8ffb6815273d82385dada1ae3e969447f20a3164f6213100e7560208201527377627828a55156b04ac0dc0eb30467f1a552bb0360408201525b80517f9e7b61f58c47dc699ac88507c4f5bb9f121c03808c5676a8078fe583e464970080546001600160a01b03199081166001600160a01b039384161790915560208301517f9e7b61f58c47dc699ac88507c4f5bb9f121c03808c5676a8078fe583e4649701805483169184169190911790556040909201517f9e7b61f58c47dc699ac88507c4f5bb9f121c03808c5676a8078fe583e4649702805490931691161790553315610b0057600180546001600160a01b03199081169091555f8054339281168317825560405192916001600160a01b03909116907f8be0079c531659141344cd1fd0a4f28419497f9722a3daafe3b4186f6b6457e09080a36020830151421015610abe575061012082015115610a7957600a61012083015111610a435760025580518051906001600160401b03821161079857600354600181811c91168015610a39575b602082101461077a57601f81116109d6575b50602090601f831160011461096d576101409392915f9183610962575b50508160011b915f199060031b1c1916176003555b6020818101516004556040808301516005805460608087015160808089015160a0808b015160c08c015160e08d01516001600160e01b031990981663ffffffff9a909a169990991794909a1b67ffffffff000000001693909317971b6bffffffff000000000000000016969096179690911b6fffffffff00000000000000000000000016959095179290931b63ffffffff60801b16919091179190921b600160a01b600160e01b03161790556101008101516006556101208101516007550151600855805180519093906001600160401b03811161079857600954600181811c91168015610958575b602082101461077a57601f81116108f5575b50602094601f8211600114610892579481929394955f92610887575b50508160011b915f199060031b1c1916176009555b6020820151600a556040820151600b556060820151600c55608082015180519093906001600160401b03811161079857600d54600181811c9116801561087d575b602082101461077a57601f811161081a575b50602094601f82116001146107b7579481929394955f926107ac575b50508160011b915f199060031b1c191617600d555b60a083015180519093906001600160401b03811161079857600e54600181811c9116801561078e575b602082101461077a57601f8111610717575b506020601f82116001146106af57908060e093926001975f926106a4575b50505f19600383901b1c191690861b17600e555b60c0810151600f55015160105560115491838060a01b0316838060a01b031960125416176012556101008360a81b039060081b1690828060a81b03191617176011556040516129a69081610cd08239f35b015190505f8061063f565b601f19821690600e5f52805f20915f5b8181106106ff575091839160019860e096958a95106106e7575b505050811b01600e55610653565b01515f1960f88460031b161c191690555f80806106d9565b9192602060018192868c0151815501940192016106bf565b600e5f527fbb7b4a454dc3493923482f07822329ed19e8244eff582cc204f8554c3620c3fd601f830160051c81019160208410610770575b601f0160051c01905b8181106107655750610621565b5f8155600101610758565b909150819061074f565b634e487b7160e01b5f52602260045260245ffd5b90607f169061060f565b634e487b7160e01b5f52604160045260245ffd5b015190505f806105d1565b601f19821695600d5f52805f20915f5b888110610802575083600195969798106107ea575b505050811b01600d556105e6565b01515f1960f88460031b161c191690555f80806107dc565b919260206001819286850151815501940192016107c7565b600d5f527fd7b6990105719101dabeb77144f2a3385c8033acd3af97e9423a695e81ad1eb5601f830160051c81019160208410610873575b601f0160051c01905b81811061086857506105b5565b5f815560010161085b565b9091508190610852565b90607f16906105a3565b015190505f8061054d565b601f1982169560095f52805f20915f5b8881106108dd575083600195969798106108c5575b505050811b01600955610562565b01515f1960f88460031b161c191690555f80806108b7565b919260206001819286850151815501940192016108a2565b60095f527f6e1540171b6c0c960b71a7020d9f60077f6af931a8bbf590da0223dacf75c7af601f830160051c8101916020841061094e575b601f0160051c01905b8181106109435750610531565b5f8155600101610936565b909150819061092d565b90607f169061051f565b015190505f80610421565b90601f1983169160035f52815f20925f5b8181106109be5750916001939185610140979694106109a6575b505050811b01600355610436565b01515f1960f88460031b161c191690555f8080610998565b9293602060018192878601518155019501930161097e565b60035f527fc2575a0e9e593c00f959f8c92f12db2869c3395a3b0502d05e2516446f71f85b601f840160051c81019160208510610a2f575b601f0160051c01905b818110610a245750610404565b5f8155600101610a17565b9091508190610a0e565b90607f16906103f2565b60405162461bcd60e51b815260206004820152600e60248201526d4d6178203130206269646465727360901b6044820152606490fd5b60405162461bcd60e51b815260206004820152601c60248201527f4d75737420616c6c6f77206174206c65617374203120626964646572000000006044820152606490fd5b62461bcd60e51b815260206004820152601760248201527f446561646c696e65206d757374206265206675747572650000000000000000006044820152606490fd5b631e4fbdf760e01b5f525f60045260245ffd5b4662aa36a703610b7e57610b25610cb5565b50610b2e610bfb565b73f0ffdc93b7e186bc2f8cb3daa75d86d1930a433d81527392c920834ec8941d2c77d188936e1f7a6f49c127602082015273be0e383937d564d7ff0bc3b46c51f0bf8d5c311a60408201526102a9565b46617a6903610be857610b8f610cb5565b50610b98610bfb565b7350157cffd6bbfa2dece204a89ec419c23ef5755d815273e3a9105a3a932253a70f126eb1e3b589c643dd24602082015273901f8942346f7ab3a01f6d7613119bca447bb03060408201526102a9565b6373cac13b60e01b5f5260045ffd5b5f80fd5b60405190606082016001600160401b0381118382101761079857604052565b6040519190601f01601f191682016001600160401b0381118382101761079857604052565b81601f82011215610bf7578051906001600160401b03821161079857610c6e601f8301601f1916602001610c1a565b9282845260208383010111610bf757815f9260208093018386015e8301015290565b519063ffffffff82168203610bf757565b51906001600160a01b0382168203610bf757565b610cbd610bfb565b905f82525f60208301525f604083015256fe6080806040526004361015610012575f80fd5b5f905f3560e01c9081631d2164a114611ae3575080632a1ea0d814611aa557806336e1877814611a885780633f4ba83a14611a1c5780634f429f44146119ff57806351694bf7146119dd57806351830227146119bb5780635c975abb14611996578063715018a61461192f57806379502c551461187757806379ba5097146117f05780637b103999146117c75780637d3a2bdf146117aa5780638456cb591461173a57806384ddc67f146116dc5780638927b030146116ba5780638a828b08146116565780638da5cb5b146116315780639670530814611251578063a69842a714611233578063b07870b514611143578063b366a473146110f0578063c19d93fb146110b0578063c3f909d414610f15578063c5aec3b414610ef7578063cfdbf25414610edb578063cff29dfd14610e98578063d2639dbf14610e57578063d27e9fbf14610959578063e2fdcc1714610932578063e30c39781461090b578063ec49f59e146102d7578063ed7a4e0b146102ad578063f2fde38b146102375763f448c9bc1461019f575f80fd5b346102345780600319360112610234576101fa6101ba611c9c565b600a54600b54610225600c54926102176101d2611d7e565b916101db611e2a565b92600f5496601054966040519a8b9a6101008c526101008c0190611c08565b9360208b015260408a015260608901528782036080890152611c08565b9085820360a0870152611c08565b9160c084015260e08301520390f35b80fd5b5034610234576020366003190112610234576004356001600160a01b0381168091036102a957610265612158565b806001600160a01b031960015416176001556001600160a01b038254167f38d16b8cac22d99fc7c124b9cd0de2d3fa1faef420bfe791d8c362d765e227008380a380f35b5080fd5b503461023457806003193601126102345760206001600160a01b0360195460081c16604051908152f35b5034610234576101003660031901126102345760243567ffffffffffffffff81116102a95761030a903690600401611f98565b9060643567ffffffffffffffff81116109075761032b903690600401611f98565b9260a43567ffffffffffffffff81116109035761034c903690600401611f98565b9260e43567ffffffffffffffff81116108ff5761036d903690600401611f98565b9590936011546001600160a01b038160081c169060405163b9209e3360e01b8152336004820152602081602481865afa908115610885578c916108e0575b50156108d1576004544210156108c25760ff1660068110156108ae5760010361089f576103d66121cd565b601354600754111561089057600654806107f9575b506008549081610770575b505061044c9361043461042c610454979561042461041c6104449761043c9736916120fa565b600435612315565b9b36916120fa565b604435612466565b9636916120fa565b608435612466565b9436916120fa565b60c435612315565b9261045e8161254e565b506104688261256d565b506104728361256d565b5061047c8461254e565b506104873382612586565b5061049233836125ad565b5061049d33846125ad565b506104a83385612586565b503385526015602052604085205460ff1615610648573385526014602052604085205533845260146020526001604085200155338352601460205260026040842001553382526014602052600360408320015533815260146020526005604082200180545f1981146106345760010190553381526014602052426004604083200155338152601460205260056040822001546040519081527f38d8a2d6d9fc3793fc8a3d0bf385e1d5c8b3b01385286a0a351682ad5b05dafb60203392a25b806001600160a01b0360115460081c166040516314dbffdb60e21b8152306004820152602081602481855afa9081156106295783916105fa575b506105a95750f35b803b156105f7578180916024604051809481936399562d5b60e01b83523360048401525af180156105ec576105db5750f35b816105e591611c7a565b6102345780f35b6040513d84823e3d90fd5b50fd5b61061c915060203d602011610622575b6106148183611c7a565b810190612140565b5f6105a1565b503d61060a565b6040513d85823e3d90fd5b634e487b7160e01b83526011600452602483fd5b9392916040519260c084019584871067ffffffffffffffff88111761075c5760059495966040528552602085019283526040850191825260608501908152608085019142835260a086019360018552338852601460205260408820965187555160018701555160028601555160038501555160048401555191015560135468010000000000000000811015610748578060016106e79201601355611fc6565b81549060031b906001600160a01b0333831b921b1916179055338152601560205260408120600160ff198254161790556040514281527f0862512267aa2317caa9475b7e771425e6b897509aade0be0d8fc6f5ce5fdd1860203392a2610567565b634e487b7160e01b82526041600452602482fd5b634e487b7160e01b86526041600452602486fd5b602060249160405192838092631d699f5760e21b82523360048301525afa9081156107ee578b916107b8575b50106107a9575f806103f6565b631899c49760e31b8952600489fd5b90506020813d6020116107e6575b816107d360209383611c7a565b810103126107e257515f61079c565b5f80fd5b3d91506107c6565b6040513d8d823e3d90fd5b6001600160a01b036012541660206002546044604051809481936353a58de160e01b835260048301523360248301525afa908115610885578c91610853575b5010610844575f6103eb565b631e5b15d160e11b8a5260048afd5b90506020813d60201161087d575b8161086e60209383611c7a565b810103126107e257515f610838565b3d9150610861565b6040513d8e823e3d90fd5b6387ba755160e01b8a5260048afd5b63baf3f0f760e01b8a5260048afd5b634e487b7160e01b8b52602160045260248bfd5b63387b2e5560e11b8b5260048bfd5b637ba5ed8960e01b8b5260048bfd5b6108f9915060203d602011610622576106148183611c7a565b5f6103ab565b8780fd5b8580fd5b8380fd5b503461023457806003193601126102345760206001600160a01b0360015416604051908152f35b503461023457806003193601126102345760206001600160a01b0360125416604051908152f35b50346102345761096836611f82565b90610971612158565b6004544210610e48576109826121cd565b60ff601154166006811015610e2257600114610e36575b60ff601154166006811015610e2257600203610e135781811015610e04576013548211610df5576018548103610de65760056109d58284612017565b11610dc55760055f825b848110610a665750505060407f26d02815ae6782248786426a457a21e03a0cb0593a89d556c045c8a524c1c8db91836018558151908152836020820152a1601354809114610a2b575080f35b60207f1374518f939fca0396dae3306eb638e45722cf777ba9f11e4007ddb121a7aadf91600160ff196019541617601955604051908152a180f35b6001600160a01b03610a7782611fc6565b90549060031b1c168652601460205260408620610aab6001820154610aa563ffffffff875460601c16612713565b906121eb565b610ac66002830154610aa563ffffffff885460801c16612713565b9060038301549167ffffffffffffffff875460a01c16926001600160a01b035f5160206129515f395f51905f5254168760405195639cd07acb60e01b87526004870152610d5a57846044818e6020948d60248401525af19384156107ee578b94610d8e575b5090610b4c84610b5293610b579650818115610d7e575b15610d6e576127b0565b9261221d565b61221d565b5f5160206129515f395f51905f5254604051639cd07acb60e01b815267ffffffffffffffff60048201529291906001600160a01b031685610d5a57836044818c6020948b60248401525af1918215610d4f578992610d1a575b610bbc935054906122d3565b9080610bda57600191601655610bd0612677565b6017555b016109df565b60165482908315610d0a575b8015610cf8575b60209060646001600160a01b035f5160206129515f395f51905f525416938b6040519586948593637210768160e01b8552600485015260248401528160448401525af1908115610ced578891610cbb575b50610c8290610c5360019460165490836122d3565b601655610c6563ffffffff8416612713565b60175491818115610caa575b15610c9a575b8215610c8a5761280c565b601755610bd4565b9150610c94612677565b9161280c565b9050610ca4612677565b90610c77565b9050610cb58b612762565b90610c71565b90506020813d8211610ce5575b81610cd560209383611c7a565b810103126107e257516001610c3e565b3d9150610cc8565b6040513d8a823e3d90fd5b506020610d036126c5565b9050610bed565b9050610d146126c5565b90610be6565b91506020833d8211610d47575b81610d3460209383611c7a565b810103126107e257610bbc925191610bb0565b3d9150610d27565b6040513d8b823e3d90fd5b634e487b7160e01b5f52602160045260245ffd5b9050610d786126c5565b906127b0565b9050610d886126c5565b90610b42565b9350906020843d8211610dbd575b81610da960209383611c7a565b810103126107e25792519290610b4c610b2b565b3d9150610d9c565b610dd29060449392612017565b63bb1cb70b60e01b82526004526005602452fd5b6360bd363f60e01b8352600483fd5b63555dc6a760e01b8352600483fd5b63561ce9bb60e01b8352600483fd5b6338e9040160e21b8352600483fd5b634e487b7160e01b84526021600452602484fd5b600260ff196011541617601155610999565b6302eb354360e41b8352600483fd5b5034610234576020366003190112610234576004356001600160a01b0381168091036102a95760408260ff9260209452601584522054166040519015158152f35b503461023457602036600319011261023457600435906013548210156102345760206001600160a01b03610ecb84611fc6565b90549060031b1c16604051908152f35b5034610234578060031936011261023457602060405160058152f35b50346102345780600319360112610234576020601854604051908152f35b5034610234578060031936011261023457604051610f3281611c5d565b606081528160208201528160408201528160608201528160808201528160a08201528160c08201528160e082015281610100820152816101208201526101400152604051610f7f81611c5d565b610f87611ed6565b8152600454906020810191825260055491604082019263ffffffff8116845260608301908060201c63ffffffff16825260808401908060401c63ffffffff16825260a08501908060601c63ffffffff16825260c086018160801c63ffffffff16815260e087019160a01c67ffffffffffffffff168252600654926101008801938452600754946101208901958652600854966101408a019788526040519a8b9a60208c525160208c0161016090526101808c0161104391611c08565b995160408c01525163ffffffff1660608b01525163ffffffff1660808a01525163ffffffff1660a08901525163ffffffff1660c08801525163ffffffff1660e08701525167ffffffffffffffff166101008601525161012085015251610140840152516101608301520390f35b503461023457806003193601126102345760ff601154166040519060068110156110dc57602092508152f35b634e487b7160e01b83526021600452602483fd5b5034610234578060031936011261023457611109612158565b600560ff1960115416176011557f6dab549d473bf407080b23736f49246721b08df4f82506cc8c42584fbc4ac15a6020604051428152a180f35b503461023457806003193601126102345761115c612158565b60ff601954161561120b5760ff601b54166111fc5760175480156111e9575b611184906125cb565b60165480156111d6575b611197906125cb565b7ff8eff52ca535ad18cf9c4db3fa2c74d55e7e001f607f00d83ccd567b3d39b29d604060175480601c5560165480601d5582519182526020820152a180f35b506111976111e26126c5565b905061118e565b506111846111f5612677565b905061117b565b63a89ac15160e01b8152600490fd5b7fff75541e000000000000000000000000000000000000000000000000000000008152600490fd5b50346102345780600319360112610234576020601d54604051908152f35b50346107e25760603660031901126107e25760243560043560443567ffffffffffffffff81116107e257611289903690600401611f98565b9190611293612158565b60ff601b54166115ec576013548210156115a757604051906112b6606083611c7a565b600282526040366020840137601c546112ce83612024565b52601d548251600110156115935761138b6113115f9360209360408701526040519787858a01528960408a01526040895261130a60608a611c7a565b36916120fa565b6001600160a01b037f9e7b61f58c47dc699ac88507c4f5bb9f121c03808c5676a8078fe583e46497025416906040519485809481936378542ead60e01b835260606004840152611379611367606485018c61219a565b8481036003190160248601528d611c08565b83810360031901604485015290611c08565b03925af190811561153b575f91611574575b5015611565576113e37fc6366bab028b8d033cb362cfd1f2f3457ef4e92fc738b6788b90d5a7846367a0916113f16113f99560405193849360408552604085019061219a565b908382036020850152611c08565b0390a1611fc6565b90549060031b1c7fffffffffffffffffffffff0000000000000000000000000000000000000000ff74ffffffffffffffffffffffffffffffffffffffff006019549260081b1691161760195580601a55600160ff19601b541617601b55600360ff1960115416176011556001600160a01b0360115460081c166040516314dbffdb60e21b8152306004820152602081602481855afa90811561153b575f91611546575b506114e5575b5060407feb809d897967fa939dbc54d0504ed47e37b16857dcc7148cd28a526e68d711d8916001600160a01b0360195460081c169082519182526020820152a180f35b6001600160a01b0360195460081c16813b156107e2575f916024839260405194859384926339cda3e560e11b845260048401525af1801561153b57156114a2576115329192505f90611c7a565b5f9060406114a2565b6040513d5f823e3d90fd5b61155f915060203d602011610622576106148183611c7a565b5f61149c565b63cf6c44e960e01b5f5260045ffd5b61158d915060203d602011610622576106148183611c7a565b5f61139d565b634e487b7160e01b5f52603260045260245ffd5b60405162461bcd60e51b815260206004820152601a60248201527f57696e6e657220696e646578206f7574206f6620626f756e64730000000000006044820152606490fd5b60405162461bcd60e51b815260206004820152601060248201527f416c72656164792072657665616c6564000000000000000000000000000000006044820152606490fd5b346107e2575f3660031901126107e25760206001600160a01b035f5416604051908152f35b346107e25761166d61166736611f82565b90612031565b6040518091602082016020835281518091526020604084019201905f5b818110611698575050500390f35b82516001600160a01b031684528594506020938401939092019160010161168a565b346107e2575f3660031901126107e25760206116d461216b565b604051908152f35b346107e2575f3660031901126107e257335f52601460205260c060405f2080549060018101549060028101546003820154906005600484015493015493604051958652602086015260408501526060840152608083015260a0820152f35b346107e2575f3660031901126107e257611752612158565b61175a6121cd565b7401000000000000000000000000000000000000000060ff60a01b1960015416176001557f62e78cea01bee320cd4e420270b5ea74000d11b0c9f74754ebdbfc544b05a2586020604051338152a1005b346107e2575f3660031901126107e2576020601c54604051908152f35b346107e2575f3660031901126107e25760206001600160a01b0360115460081c16604051908152f35b346107e2575f3660031901126107e257336001600160a01b036001541603611864576001600160a01b0319600154166001555f54336001600160a01b03198216175f556001600160a01b033391167f8be0079c531659141344cd1fd0a4f28419497f9722a3daafe3b4186f6b6457e05f80a3005b63118cdaa760e01b5f523360045260245ffd5b346107e2575f3660031901126107e2576118c2611892611ed6565b6004546005546006546007549067ffffffffffffffff600854936040519788976101608952610160890190611c08565b95602088015263ffffffff8116604088015263ffffffff8160201c16606088015263ffffffff8160401c16608088015263ffffffff8160601c1660a088015263ffffffff8160801c1660c088015260a01c1660e08601526101008501526101208401526101408301520390f35b346107e2575f3660031901126107e257611947612158565b6001600160a01b0319600154166001555f6001600160a01b0381546001600160a01b031981168355167f8be0079c531659141344cd1fd0a4f28419497f9722a3daafe3b4186f6b6457e08280a3005b346107e2575f3660031901126107e257602060ff60015460a01c166040519015158152f35b346107e2575f3660031901126107e257602060ff601b54166040519015158152f35b346107e2575f3660031901126107e257602060ff601954166040519015158152f35b346107e2575f3660031901126107e2576020601a54604051908152f35b346107e2575f3660031901126107e257611a34612158565b60015460ff8160a01c1615611a795760ff60a01b19166001557f5db9ee0a495bf2e6ff9c91a7834c1ba4fdd244a5e8aa4e537bd38aeae4b073aa6020604051338152a1005b638dfc202b60e01b5f5260045ffd5b346107e2575f3660031901126107e2576020600254604051908152f35b346107e25760203660031901126107e2576004356001600160a01b0381168091036107e2575f5260146020526020600560405f200154604051908152f35b346107e2575f3660031901126107e25760e081611b005f93611c2c565b6060815282602082015282604082015282606082015260606080820152606060a08201528260c08201520152611bbe604051611b3b81611c2c565b611b43611c9c565b8152600a5460208201908152600b5460408301908152611bf6600c549260608501938452611be3611b72611d7e565b9160808701928352611b82611e2a565b9260a08801938452600f549660c089019788526010549660e08a019788526040519a8b9a60208c525161010060208d01526101208c0190611c08565b935160408b01525160608a015251608089015251878203601f190160a0890152611c08565b9051858203601f190160c0870152611c08565b915160e0840152516101008301520390f35b805180835260209291819084018484015e5f828201840152601f01601f1916010190565b610100810190811067ffffffffffffffff821117611c4957604052565b634e487b7160e01b5f52604160045260245ffd5b610160810190811067ffffffffffffffff821117611c4957604052565b90601f8019910116810190811067ffffffffffffffff821117611c4957604052565b604051905f6009548060011c9160018216918215611d74575b602084108314611d60578386528592908115611d415750600114611ce2575b611ce092500383611c7a565b565b5060095f90815290917f6e1540171b6c0c960b71a7020d9f60077f6af931a8bbf590da0223dacf75c7af5b818310611d25575050906020611ce092820101611cd4565b6020919350806001915483858901015201910190918492611d0d565b60209250611ce094915060ff191682840152151560051b820101611cd4565b634e487b7160e01b5f52602260045260245ffd5b92607f1692611cb5565b604051905f600d548060011c9160018216918215611e20575b602084108314611d60578386528592908115611d415750600114611dc157611ce092500383611c7a565b50600d5f90815290917fd7b6990105719101dabeb77144f2a3385c8033acd3af97e9423a695e81ad1eb55b818310611e04575050906020611ce092820101611cd4565b6020919350806001915483858901015201910190918492611dec565b92607f1692611d97565b604051905f600e548060011c9160018216918215611ecc575b602084108314611d60578386528592908115611d415750600114611e6d57611ce092500383611c7a565b50600e5f90815290917fbb7b4a454dc3493923482f07822329ed19e8244eff582cc204f8554c3620c3fd5b818310611eb0575050906020611ce092820101611cd4565b6020919350806001915483858901015201910190918492611e98565b92607f1692611e43565b604051905f6003548060011c9160018216918215611f78575b602084108314611d60578386528592908115611d415750600114611f1957611ce092500383611c7a565b5060035f90815290917fc2575a0e9e593c00f959f8c92f12db2869c3395a3b0502d05e2516446f71f85b5b818310611f5c575050906020611ce092820101611cd4565b6020919350806001915483858901015201910190918492611f44565b92607f1692611eef565b60409060031901126107e2576004359060243590565b9181601f840112156107e25782359167ffffffffffffffff83116107e257602083818601950101116107e257565b6013548110156115935760135f5260205f2001905f90565b67ffffffffffffffff8111611c495760051b60200190565b9190820180921161200357565b634e487b7160e01b5f52601160045260245ffd5b9190820391821161200357565b8051156115935760200190565b9060135490818310156120df5761205c9161204d849283611ff6565b908082116120d7575b50612017565b61206581611fde565b916120736040519384611c7a565b818352601f1961208283611fde565b013660208501375f5b8281106120985750505090565b6001600160a01b036120b26120ad8385611ff6565b611fc6565b90549060031b1c169084518110156115935760019160208260051b870101520161208b565b90505f612056565b5050506040516120f0602082611c7a565b5f81525f36813790565b92919267ffffffffffffffff8211611c495760405191612124601f8201601f191660200184611c7a565b8294818452818301116107e2578281602093845f960137010152565b908160209103126107e2575180151581036107e25790565b6001600160a01b035f5416330361186457565b4660010361217857600190565b4662aa36a7036121885761271190565b617a694614612195575f90565b5f1990565b90602080835192838152019201905f5b8181106121b75750505090565b82518452602093840193909201916001016121aa565b60ff60015460a01c166121dc57565b63d93c066560e01b5f5260045ffd5b9061220291801561220f575b8115612205576127b0565b90565b9050610d78612677565b50612218612677565b6121f7565b9081156122c2575b80156122af575b60209060646001600160a01b035f5160206129515f395f51905f525416935f604051958694859363d99882d560e01b8552600485015260248401528160448401525af190811561153b575f91612280575090565b90506020813d6020116122a7575b8161229b60209383611c7a565b810103126107e2575190565b3d915061228e565b5060206122bb5f612762565b905061222c565b90506122cd5f612762565b90612225565b9061220292918015612306575b81156122f6575b8261280c579150610c946126c5565b90506123006126c5565b906122e7565b506123105f612762565b6122e0565b81519091901561242e576123656001600160a01b035f5160206129515f395f51905f525416916040519363045fc19560e11b85526004850152336024850152608060448501526084840190611c08565b602091835f8180946005606483015203925af190811561153b575f916123fc575b506001600160a01b037f9e7b61f58c47dc699ac88507c4f5bb9f121c03808c5676a8078fe583e46497005416803b156107e257604051630f8e573b60e21b815260048101839052336024820152905f908290818381604481015b03925af1801561153b576123f2575090565b5f61220291611c7a565b90506020813d602011612426575b8161241760209383611c7a565b810103126107e257515f612386565b3d915061240a565b50801561245d5761243f338261285f565b156124475790565b630276b5d960e01b5f526004523360245260445ffd5b506122026126c5565b815190919015612534576124b66001600160a01b035f5160206129515f395f51905f525416916040519363045fc19560e11b85526004850152336024850152608060448501526084840190611c08565b602091835f8180946004606483015203925af190811561153b575f916123fc57506001600160a01b037f9e7b61f58c47dc699ac88507c4f5bb9f121c03808c5676a8078fe583e46497005416803b156107e257604051630f8e573b60e21b815260048101839052336024820152905f908290818381604481016123e0565b5080156125455761243f338261285f565b50612202612677565b801561255f575b61220230826128df565b506125686126c5565b612555565b801561257d5761220230826128df565b50612568612677565b908115612598575b61220290826128df565b90506122026125a56126c5565b91905061258e565b9081156125be5761220290826128df565b90506122026125a5612677565b60408051916125da8284611c7a565b60018352601f1982013660208501376125f283612024565b526001600160a01b037f9e7b61f58c47dc699ac88507c4f5bb9f121c03808c5676a8078fe583e46497005416803b156107e2578151637d6e912360e11b815260206004820152925f91849182908490829061265190602483019061219a565b03925af190811561266e57506126645750565b5f611ce091611c7a565b513d5f823e3d90fd5b5f5160206129515f395f51905f5254604051639cd07acb60e01b81525f6004820152906001600160a01b0316816044815f602094600460248401525af190811561153b575f91612280575090565b5f5160206129515f395f51905f5254604051639cd07acb60e01b81525f6004820152906001600160a01b0316816044815f602094600560248401525af190811561153b575f91612280575090565b5f5160206129515f395f51905f5254604051639cd07acb60e01b815260048101929092526001600160a01b0316816044815f602094600460248401525af190811561153b575f91612280575090565b5f5160206129515f395f51905f5254604051639cd07acb60e01b815260048101929092526001600160a01b0316816044815f6020948160248401525af190811561153b575f91612280575090565b5f5160206129515f395f51905f5254604051631391547f60e01b8152600481019290925260248201929092525f604482018190529091602091839160649183916001600160a01b03165af190811561153b575f91612280575090565b9060646020925f6001600160a01b035f5160206129515f395f51905f5254166040519687958694637702dcff60e01b86526004860152602485015260448401525af190811561153b575f91612280575090565b7f9e7b61f58c47dc699ac88507c4f5bb9f121c03808c5676a8078fe583e4649700546040516382027b6d60e01b815260048101929092526001600160a01b039283166024830152909160209183916044918391165afa90811561153b575f916128c6575090565b612202915060203d602011610622576106148183611c7a565b6001600160a01b037f9e7b61f58c47dc699ac88507c4f5bb9f121c03808c5676a8078fe583e4649700541691823b156107e257604051635ca4b5b160e11b815260048101929092526001600160a01b03166024820152905f908290604490829084905af1801561153b57612664575056fe9e7b61f58c47dc699ac88507c4f5bb9f121c03808c5676a8078fe583e4649701a2646970667358221220ab5a0d270ab2c9f46fd307e565d510dd4ce00949f77b7a383f43f7191fb6663264736f6c634300081b0033a26469706673582212205c73563e4d1a8f69f3f298c5a517832e29a9815ec36fa06006ceea157997ccb364736f6c634300081b0033",
  "devdoc": {
    "errors": {
      "OwnableInvalidOwner(address)": [
        {
          "details": "The owner is not a valid owner account. (eg. `address(0)`)"
        }
      ],
      "OwnableUnauthorizedAccount(address)": [
        {
          "details": "The caller account is not authorized to perform an operation."
        }
      ]
    },
    "kind": "dev",
    "methods": {
      "acceptOwnership()": {
        "details": "The new owner accepts the ownership transfer."
      },
      "owner()": {
        "details": "Returns the address of the current owner."
      },
      "pendingOwner()": {
        "details": "Returns the address of the pending owner."
      },
      "renounceOwnership()": {
        "details": "Leaves the contract without owner. It will not be possible to call `onlyOwner` functions. Can only be called by the current owner. NOTE: Renouncing ownership will leave the contract without an owner, thereby disabling any functionality that is only available to the owner."
      },
      "transferOwnership(address)": {
        "details": "Starts the ownership transfer of the contract to a new account. Replaces the pending transfer if there is one. Can only be called by the current owner. Setting `newOwner` to the zero address is allowed; this can be used to cancel an initiated ownership transfer."
      }
    },
    "title": "TenderFactory",
    "version": 1
  },
  "userdoc": {
    "kind": "user",
    "methods": {},
    "notice": "Creates and tracks tender instances. Auto-authorizes tenders in registry and escrow.",
    "version": 1
  },
  "storageLayout": {
    "storage": [
      {
        "astId": 43858,
        "contract": "contracts/core/TenderFactory.sol:TenderFactory",
        "label": "_owner",
        "offset": 0,
        "slot": "0",
        "type": "t_address"
      },
      {
        "astId": 44006,
        "contract": "contracts/core/TenderFactory.sol:TenderFactory",
        "label": "_pendingOwner",
        "offset": 0,
        "slot": "1",
        "type": "t_address"
      },
      {
        "astId": 47009,
        "contract": "contracts/core/TenderFactory.sol:TenderFactory",
        "label": "registry",
        "offset": 0,
        "slot": "2",
        "type": "t_address"
      },
      {
        "astId": 47011,
        "contract": "contracts/core/TenderFactory.sol:TenderFactory",
        "label": "escrow",
        "offset": 0,
        "slot": "3",
        "type": "t_address"
      },
      {
        "astId": 47013,
        "contract": "contracts/core/TenderFactory.sol:TenderFactory",
        "label": "disputeManager",
        "offset": 0,
        "slot": "4",
        "type": "t_address"
      },
      {
        "astId": 47015,
        "contract": "contracts/core/TenderFactory.sol:TenderFactory",
        "label": "escalation",
        "offset": 0,
        "slot": "5",
        "type": "t_address"
      },
      {
        "astId": 47017,
        "contract": "contracts/core/TenderFactory.sol:TenderFactory",
        "label": "collisionDetector",
        "offset": 0,
        "slot": "6",
        "type": "t_address"
      },
      {
        "astId": 47019,
        "contract": "contracts/core/TenderFactory.sol:TenderFactory",
        "label": "tenderCount",
        "offset": 0,
        "slot": "7",
        "type": "t_uint256"
      },
      {
        "astId": 47023,
        "contract": "contracts/core/TenderFactory.sol:TenderFactory",
        "label": "tenders",
        "offset": 0,
        "slot": "8",
        "type": "t_mapping(t_uint256,t_address)"
      },
      {
        "astId": 47028,
        "contract": "contracts/core/TenderFactory.sol:TenderFactory",
        "label": "tenderConfigs",
        "offset": 0,
        "slot": "9",
        "type": "t_mapping(t_uint256,t_struct(TenderConfig)47984_storage)"
      },
      {
        "astId": 47033,
        "contract": "contracts/core/TenderFactory.sol:TenderFactory",
        "label": "tenderSpecs",
        "offset": 0,
        "slot": "10",
        "type": "t_mapping(t_uint256,t_struct(TenderSpecification)48001_storage)"
      }
    ],
    "types": {
      "t_address": {
        "encoding": "inplace",
        "label": "address",
        "numberOfBytes": "20"
      },
      "t_mapping(t_uint256,t_address)": {
        "encoding": "mapping",
        "key": "t_uint256",
        "label": "mapping(uint256 => address)",
        "numberOfBytes": "32",
        "value": "t_address"
      },
      "t_mapping(t_uint256,t_struct(TenderConfig)47984_storage)": {
        "encoding": "mapping",
        "key": "t_uint256",
        "label": "mapping(uint256 => struct TenderConfig)",
        "numberOfBytes": "32",
        "value": "t_struct(TenderConfig)47984_storage"
      },
      "t_mapping(t_uint256,t_struct(TenderSpecification)48001_storage)": {
        "encoding": "mapping",
        "key": "t_uint256",
        "label": "mapping(uint256 => struct TenderSpecification)",
        "numberOfBytes": "32",
        "value": "t_struct(TenderSpecification)48001_storage"
      },
      "t_string_storage": {
        "encoding": "bytes",
        "label": "string",
        "numberOfBytes": "32"
      },
      "t_struct(TenderConfig)47984_storage": {
        "encoding": "inplace",
        "label": "struct TenderConfig",
        "members": [
          {
            "astId": 47963,
            "contract": "contracts/core/TenderFactory.sol:TenderFactory",
            "label": "description",
            "offset": 0,
            "slot": "0",
            "type": "t_string_storage"
          },
          {
            "astId": 47965,
            "contract": "contracts/core/TenderFactory.sol:TenderFactory",
            "label": "deadline",
            "offset": 0,
            "slot": "1",
            "type": "t_uint256"
          },
          {
            "astId": 47967,
            "contract": "contracts/core/TenderFactory.sol:TenderFactory",
            "label": "weightYears",
            "offset": 0,
            "slot": "2",
            "type": "t_uint32"
          },
          {
            "astId": 47969,
            "contract": "contracts/core/TenderFactory.sol:TenderFactory",
            "label": "weightProjects",
            "offset": 4,
            "slot": "2",
            "type": "t_uint32"
          },
          {
            "astId": 47971,
            "contract": "contracts/core/TenderFactory.sol:TenderFactory",
            "label": "weightBond",
            "offset": 8,
            "slot": "2",
            "type": "t_uint32"
          },
          {
            "astId": 47973,
            "contract": "contracts/core/TenderFactory.sol:TenderFactory",
            "label": "minYears",
            "offset": 12,
            "slot": "2",
            "type": "t_uint32"
          },
          {
            "astId": 47975,
            "contract": "contracts/core/TenderFactory.sol:TenderFactory",
            "label": "minProjects",
            "offset": 16,
            "slot": "2",
            "type": "t_uint32"
          },
          {
            "astId": 47977,
            "contract": "contracts/core/TenderFactory.sol:TenderFactory",
            "label": "minBond",
            "offset": 20,
            "slot": "2",
            "type": "t_uint64"
          },
          {
            "astId": 47979,
            "contract": "contracts/core/TenderFactory.sol:TenderFactory",
            "label": "escrowAmount",
            "offset": 0,
            "slot": "3",
            "type": "t_uint256"
          },
          {
            "astId": 47981,
            "contract": "contracts/core/TenderFactory.sol:TenderFactory",
            "label": "maxBidders",
            "offset": 0,
            "slot": "4",
            "type": "t_uint256"
          },
          {
            "astId": 47983,
            "contract": "contracts/core/TenderFactory.sol:TenderFactory",
            "label": "minReputation",
            "offset": 0,
            "slot": "5",
            "type": "t_uint256"
          }
        ],
        "numberOfBytes": "192"
      },
      "t_struct(TenderSpecification)48001_storage": {
        "encoding": "inplace",
        "label": "struct TenderSpecification",
        "members": [
          {
            "astId": 47986,
            "contract": "contracts/core/TenderFactory.sol:TenderFactory",
            "label": "category",
            "offset": 0,
            "slot": "0",
            "type": "t_string_storage"
          },
          {
            "astId": 47988,
            "contract": "contracts/core/TenderFactory.sol:TenderFactory",
            "label": "totalAreaM2",
            "offset": 0,
            "slot": "1",
            "type": "t_uint256"
          },
          {
            "astId": 47990,
            "contract": "contracts/core/TenderFactory.sol:TenderFactory",
            "label": "estimatedValueMin",
            "offset": 0,
            "slot": "2",
            "type": "t_uint256"
          },
          {
            "astId": 47992,
            "contract": "contracts/core/TenderFactory.sol:TenderFactory",
            "label": "estimatedValueMax",
            "offset": 0,
            "slot": "3",
            "type": "t_uint256"
          },
          {
            "astId": 47994,
            "contract": "contracts/core/TenderFactory.sol:TenderFactory",
            "label": "boqReference",
            "offset": 0,
            "slot": "4",
            "type": "t_string_storage"
          },
          {
            "astId": 47996,
            "contract": "contracts/core/TenderFactory.sol:TenderFactory",
            "label": "standardsReference",
            "offset": 0,
            "slot": "5",
            "type": "t_string_storage"
          },
          {
            "astId": 47998,
            "contract": "contracts/core/TenderFactory.sol:TenderFactory",
            "label": "completionDays",
            "offset": 0,
            "slot": "6",
            "type": "t_uint256"
          },
          {
            "astId": 48000,
            "contract": "contracts/core/TenderFactory.sol:TenderFactory",
            "label": "liquidatedDamages",
            "offset": 0,
            "slot": "7",
            "type": "t_uint256"
          }
        ],
        "numberOfBytes": "256"
      },
      "t_uint256": {
        "encoding": "inplace",
        "label": "uint256",
        "numberOfBytes": "32"
      },
      "t_uint32": {
        "encoding": "inplace",
        "label": "uint32",
        "numberOfBytes": "4"
      },
      "t_uint64": {
        "encoding": "inplace",
        "label": "uint64",
        "numberOfBytes": "8"
      }
    }
  }
}